-------------
Stopping Bitcoind if it is already running
-------------
Done
-------------
Updating Bitcoind configuration
-------------
Done
-------------
Refreshing & Restarting Bitcoind
-------------
Bitcoin Core starting
Waiting for 5 secs for Bitcoin Demon to Initialize...
-------------
Generating User's Priv-Pub-Addr
-------------
Private Key: cVYGhxJ5EyvvqSULmjELvhnaYE53B7tB64qFTgXRJhNge2fqkdaN
Public Key: 0214814ea818b26333c877d2b650c01a75799ac42758291e9543eb5f269536580f
Address: bcrt1qm6q5ls5ql2rmuydkjr6uq9fqux97tgtuymf35y
-------------
Generating Sentinel's Priv-Pub-Addr
-------------
Private Key: cRLea26fcZQvxJBwP2UD9bSaGnVZmAq4U2qZgYqJ64hrceKKQQpW
Public Key: 02beee9bbdc231c48880ec3f373922260873dd874d33e466c198e9ae22f1b597fc
Address: bcrt1q8c6n3cyepkkp7q55jspkxwuedqrvd09zcj4d0s
-------------
Generating blocks to bootstrap Bitcoin RegTest Blockchain
-------------
Done
-------------
Deposit Tx Redeem Script
-------------
2102beee9bbdc231c48880ec3f373922260873dd874d33e466c198e9ae22f1b597fc210214814ea818b26333c877d2b650c01a75799ac42758291e9543eb5f269536580f00547a547a527152ae
-------------
Checking Deposit Tx Redeem Script
-------------
{
  "asm": "02beee9bbdc231c48880ec3f373922260873dd874d33e466c198e9ae22f1b597fc 0214814ea818b26333c877d2b650c01a75799ac42758291e9543eb5f269536580f 0 4 OP_ROLL 4 OP_ROLL 2 OP_2ROT 2 OP_CHECKMULTISIG",
  "desc": "raw(2102beee9bbdc231c48880ec3f373922260873dd874d33e466c198e9ae22f1b597fc210214814ea818b26333c877d2b650c01a75799ac42758291e9543eb5f269536580f00547a547a527152ae)#6tpylrf4",
  "type": "nonstandard",
  "p2sh": "2NEoGUj56WPDoAtnkf6J4Edm6iv2F5jAceZ",
  "segwit": {
    "asm": "0 b857889589077c5db81ce2eaef6e4610c10e5896616a9907890ea558b1df8b9c",
    "desc": "wsh(raw(2102beee9bbdc231c48880ec3f373922260873dd874d33e466c198e9ae22f1b597fc210214814ea818b26333c877d2b650c01a75799ac42758291e9543eb5f269536580f00547a547a527152ae))#rpdvq3rp",
    "hex": "0020b857889589077c5db81ce2eaef6e4610c10e5896616a9907890ea558b1df8b9c",
    "address": "bcrt1qhptc39vfqa79mwquut4w7mjxzrqsukykv94fjpufp6j43vwl3wwq5jjy7e",
    "type": "witness_v0_scripthash",
    "p2sh-segwit": "2N57VFbu2VjpQAZ3GTwhm8mMYcUMAUgPEhi"
  }
}
-------------
Deposit Tx - Script to Address
-------------
bcrt1qhptc39vfqa79mwquut4w7mjxzrqsukykv94fjpufp6j43vwl3wwq5jjy7e
-------------
Creating Unsigned Deposit Tx
-------------
Done
-------------
Unsigned Deposit Tx
-------------
0200000001507927d9fa78309a3da7d52879752cd6fb6f449f5e70d0d7d0a45f03e9a8e1c00000000000fdffffff01606b042a01000000220020b857889589077c5db81ce2eaef6e4610c10e5896616a9907890ea558b1df8b9c00000000
-------------
Checking Unsigned Deposit Tx
-------------
{
  "txid": "a559f6d771dcced2b6d245e3970c541f9710c95199d65d606a6565e19a61c065",
  "hash": "a559f6d771dcced2b6d245e3970c541f9710c95199d65d606a6565e19a61c065",
  "version": 2,
  "size": 94,
  "vsize": 94,
  "weight": 376,
  "locktime": 0,
  "vin": [
    {
      "txid": "c0e1a8e9035fa4d0d7d0705e9f446ffbd62c757928d5a73d9a3078fad9277950",
      "vout": 0,
      "scriptSig": {
        "asm": "",
        "hex": ""
      },
      "sequence": 4294967293
    }
  ],
  "vout": [
    {
      "value": 49.99900000,
      "n": 0,
      "scriptPubKey": {
        "asm": "0 b857889589077c5db81ce2eaef6e4610c10e5896616a9907890ea558b1df8b9c",
        "desc": "addr(bcrt1qhptc39vfqa79mwquut4w7mjxzrqsukykv94fjpufp6j43vwl3wwq5jjy7e)#rxj5jn2n",
        "hex": "0020b857889589077c5db81ce2eaef6e4610c10e5896616a9907890ea558b1df8b9c",
        "address": "bcrt1qhptc39vfqa79mwquut4w7mjxzrqsukykv94fjpufp6j43vwl3wwq5jjy7e",
        "type": "witness_v0_scripthash"
      }
    }
  ]
}
-------------
Signing the Deposit Tx
-------------
Done
-------------
Signed Deposit Tx
-------------
02000000000101507927d9fa78309a3da7d52879752cd6fb6f449f5e70d0d7d0a45f03e9a8e1c00000000000fdffffff01606b042a01000000220020b857889589077c5db81ce2eaef6e4610c10e5896616a9907890ea558b1df8b9c024730440220145374dd6b857f5a225b2f15d7ac04a951d61aae88bd78592c3015e309f0df1f022005a23bdf71370d37876077776c995001c9d9478a82533f2d77614fd716d84bae01210214814ea818b26333c877d2b650c01a75799ac42758291e9543eb5f269536580f00000000
-------------
Checking Signed Deposit Tx
-------------
{
  "txid": "a559f6d771dcced2b6d245e3970c541f9710c95199d65d606a6565e19a61c065",
  "hash": "ca8bd1bb0582e42cb3d897c5ffd5c5dcfd55855a2c7027a4bfcf876a2b5dbacc",
  "version": 2,
  "size": 203,
  "vsize": 122,
  "weight": 485,
  "locktime": 0,
  "vin": [
    {
      "txid": "c0e1a8e9035fa4d0d7d0705e9f446ffbd62c757928d5a73d9a3078fad9277950",
      "vout": 0,
      "scriptSig": {
        "asm": "",
        "hex": ""
      },
      "txinwitness": [
        "30440220145374dd6b857f5a225b2f15d7ac04a951d61aae88bd78592c3015e309f0df1f022005a23bdf71370d37876077776c995001c9d9478a82533f2d77614fd716d84bae01",
        "0214814ea818b26333c877d2b650c01a75799ac42758291e9543eb5f269536580f"
      ],
      "sequence": 4294967293
    }
  ],
  "vout": [
    {
      "value": 49.99900000,
      "n": 0,
      "scriptPubKey": {
        "asm": "0 b857889589077c5db81ce2eaef6e4610c10e5896616a9907890ea558b1df8b9c",
        "desc": "addr(bcrt1qhptc39vfqa79mwquut4w7mjxzrqsukykv94fjpufp6j43vwl3wwq5jjy7e)#rxj5jn2n",
        "hex": "0020b857889589077c5db81ce2eaef6e4610c10e5896616a9907890ea558b1df8b9c",
        "address": "bcrt1qhptc39vfqa79mwquut4w7mjxzrqsukykv94fjpufp6j43vwl3wwq5jjy7e",
        "type": "witness_v0_scripthash"
      }
    }
  ]
}
-------------
Provsional Tx Redeem Script
-------------
Setting Option 1 (User Private-Key Only) Delay to 1000
Encoded bytes (hex): e803
Setting Option 2 (Sentinel Private-Key Only) Delay to 5000
Encoded bytes (hex): 8813
Hex:
02881302e8032102beee9bbdc231c48880ec3f373922260873dd874d33e466c198e9ae22f1b597fc210214814ea818b26333c877d2b650c01a75799ac42758291e9543eb5f269536580f54795287637b757b757b7500547a547a527152ae67547a6375777b7cadb2755167777b757b7cadb275516868
-------------
Checking Provisional Tx Redeem Script
-------------
{
  "asm": "5000 1000 02beee9bbdc231c48880ec3f373922260873dd874d33e466c198e9ae22f1b597fc 0214814ea818b26333c877d2b650c01a75799ac42758291e9543eb5f269536580f 4 OP_PICK 2 OP_EQUAL OP_IF OP_ROT OP_DROP OP_ROT OP_DROP OP_ROT OP_DROP 0 4 OP_ROLL 4 OP_ROLL 2 OP_2ROT 2 OP_CHECKMULTISIG OP_ELSE 4 OP_ROLL OP_IF OP_DROP OP_NIP OP_ROT OP_SWAP OP_CHECKSIGVERIFY OP_CHECKSEQUENCEVERIFY OP_DROP 1 OP_ELSE OP_NIP OP_ROT OP_DROP OP_ROT OP_SWAP OP_CHECKSIGVERIFY OP_CHECKSEQUENCEVERIFY OP_DROP 1 OP_ENDIF OP_ENDIF",
  "desc": "raw(02881302e8032102beee9bbdc231c48880ec3f373922260873dd874d33e466c198e9ae22f1b597fc210214814ea818b26333c877d2b650c01a75799ac42758291e9543eb5f269536580f54795287637b757b757b7500547a547a527152ae67547a6375777b7cadb2755167777b757b7cadb275516868)#48hca4aj",
  "type": "nonstandard",
  "p2sh": "2N3m7RGDaAWhMDe7oeqMqjw1Nxnkvd9PGnS",
  "segwit": {
    "asm": "0 9e06c85105240f8a05185f234c4ef4b2871b8042f3a0e3452e960c4c7230ae57",
    "desc": "wsh(raw(02881302e8032102beee9bbdc231c48880ec3f373922260873dd874d33e466c198e9ae22f1b597fc210214814ea818b26333c877d2b650c01a75799ac42758291e9543eb5f269536580f54795287637b757b757b7500547a547a527152ae67547a6375777b7cadb2755167777b757b7cadb275516868))#d6qhhna8",
    "hex": "00209e06c85105240f8a05185f234c4ef4b2871b8042f3a0e3452e960c4c7230ae57",
    "address": "bcrt1qncrvs5g9ys8c5pgctu35cnh5k2r3hqzz7wswx3fwjcxycu3s4etsqpna0r",
    "type": "witness_v0_scripthash",
    "p2sh-segwit": "2MsrvT5VC3FAWZKSbveLbmTrqmy5UBEr5zC"
  }
}
-------------
Provisional Tx - Script to Address
-------------
bcrt1qncrvs5g9ys8c5pgctu35cnh5k2r3hqzz7wswx3fwjcxycu3s4etsqpna0r
-------------
Creating Unsigned Provisional Tx
-------------
020000000165c0619ae165656a605dd69951c910971f540c97e345d2b6d2cedc71d7f659a50000000000fdffffff01c0e4022a010000002200209e06c85105240f8a05185f234c4ef4b2871b8042f3a0e3452e960c4c7230ae5700000000
-------------
Checking Unsigned Prov Tx Created by User
-------------
{
  "txid": "0c69110a3f47db0fcab809f9bd85263e22dcd678d3053f4201e810a6ea4c98a9",
  "hash": "0c69110a3f47db0fcab809f9bd85263e22dcd678d3053f4201e810a6ea4c98a9",
  "version": 2,
  "size": 94,
  "vsize": 94,
  "weight": 376,
  "locktime": 0,
  "vin": [
    {
      "txid": "a559f6d771dcced2b6d245e3970c541f9710c95199d65d606a6565e19a61c065",
      "vout": 0,
      "scriptSig": {
        "asm": "",
        "hex": ""
      },
      "sequence": 4294967293
    }
  ],
  "vout": [
    {
      "value": 49.99800000,
      "n": 0,
      "scriptPubKey": {
        "asm": "0 9e06c85105240f8a05185f234c4ef4b2871b8042f3a0e3452e960c4c7230ae57",
        "desc": "addr(bcrt1qncrvs5g9ys8c5pgctu35cnh5k2r3hqzz7wswx3fwjcxycu3s4etsqpna0r)#yhal679d",
        "hex": "00209e06c85105240f8a05185f234c4ef4b2871b8042f3a0e3452e960c4c7230ae57",
        "address": "bcrt1qncrvs5g9ys8c5pgctu35cnh5k2r3hqzz7wswx3fwjcxycu3s4etsqpna0r",
        "type": "witness_v0_scripthash"
      }
    }
  ]
}
-------------
Simulating the transfer of Unsigned Provisional Tx copy
to Sentinel!
-------------
[U] --> Unsigned Provisional Tx --> [L]
-------------
Sentinel signs the Unsigned Provisional Tx
with his Private Key
-------------
Original Tx:
{
    "ins": [
        {
            "tx_hash": "a559f6d771dcced2b6d245e3970c541f9710c95199d65d606a6565e19a61c065",
            "tx_pos": 0,
            "script": "",
            "sequence": 4294967293,
            "value": 4999900000
        }
    ],
    "outs": [
        {
            "value": 4999800000,
            "script": "00209e06c85105240f8a05185f234c4ef4b2871b8042f3a0e3452e960c4c7230ae57"
        }
    ],
    "version": 2,
    "locktime": 0
}
Signature:
3045022100dd7f852d67d0d94bc0639d555e12dbb68f0d572509905f3c725639338df00dc902204ec671ba60a2c1a340d24276671b2bc352ac1574b6665f68886731148a05b3db01
-------------
ProvTx - Sentinel's Signature
-------------
3045022100dd7f852d67d0d94bc0639d555e12dbb68f0d572509905f3c725639338df00dc902204ec671ba60a2c1a340d24276671b2bc352ac1574b6665f68886731148a05b3db01
-------------
Simulating the transfer of Partially Signed Provisional Tx
to User!
-------------
[L] --> Partially Signed Provisional Tx --> [U]
-------------
User signs the Unsigned Provisional Tx
with his Private Key
-------------
Original Tx:
{
    "ins": [
        {
            "tx_hash": "a559f6d771dcced2b6d245e3970c541f9710c95199d65d606a6565e19a61c065",
            "tx_pos": 0,
            "script": "",
            "sequence": 4294967293,
            "value": 4999900000
        }
    ],
    "outs": [
        {
            "value": 4999800000,
            "script": "00209e06c85105240f8a05185f234c4ef4b2871b8042f3a0e3452e960c4c7230ae57"
        }
    ],
    "version": 2,
    "locktime": 0
}
Signature:
30450221008c59b0597aefd7ae2389aafe07ee9d47df4f77701d41ec84e80ec511c99f629f022034f70b1fb63adb0599107f8ee275947e92f9078df5537bf7fc4366be6960fb3401
-------------
ProvTx - User Signature
-------------
30450221008c59b0597aefd7ae2389aafe07ee9d47df4f77701d41ec84e80ec511c99f629f022034f70b1fb63adb0599107f8ee275947e92f9078df5537bf7fc4366be6960fb3401
-------------
Simulating the transfer of Partially Signed Provisional Tx copy
to Sentinel!
-------------
[U] --> Partially Signed Provisional Tx --> [L]
-------------
User signs & broadcasts the Deposit Tx
after receiving the Partially signed Provisional Tx
-------------
Done
-------------
Generating Block to confirm the Deposit Tx
-------------
Deposit Tx Block: 2c157d29034e86b4bbc798e8f6c394455ce5789c02901d89522319681be1a4d2
-------------
Confirmed Deposit Tx
-------------
{
  "in_active_chain": true,
  "txid": "a559f6d771dcced2b6d245e3970c541f9710c95199d65d606a6565e19a61c065",
  "hash": "ca8bd1bb0582e42cb3d897c5ffd5c5dcfd55855a2c7027a4bfcf876a2b5dbacc",
  "version": 2,
  "size": 203,
  "vsize": 122,
  "weight": 485,
  "locktime": 0,
  "vin": [
    {
      "txid": "c0e1a8e9035fa4d0d7d0705e9f446ffbd62c757928d5a73d9a3078fad9277950",
      "vout": 0,
      "scriptSig": {
        "asm": "",
        "hex": ""
      },
      "txinwitness": [
        "30440220145374dd6b857f5a225b2f15d7ac04a951d61aae88bd78592c3015e309f0df1f022005a23bdf71370d37876077776c995001c9d9478a82533f2d77614fd716d84bae01",
        "0214814ea818b26333c877d2b650c01a75799ac42758291e9543eb5f269536580f"
      ],
      "sequence": 4294967293
    }
  ],
  "vout": [
    {
      "value": 49.99900000,
      "n": 0,
      "scriptPubKey": {
        "asm": "0 b857889589077c5db81ce2eaef6e4610c10e5896616a9907890ea558b1df8b9c",
        "desc": "addr(bcrt1qhptc39vfqa79mwquut4w7mjxzrqsukykv94fjpufp6j43vwl3wwq5jjy7e)#rxj5jn2n",
        "hex": "0020b857889589077c5db81ce2eaef6e4610c10e5896616a9907890ea558b1df8b9c",
        "address": "bcrt1qhptc39vfqa79mwquut4w7mjxzrqsukykv94fjpufp6j43vwl3wwq5jjy7e",
        "type": "witness_v0_scripthash"
      }
    }
  ],
  "hex": "02000000000101507927d9fa78309a3da7d52879752cd6fb6f449f5e70d0d7d0a45f03e9a8e1c00000000000fdffffff01606b042a01000000220020b857889589077c5db81ce2eaef6e4610c10e5896616a9907890ea558b1df8b9c024730440220145374dd6b857f5a225b2f15d7ac04a951d61aae88bd78592c3015e309f0df1f022005a23bdf71370d37876077776c995001c9d9478a82533f2d77614fd716d84bae01210214814ea818b26333c877d2b650c01a75799ac42758291e9543eb5f269536580f00000000",
  "blockhash": "2c157d29034e86b4bbc798e8f6c394455ce5789c02901d89522319681be1a4d2",
  "confirmations": 1,
  "time": 1775320258,
  "blocktime": 1775320258
}
-------------
***Smart Vault Setup Complete!***
-------------
User is now assured of his
Bitcoin's safety and security
as his Bitcoin is now in Joint Custody and
rest everything is managed using the
Partially Signed Provisional Transactions
with User and Sentinel after the Smart Vault setup!
-------------
Press any key to continue...
-------------
Simulating the termination/recovery process by User
in coordintion with Sentinel when he wants to transfer the Bitcoin
or when his or Sentinel's private-key is presumed stolen
or they see some adversarial activity on chain/network
Ex. Provisional Tx broadcasted by unknown entities
-------------
Press any key to start termination/recovery...
-------------
User signs the Partially Signed
Provisional Tx received from Sentinel
with his Private Key
-------------
Done
-------------
User's Private Key Generated Signature for Provisional Tx:
-------------
30450221008c59b0597aefd7ae2389aafe07ee9d47df4f77701d41ec84e80ec511c99f629f022034f70b1fb63adb0599107f8ee275947e92f9078df5537bf7fc4366be6960fb3401
-------------
Fully Signed Provisional Tx :
-------------
Unsigned Tx
{
    "ins": [
        {
            "tx_hash": "a559f6d771dcced2b6d245e3970c541f9710c95199d65d606a6565e19a61c065",
            "tx_pos": 0,
            "script": "",
            "sequence": 4294967293
        }
    ],
    "outs": [
        {
            "value": 4999800000,
            "script": "00209e06c85105240f8a05185f234c4ef4b2871b8042f3a0e3452e960c4c7230ae57"
        }
    ],
    "version": 2,
    "locktime": 0
}
Signed Tx
{
    "ins": [
        {
            "tx_hash": "a559f6d771dcced2b6d245e3970c541f9710c95199d65d606a6565e19a61c065",
            "tx_pos": 0,
            "script": "",
            "sequence": 4294967293
        }
    ],
    "outs": [
        {
            "value": 4999800000,
            "script": "00209e06c85105240f8a05185f234c4ef4b2871b8042f3a0e3452e960c4c7230ae57"
        }
    ],
    "version": 2,
    "locktime": 0,
    "witness": [
        {
            "number": 3,
            "scriptCode": "483045022100dd7f852d67d0d94bc0639d555e12dbb68f0d572509905f3c725639338df00dc902204ec671ba60a2c1a340d24276671b2bc352ac1574b6665f68886731148a05b3db014830450221008c59b0597aefd7ae2389aafe07ee9d47df4f77701d41ec84e80ec511c99f629f022034f70b1fb63adb0599107f8ee275947e92f9078df5537bf7fc4366be6960fb34014d2102beee9bbdc231c48880ec3f373922260873dd874d33e466c198e9ae22f1b597fc210214814ea818b26333c877d2b650c01a75799ac42758291e9543eb5f269536580f00547a547a527152ae"
        }
    ],
    "marker": 0,
    "flag": 1
}
0200000000010165c0619ae165656a605dd69951c910971f540c97e345d2b6d2cedc71d7f659a50000000000fdffffff01c0e4022a010000002200209e06c85105240f8a05185f234c4ef4b2871b8042f3a0e3452e960c4c7230ae5703483045022100dd7f852d67d0d94bc0639d555e12dbb68f0d572509905f3c725639338df00dc902204ec671ba60a2c1a340d24276671b2bc352ac1574b6665f68886731148a05b3db014830450221008c59b0597aefd7ae2389aafe07ee9d47df4f77701d41ec84e80ec511c99f629f022034f70b1fb63adb0599107f8ee275947e92f9078df5537bf7fc4366be6960fb34014d2102beee9bbdc231c48880ec3f373922260873dd874d33e466c198e9ae22f1b597fc210214814ea818b26333c877d2b650c01a75799ac42758291e9543eb5f269536580f00547a547a527152ae00000000
-------------
Checking Fully Signed Provisional Tx :
-------------
{
  "txid": "0c69110a3f47db0fcab809f9bd85263e22dcd678d3053f4201e810a6ea4c98a9",
  "hash": "7f0f5e46c9a0d2ff80f1ce357425432d0b19d33e458ca77f4dceaa6b53842a54",
  "version": 2,
  "size": 321,
  "vsize": 151,
  "weight": 603,
  "locktime": 0,
  "vin": [
    {
      "txid": "a559f6d771dcced2b6d245e3970c541f9710c95199d65d606a6565e19a61c065",
      "vout": 0,
      "scriptSig": {
        "asm": "",
        "hex": ""
      },
      "txinwitness": [
        "3045022100dd7f852d67d0d94bc0639d555e12dbb68f0d572509905f3c725639338df00dc902204ec671ba60a2c1a340d24276671b2bc352ac1574b6665f68886731148a05b3db01",
        "30450221008c59b0597aefd7ae2389aafe07ee9d47df4f77701d41ec84e80ec511c99f629f022034f70b1fb63adb0599107f8ee275947e92f9078df5537bf7fc4366be6960fb3401",
        "2102beee9bbdc231c48880ec3f373922260873dd874d33e466c198e9ae22f1b597fc210214814ea818b26333c877d2b650c01a75799ac42758291e9543eb5f269536580f00547a547a527152ae"
      ],
      "sequence": 4294967293
    }
  ],
  "vout": [
    {
      "value": 49.99800000,
      "n": 0,
      "scriptPubKey": {
        "asm": "0 9e06c85105240f8a05185f234c4ef4b2871b8042f3a0e3452e960c4c7230ae57",
        "desc": "addr(bcrt1qncrvs5g9ys8c5pgctu35cnh5k2r3hqzz7wswx3fwjcxycu3s4etsqpna0r)#yhal679d",
        "hex": "00209e06c85105240f8a05185f234c4ef4b2871b8042f3a0e3452e960c4c7230ae57",
        "address": "bcrt1qncrvs5g9ys8c5pgctu35cnh5k2r3hqzz7wswx3fwjcxycu3s4etsqpna0r",
        "type": "witness_v0_scripthash"
      }
    }
  ]
}
-------------
Vaildate Fully Signed Provisional Tx
-------------
[
  {
    "txid": "0c69110a3f47db0fcab809f9bd85263e22dcd678d3053f4201e810a6ea4c98a9",
    "wtxid": "7f0f5e46c9a0d2ff80f1ce357425432d0b19d33e458ca77f4dceaa6b53842a54",
    "allowed": true,
    "vsize": 151,
    "fees": {
      "base": 0.00100000,
      "effective-feerate": 0.00662251,
      "effective-includes": [
        "7f0f5e46c9a0d2ff80f1ce357425432d0b19d33e458ca77f4dceaa6b53842a54"
      ]
    }
  }
]
-------------
Broadcast Fully Signed Provisional Tx
-------------
Done
-------------
Generating Block to confirm Provisional Tx
-------------
Done
-------------
Provisional Tx Block:
-------------
2c65d4afe4440464081aeeb82a1d496231d3d194b5896f8ea6ef30402f63d950
-------------
Confirmed Provisional Tx
-------------
{
  "in_active_chain": true,
  "txid": "0c69110a3f47db0fcab809f9bd85263e22dcd678d3053f4201e810a6ea4c98a9",
  "hash": "7f0f5e46c9a0d2ff80f1ce357425432d0b19d33e458ca77f4dceaa6b53842a54",
  "version": 2,
  "size": 321,
  "vsize": 151,
  "weight": 603,
  "locktime": 0,
  "vin": [
    {
      "txid": "a559f6d771dcced2b6d245e3970c541f9710c95199d65d606a6565e19a61c065",
      "vout": 0,
      "scriptSig": {
        "asm": "",
        "hex": ""
      },
      "txinwitness": [
        "3045022100dd7f852d67d0d94bc0639d555e12dbb68f0d572509905f3c725639338df00dc902204ec671ba60a2c1a340d24276671b2bc352ac1574b6665f68886731148a05b3db01",
        "30450221008c59b0597aefd7ae2389aafe07ee9d47df4f77701d41ec84e80ec511c99f629f022034f70b1fb63adb0599107f8ee275947e92f9078df5537bf7fc4366be6960fb3401",
        "2102beee9bbdc231c48880ec3f373922260873dd874d33e466c198e9ae22f1b597fc210214814ea818b26333c877d2b650c01a75799ac42758291e9543eb5f269536580f00547a547a527152ae"
      ],
      "sequence": 4294967293
    }
  ],
  "vout": [
    {
      "value": 49.99800000,
      "n": 0,
      "scriptPubKey": {
        "asm": "0 9e06c85105240f8a05185f234c4ef4b2871b8042f3a0e3452e960c4c7230ae57",
        "desc": "addr(bcrt1qncrvs5g9ys8c5pgctu35cnh5k2r3hqzz7wswx3fwjcxycu3s4etsqpna0r)#yhal679d",
        "hex": "00209e06c85105240f8a05185f234c4ef4b2871b8042f3a0e3452e960c4c7230ae57",
        "address": "bcrt1qncrvs5g9ys8c5pgctu35cnh5k2r3hqzz7wswx3fwjcxycu3s4etsqpna0r",
        "type": "witness_v0_scripthash"
      }
    }
  ],
  "hex": "0200000000010165c0619ae165656a605dd69951c910971f540c97e345d2b6d2cedc71d7f659a50000000000fdffffff01c0e4022a010000002200209e06c85105240f8a05185f234c4ef4b2871b8042f3a0e3452e960c4c7230ae5703483045022100dd7f852d67d0d94bc0639d555e12dbb68f0d572509905f3c725639338df00dc902204ec671ba60a2c1a340d24276671b2bc352ac1574b6665f68886731148a05b3db014830450221008c59b0597aefd7ae2389aafe07ee9d47df4f77701d41ec84e80ec511c99f629f022034f70b1fb63adb0599107f8ee275947e92f9078df5537bf7fc4366be6960fb34014d2102beee9bbdc231c48880ec3f373922260873dd874d33e466c198e9ae22f1b597fc210214814ea818b26333c877d2b650c01a75799ac42758291e9543eb5f269536580f00547a547a527152ae00000000",
  "blockhash": "2c65d4afe4440464081aeeb82a1d496231d3d194b5896f8ea6ef30402f63d950",
  "confirmations": 1,
  "time": 1775320258,
  "blocktime": 1775320258
}
-------------
Simulating Recovery by User using
***Option 3*** of Provisonal Tx
(Both User and Sentinel have to sign the recovery Tx)
-------------
Recovery Process - Start
-------------
User creates the Recovery Tx
-------------
Done
-------------
Unsigned Recovery Tx
-------------
0200000001a9984ceaa610e801423f05d378d6dc223e2685bdf909b8ca0fdb473f0a11690c0000000000fdffffff01205e012a01000000160014de814fc280fa87be11b690f5c01520e18be5a17c00000000
-------------
Checking Unsigned Recovery Tx
-------------
{
  "txid": "064ba157407a3aa950a3f83f3ae2c4e72ad2eaf0ed1046fda94b0cae08376538",
  "hash": "064ba157407a3aa950a3f83f3ae2c4e72ad2eaf0ed1046fda94b0cae08376538",
  "version": 2,
  "size": 82,
  "vsize": 82,
  "weight": 328,
  "locktime": 0,
  "vin": [
    {
      "txid": "0c69110a3f47db0fcab809f9bd85263e22dcd678d3053f4201e810a6ea4c98a9",
      "vout": 0,
      "scriptSig": {
        "asm": "",
        "hex": ""
      },
      "sequence": 4294967293
    }
  ],
  "vout": [
    {
      "value": 49.99700000,
      "n": 0,
      "scriptPubKey": {
        "asm": "0 de814fc280fa87be11b690f5c01520e18be5a17c",
        "desc": "addr(bcrt1qm6q5ls5ql2rmuydkjr6uq9fqux97tgtuymf35y)#jv24yqvt",
        "hex": "0014de814fc280fa87be11b690f5c01520e18be5a17c",
        "address": "bcrt1qm6q5ls5ql2rmuydkjr6uq9fqux97tgtuymf35y",
        "type": "witness_v0_keyhash"
      }
    }
  ]
}
-------------
Simulating the transfer of Unsigned Recovery Tx
from User to Sentinel!
-------------
[U] --> Unsigned Provisional Tx --> [L]
-------------
Sentinel Signs the Recovery Tx
-------------
Original Tx:
{
    "ins": [
        {
            "tx_hash": "0c69110a3f47db0fcab809f9bd85263e22dcd678d3053f4201e810a6ea4c98a9",
            "tx_pos": 0,
            "script": "",
            "sequence": 4294967293,
            "value": 4999800000
        }
    ],
    "outs": [
        {
            "value": 4999700000,
            "script": "0014de814fc280fa87be11b690f5c01520e18be5a17c"
        }
    ],
    "version": 2,
    "locktime": 0
}
Signature:
3044022047d23ad553a7132953362e0d2cf5667b900fcc4c57a5158861a12e0137f6589f022029b71dd643791251830967d4de896ae091e21efa372dd96f7147cc62b0fc18df01
-------------
Recovery Tx - Sentinel's Signature
-------------
3044022047d23ad553a7132953362e0d2cf5667b900fcc4c57a5158861a12e0137f6589f022029b71dd643791251830967d4de896ae091e21efa372dd96f7147cc62b0fc18df01
-------------
Simulating the transfer of Partially Signed Recovery Tx
from Sentinel to User!
-------------
[L] --> Partially Signed Provisional Tx --> [U]
-------------
User Signs the Recovery Tx
-------------
Original Tx:
{
    "ins": [
        {
            "tx_hash": "0c69110a3f47db0fcab809f9bd85263e22dcd678d3053f4201e810a6ea4c98a9",
            "tx_pos": 0,
            "script": "",
            "sequence": 4294967293,
            "value": 4999800000
        }
    ],
    "outs": [
        {
            "value": 4999700000,
            "script": "0014de814fc280fa87be11b690f5c01520e18be5a17c"
        }
    ],
    "version": 2,
    "locktime": 0
}
Signature:
3045022100c75a8e0f8b5d651092d63ce85bf43c6d469886b66ae54c17d21e5c3f0218562e0220345a2bf180bb02b8daf9c3563bfceb1609971fae9e6b5998a901b47999a40a0c01
-------------
Recovery Tx - User's Signature
-------------
3045022100c75a8e0f8b5d651092d63ce85bf43c6d469886b66ae54c17d21e5c3f0218562e0220345a2bf180bb02b8daf9c3563bfceb1609971fae9e6b5998a901b47999a40a0c01
-------------
Fully Signed Recovery Tx:
-------------
Unsigned Tx
{
    "ins": [
        {
            "tx_hash": "0c69110a3f47db0fcab809f9bd85263e22dcd678d3053f4201e810a6ea4c98a9",
            "tx_pos": 0,
            "script": "",
            "sequence": 4294967293
        }
    ],
    "outs": [
        {
            "value": 4999700000,
            "script": "0014de814fc280fa87be11b690f5c01520e18be5a17c"
        }
    ],
    "version": 2,
    "locktime": 0
}
Signed Tx
{
    "ins": [
        {
            "tx_hash": "0c69110a3f47db0fcab809f9bd85263e22dcd678d3053f4201e810a6ea4c98a9",
            "tx_pos": 0,
            "script": "",
            "sequence": 4294967293
        }
    ],
    "outs": [
        {
            "value": 4999700000,
            "script": "0014de814fc280fa87be11b690f5c01520e18be5a17c"
        }
    ],
    "version": 2,
    "locktime": 0,
    "witness": [
        {
            "number": 4,
            "scriptCode": "473044022047d23ad553a7132953362e0d2cf5667b900fcc4c57a5158861a12e0137f6589f022029b71dd643791251830967d4de896ae091e21efa372dd96f7147cc62b0fc18df01483045022100c75a8e0f8b5d651092d63ce85bf43c6d469886b66ae54c17d21e5c3f0218562e0220345a2bf180bb02b8daf9c3563bfceb1609971fae9e6b5998a901b47999a40a0c0101027602881302e8032102beee9bbdc231c48880ec3f373922260873dd874d33e466c198e9ae22f1b597fc210214814ea818b26333c877d2b650c01a75799ac42758291e9543eb5f269536580f54795287637b757b757b7500547a547a527152ae67547a6375777b7cadb2755167777b757b7cadb275516868"
        }
    ],
    "marker": 0,
    "flag": 1
}
02000000000101a9984ceaa610e801423f05d378d6dc223e2685bdf909b8ca0fdb473f0a11690c0000000000fdffffff01205e012a01000000160014de814fc280fa87be11b690f5c01520e18be5a17c04473044022047d23ad553a7132953362e0d2cf5667b900fcc4c57a5158861a12e0137f6589f022029b71dd643791251830967d4de896ae091e21efa372dd96f7147cc62b0fc18df01483045022100c75a8e0f8b5d651092d63ce85bf43c6d469886b66ae54c17d21e5c3f0218562e0220345a2bf180bb02b8daf9c3563bfceb1609971fae9e6b5998a901b47999a40a0c0101027602881302e8032102beee9bbdc231c48880ec3f373922260873dd874d33e466c198e9ae22f1b597fc210214814ea818b26333c877d2b650c01a75799ac42758291e9543eb5f269536580f54795287637b757b757b7500547a547a527152ae67547a6375777b7cadb2755167777b757b7cadb27551686800000000
-------------
Checking Fully Signed Recovery Tx:
-------------
{
  "txid": "064ba157407a3aa950a3f83f3ae2c4e72ad2eaf0ed1046fda94b0cae08376538",
  "hash": "d2426873807300b5aadcd6de219d80a5df1397dc65fda0919a5e13e9259a4321",
  "version": 2,
  "size": 351,
  "vsize": 150,
  "weight": 597,
  "locktime": 0,
  "vin": [
    {
      "txid": "0c69110a3f47db0fcab809f9bd85263e22dcd678d3053f4201e810a6ea4c98a9",
      "vout": 0,
      "scriptSig": {
        "asm": "",
        "hex": ""
      },
      "txinwitness": [
        "3044022047d23ad553a7132953362e0d2cf5667b900fcc4c57a5158861a12e0137f6589f022029b71dd643791251830967d4de896ae091e21efa372dd96f7147cc62b0fc18df01",
        "3045022100c75a8e0f8b5d651092d63ce85bf43c6d469886b66ae54c17d21e5c3f0218562e0220345a2bf180bb02b8daf9c3563bfceb1609971fae9e6b5998a901b47999a40a0c01",
        "02",
        "02881302e8032102beee9bbdc231c48880ec3f373922260873dd874d33e466c198e9ae22f1b597fc210214814ea818b26333c877d2b650c01a75799ac42758291e9543eb5f269536580f54795287637b757b757b7500547a547a527152ae67547a6375777b7cadb2755167777b757b7cadb275516868"
      ],
      "sequence": 4294967293
    }
  ],
  "vout": [
    {
      "value": 49.99700000,
      "n": 0,
      "scriptPubKey": {
        "asm": "0 de814fc280fa87be11b690f5c01520e18be5a17c",
        "desc": "addr(bcrt1qm6q5ls5ql2rmuydkjr6uq9fqux97tgtuymf35y)#jv24yqvt",
        "hex": "0014de814fc280fa87be11b690f5c01520e18be5a17c",
        "address": "bcrt1qm6q5ls5ql2rmuydkjr6uq9fqux97tgtuymf35y",
        "type": "witness_v0_keyhash"
      }
    }
  ]
}
-------------
Vaildating Recovery Tx
-------------
[
  {
    "txid": "064ba157407a3aa950a3f83f3ae2c4e72ad2eaf0ed1046fda94b0cae08376538",
    "wtxid": "d2426873807300b5aadcd6de219d80a5df1397dc65fda0919a5e13e9259a4321",
    "allowed": true,
    "vsize": 150,
    "fees": {
      "base": 0.00100000,
      "effective-feerate": 0.00666666,
      "effective-includes": [
        "d2426873807300b5aadcd6de219d80a5df1397dc65fda0919a5e13e9259a4321"
      ]
    }
  }
]
-------------
Broadcasting Recovery Tx
-------------
Done
-------------
Generating Block to confirm Recovery Tx
-------------
Done
-------------
Recovery Tx Block ID:
-------------
47354dd7360c0d5b993177a3b63f79d9b832f4037b9fe5773e5add43fddc404c
-------------
Confirmed Recovery Tx
-------------
{
  "in_active_chain": true,
  "txid": "064ba157407a3aa950a3f83f3ae2c4e72ad2eaf0ed1046fda94b0cae08376538",
  "hash": "d2426873807300b5aadcd6de219d80a5df1397dc65fda0919a5e13e9259a4321",
  "version": 2,
  "size": 351,
  "vsize": 150,
  "weight": 597,
  "locktime": 0,
  "vin": [
    {
      "txid": "0c69110a3f47db0fcab809f9bd85263e22dcd678d3053f4201e810a6ea4c98a9",
      "vout": 0,
      "scriptSig": {
        "asm": "",
        "hex": ""
      },
      "txinwitness": [
        "3044022047d23ad553a7132953362e0d2cf5667b900fcc4c57a5158861a12e0137f6589f022029b71dd643791251830967d4de896ae091e21efa372dd96f7147cc62b0fc18df01",
        "3045022100c75a8e0f8b5d651092d63ce85bf43c6d469886b66ae54c17d21e5c3f0218562e0220345a2bf180bb02b8daf9c3563bfceb1609971fae9e6b5998a901b47999a40a0c01",
        "02",
        "02881302e8032102beee9bbdc231c48880ec3f373922260873dd874d33e466c198e9ae22f1b597fc210214814ea818b26333c877d2b650c01a75799ac42758291e9543eb5f269536580f54795287637b757b757b7500547a547a527152ae67547a6375777b7cadb2755167777b757b7cadb275516868"
      ],
      "sequence": 4294967293
    }
  ],
  "vout": [
    {
      "value": 49.99700000,
      "n": 0,
      "scriptPubKey": {
        "asm": "0 de814fc280fa87be11b690f5c01520e18be5a17c",
        "desc": "addr(bcrt1qm6q5ls5ql2rmuydkjr6uq9fqux97tgtuymf35y)#jv24yqvt",
        "hex": "0014de814fc280fa87be11b690f5c01520e18be5a17c",
        "address": "bcrt1qm6q5ls5ql2rmuydkjr6uq9fqux97tgtuymf35y",
        "type": "witness_v0_keyhash"
      }
    }
  ],
  "hex": "02000000000101a9984ceaa610e801423f05d378d6dc223e2685bdf909b8ca0fdb473f0a11690c0000000000fdffffff01205e012a01000000160014de814fc280fa87be11b690f5c01520e18be5a17c04473044022047d23ad553a7132953362e0d2cf5667b900fcc4c57a5158861a12e0137f6589f022029b71dd643791251830967d4de896ae091e21efa372dd96f7147cc62b0fc18df01483045022100c75a8e0f8b5d651092d63ce85bf43c6d469886b66ae54c17d21e5c3f0218562e0220345a2bf180bb02b8daf9c3563bfceb1609971fae9e6b5998a901b47999a40a0c0101027602881302e8032102beee9bbdc231c48880ec3f373922260873dd874d33e466c198e9ae22f1b597fc210214814ea818b26333c877d2b650c01a75799ac42758291e9543eb5f269536580f54795287637b757b757b7500547a547a527152ae67547a6375777b7cadb2755167777b757b7cadb27551686800000000",
  "blockhash": "47354dd7360c0d5b993177a3b63f79d9b832f4037b9fe5773e5add43fddc404c",
  "confirmations": 1,
  "time": 1775320259,
  "blocktime": 1775320259
}
-------------
***Recovery Complete!***
-------------
-------------
Stopping Bitcoind
-------------
Bitcoin Core stopping
