-------------
Stopping Bitcoind if it is already running
-------------
Done
-------------
Updating Bitcoind configuration
-------------
Done
-------------
Refreshing & Restarting Bitcoind
-------------
Bitcoin Core starting
Waiting for 5 secs for Bitcoin Demon to Initialize...
-------------
Bootstrapping the Sentinel (co-signer)
-------------
-------------
Generating Sentinel's Priv-Pub-Addr
-------------
Private Key: cNy7u6oQMiw8CWSLtdzm5nc1KR1v3octivxiVy5JcuVnqc8BuUkB
Public Key: 024848ce4923a080fb11f19df0d418565629ef6781b3085705434df0b916c413b9
Address: bcrt1qf7a5fh7jl07t52sc45av3nz2s2u6rk6sfdr0vd
-------------
Sentinel is ready!
Lets initialize your credentials...
-------------
Press any key to generate a key pair for you...
-------------
Generating User's Priv-Pub-Addr
-------------
Private Key: cQiipZRMXfSYaYfbQADTjACf15b1Hvzi88HNXHueDDL7oc5StyFs
Public Key: 03ff418fcf0a4123994058f6df4242ec9e8c2a5cb348e45f49360ebae2cfa85c5c
Address: bcrt1qy905m4y0kmzergxnjeg0x22mzerehfw22g2wat
-------------
Press any key to continue...
-------------
Generating blocks to bootstrap Bitcoin RegTest Blockchain
-------------
Done
[H[2J[3J
Balance: 50.00000000 BTC
Press any key to start Hybrid Custody Vault setup...
-------------
Deposit Tx Redeem Script
-------------
21024848ce4923a080fb11f19df0d418565629ef6781b3085705434df0b916c413b92103ff418fcf0a4123994058f6df4242ec9e8c2a5cb348e45f49360ebae2cfa85c5c00547a547a527152ae
-------------
Checking Deposit Tx Redeem Script
-------------
{
  "asm": "024848ce4923a080fb11f19df0d418565629ef6781b3085705434df0b916c413b9 03ff418fcf0a4123994058f6df4242ec9e8c2a5cb348e45f49360ebae2cfa85c5c 0 4 OP_ROLL 4 OP_ROLL 2 OP_2ROT 2 OP_CHECKMULTISIG",
  "desc": "raw(21024848ce4923a080fb11f19df0d418565629ef6781b3085705434df0b916c413b92103ff418fcf0a4123994058f6df4242ec9e8c2a5cb348e45f49360ebae2cfa85c5c00547a547a527152ae)#59q0mnr3",
  "type": "nonstandard",
  "p2sh": "2NCv6R6oEqzWwYMUX3Ca9UMYonjAQN86GgL",
  "segwit": {
    "asm": "0 de8b0b4bf2ebc590511476f74d089ed67db90001f5ffe596c81ab0ffaadca802",
    "desc": "wsh(raw(21024848ce4923a080fb11f19df0d418565629ef6781b3085705434df0b916c413b92103ff418fcf0a4123994058f6df4242ec9e8c2a5cb348e45f49360ebae2cfa85c5c00547a547a527152ae))#zmqean8f",
    "hex": "0020de8b0b4bf2ebc590511476f74d089ed67db90001f5ffe596c81ab0ffaadca802",
    "address": "bcrt1qm69skjlja0zeq5g5wmm56zy76e7mjqqp7hl7t9kgr2c0l2ku4qpqv7nhyz",
    "type": "witness_v0_scripthash",
    "p2sh-segwit": "2NB4tV978MKQo36iGkAVLWStcBLxKiyhvtM"
  }
}
-------------
Deposit Tx - Script to Address
-------------
bcrt1qm69skjlja0zeq5g5wmm56zy76e7mjqqp7hl7t9kgr2c0l2ku4qpqv7nhyz
-------------
Creating Unsigned Deposit Tx
-------------
Done
-------------
Unsigned Deposit Tx
-------------
020000000135a607edcb03d1b6656a277a650fcd18d20d9d21646d47ab265a46f5c01bb2c00000000000fdffffff01606b042a01000000220020de8b0b4bf2ebc590511476f74d089ed67db90001f5ffe596c81ab0ffaadca80200000000
-------------
Checking Unsigned Deposit Tx
-------------
{
  "txid": "f5f289ee8fe48ecd282a270023d71f2823501a80fbd0dafd05e7631628f7273b",
  "hash": "f5f289ee8fe48ecd282a270023d71f2823501a80fbd0dafd05e7631628f7273b",
  "version": 2,
  "size": 94,
  "vsize": 94,
  "weight": 376,
  "locktime": 0,
  "vin": [
    {
      "txid": "c0b21bc0f5465a26ab476d64219d0dd218cd0f657a276a65b6d103cbed07a635",
      "vout": 0,
      "scriptSig": {
        "asm": "",
        "hex": ""
      },
      "sequence": 4294967293
    }
  ],
  "vout": [
    {
      "value": 49.99900000,
      "n": 0,
      "scriptPubKey": {
        "asm": "0 de8b0b4bf2ebc590511476f74d089ed67db90001f5ffe596c81ab0ffaadca802",
        "desc": "addr(bcrt1qm69skjlja0zeq5g5wmm56zy76e7mjqqp7hl7t9kgr2c0l2ku4qpqv7nhyz)#gqpsr3ed",
        "hex": "0020de8b0b4bf2ebc590511476f74d089ed67db90001f5ffe596c81ab0ffaadca802",
        "address": "bcrt1qm69skjlja0zeq5g5wmm56zy76e7mjqqp7hl7t9kgr2c0l2ku4qpqv7nhyz",
        "type": "witness_v0_scripthash"
      }
    }
  ]
}
-------------
Signing the Deposit Tx
-------------
Done
-------------
Signed Deposit Tx
-------------
0200000000010135a607edcb03d1b6656a277a650fcd18d20d9d21646d47ab265a46f5c01bb2c00000000000fdffffff01606b042a01000000220020de8b0b4bf2ebc590511476f74d089ed67db90001f5ffe596c81ab0ffaadca802024730440220748d15a1a38076b2b370de699c7b20d9c0bbb95982071668ca6beb50e7f9126702204b71f5650d2a3563fa4961ec0594119364088987cce801f4b847c26db343086a012103ff418fcf0a4123994058f6df4242ec9e8c2a5cb348e45f49360ebae2cfa85c5c00000000
-------------
Checking Signed Deposit Tx
-------------
{
  "txid": "f5f289ee8fe48ecd282a270023d71f2823501a80fbd0dafd05e7631628f7273b",
  "hash": "c7bb4b3925d7dab0d643466cd10bb23ab1fe0211dbe017109597c5b36a021ed2",
  "version": 2,
  "size": 203,
  "vsize": 122,
  "weight": 485,
  "locktime": 0,
  "vin": [
    {
      "txid": "c0b21bc0f5465a26ab476d64219d0dd218cd0f657a276a65b6d103cbed07a635",
      "vout": 0,
      "scriptSig": {
        "asm": "",
        "hex": ""
      },
      "txinwitness": [
        "30440220748d15a1a38076b2b370de699c7b20d9c0bbb95982071668ca6beb50e7f9126702204b71f5650d2a3563fa4961ec0594119364088987cce801f4b847c26db343086a01",
        "03ff418fcf0a4123994058f6df4242ec9e8c2a5cb348e45f49360ebae2cfa85c5c"
      ],
      "sequence": 4294967293
    }
  ],
  "vout": [
    {
      "value": 49.99900000,
      "n": 0,
      "scriptPubKey": {
        "asm": "0 de8b0b4bf2ebc590511476f74d089ed67db90001f5ffe596c81ab0ffaadca802",
        "desc": "addr(bcrt1qm69skjlja0zeq5g5wmm56zy76e7mjqqp7hl7t9kgr2c0l2ku4qpqv7nhyz)#gqpsr3ed",
        "hex": "0020de8b0b4bf2ebc590511476f74d089ed67db90001f5ffe596c81ab0ffaadca802",
        "address": "bcrt1qm69skjlja0zeq5g5wmm56zy76e7mjqqp7hl7t9kgr2c0l2ku4qpqv7nhyz",
        "type": "witness_v0_scripthash"
      }
    }
  ]
}
[H[2J[3J
-------------
Your Vault has a 2-step Unlock and Spend process to transfer from it
and there is a mandatory yet configureable delay enforced between these
Unlock and Spend Transactions for every private-key/combination allowed
to spend from this Vault.
-------------
Press any key to configure these delays and continue...
[H[2J[3J
-------------
Lets configure the on-chain delay / cooling period
for spending with your private-key from your Vault!

This will give you time to react and initiate recovery
when your private-key or wallet backup (seed phrase) is stolen
and is used to unlock and potentially spend from your Vault.
-------------
Enter delay in blocks or press [Return] to use default [1000]: Setting Option 1 (User Private-Key Only) Delay to 1000
Encoded bytes (hex): e803
[H[2J[3J
-------------
Now, lets configure the on-chain delay / cooling period
for spending with the Sentinel private-key from your Vault!

This is the delay your Sentinel has to wait before he can
transfer/recover from your Vault in case your private-key
is lost or for managing your inheritance.

PS: This is typically much longer than the previously set delay
and will give you time to react and override any spend attempt
by compromised/rogue Sentinels with just your private-key
eliminating counter-party risk in the Hybrid Custody Ecosystem.
-------------
Enter delay in blocks or press [Return] to use default [5000]: Setting Option 2 (Sentinel Private-Key Only) Delay to 5000
Encoded bytes (hex): 8813
[H[2J[3J
-------------
Now, lets configure the Recovery Address for your Vault!

Once your private-keys are lost or stolen, it is not
safe to recover your Vault to an address controlled by you
as we never know how deep the compromise is.

The best approach would be to temporarily transfer the coins in your
Vault to a custodial wallet address (Coinbase, Binance, etc.) and disable
withdrawls from it until you can create a new secure cold-storage wallet and Vault.

Alternatively, you can setup a new unused Hardware Wallet
with a new seed-phrase and store both the hardware wallet and
seed-phrase backup in a bank locker and use this wallet's address as Recovery Address!

PS: Sentinels are bound by on-chain Staking/Slashing mechanics
to only sign Recovery transactions to this Preconfigured Recovery Address
as no user provided input can be trusted post compromise/setup!
-------------
Enter Recovery Address or press [Return] to use default [bcrt1qmsllunzg7enp0vs6g2vpmmfp9fvyw8zlrd2e2c]: Proceeding with Recovery Address: bcrt1qmsllunzg7enp0vs6g2vpmmfp9fvyw8zlrd2e2c
-------------
Unlock Tx (Provisional Tx) Redeem Script
-------------
Hex: 02881302e80321024848ce4923a080fb11f19df0d418565629ef6781b3085705434df0b916c413b92103ff418fcf0a4123994058f6df4242ec9e8c2a5cb348e45f49360ebae2cfa85c5c54795287637b757b757b7500547a547a527152ae67547a6375777b7cadb2755167777b757b7cadb275516868
-------------
Checking Unlock Tx (Provisional Tx) Redeem Script
-------------
{
  "asm": "5000 1000 024848ce4923a080fb11f19df0d418565629ef6781b3085705434df0b916c413b9 03ff418fcf0a4123994058f6df4242ec9e8c2a5cb348e45f49360ebae2cfa85c5c 4 OP_PICK 2 OP_EQUAL OP_IF OP_ROT OP_DROP OP_ROT OP_DROP OP_ROT OP_DROP 0 4 OP_ROLL 4 OP_ROLL 2 OP_2ROT 2 OP_CHECKMULTISIG OP_ELSE 4 OP_ROLL OP_IF OP_DROP OP_NIP OP_ROT OP_SWAP OP_CHECKSIGVERIFY OP_CHECKSEQUENCEVERIFY OP_DROP 1 OP_ELSE OP_NIP OP_ROT OP_DROP OP_ROT OP_SWAP OP_CHECKSIGVERIFY OP_CHECKSEQUENCEVERIFY OP_DROP 1 OP_ENDIF OP_ENDIF",
  "desc": "raw(02881302e80321024848ce4923a080fb11f19df0d418565629ef6781b3085705434df0b916c413b92103ff418fcf0a4123994058f6df4242ec9e8c2a5cb348e45f49360ebae2cfa85c5c54795287637b757b757b7500547a547a527152ae67547a6375777b7cadb2755167777b757b7cadb275516868)#le92dd9x",
  "type": "nonstandard",
  "p2sh": "2MyxXjL9Qew4HS5PtjrKZHVQsN5sK1paVsK",
  "segwit": {
    "asm": "0 a507d0fb69d09027d07fe08e803581ea6943efab197f09f04c7035f51a27284d",
    "desc": "wsh(raw(02881302e80321024848ce4923a080fb11f19df0d418565629ef6781b3085705434df0b916c413b92103ff418fcf0a4123994058f6df4242ec9e8c2a5cb348e45f49360ebae2cfa85c5c54795287637b757b757b7500547a547a527152ae67547a6375777b7cadb2755167777b757b7cadb275516868))#fnk4p2cy",
    "hex": "0020a507d0fb69d09027d07fe08e803581ea6943efab197f09f04c7035f51a27284d",
    "address": "bcrt1q55rap7mf6zgz05rluz8gqdvpaf558matr9lsnuzvwq6l2x389pxserqnry",
    "type": "witness_v0_scripthash",
    "p2sh-segwit": "2N5BBe5rhJcB8itWod143z6z6BpmqjoZRaK"
  }
}
-------------
Unlock Tx (Provisional Tx) - Script to Address
-------------
bcrt1q55rap7mf6zgz05rluz8gqdvpaf558matr9lsnuzvwq6l2x389pxserqnry
-------------
Creating Unsigned Unlock Tx (Provisional Tx)
-------------
02000000013b27f7281663e705fddad0fb801a5023281fd72300272a28cd8ee48fee89f2f50000000000fdffffff01c0e4022a01000000220020a507d0fb69d09027d07fe08e803581ea6943efab197f09f04c7035f51a27284d00000000
-------------
Checking Unsigned Unlock Tx Created by User
-------------
{
  "txid": "de4bccaa9adf17940d72baff63f78eba285ca78151f76129ce89abe870c0a933",
  "hash": "de4bccaa9adf17940d72baff63f78eba285ca78151f76129ce89abe870c0a933",
  "version": 2,
  "size": 94,
  "vsize": 94,
  "weight": 376,
  "locktime": 0,
  "vin": [
    {
      "txid": "f5f289ee8fe48ecd282a270023d71f2823501a80fbd0dafd05e7631628f7273b",
      "vout": 0,
      "scriptSig": {
        "asm": "",
        "hex": ""
      },
      "sequence": 4294967293
    }
  ],
  "vout": [
    {
      "value": 49.99800000,
      "n": 0,
      "scriptPubKey": {
        "asm": "0 a507d0fb69d09027d07fe08e803581ea6943efab197f09f04c7035f51a27284d",
        "desc": "addr(bcrt1q55rap7mf6zgz05rluz8gqdvpaf558matr9lsnuzvwq6l2x389pxserqnry)#l5580ql2",
        "hex": "0020a507d0fb69d09027d07fe08e803581ea6943efab197f09f04c7035f51a27284d",
        "address": "bcrt1q55rap7mf6zgz05rluz8gqdvpaf558matr9lsnuzvwq6l2x389pxserqnry",
        "type": "witness_v0_scripthash"
      }
    }
  ]
}
-------------
Simulating the transfer of Unsigned Unlock Tx (Provisional Tx) copy
to Sentinel!
-------------
[U] --> Unsigned Unlock Tx (Provisional Tx) --> [S]
-------------
Sentinel signs the Unsigned Unlock Tx (Provisional Tx)
with his Private Key
-------------
Original Tx:
{
    "ins": [
        {
            "tx_hash": "f5f289ee8fe48ecd282a270023d71f2823501a80fbd0dafd05e7631628f7273b",
            "tx_pos": 0,
            "script": "",
            "sequence": 4294967293,
            "value": 4999900000
        }
    ],
    "outs": [
        {
            "value": 4999800000,
            "script": "0020a507d0fb69d09027d07fe08e803581ea6943efab197f09f04c7035f51a27284d"
        }
    ],
    "version": 2,
    "locktime": 0
}
Signature:
304402200e66f528c0dddd6b4c0977e9660f097901b06c15e4084fd0226991fc3e6d324a022001adafa51b4695954da30e69e953cc5fec757188751d55868abcc7dd318007c001
-------------
Unlock Tx (Provisional Tx) - Sentinel's Signature
-------------
304402200e66f528c0dddd6b4c0977e9660f097901b06c15e4084fd0226991fc3e6d324a022001adafa51b4695954da30e69e953cc5fec757188751d55868abcc7dd318007c001
-------------
Simulating the transfer of Partially Signed Unlock Tx (Provisional Tx)
to User!
-------------
[S] --> Partially Signed Unlock Tx (Provisional Tx) --> [U]
-------------
User signs the Unsigned Unlock Tx (Provisional Tx)
with his Private Key
-------------
Original Tx:
{
    "ins": [
        {
            "tx_hash": "f5f289ee8fe48ecd282a270023d71f2823501a80fbd0dafd05e7631628f7273b",
            "tx_pos": 0,
            "script": "",
            "sequence": 4294967293,
            "value": 4999900000
        }
    ],
    "outs": [
        {
            "value": 4999800000,
            "script": "0020a507d0fb69d09027d07fe08e803581ea6943efab197f09f04c7035f51a27284d"
        }
    ],
    "version": 2,
    "locktime": 0
}
Signature:
3045022100bca660e19b5c2ea63cb3b23bdcee98b150b2cf804da358556b92bd451e75c5470220431620837c484bf0cf60eef6c84e69d4465a21d65b514e11a623ca6c01424c3801
-------------
Unlock Tx (Provisional Tx) - User Signature
-------------
3045022100bca660e19b5c2ea63cb3b23bdcee98b150b2cf804da358556b92bd451e75c5470220431620837c484bf0cf60eef6c84e69d4465a21d65b514e11a623ca6c01424c3801
-------------
Simulating the transfer of Partially Signed Unlock Tx (Provisional Tx) copy
to Sentinel!
-------------
[U] --> Partially Signed Provisional Tx --> [S]
-------------
User signs & broadcasts the Deposit Tx
after receiving the Partially signed Unlock Tx (Provisional Tx)
-------------
f5f289ee8fe48ecd282a270023d71f2823501a80fbd0dafd05e7631628f7273b
Done
-------------
Generating Block to confirm the Deposit Tx
-------------
Deposit Tx Block: 21ed688d7a0fefefcc368834f59475b51cf24ed430d63da8279ec69f7113fa97
-------------
Confirmed Deposit Tx
-------------
{
  "in_active_chain": true,
  "txid": "f5f289ee8fe48ecd282a270023d71f2823501a80fbd0dafd05e7631628f7273b",
  "hash": "c7bb4b3925d7dab0d643466cd10bb23ab1fe0211dbe017109597c5b36a021ed2",
  "version": 2,
  "size": 203,
  "vsize": 122,
  "weight": 485,
  "locktime": 0,
  "vin": [
    {
      "txid": "c0b21bc0f5465a26ab476d64219d0dd218cd0f657a276a65b6d103cbed07a635",
      "vout": 0,
      "scriptSig": {
        "asm": "",
        "hex": ""
      },
      "txinwitness": [
        "30440220748d15a1a38076b2b370de699c7b20d9c0bbb95982071668ca6beb50e7f9126702204b71f5650d2a3563fa4961ec0594119364088987cce801f4b847c26db343086a01",
        "03ff418fcf0a4123994058f6df4242ec9e8c2a5cb348e45f49360ebae2cfa85c5c"
      ],
      "sequence": 4294967293
    }
  ],
  "vout": [
    {
      "value": 49.99900000,
      "n": 0,
      "scriptPubKey": {
        "asm": "0 de8b0b4bf2ebc590511476f74d089ed67db90001f5ffe596c81ab0ffaadca802",
        "desc": "addr(bcrt1qm69skjlja0zeq5g5wmm56zy76e7mjqqp7hl7t9kgr2c0l2ku4qpqv7nhyz)#gqpsr3ed",
        "hex": "0020de8b0b4bf2ebc590511476f74d089ed67db90001f5ffe596c81ab0ffaadca802",
        "address": "bcrt1qm69skjlja0zeq5g5wmm56zy76e7mjqqp7hl7t9kgr2c0l2ku4qpqv7nhyz",
        "type": "witness_v0_scripthash"
      }
    }
  ],
  "hex": "0200000000010135a607edcb03d1b6656a277a650fcd18d20d9d21646d47ab265a46f5c01bb2c00000000000fdffffff01606b042a01000000220020de8b0b4bf2ebc590511476f74d089ed67db90001f5ffe596c81ab0ffaadca802024730440220748d15a1a38076b2b370de699c7b20d9c0bbb95982071668ca6beb50e7f9126702204b71f5650d2a3563fa4961ec0594119364088987cce801f4b847c26db343086a012103ff418fcf0a4123994058f6df4242ec9e8c2a5cb348e45f49360ebae2cfa85c5c00000000",
  "blockhash": "21ed688d7a0fefefcc368834f59475b51cf24ed430d63da8279ec69f7113fa97",
  "confirmations": 1,
  "time": 1775561192,
  "blocktime": 1775561192
}
[H[2J[3J
-------------
*** Smart Vault Setup Complete! ***
-------------
You are now assured of your
Bitcoin's safety and security
as your Bitcoin is now in Joint Custody and
rest everything is managed using the
Partially Signed Unlock Txs (Provisional Txs) with you
and your Sentinel after the Smart Vault setup is complete!
-------------
Press any key to continue...
-------------
Initiating Vault termination(spend).
Baseline self-custody mechanics!
(Requires only User's private-key)
-------------
Press any key to start unlock and spend...
-------------
User signs the Partially Signed
Unlock Tx (Provisional Tx) received from Sentinel
with his Private Key
-------------
-------------
User's Private Key Generated Signature for Unlock Tx (Provisional Tx):
-------------
3045022100bca660e19b5c2ea63cb3b23bdcee98b150b2cf804da358556b92bd451e75c5470220431620837c484bf0cf60eef6c84e69d4465a21d65b514e11a623ca6c01424c3801
-------------
Fully Signed Unlock Tx (Provisional Tx) :
-------------
Unsigned Tx
{
    "ins": [
        {
            "tx_hash": "f5f289ee8fe48ecd282a270023d71f2823501a80fbd0dafd05e7631628f7273b",
            "tx_pos": 0,
            "script": "",
            "sequence": 4294967293
        }
    ],
    "outs": [
        {
            "value": 4999800000,
            "script": "0020a507d0fb69d09027d07fe08e803581ea6943efab197f09f04c7035f51a27284d"
        }
    ],
    "version": 2,
    "locktime": 0
}
Signed Tx
{
    "ins": [
        {
            "tx_hash": "f5f289ee8fe48ecd282a270023d71f2823501a80fbd0dafd05e7631628f7273b",
            "tx_pos": 0,
            "script": "",
            "sequence": 4294967293
        }
    ],
    "outs": [
        {
            "value": 4999800000,
            "script": "0020a507d0fb69d09027d07fe08e803581ea6943efab197f09f04c7035f51a27284d"
        }
    ],
    "version": 2,
    "locktime": 0,
    "witness": [
        {
            "number": 3,
            "scriptCode": "47304402200e66f528c0dddd6b4c0977e9660f097901b06c15e4084fd0226991fc3e6d324a022001adafa51b4695954da30e69e953cc5fec757188751d55868abcc7dd318007c001483045022100bca660e19b5c2ea63cb3b23bdcee98b150b2cf804da358556b92bd451e75c5470220431620837c484bf0cf60eef6c84e69d4465a21d65b514e11a623ca6c01424c38014d21024848ce4923a080fb11f19df0d418565629ef6781b3085705434df0b916c413b92103ff418fcf0a4123994058f6df4242ec9e8c2a5cb348e45f49360ebae2cfa85c5c00547a547a527152ae"
        }
    ],
    "marker": 0,
    "flag": 1
}
020000000001013b27f7281663e705fddad0fb801a5023281fd72300272a28cd8ee48fee89f2f50000000000fdffffff01c0e4022a01000000220020a507d0fb69d09027d07fe08e803581ea6943efab197f09f04c7035f51a27284d0347304402200e66f528c0dddd6b4c0977e9660f097901b06c15e4084fd0226991fc3e6d324a022001adafa51b4695954da30e69e953cc5fec757188751d55868abcc7dd318007c001483045022100bca660e19b5c2ea63cb3b23bdcee98b150b2cf804da358556b92bd451e75c5470220431620837c484bf0cf60eef6c84e69d4465a21d65b514e11a623ca6c01424c38014d21024848ce4923a080fb11f19df0d418565629ef6781b3085705434df0b916c413b92103ff418fcf0a4123994058f6df4242ec9e8c2a5cb348e45f49360ebae2cfa85c5c00547a547a527152ae00000000
-------------
Checking Fully Signed Unlock Tx (Provisional Tx) :
-------------
{
  "txid": "de4bccaa9adf17940d72baff63f78eba285ca78151f76129ce89abe870c0a933",
  "hash": "ba92eb4a892d26b6dfff372e060d906dede75a506f41d08796c9c22433a149d3",
  "version": 2,
  "size": 320,
  "vsize": 151,
  "weight": 602,
  "locktime": 0,
  "vin": [
    {
      "txid": "f5f289ee8fe48ecd282a270023d71f2823501a80fbd0dafd05e7631628f7273b",
      "vout": 0,
      "scriptSig": {
        "asm": "",
        "hex": ""
      },
      "txinwitness": [
        "304402200e66f528c0dddd6b4c0977e9660f097901b06c15e4084fd0226991fc3e6d324a022001adafa51b4695954da30e69e953cc5fec757188751d55868abcc7dd318007c001",
        "3045022100bca660e19b5c2ea63cb3b23bdcee98b150b2cf804da358556b92bd451e75c5470220431620837c484bf0cf60eef6c84e69d4465a21d65b514e11a623ca6c01424c3801",
        "21024848ce4923a080fb11f19df0d418565629ef6781b3085705434df0b916c413b92103ff418fcf0a4123994058f6df4242ec9e8c2a5cb348e45f49360ebae2cfa85c5c00547a547a527152ae"
      ],
      "sequence": 4294967293
    }
  ],
  "vout": [
    {
      "value": 49.99800000,
      "n": 0,
      "scriptPubKey": {
        "asm": "0 a507d0fb69d09027d07fe08e803581ea6943efab197f09f04c7035f51a27284d",
        "desc": "addr(bcrt1q55rap7mf6zgz05rluz8gqdvpaf558matr9lsnuzvwq6l2x389pxserqnry)#l5580ql2",
        "hex": "0020a507d0fb69d09027d07fe08e803581ea6943efab197f09f04c7035f51a27284d",
        "address": "bcrt1q55rap7mf6zgz05rluz8gqdvpaf558matr9lsnuzvwq6l2x389pxserqnry",
        "type": "witness_v0_scripthash"
      }
    }
  ]
}
-------------
Vaildate Fully Signed Unlock Tx (Provisional Tx)
-------------
[
  {
    "txid": "de4bccaa9adf17940d72baff63f78eba285ca78151f76129ce89abe870c0a933",
    "wtxid": "ba92eb4a892d26b6dfff372e060d906dede75a506f41d08796c9c22433a149d3",
    "allowed": true,
    "vsize": 151,
    "fees": {
      "base": 0.00100000,
      "effective-feerate": 0.00662251,
      "effective-includes": [
        "ba92eb4a892d26b6dfff372e060d906dede75a506f41d08796c9c22433a149d3"
      ]
    }
  }
]
-------------
Broadcast Fully Signed Unlock Tx (Provisional Tx)
-------------
Done
-------------
Generating Block to confirm Unlock Tx (Provisional Tx)
-------------
Done
-------------
Unlock Tx (Provisional Tx) Block:
-------------
4136040f1be4f9e029832141b62c8634b4c7ddb7bf4026c91499e756bddab7e9
-------------
Confirmed Unlock Tx (Provisional Tx)
-------------
{
  "in_active_chain": true,
  "txid": "de4bccaa9adf17940d72baff63f78eba285ca78151f76129ce89abe870c0a933",
  "hash": "ba92eb4a892d26b6dfff372e060d906dede75a506f41d08796c9c22433a149d3",
  "version": 2,
  "size": 320,
  "vsize": 151,
  "weight": 602,
  "locktime": 0,
  "vin": [
    {
      "txid": "f5f289ee8fe48ecd282a270023d71f2823501a80fbd0dafd05e7631628f7273b",
      "vout": 0,
      "scriptSig": {
        "asm": "",
        "hex": ""
      },
      "txinwitness": [
        "304402200e66f528c0dddd6b4c0977e9660f097901b06c15e4084fd0226991fc3e6d324a022001adafa51b4695954da30e69e953cc5fec757188751d55868abcc7dd318007c001",
        "3045022100bca660e19b5c2ea63cb3b23bdcee98b150b2cf804da358556b92bd451e75c5470220431620837c484bf0cf60eef6c84e69d4465a21d65b514e11a623ca6c01424c3801",
        "21024848ce4923a080fb11f19df0d418565629ef6781b3085705434df0b916c413b92103ff418fcf0a4123994058f6df4242ec9e8c2a5cb348e45f49360ebae2cfa85c5c00547a547a527152ae"
      ],
      "sequence": 4294967293
    }
  ],
  "vout": [
    {
      "value": 49.99800000,
      "n": 0,
      "scriptPubKey": {
        "asm": "0 a507d0fb69d09027d07fe08e803581ea6943efab197f09f04c7035f51a27284d",
        "desc": "addr(bcrt1q55rap7mf6zgz05rluz8gqdvpaf558matr9lsnuzvwq6l2x389pxserqnry)#l5580ql2",
        "hex": "0020a507d0fb69d09027d07fe08e803581ea6943efab197f09f04c7035f51a27284d",
        "address": "bcrt1q55rap7mf6zgz05rluz8gqdvpaf558matr9lsnuzvwq6l2x389pxserqnry",
        "type": "witness_v0_scripthash"
      }
    }
  ],
  "hex": "020000000001013b27f7281663e705fddad0fb801a5023281fd72300272a28cd8ee48fee89f2f50000000000fdffffff01c0e4022a01000000220020a507d0fb69d09027d07fe08e803581ea6943efab197f09f04c7035f51a27284d0347304402200e66f528c0dddd6b4c0977e9660f097901b06c15e4084fd0226991fc3e6d324a022001adafa51b4695954da30e69e953cc5fec757188751d55868abcc7dd318007c001483045022100bca660e19b5c2ea63cb3b23bdcee98b150b2cf804da358556b92bd451e75c5470220431620837c484bf0cf60eef6c84e69d4465a21d65b514e11a623ca6c01424c38014d21024848ce4923a080fb11f19df0d418565629ef6781b3085705434df0b916c413b92103ff418fcf0a4123994058f6df4242ec9e8c2a5cb348e45f49360ebae2cfa85c5c00547a547a527152ae00000000",
  "blockhash": "4136040f1be4f9e029832141b62c8634b4c7ddb7bf4026c91499e756bddab7e9",
  "confirmations": 1,
  "time": 1775561192,
  "blocktime": 1775561192
}
[H[2J[3J
-------------
Simulating Spend by User using
*** Option 1 *** of Unlock Tx (Provisional Tx)
(Using just User's Private Key)
-------------
Spend Process - Start
-------------
Create the Spend Tx
-------------
Please enter the destination Bitcoin address.
Enter Address or press [Return] to use default [bcrt1qtqhj28zflvltj9evq7hxezjqu72l954lxyguw8]: Proceeding with address: bcrt1qtqhj28zflvltj9evq7hxezjqu72l954lxyguw8
Done
-------------
Unsigned Spend Tx
-------------
020000000133a9c070e8ab89ce2961f75181a75c28ba8ef763ffba720d9417df9aaacc4bde0000000000e803000001205e012a01000000160014582f251c49fb3eb9172c07ae6c8a40e795f2d2bf00000000
-------------
Checking Unsigned Spend Tx
-------------
{
  "txid": "2a80e7be765318011a62400f1b55234b300d5cecb2f0c02ae75f47299efb25e6",
  "hash": "2a80e7be765318011a62400f1b55234b300d5cecb2f0c02ae75f47299efb25e6",
  "version": 2,
  "size": 82,
  "vsize": 82,
  "weight": 328,
  "locktime": 0,
  "vin": [
    {
      "txid": "de4bccaa9adf17940d72baff63f78eba285ca78151f76129ce89abe870c0a933",
      "vout": 0,
      "scriptSig": {
        "asm": "",
        "hex": ""
      },
      "sequence": 1000
    }
  ],
  "vout": [
    {
      "value": 49.99700000,
      "n": 0,
      "scriptPubKey": {
        "asm": "0 582f251c49fb3eb9172c07ae6c8a40e795f2d2bf",
        "desc": "addr(bcrt1qtqhj28zflvltj9evq7hxezjqu72l954lxyguw8)#lr9n4w0f",
        "hex": "0014582f251c49fb3eb9172c07ae6c8a40e795f2d2bf",
        "address": "bcrt1qtqhj28zflvltj9evq7hxezjqu72l954lxyguw8",
        "type": "witness_v0_keyhash"
      }
    }
  ]
}
-------------
User Signs the Spend Tx
-------------
Original Tx:
{
    "ins": [
        {
            "tx_hash": "de4bccaa9adf17940d72baff63f78eba285ca78151f76129ce89abe870c0a933",
            "tx_pos": 0,
            "script": "",
            "sequence": 1000,
            "value": 4999800000
        }
    ],
    "outs": [
        {
            "value": 4999700000,
            "script": "0014582f251c49fb3eb9172c07ae6c8a40e795f2d2bf"
        }
    ],
    "version": 2,
    "locktime": 0
}
Signature:
3045022100c4d00b4c650ece2353cdd96162cf4da95b44ba177f9be82085780c7111bb8c3502204be1dbd3f8adc8a5eae0696d2728deb6273328eeed6620fb6fc9c3830b18244401
-------------
Spend Tx - User's Signature
-------------
3045022100c4d00b4c650ece2353cdd96162cf4da95b44ba177f9be82085780c7111bb8c3502204be1dbd3f8adc8a5eae0696d2728deb6273328eeed6620fb6fc9c3830b18244401
-------------
Fully Signed Spend Tx:
-------------
Unsigned Tx
{
    "ins": [
        {
            "tx_hash": "de4bccaa9adf17940d72baff63f78eba285ca78151f76129ce89abe870c0a933",
            "tx_pos": 0,
            "script": "",
            "sequence": 1000
        }
    ],
    "outs": [
        {
            "value": 4999700000,
            "script": "0014582f251c49fb3eb9172c07ae6c8a40e795f2d2bf"
        }
    ],
    "version": 2,
    "locktime": 0
}
Signed Tx
{
    "ins": [
        {
            "tx_hash": "de4bccaa9adf17940d72baff63f78eba285ca78151f76129ce89abe870c0a933",
            "tx_pos": 0,
            "script": "",
            "sequence": 1000
        }
    ],
    "outs": [
        {
            "value": 4999700000,
            "script": "0014582f251c49fb3eb9172c07ae6c8a40e795f2d2bf"
        }
    ],
    "version": 2,
    "locktime": 0,
    "witness": [
        {
            "number": 3,
            "scriptCode": "483045022100c4d00b4c650ece2353cdd96162cf4da95b44ba177f9be82085780c7111bb8c3502204be1dbd3f8adc8a5eae0696d2728deb6273328eeed6620fb6fc9c3830b18244401007602881302e80321024848ce4923a080fb11f19df0d418565629ef6781b3085705434df0b916c413b92103ff418fcf0a4123994058f6df4242ec9e8c2a5cb348e45f49360ebae2cfa85c5c54795287637b757b757b7500547a547a527152ae67547a6375777b7cadb2755167777b757b7cadb275516868"
        }
    ],
    "marker": 0,
    "flag": 1
}
0200000000010133a9c070e8ab89ce2961f75181a75c28ba8ef763ffba720d9417df9aaacc4bde0000000000e803000001205e012a01000000160014582f251c49fb3eb9172c07ae6c8a40e795f2d2bf03483045022100c4d00b4c650ece2353cdd96162cf4da95b44ba177f9be82085780c7111bb8c3502204be1dbd3f8adc8a5eae0696d2728deb6273328eeed6620fb6fc9c3830b18244401007602881302e80321024848ce4923a080fb11f19df0d418565629ef6781b3085705434df0b916c413b92103ff418fcf0a4123994058f6df4242ec9e8c2a5cb348e45f49360ebae2cfa85c5c54795287637b757b757b7500547a547a527152ae67547a6375777b7cadb2755167777b757b7cadb27551686800000000
-------------
Checking Fully Signed Spend Tx:
-------------
{
  "txid": "2a80e7be765318011a62400f1b55234b300d5cecb2f0c02ae75f47299efb25e6",
  "hash": "f4dc51fb68e2f9bca230ac2450eee9ae9ea51c6307d58a1bcf6597cbfe90137d",
  "version": 2,
  "size": 278,
  "vsize": 131,
  "weight": 524,
  "locktime": 0,
  "vin": [
    {
      "txid": "de4bccaa9adf17940d72baff63f78eba285ca78151f76129ce89abe870c0a933",
      "vout": 0,
      "scriptSig": {
        "asm": "",
        "hex": ""
      },
      "txinwitness": [
        "3045022100c4d00b4c650ece2353cdd96162cf4da95b44ba177f9be82085780c7111bb8c3502204be1dbd3f8adc8a5eae0696d2728deb6273328eeed6620fb6fc9c3830b18244401",
        "",
        "02881302e80321024848ce4923a080fb11f19df0d418565629ef6781b3085705434df0b916c413b92103ff418fcf0a4123994058f6df4242ec9e8c2a5cb348e45f49360ebae2cfa85c5c54795287637b757b757b7500547a547a527152ae67547a6375777b7cadb2755167777b757b7cadb275516868"
      ],
      "sequence": 1000
    }
  ],
  "vout": [
    {
      "value": 49.99700000,
      "n": 0,
      "scriptPubKey": {
        "asm": "0 582f251c49fb3eb9172c07ae6c8a40e795f2d2bf",
        "desc": "addr(bcrt1qtqhj28zflvltj9evq7hxezjqu72l954lxyguw8)#lr9n4w0f",
        "hex": "0014582f251c49fb3eb9172c07ae6c8a40e795f2d2bf",
        "address": "bcrt1qtqhj28zflvltj9evq7hxezjqu72l954lxyguw8",
        "type": "witness_v0_keyhash"
      }
    }
  ]
}
-------------
Creating Blocks to satisfy Timelocks
-------------
1000 Blocks Created!
-------------
Vaildating Spend Tx
-------------
[
  {
    "txid": "2a80e7be765318011a62400f1b55234b300d5cecb2f0c02ae75f47299efb25e6",
    "wtxid": "f4dc51fb68e2f9bca230ac2450eee9ae9ea51c6307d58a1bcf6597cbfe90137d",
    "allowed": true,
    "vsize": 131,
    "fees": {
      "base": 0.00100000,
      "effective-feerate": 0.00763358,
      "effective-includes": [
        "f4dc51fb68e2f9bca230ac2450eee9ae9ea51c6307d58a1bcf6597cbfe90137d"
      ]
    }
  }
]
-------------
Broadcasting Spend Tx
-------------
Done
-------------
Generating Block to confirm Spend Tx
-------------
Done
-------------
Spend Tx Block ID:
-------------
6003d77640d05a4c6b94f539cb78b523282fd1308924fa77d4bc38b8223c0362
-------------
Confirmed Spend Tx
-------------
{
  "in_active_chain": true,
  "txid": "2a80e7be765318011a62400f1b55234b300d5cecb2f0c02ae75f47299efb25e6",
  "hash": "f4dc51fb68e2f9bca230ac2450eee9ae9ea51c6307d58a1bcf6597cbfe90137d",
  "version": 2,
  "size": 278,
  "vsize": 131,
  "weight": 524,
  "locktime": 0,
  "vin": [
    {
      "txid": "de4bccaa9adf17940d72baff63f78eba285ca78151f76129ce89abe870c0a933",
      "vout": 0,
      "scriptSig": {
        "asm": "",
        "hex": ""
      },
      "txinwitness": [
        "3045022100c4d00b4c650ece2353cdd96162cf4da95b44ba177f9be82085780c7111bb8c3502204be1dbd3f8adc8a5eae0696d2728deb6273328eeed6620fb6fc9c3830b18244401",
        "",
        "02881302e80321024848ce4923a080fb11f19df0d418565629ef6781b3085705434df0b916c413b92103ff418fcf0a4123994058f6df4242ec9e8c2a5cb348e45f49360ebae2cfa85c5c54795287637b757b757b7500547a547a527152ae67547a6375777b7cadb2755167777b757b7cadb275516868"
      ],
      "sequence": 1000
    }
  ],
  "vout": [
    {
      "value": 49.99700000,
      "n": 0,
      "scriptPubKey": {
        "asm": "0 582f251c49fb3eb9172c07ae6c8a40e795f2d2bf",
        "desc": "addr(bcrt1qtqhj28zflvltj9evq7hxezjqu72l954lxyguw8)#lr9n4w0f",
        "hex": "0014582f251c49fb3eb9172c07ae6c8a40e795f2d2bf",
        "address": "bcrt1qtqhj28zflvltj9evq7hxezjqu72l954lxyguw8",
        "type": "witness_v0_keyhash"
      }
    }
  ],
  "hex": "0200000000010133a9c070e8ab89ce2961f75181a75c28ba8ef763ffba720d9417df9aaacc4bde0000000000e803000001205e012a01000000160014582f251c49fb3eb9172c07ae6c8a40e795f2d2bf03483045022100c4d00b4c650ece2353cdd96162cf4da95b44ba177f9be82085780c7111bb8c3502204be1dbd3f8adc8a5eae0696d2728deb6273328eeed6620fb6fc9c3830b18244401007602881302e80321024848ce4923a080fb11f19df0d418565629ef6781b3085705434df0b916c413b92103ff418fcf0a4123994058f6df4242ec9e8c2a5cb348e45f49360ebae2cfa85c5c54795287637b757b757b7500547a547a527152ae67547a6375777b7cadb2755167777b757b7cadb27551686800000000",
  "blockhash": "6003d77640d05a4c6b94f539cb78b523282fd1308924fa77d4bc38b8223c0362",
  "confirmations": 1,
  "time": 1775561359,
  "blocktime": 1775561359
}
-------------
*** Spend/Transfer Complete! ***
-------------
Balance in Destination Address (bcrt1qtqhj28zflvltj9evq7hxezjqu72l954lxyguw8): 49.99700000 BTC
-------------
Stopping Bitcoind
-------------
Bitcoin Core stopping
