-------------
Stopping Bitcoind if it is already running
-------------
Done
-------------
Updating Bitcoind configuration
-------------
Done
-------------
Refreshing & Restarting Bitcoind
-------------
Bitcoin Core starting
Waiting for 5 secs for Bitcoin Demon to Initialize...
-------------
Generating User's Priv-Pub-Addr
-------------
Private Key: cPKccQyrRewtzR3zhgRxmEhvj8wCaGAR9SDM1tq9iKvR3Nog4jYq
Public Key: 02403a91babb085729280f6f85d6de57734f8e55e9e1db875cb1265fd8620a07e4
Address: bcrt1qlgurlrukvrunen39huq3llwryzdkxjtv9803ep
-------------
Generating Sentinel's Priv-Pub-Addr
-------------
Private Key: cQRv1yHN7N57QQVA33yqBww1K5MgDQ8Fke1W3j2jTdLT79CzCfge
Public Key: 02e1715ef5bb99c2cfde2aa442329b88440f0724102eab92d90fd5cdb27f667edc
Address: bcrt1qhuqvhrqp6et5v6pqwtvtl4vnvr7mnpxvhkdq27
-------------
Generating blocks to bootstrap Bitcoin RegTest Blockchain
-------------
Done
-------------
Deposit Tx Redeem Script
-------------
2102e1715ef5bb99c2cfde2aa442329b88440f0724102eab92d90fd5cdb27f667edc2102403a91babb085729280f6f85d6de57734f8e55e9e1db875cb1265fd8620a07e400547a547a527152ae
-------------
Checking Deposit Tx Redeem Script
-------------
{
  "asm": "02e1715ef5bb99c2cfde2aa442329b88440f0724102eab92d90fd5cdb27f667edc 02403a91babb085729280f6f85d6de57734f8e55e9e1db875cb1265fd8620a07e4 0 4 OP_ROLL 4 OP_ROLL 2 OP_2ROT 2 OP_CHECKMULTISIG",
  "desc": "raw(2102e1715ef5bb99c2cfde2aa442329b88440f0724102eab92d90fd5cdb27f667edc2102403a91babb085729280f6f85d6de57734f8e55e9e1db875cb1265fd8620a07e400547a547a527152ae)#mxwn2aum",
  "type": "nonstandard",
  "p2sh": "2NEKcxWMmWcM2vafQAjnttuwjNLfFoB7zDp",
  "segwit": {
    "asm": "0 e1708f0dd6e8a6508d52de68b9971b84508aff92c8db6c9041616d476891ce00",
    "desc": "wsh(raw(2102e1715ef5bb99c2cfde2aa442329b88440f0724102eab92d90fd5cdb27f667edc2102403a91babb085729280f6f85d6de57734f8e55e9e1db875cb1265fd8620a07e400547a547a527152ae))#7w9nzy8n",
    "hex": "0020e1708f0dd6e8a6508d52de68b9971b84508aff92c8db6c9041616d476891ce00",
    "address": "bcrt1qu9cg7rwkazn9pr2jme5tn9cms3gg4lujerdkeyzpv9k5w6y3ecqq9mmv7a",
    "type": "witness_v0_scripthash",
    "p2sh-segwit": "2N7vivefTLizn7kjXNFkr7tyJeeDDxjnKJk"
  }
}
-------------
Deposit Tx - Script to Address
-------------
bcrt1qu9cg7rwkazn9pr2jme5tn9cms3gg4lujerdkeyzpv9k5w6y3ecqq9mmv7a
-------------
Creating Unsigned Deposit Tx
-------------
Done
-------------
Unsigned Deposit Tx
-------------
0200000001c4d0a159f8b061af4537f47334915944b59cede9e638d54c54019c1eb509056b0000000000fdffffff01606b042a01000000220020e1708f0dd6e8a6508d52de68b9971b84508aff92c8db6c9041616d476891ce0000000000
-------------
Checking Unsigned Deposit Tx
-------------
{
  "txid": "f5518d0eae414e987b41e6c717aaa175cb5cbce714f3f9ef54088350cd5c1d7c",
  "hash": "f5518d0eae414e987b41e6c717aaa175cb5cbce714f3f9ef54088350cd5c1d7c",
  "version": 2,
  "size": 94,
  "vsize": 94,
  "weight": 376,
  "locktime": 0,
  "vin": [
    {
      "txid": "6b0509b51e9c01544cd538e6e9ed9cb54459913473f43745af61b0f859a1d0c4",
      "vout": 0,
      "scriptSig": {
        "asm": "",
        "hex": ""
      },
      "sequence": 4294967293
    }
  ],
  "vout": [
    {
      "value": 49.99900000,
      "n": 0,
      "scriptPubKey": {
        "asm": "0 e1708f0dd6e8a6508d52de68b9971b84508aff92c8db6c9041616d476891ce00",
        "desc": "addr(bcrt1qu9cg7rwkazn9pr2jme5tn9cms3gg4lujerdkeyzpv9k5w6y3ecqq9mmv7a)#c8z9x87k",
        "hex": "0020e1708f0dd6e8a6508d52de68b9971b84508aff92c8db6c9041616d476891ce00",
        "address": "bcrt1qu9cg7rwkazn9pr2jme5tn9cms3gg4lujerdkeyzpv9k5w6y3ecqq9mmv7a",
        "type": "witness_v0_scripthash"
      }
    }
  ]
}
-------------
Signing the Deposit Tx
-------------
Done
-------------
Signed Deposit Tx
-------------
02000000000101c4d0a159f8b061af4537f47334915944b59cede9e638d54c54019c1eb509056b0000000000fdffffff01606b042a01000000220020e1708f0dd6e8a6508d52de68b9971b84508aff92c8db6c9041616d476891ce0002473044022062bc1488026726ff180c096bc3d4b5cb0d1369c1cf167ed9111dcffa4a47308b02200a5271fbf3b8d7a3a5b826ca5b981d7b30dabb1db8331b64b450f2f8f5f6652b012102403a91babb085729280f6f85d6de57734f8e55e9e1db875cb1265fd8620a07e400000000
-------------
Checking Signed Deposit Tx
-------------
{
  "txid": "f5518d0eae414e987b41e6c717aaa175cb5cbce714f3f9ef54088350cd5c1d7c",
  "hash": "afe2d78625921e2f3766a3bf10c075311f84b4beeafa42f7fc27fe029c32c82a",
  "version": 2,
  "size": 203,
  "vsize": 122,
  "weight": 485,
  "locktime": 0,
  "vin": [
    {
      "txid": "6b0509b51e9c01544cd538e6e9ed9cb54459913473f43745af61b0f859a1d0c4",
      "vout": 0,
      "scriptSig": {
        "asm": "",
        "hex": ""
      },
      "txinwitness": [
        "3044022062bc1488026726ff180c096bc3d4b5cb0d1369c1cf167ed9111dcffa4a47308b02200a5271fbf3b8d7a3a5b826ca5b981d7b30dabb1db8331b64b450f2f8f5f6652b01",
        "02403a91babb085729280f6f85d6de57734f8e55e9e1db875cb1265fd8620a07e4"
      ],
      "sequence": 4294967293
    }
  ],
  "vout": [
    {
      "value": 49.99900000,
      "n": 0,
      "scriptPubKey": {
        "asm": "0 e1708f0dd6e8a6508d52de68b9971b84508aff92c8db6c9041616d476891ce00",
        "desc": "addr(bcrt1qu9cg7rwkazn9pr2jme5tn9cms3gg4lujerdkeyzpv9k5w6y3ecqq9mmv7a)#c8z9x87k",
        "hex": "0020e1708f0dd6e8a6508d52de68b9971b84508aff92c8db6c9041616d476891ce00",
        "address": "bcrt1qu9cg7rwkazn9pr2jme5tn9cms3gg4lujerdkeyzpv9k5w6y3ecqq9mmv7a",
        "type": "witness_v0_scripthash"
      }
    }
  ]
}
-------------
Provsional Tx Redeem Script
-------------
Setting Option 1 (User Private-Key Only) Delay to 1000
Encoded bytes (hex): e803
Setting Option 2 (Sentinel Private-Key Only) Delay to 5000
Encoded bytes (hex): 8813
Hex:
02881302e8032102e1715ef5bb99c2cfde2aa442329b88440f0724102eab92d90fd5cdb27f667edc2102403a91babb085729280f6f85d6de57734f8e55e9e1db875cb1265fd8620a07e454795287637b757b757b7500547a547a527152ae67547a6375777b7cadb2755167777b757b7cadb275516868
-------------
Checking Provisional Tx Redeem Script
-------------
{
  "asm": "5000 1000 02e1715ef5bb99c2cfde2aa442329b88440f0724102eab92d90fd5cdb27f667edc 02403a91babb085729280f6f85d6de57734f8e55e9e1db875cb1265fd8620a07e4 4 OP_PICK 2 OP_EQUAL OP_IF OP_ROT OP_DROP OP_ROT OP_DROP OP_ROT OP_DROP 0 4 OP_ROLL 4 OP_ROLL 2 OP_2ROT 2 OP_CHECKMULTISIG OP_ELSE 4 OP_ROLL OP_IF OP_DROP OP_NIP OP_ROT OP_SWAP OP_CHECKSIGVERIFY OP_CHECKSEQUENCEVERIFY OP_DROP 1 OP_ELSE OP_NIP OP_ROT OP_DROP OP_ROT OP_SWAP OP_CHECKSIGVERIFY OP_CHECKSEQUENCEVERIFY OP_DROP 1 OP_ENDIF OP_ENDIF",
  "desc": "raw(02881302e8032102e1715ef5bb99c2cfde2aa442329b88440f0724102eab92d90fd5cdb27f667edc2102403a91babb085729280f6f85d6de57734f8e55e9e1db875cb1265fd8620a07e454795287637b757b757b7500547a547a527152ae67547a6375777b7cadb2755167777b757b7cadb275516868)#fdj4fu2z",
  "type": "nonstandard",
  "p2sh": "2MzRmrK8JEqxnV6v2fCGUomg3rfv3EEqECx",
  "segwit": {
    "asm": "0 88b943c1ae0e2941e5a83db45b0c5d8c46e484748f72a221799d14a54b234b2d",
    "desc": "wsh(raw(02881302e8032102e1715ef5bb99c2cfde2aa442329b88440f0724102eab92d90fd5cdb27f667edc2102403a91babb085729280f6f85d6de57734f8e55e9e1db875cb1265fd8620a07e454795287637b757b757b7500547a547a527152ae67547a6375777b7cadb2755167777b757b7cadb275516868))#f2w7vfa3",
    "hex": "002088b943c1ae0e2941e5a83db45b0c5d8c46e484748f72a221799d14a54b234b2d",
    "address": "bcrt1q3zu58sdwpc55redg8k69krza33rwfpr53ae2ygten5222jerfvks4yrfny",
    "type": "witness_v0_scripthash",
    "p2sh-segwit": "2N1GTiQzVSLXeCSqSR2RWZEYmCXRDYqYoot"
  }
}
-------------
Provisional Tx - Script to Address
-------------
bcrt1q3zu58sdwpc55redg8k69krza33rwfpr53ae2ygten5222jerfvks4yrfny
-------------
Creating Unsigned Provisional Tx
-------------
02000000017c1d5ccd50830854eff9f314e7bc5ccb75a1aa17c7e6417b984e41ae0e8d51f50000000000fdffffff01c0e4022a0100000022002088b943c1ae0e2941e5a83db45b0c5d8c46e484748f72a221799d14a54b234b2d00000000
-------------
Checking Unsigned Prov Tx Created by User
-------------
{
  "txid": "b237944b5e917d2e92d93f6831c126d8794b941e97b6c06ef7cf8ce8b1cdde46",
  "hash": "b237944b5e917d2e92d93f6831c126d8794b941e97b6c06ef7cf8ce8b1cdde46",
  "version": 2,
  "size": 94,
  "vsize": 94,
  "weight": 376,
  "locktime": 0,
  "vin": [
    {
      "txid": "f5518d0eae414e987b41e6c717aaa175cb5cbce714f3f9ef54088350cd5c1d7c",
      "vout": 0,
      "scriptSig": {
        "asm": "",
        "hex": ""
      },
      "sequence": 4294967293
    }
  ],
  "vout": [
    {
      "value": 49.99800000,
      "n": 0,
      "scriptPubKey": {
        "asm": "0 88b943c1ae0e2941e5a83db45b0c5d8c46e484748f72a221799d14a54b234b2d",
        "desc": "addr(bcrt1q3zu58sdwpc55redg8k69krza33rwfpr53ae2ygten5222jerfvks4yrfny)#ka2kud9d",
        "hex": "002088b943c1ae0e2941e5a83db45b0c5d8c46e484748f72a221799d14a54b234b2d",
        "address": "bcrt1q3zu58sdwpc55redg8k69krza33rwfpr53ae2ygten5222jerfvks4yrfny",
        "type": "witness_v0_scripthash"
      }
    }
  ]
}
-------------
Simulating the transfer of Unsigned Provisional Tx copy
to Sentinel!
-------------
[U] --> Unsigned Provisional Tx --> [L]
-------------
Sentinel signs the Unsigned Provisional Tx
with his Private Key
-------------
Original Tx:
{
    "ins": [
        {
            "tx_hash": "f5518d0eae414e987b41e6c717aaa175cb5cbce714f3f9ef54088350cd5c1d7c",
            "tx_pos": 0,
            "script": "",
            "sequence": 4294967293,
            "value": 4999900000
        }
    ],
    "outs": [
        {
            "value": 4999800000,
            "script": "002088b943c1ae0e2941e5a83db45b0c5d8c46e484748f72a221799d14a54b234b2d"
        }
    ],
    "version": 2,
    "locktime": 0
}
Signature:
30450221008d1506712830eebf8736b1d2b7fd7f7ffd09a5248a53eeffaae4ad63b0e2dd7c02205f2ce3cbadbd1bd041b11652121db369e72c15b95dc4a55801c9be49393a628701
-------------
ProvTx - Sentinel's Signature
-------------
30450221008d1506712830eebf8736b1d2b7fd7f7ffd09a5248a53eeffaae4ad63b0e2dd7c02205f2ce3cbadbd1bd041b11652121db369e72c15b95dc4a55801c9be49393a628701
-------------
Simulating the transfer of Partially Signed Provisional Tx
to User!
-------------
[L] --> Partially Signed Provisional Tx --> [U]
-------------
User signs the Unsigned Provisional Tx
with his Private Key
-------------
Original Tx:
{
    "ins": [
        {
            "tx_hash": "f5518d0eae414e987b41e6c717aaa175cb5cbce714f3f9ef54088350cd5c1d7c",
            "tx_pos": 0,
            "script": "",
            "sequence": 4294967293,
            "value": 4999900000
        }
    ],
    "outs": [
        {
            "value": 4999800000,
            "script": "002088b943c1ae0e2941e5a83db45b0c5d8c46e484748f72a221799d14a54b234b2d"
        }
    ],
    "version": 2,
    "locktime": 0
}
Signature:
30440220217bae9ff494fde95324ce8bbd2b1f49d34b7c9f6d343a73427506715dfd27f70220078526a7c5a4379741c757fa86debd81dddb5550e054f6157a1dab040fe05d0501
-------------
ProvTx - User Signature
-------------
30440220217bae9ff494fde95324ce8bbd2b1f49d34b7c9f6d343a73427506715dfd27f70220078526a7c5a4379741c757fa86debd81dddb5550e054f6157a1dab040fe05d0501
-------------
Simulating the transfer of Partially Signed Provisional Tx copy
to Sentinel!
-------------
[U] --> Partially Signed Provisional Tx --> [L]
-------------
User signs & broadcasts the Deposit Tx
after receiving the Partially signed Provisional Tx
-------------
Done
-------------
Generating Block to confirm the Deposit Tx
-------------
Deposit Tx Block: 7225b3aabc03021ed69cb847d6308b4d6bf95061b174fc99a23f152cfe2b618b
-------------
Confirmed Deposit Tx
-------------
{
  "in_active_chain": true,
  "txid": "f5518d0eae414e987b41e6c717aaa175cb5cbce714f3f9ef54088350cd5c1d7c",
  "hash": "afe2d78625921e2f3766a3bf10c075311f84b4beeafa42f7fc27fe029c32c82a",
  "version": 2,
  "size": 203,
  "vsize": 122,
  "weight": 485,
  "locktime": 0,
  "vin": [
    {
      "txid": "6b0509b51e9c01544cd538e6e9ed9cb54459913473f43745af61b0f859a1d0c4",
      "vout": 0,
      "scriptSig": {
        "asm": "",
        "hex": ""
      },
      "txinwitness": [
        "3044022062bc1488026726ff180c096bc3d4b5cb0d1369c1cf167ed9111dcffa4a47308b02200a5271fbf3b8d7a3a5b826ca5b981d7b30dabb1db8331b64b450f2f8f5f6652b01",
        "02403a91babb085729280f6f85d6de57734f8e55e9e1db875cb1265fd8620a07e4"
      ],
      "sequence": 4294967293
    }
  ],
  "vout": [
    {
      "value": 49.99900000,
      "n": 0,
      "scriptPubKey": {
        "asm": "0 e1708f0dd6e8a6508d52de68b9971b84508aff92c8db6c9041616d476891ce00",
        "desc": "addr(bcrt1qu9cg7rwkazn9pr2jme5tn9cms3gg4lujerdkeyzpv9k5w6y3ecqq9mmv7a)#c8z9x87k",
        "hex": "0020e1708f0dd6e8a6508d52de68b9971b84508aff92c8db6c9041616d476891ce00",
        "address": "bcrt1qu9cg7rwkazn9pr2jme5tn9cms3gg4lujerdkeyzpv9k5w6y3ecqq9mmv7a",
        "type": "witness_v0_scripthash"
      }
    }
  ],
  "hex": "02000000000101c4d0a159f8b061af4537f47334915944b59cede9e638d54c54019c1eb509056b0000000000fdffffff01606b042a01000000220020e1708f0dd6e8a6508d52de68b9971b84508aff92c8db6c9041616d476891ce0002473044022062bc1488026726ff180c096bc3d4b5cb0d1369c1cf167ed9111dcffa4a47308b02200a5271fbf3b8d7a3a5b826ca5b981d7b30dabb1db8331b64b450f2f8f5f6652b012102403a91babb085729280f6f85d6de57734f8e55e9e1db875cb1265fd8620a07e400000000",
  "blockhash": "7225b3aabc03021ed69cb847d6308b4d6bf95061b174fc99a23f152cfe2b618b",
  "confirmations": 1,
  "time": 1775320228,
  "blocktime": 1775320228
}
-------------
***Smart Vault Setup Complete!***
-------------
User is now assured of his
Bitcoin's safety and security
as his Bitcoin is now in Joint Custody and
rest everything is managed using the
Partially Signed Provisional Transactions
with User and Sentinel after the Smart Vault setup!
-------------
Press any key to continue...
-------------
Simulating the recovery process by User
in coordintion with Sentinel
as his private-key is lost!
(Requires only Sentinel's private-key)
-------------
Press any key to start recovery...
-------------
Sentinel signs the Partially Signed
Provisional Tx received from User
with its Private Key
-------------
Done
-------------
Sentinel's Private Key Generated Signature for Provisional Tx:
-------------
30450221008d1506712830eebf8736b1d2b7fd7f7ffd09a5248a53eeffaae4ad63b0e2dd7c02205f2ce3cbadbd1bd041b11652121db369e72c15b95dc4a55801c9be49393a628701
-------------
Fully Signed Provisional Tx :
-------------
Unsigned Tx
{
    "ins": [
        {
            "tx_hash": "f5518d0eae414e987b41e6c717aaa175cb5cbce714f3f9ef54088350cd5c1d7c",
            "tx_pos": 0,
            "script": "",
            "sequence": 4294967293
        }
    ],
    "outs": [
        {
            "value": 4999800000,
            "script": "002088b943c1ae0e2941e5a83db45b0c5d8c46e484748f72a221799d14a54b234b2d"
        }
    ],
    "version": 2,
    "locktime": 0
}
Signed Tx
{
    "ins": [
        {
            "tx_hash": "f5518d0eae414e987b41e6c717aaa175cb5cbce714f3f9ef54088350cd5c1d7c",
            "tx_pos": 0,
            "script": "",
            "sequence": 4294967293
        }
    ],
    "outs": [
        {
            "value": 4999800000,
            "script": "002088b943c1ae0e2941e5a83db45b0c5d8c46e484748f72a221799d14a54b234b2d"
        }
    ],
    "version": 2,
    "locktime": 0,
    "witness": [
        {
            "number": 3,
            "scriptCode": "4830450221008d1506712830eebf8736b1d2b7fd7f7ffd09a5248a53eeffaae4ad63b0e2dd7c02205f2ce3cbadbd1bd041b11652121db369e72c15b95dc4a55801c9be49393a6287014730440220217bae9ff494fde95324ce8bbd2b1f49d34b7c9f6d343a73427506715dfd27f70220078526a7c5a4379741c757fa86debd81dddb5550e054f6157a1dab040fe05d05014d2102e1715ef5bb99c2cfde2aa442329b88440f0724102eab92d90fd5cdb27f667edc2102403a91babb085729280f6f85d6de57734f8e55e9e1db875cb1265fd8620a07e400547a547a527152ae"
        }
    ],
    "marker": 0,
    "flag": 1
}
020000000001017c1d5ccd50830854eff9f314e7bc5ccb75a1aa17c7e6417b984e41ae0e8d51f50000000000fdffffff01c0e4022a0100000022002088b943c1ae0e2941e5a83db45b0c5d8c46e484748f72a221799d14a54b234b2d034830450221008d1506712830eebf8736b1d2b7fd7f7ffd09a5248a53eeffaae4ad63b0e2dd7c02205f2ce3cbadbd1bd041b11652121db369e72c15b95dc4a55801c9be49393a6287014730440220217bae9ff494fde95324ce8bbd2b1f49d34b7c9f6d343a73427506715dfd27f70220078526a7c5a4379741c757fa86debd81dddb5550e054f6157a1dab040fe05d05014d2102e1715ef5bb99c2cfde2aa442329b88440f0724102eab92d90fd5cdb27f667edc2102403a91babb085729280f6f85d6de57734f8e55e9e1db875cb1265fd8620a07e400547a547a527152ae00000000
-------------
Checking Fully Signed Provisional Tx :
-------------
{
  "txid": "b237944b5e917d2e92d93f6831c126d8794b941e97b6c06ef7cf8ce8b1cdde46",
  "hash": "e4c668f3242078b320020c9a8034b2d143f2e0c186557571be842cdbb72e4c27",
  "version": 2,
  "size": 320,
  "vsize": 151,
  "weight": 602,
  "locktime": 0,
  "vin": [
    {
      "txid": "f5518d0eae414e987b41e6c717aaa175cb5cbce714f3f9ef54088350cd5c1d7c",
      "vout": 0,
      "scriptSig": {
        "asm": "",
        "hex": ""
      },
      "txinwitness": [
        "30450221008d1506712830eebf8736b1d2b7fd7f7ffd09a5248a53eeffaae4ad63b0e2dd7c02205f2ce3cbadbd1bd041b11652121db369e72c15b95dc4a55801c9be49393a628701",
        "30440220217bae9ff494fde95324ce8bbd2b1f49d34b7c9f6d343a73427506715dfd27f70220078526a7c5a4379741c757fa86debd81dddb5550e054f6157a1dab040fe05d0501",
        "2102e1715ef5bb99c2cfde2aa442329b88440f0724102eab92d90fd5cdb27f667edc2102403a91babb085729280f6f85d6de57734f8e55e9e1db875cb1265fd8620a07e400547a547a527152ae"
      ],
      "sequence": 4294967293
    }
  ],
  "vout": [
    {
      "value": 49.99800000,
      "n": 0,
      "scriptPubKey": {
        "asm": "0 88b943c1ae0e2941e5a83db45b0c5d8c46e484748f72a221799d14a54b234b2d",
        "desc": "addr(bcrt1q3zu58sdwpc55redg8k69krza33rwfpr53ae2ygten5222jerfvks4yrfny)#ka2kud9d",
        "hex": "002088b943c1ae0e2941e5a83db45b0c5d8c46e484748f72a221799d14a54b234b2d",
        "address": "bcrt1q3zu58sdwpc55redg8k69krza33rwfpr53ae2ygten5222jerfvks4yrfny",
        "type": "witness_v0_scripthash"
      }
    }
  ]
}
-------------
Vaildate Fully Signed Provisional Tx
-------------
[
  {
    "txid": "b237944b5e917d2e92d93f6831c126d8794b941e97b6c06ef7cf8ce8b1cdde46",
    "wtxid": "e4c668f3242078b320020c9a8034b2d143f2e0c186557571be842cdbb72e4c27",
    "allowed": true,
    "vsize": 151,
    "fees": {
      "base": 0.00100000,
      "effective-feerate": 0.00662251,
      "effective-includes": [
        "e4c668f3242078b320020c9a8034b2d143f2e0c186557571be842cdbb72e4c27"
      ]
    }
  }
]
-------------
Broadcast Fully Signed Provisional Tx
-------------
Done
-------------
Generating Block to confirm Provisional Tx
-------------
Done
-------------
Provisional Tx Block:
-------------
7810e744f21cfe4a758d099bb5defba181980097f00f6cc23cf383d95008952f
-------------
Confirmed Provisional Tx
-------------
{
  "in_active_chain": true,
  "txid": "b237944b5e917d2e92d93f6831c126d8794b941e97b6c06ef7cf8ce8b1cdde46",
  "hash": "e4c668f3242078b320020c9a8034b2d143f2e0c186557571be842cdbb72e4c27",
  "version": 2,
  "size": 320,
  "vsize": 151,
  "weight": 602,
  "locktime": 0,
  "vin": [
    {
      "txid": "f5518d0eae414e987b41e6c717aaa175cb5cbce714f3f9ef54088350cd5c1d7c",
      "vout": 0,
      "scriptSig": {
        "asm": "",
        "hex": ""
      },
      "txinwitness": [
        "30450221008d1506712830eebf8736b1d2b7fd7f7ffd09a5248a53eeffaae4ad63b0e2dd7c02205f2ce3cbadbd1bd041b11652121db369e72c15b95dc4a55801c9be49393a628701",
        "30440220217bae9ff494fde95324ce8bbd2b1f49d34b7c9f6d343a73427506715dfd27f70220078526a7c5a4379741c757fa86debd81dddb5550e054f6157a1dab040fe05d0501",
        "2102e1715ef5bb99c2cfde2aa442329b88440f0724102eab92d90fd5cdb27f667edc2102403a91babb085729280f6f85d6de57734f8e55e9e1db875cb1265fd8620a07e400547a547a527152ae"
      ],
      "sequence": 4294967293
    }
  ],
  "vout": [
    {
      "value": 49.99800000,
      "n": 0,
      "scriptPubKey": {
        "asm": "0 88b943c1ae0e2941e5a83db45b0c5d8c46e484748f72a221799d14a54b234b2d",
        "desc": "addr(bcrt1q3zu58sdwpc55redg8k69krza33rwfpr53ae2ygten5222jerfvks4yrfny)#ka2kud9d",
        "hex": "002088b943c1ae0e2941e5a83db45b0c5d8c46e484748f72a221799d14a54b234b2d",
        "address": "bcrt1q3zu58sdwpc55redg8k69krza33rwfpr53ae2ygten5222jerfvks4yrfny",
        "type": "witness_v0_scripthash"
      }
    }
  ],
  "hex": "020000000001017c1d5ccd50830854eff9f314e7bc5ccb75a1aa17c7e6417b984e41ae0e8d51f50000000000fdffffff01c0e4022a0100000022002088b943c1ae0e2941e5a83db45b0c5d8c46e484748f72a221799d14a54b234b2d034830450221008d1506712830eebf8736b1d2b7fd7f7ffd09a5248a53eeffaae4ad63b0e2dd7c02205f2ce3cbadbd1bd041b11652121db369e72c15b95dc4a55801c9be49393a6287014730440220217bae9ff494fde95324ce8bbd2b1f49d34b7c9f6d343a73427506715dfd27f70220078526a7c5a4379741c757fa86debd81dddb5550e054f6157a1dab040fe05d05014d2102e1715ef5bb99c2cfde2aa442329b88440f0724102eab92d90fd5cdb27f667edc2102403a91babb085729280f6f85d6de57734f8e55e9e1db875cb1265fd8620a07e400547a547a527152ae00000000",
  "blockhash": "7810e744f21cfe4a758d099bb5defba181980097f00f6cc23cf383d95008952f",
  "confirmations": 1,
  "time": 1775320228,
  "blocktime": 1775320228
}
-------------
Simulating Recovery by User using
***Option 2*** of Provisonal Tx
(Using just Sentinel's Private Key)
-------------
Recovery Process - Start
-------------
User creates the Recovery Tx
-------------
Done
-------------
Unsigned Recovery Tx
-------------
020000000146decdb1e88ccff76ec0b6971e944b79d826c131683fd9922e7d915e4b9437b200000000008813000001205e012a01000000160014fa383f8f9660f93cce25bf011ffdc3209b63496c00000000
-------------
Checking Unsigned Recovery Tx
-------------
{
  "txid": "8667dac74a5ba27bc5a8df77e777425993bf38266a2c912df29e94e30f32a322",
  "hash": "8667dac74a5ba27bc5a8df77e777425993bf38266a2c912df29e94e30f32a322",
  "version": 2,
  "size": 82,
  "vsize": 82,
  "weight": 328,
  "locktime": 0,
  "vin": [
    {
      "txid": "b237944b5e917d2e92d93f6831c126d8794b941e97b6c06ef7cf8ce8b1cdde46",
      "vout": 0,
      "scriptSig": {
        "asm": "",
        "hex": ""
      },
      "sequence": 5000
    }
  ],
  "vout": [
    {
      "value": 49.99700000,
      "n": 0,
      "scriptPubKey": {
        "asm": "0 fa383f8f9660f93cce25bf011ffdc3209b63496c",
        "desc": "addr(bcrt1qlgurlrukvrunen39huq3llwryzdkxjtv9803ep)#szlc4syg",
        "hex": "0014fa383f8f9660f93cce25bf011ffdc3209b63496c",
        "address": "bcrt1qlgurlrukvrunen39huq3llwryzdkxjtv9803ep",
        "type": "witness_v0_keyhash"
      }
    }
  ]
}
-------------
Simulating the transfer of Unsigned Recovery Tx
from User to Sentinel!
-------------
[U] --> Unsigned Provisional Tx --> [L]
-------------
Sentinel Signs the Recovery Tx
-------------
Original Tx:
{
    "ins": [
        {
            "tx_hash": "b237944b5e917d2e92d93f6831c126d8794b941e97b6c06ef7cf8ce8b1cdde46",
            "tx_pos": 0,
            "script": "",
            "sequence": 5000,
            "value": 4999800000
        }
    ],
    "outs": [
        {
            "value": 4999700000,
            "script": "0014fa383f8f9660f93cce25bf011ffdc3209b63496c"
        }
    ],
    "version": 2,
    "locktime": 0
}
Signature:
3045022100aed38c35d2fd58c14e038d6c121477cc11a9ddd3599a2e44f2f3350b1ab7f8cc022023b3a8f3d7ceda08ddbe991c48bc4cd36424347bcaaadfa0a26c12e1599fab9e01
-------------
Recovery Tx - Sentinel's Signature
-------------
3045022100aed38c35d2fd58c14e038d6c121477cc11a9ddd3599a2e44f2f3350b1ab7f8cc022023b3a8f3d7ceda08ddbe991c48bc4cd36424347bcaaadfa0a26c12e1599fab9e01
-------------
Fully Signed Recovery Tx:
-------------
Unsigned Tx
{
    "ins": [
        {
            "tx_hash": "b237944b5e917d2e92d93f6831c126d8794b941e97b6c06ef7cf8ce8b1cdde46",
            "tx_pos": 0,
            "script": "",
            "sequence": 5000
        }
    ],
    "outs": [
        {
            "value": 4999700000,
            "script": "0014fa383f8f9660f93cce25bf011ffdc3209b63496c"
        }
    ],
    "version": 2,
    "locktime": 0
}
Signed Tx
{
    "ins": [
        {
            "tx_hash": "b237944b5e917d2e92d93f6831c126d8794b941e97b6c06ef7cf8ce8b1cdde46",
            "tx_pos": 0,
            "script": "",
            "sequence": 5000
        }
    ],
    "outs": [
        {
            "value": 4999700000,
            "script": "0014fa383f8f9660f93cce25bf011ffdc3209b63496c"
        }
    ],
    "version": 2,
    "locktime": 0,
    "witness": [
        {
            "number": 3,
            "scriptCode": "483045022100aed38c35d2fd58c14e038d6c121477cc11a9ddd3599a2e44f2f3350b1ab7f8cc022023b3a8f3d7ceda08ddbe991c48bc4cd36424347bcaaadfa0a26c12e1599fab9e0101017602881302e8032102e1715ef5bb99c2cfde2aa442329b88440f0724102eab92d90fd5cdb27f667edc2102403a91babb085729280f6f85d6de57734f8e55e9e1db875cb1265fd8620a07e454795287637b757b757b7500547a547a527152ae67547a6375777b7cadb2755167777b757b7cadb275516868"
        }
    ],
    "marker": 0,
    "flag": 1
}
0200000000010146decdb1e88ccff76ec0b6971e944b79d826c131683fd9922e7d915e4b9437b200000000008813000001205e012a01000000160014fa383f8f9660f93cce25bf011ffdc3209b63496c03483045022100aed38c35d2fd58c14e038d6c121477cc11a9ddd3599a2e44f2f3350b1ab7f8cc022023b3a8f3d7ceda08ddbe991c48bc4cd36424347bcaaadfa0a26c12e1599fab9e0101017602881302e8032102e1715ef5bb99c2cfde2aa442329b88440f0724102eab92d90fd5cdb27f667edc2102403a91babb085729280f6f85d6de57734f8e55e9e1db875cb1265fd8620a07e454795287637b757b757b7500547a547a527152ae67547a6375777b7cadb2755167777b757b7cadb27551686800000000
-------------
Checking Fully Signed Recovery Tx:
-------------
{
  "txid": "8667dac74a5ba27bc5a8df77e777425993bf38266a2c912df29e94e30f32a322",
  "hash": "5392c70577095147d346f2c901cd13a6d62a2bd59d30a2d4ca9352f593d2bb22",
  "version": 2,
  "size": 279,
  "vsize": 132,
  "weight": 525,
  "locktime": 0,
  "vin": [
    {
      "txid": "b237944b5e917d2e92d93f6831c126d8794b941e97b6c06ef7cf8ce8b1cdde46",
      "vout": 0,
      "scriptSig": {
        "asm": "",
        "hex": ""
      },
      "txinwitness": [
        "3045022100aed38c35d2fd58c14e038d6c121477cc11a9ddd3599a2e44f2f3350b1ab7f8cc022023b3a8f3d7ceda08ddbe991c48bc4cd36424347bcaaadfa0a26c12e1599fab9e01",
        "01",
        "02881302e8032102e1715ef5bb99c2cfde2aa442329b88440f0724102eab92d90fd5cdb27f667edc2102403a91babb085729280f6f85d6de57734f8e55e9e1db875cb1265fd8620a07e454795287637b757b757b7500547a547a527152ae67547a6375777b7cadb2755167777b757b7cadb275516868"
      ],
      "sequence": 5000
    }
  ],
  "vout": [
    {
      "value": 49.99700000,
      "n": 0,
      "scriptPubKey": {
        "asm": "0 fa383f8f9660f93cce25bf011ffdc3209b63496c",
        "desc": "addr(bcrt1qlgurlrukvrunen39huq3llwryzdkxjtv9803ep)#szlc4syg",
        "hex": "0014fa383f8f9660f93cce25bf011ffdc3209b63496c",
        "address": "bcrt1qlgurlrukvrunen39huq3llwryzdkxjtv9803ep",
        "type": "witness_v0_keyhash"
      }
    }
  ]
}
-------------
Creating Blocks to satisfy Timelocks
-------------
Done
-------------
Vaildating Recovery Tx
-------------
[
  {
    "txid": "8667dac74a5ba27bc5a8df77e777425993bf38266a2c912df29e94e30f32a322",
    "wtxid": "5392c70577095147d346f2c901cd13a6d62a2bd59d30a2d4ca9352f593d2bb22",
    "allowed": true,
    "vsize": 132,
    "fees": {
      "base": 0.00100000,
      "effective-feerate": 0.00757575,
      "effective-includes": [
        "5392c70577095147d346f2c901cd13a6d62a2bd59d30a2d4ca9352f593d2bb22"
      ]
    }
  }
]
-------------
Broadcasting Recovery Tx
-------------
Done
-------------
Generating Block to confirm Recovery Tx
-------------
Done
-------------
Recovery Tx Block ID:
-------------
5f0c4445e58e78084018c62d929af964c2ba997349a83c130bdb6ad56b62043c
-------------
Confirmed Recovery Tx
-------------
{
  "in_active_chain": true,
  "txid": "8667dac74a5ba27bc5a8df77e777425993bf38266a2c912df29e94e30f32a322",
  "hash": "5392c70577095147d346f2c901cd13a6d62a2bd59d30a2d4ca9352f593d2bb22",
  "version": 2,
  "size": 279,
  "vsize": 132,
  "weight": 525,
  "locktime": 0,
  "vin": [
    {
      "txid": "b237944b5e917d2e92d93f6831c126d8794b941e97b6c06ef7cf8ce8b1cdde46",
      "vout": 0,
      "scriptSig": {
        "asm": "",
        "hex": ""
      },
      "txinwitness": [
        "3045022100aed38c35d2fd58c14e038d6c121477cc11a9ddd3599a2e44f2f3350b1ab7f8cc022023b3a8f3d7ceda08ddbe991c48bc4cd36424347bcaaadfa0a26c12e1599fab9e01",
        "01",
        "02881302e8032102e1715ef5bb99c2cfde2aa442329b88440f0724102eab92d90fd5cdb27f667edc2102403a91babb085729280f6f85d6de57734f8e55e9e1db875cb1265fd8620a07e454795287637b757b757b7500547a547a527152ae67547a6375777b7cadb2755167777b757b7cadb275516868"
      ],
      "sequence": 5000
    }
  ],
  "vout": [
    {
      "value": 49.99700000,
      "n": 0,
      "scriptPubKey": {
        "asm": "0 fa383f8f9660f93cce25bf011ffdc3209b63496c",
        "desc": "addr(bcrt1qlgurlrukvrunen39huq3llwryzdkxjtv9803ep)#szlc4syg",
        "hex": "0014fa383f8f9660f93cce25bf011ffdc3209b63496c",
        "address": "bcrt1qlgurlrukvrunen39huq3llwryzdkxjtv9803ep",
        "type": "witness_v0_keyhash"
      }
    }
  ],
  "hex": "0200000000010146decdb1e88ccff76ec0b6971e944b79d826c131683fd9922e7d915e4b9437b200000000008813000001205e012a01000000160014fa383f8f9660f93cce25bf011ffdc3209b63496c03483045022100aed38c35d2fd58c14e038d6c121477cc11a9ddd3599a2e44f2f3350b1ab7f8cc022023b3a8f3d7ceda08ddbe991c48bc4cd36424347bcaaadfa0a26c12e1599fab9e0101017602881302e8032102e1715ef5bb99c2cfde2aa442329b88440f0724102eab92d90fd5cdb27f667edc2102403a91babb085729280f6f85d6de57734f8e55e9e1db875cb1265fd8620a07e454795287637b757b757b7500547a547a527152ae67547a6375777b7cadb2755167777b757b7cadb27551686800000000",
  "blockhash": "5f0c4445e58e78084018c62d929af964c2ba997349a83c130bdb6ad56b62043c",
  "confirmations": 1,
  "time": 1775321062,
  "blocktime": 1775321062
}
-------------
***Recovery Complete!***
-------------
-------------
Stopping Bitcoind
-------------
Bitcoin Core stopping
