-------------
Stopping Bitcoind if it is already running
-------------
Done
-------------
Updating Bitcoind configuration
-------------
Done
-------------
Refreshing & Restarting Bitcoind
-------------
Bitcoin Core starting
Waiting for 5 secs for Bitcoin Demon to Initialize...
[H[2J[3J
-------------
Bootstrapping Sentinels (co-signers)
-------------
-------------
Generating Sentinel 1: TrustMax's Credentials
-------------
TrustMax's Public Key: 03628e28a9320566ad93f0d5defb03736117b8992d124f0984bc91bb105d07ec0e
TrustMax's Address: bcrt1qyhcy469lwra8x69jh9srvkm5hmse0c0qlpstck
-------------
Generating Sentinel 2: BlueOrion's Credentials
-------------
BlueOrion's Public Key: 03fc5cb57b50cca6bc4d41c2f9e19b033b44faa64e2b420a04a1dcd13088ae929f
BlueOrion's Address: bcrt1qy5d388fn4405elp7xvk4lnru324jgf4vljyfq5
-------------
Generating Sentinel 3: EuroCrypt's Credentials
-------------
EuroCrypt's Public Key: 03592d8b5c40c6c5bf0f9d687f41af6a000ff0874338ce2c92a2702cd6a76f67df
EuroCrypt's Address: bcrt1qpw0fus7kkhv7dsltasgjvy8787g4qptkhxc2y5
-------------
Sentinels are ready!
Lets initialize your credentials...
-------------
Press any key to generate a key pair for you...
[H[2J[3J
-------------
Generating User's Priv-Pub-Addr
-------------
Private Key: cSewyZZgvAYDfM7BD3kvooRkLRwPqX37ica7nFkq2LthMfFYCuWr
Public Key: 03869f3333ef86528249b14c114190cfe1d86496a28465302c96f7ef5b59828ef3
Address: bcrt1qhgc2eyy2wg0kytkfzkg0y3puun70jsw3p7hp82
-------------
Press any key to continue...
-------------
Generating blocks to bootstrap Bitcoin RegTest Blockchain
-------------
Done
[H[2J[3J
Balance: 50.00000000 BTC
Press any key to start Hybrid Custody Vault setup...
-------------
Choose your Sentinel:
-------------
1) TrustMax • Rating: 4.0 ★ • Avg. Response Time: 42 mins
2) BlueOrion • Rating: 5.0 ★ • Avg. Response Time: 23 mins
3) EuroCrypt • Rating: 4.5 ★ • Avg. Response Time: 34 mins
-------------
Select [1-3] (Default: 1): [H[2J[3J
-------------
Selected Sentinel: TrustMax • Rating: 4.0 ★ • Avg. Response Time: 42 mins
-------------
Press any key to continue...
-------------
Deposit Tx Redeem Script
-------------
2103628e28a9320566ad93f0d5defb03736117b8992d124f0984bc91bb105d07ec0e2103869f3333ef86528249b14c114190cfe1d86496a28465302c96f7ef5b59828ef300547a547a527152ae
-------------
Checking Deposit Tx Redeem Script
-------------
{
  "asm": "03628e28a9320566ad93f0d5defb03736117b8992d124f0984bc91bb105d07ec0e 03869f3333ef86528249b14c114190cfe1d86496a28465302c96f7ef5b59828ef3 0 4 OP_ROLL 4 OP_ROLL 2 OP_2ROT 2 OP_CHECKMULTISIG",
  "desc": "raw(2103628e28a9320566ad93f0d5defb03736117b8992d124f0984bc91bb105d07ec0e2103869f3333ef86528249b14c114190cfe1d86496a28465302c96f7ef5b59828ef300547a547a527152ae)#mzp3wv2g",
  "type": "nonstandard",
  "p2sh": "2N6iSVTxkthj5sGTEwvNT4Q6gWqfzVvCiVe",
  "segwit": {
    "asm": "0 82ba68c2c68a7376f16aa1ad2c0cc98c6214431adc5a54085c943d59fa580c47",
    "desc": "wsh(raw(2103628e28a9320566ad93f0d5defb03736117b8992d124f0984bc91bb105d07ec0e2103869f3333ef86528249b14c114190cfe1d86496a28465302c96f7ef5b59828ef300547a547a527152ae))#e6a5ke9d",
    "hex": "002082ba68c2c68a7376f16aa1ad2c0cc98c6214431adc5a54085c943d59fa580c47",
    "address": "bcrt1qs2ax3skx3fehdut25xkjcrxf333pgsc6m3d9gzzujs74n7jcp3rsz6vfha",
    "type": "witness_v0_scripthash",
    "p2sh-segwit": "2N1BZkgaXX9tgrp9daE5z7AupkSvKCFhfji"
  }
}
-------------
Deposit Tx - Script to Address
-------------
bcrt1qs2ax3skx3fehdut25xkjcrxf333pgsc6m3d9gzzujs74n7jcp3rsz6vfha
-------------
Creating Unsigned Deposit Tx
-------------
Done
-------------
Unsigned Deposit Tx
-------------
02000000011cdf2d45911928261d59f55c0b6c3ab39d27cd3aeba7594282a46391cd41eb470000000000fdffffff01606b042a0100000022002082ba68c2c68a7376f16aa1ad2c0cc98c6214431adc5a54085c943d59fa580c4700000000
-------------
Checking Unsigned Deposit Tx
-------------
{
  "txid": "a2921edd1a84836c0afdab74d2252f7667ce2db63c01dfeecce61d66d48dcb46",
  "hash": "a2921edd1a84836c0afdab74d2252f7667ce2db63c01dfeecce61d66d48dcb46",
  "version": 2,
  "size": 94,
  "vsize": 94,
  "weight": 376,
  "locktime": 0,
  "vin": [
    {
      "txid": "47eb41cd9163a4824259a7eb3acd279db33a6c0b5cf5591d26281991452ddf1c",
      "vout": 0,
      "scriptSig": {
        "asm": "",
        "hex": ""
      },
      "sequence": 4294967293
    }
  ],
  "vout": [
    {
      "value": 49.99900000,
      "n": 0,
      "scriptPubKey": {
        "asm": "0 82ba68c2c68a7376f16aa1ad2c0cc98c6214431adc5a54085c943d59fa580c47",
        "desc": "addr(bcrt1qs2ax3skx3fehdut25xkjcrxf333pgsc6m3d9gzzujs74n7jcp3rsz6vfha)#eyhy79sz",
        "hex": "002082ba68c2c68a7376f16aa1ad2c0cc98c6214431adc5a54085c943d59fa580c47",
        "address": "bcrt1qs2ax3skx3fehdut25xkjcrxf333pgsc6m3d9gzzujs74n7jcp3rsz6vfha",
        "type": "witness_v0_scripthash"
      }
    }
  ]
}
-------------
Signing the Deposit Tx
-------------
Done
-------------
Signed Deposit Tx
-------------
020000000001011cdf2d45911928261d59f55c0b6c3ab39d27cd3aeba7594282a46391cd41eb470000000000fdffffff01606b042a0100000022002082ba68c2c68a7376f16aa1ad2c0cc98c6214431adc5a54085c943d59fa580c4702473044022079ae82fcc79739ee5170e54d6b068afb78e1a7e885ef90a0ecf83f78c3a4fed702201cb3d0274908bb823486a6dfc577e030ca3a81f050220cbd67969049bd13f596012103869f3333ef86528249b14c114190cfe1d86496a28465302c96f7ef5b59828ef300000000
-------------
Checking Signed Deposit Tx
-------------
{
  "txid": "a2921edd1a84836c0afdab74d2252f7667ce2db63c01dfeecce61d66d48dcb46",
  "hash": "c7d7af64d4a5da53f3bad2090a2eb1cdba9c50eff152ac2b22cb24fcc79fb1b4",
  "version": 2,
  "size": 203,
  "vsize": 122,
  "weight": 485,
  "locktime": 0,
  "vin": [
    {
      "txid": "47eb41cd9163a4824259a7eb3acd279db33a6c0b5cf5591d26281991452ddf1c",
      "vout": 0,
      "scriptSig": {
        "asm": "",
        "hex": ""
      },
      "txinwitness": [
        "3044022079ae82fcc79739ee5170e54d6b068afb78e1a7e885ef90a0ecf83f78c3a4fed702201cb3d0274908bb823486a6dfc577e030ca3a81f050220cbd67969049bd13f59601",
        "03869f3333ef86528249b14c114190cfe1d86496a28465302c96f7ef5b59828ef3"
      ],
      "sequence": 4294967293
    }
  ],
  "vout": [
    {
      "value": 49.99900000,
      "n": 0,
      "scriptPubKey": {
        "asm": "0 82ba68c2c68a7376f16aa1ad2c0cc98c6214431adc5a54085c943d59fa580c47",
        "desc": "addr(bcrt1qs2ax3skx3fehdut25xkjcrxf333pgsc6m3d9gzzujs74n7jcp3rsz6vfha)#eyhy79sz",
        "hex": "002082ba68c2c68a7376f16aa1ad2c0cc98c6214431adc5a54085c943d59fa580c47",
        "address": "bcrt1qs2ax3skx3fehdut25xkjcrxf333pgsc6m3d9gzzujs74n7jcp3rsz6vfha",
        "type": "witness_v0_scripthash"
      }
    }
  ]
}
[H[2J[3J
-------------
Your Vault has a 2-step Unlock and Spend process to transfer from it
and there is a mandatory yet configureable delay enforced between these
Unlock and Spend Transactions for every private-key/combination allowed
to spend from this Vault.
-------------
Press any key to configure these delays and continue...
[H[2J[3J
-------------
Lets configure the on-chain delay / cooling period
for spending with your private-key from your Vault!

This will give you time to react and initiate recovery
when your private-key or wallet backup (seed phrase) is stolen
and is used to unlock and potentially spend from your Vault.
-------------
Enter delay in blocks or press [Return] to use default [1000]: Setting Option 1 (User Private-Key Only) Delay to 1000
Encoded bytes (hex): e803
[H[2J[3J
-------------
Now, lets configure the on-chain delay / cooling period
for spending with the Sentinel private-key from your Vault!

This is the delay your Sentinel has to wait before he can
transfer/recover from your Vault in case your private-key
is lost or for managing your inheritance.

PS: This is typically much longer than the previously set delay
and will give you time to react and override any spend attempt
by compromised/rogue Sentinels with just your private-key
eliminating counter-party risk in the Hybrid Custody Ecosystem.
-------------
Enter delay in blocks or press [Return] to use default [5000]: Setting Option 2 (Sentinel Private-Key Only) Delay to 5000
Encoded bytes (hex): 8813
[H[2J[3J
-------------
Now, lets configure the Recovery Address for your Vault!

Once your private-keys are lost or stolen, it is not
safe to recover your Vault to an address controlled by you
as we never know how deep the compromise is.

The best approach would be to temporarily transfer the coins in your
Vault to a custodial wallet address (Coinbase, Binance, etc.) and disable
withdrawls from it until you can create a new secure cold-storage wallet and Vault.

Alternatively, you can setup a new unused Hardware Wallet
with a new seed-phrase and store both the hardware wallet and
seed-phrase backup in a bank locker and use this wallet's address as Recovery Address!

PS: Sentinels are bound by on-chain Staking/Slashing mechanics
to only sign Recovery transactions to this Preconfigured Recovery Address
as no user provided input can be trusted post compromise/setup!
-------------
Enter Recovery Address or press [Return] to use default [bcrt1qwr499k3jwmgm786lyl3yutkcsm9vc2chdhqqeg]: Proceeding with Recovery Address: bcrt1qwr499k3jwmgm786lyl3yutkcsm9vc2chdhqqeg
-------------
Unlock Tx (Provisional Tx) Redeem Script
-------------
Hex: 02881302e8032103628e28a9320566ad93f0d5defb03736117b8992d124f0984bc91bb105d07ec0e2103869f3333ef86528249b14c114190cfe1d86496a28465302c96f7ef5b59828ef354795287637b757b757b7500547a547a527152ae67547a6375777b7cadb2755167777b757b7cadb275516868
-------------
Checking Unlock Tx (Provisional Tx) Redeem Script
-------------
{
  "asm": "5000 1000 03628e28a9320566ad93f0d5defb03736117b8992d124f0984bc91bb105d07ec0e 03869f3333ef86528249b14c114190cfe1d86496a28465302c96f7ef5b59828ef3 4 OP_PICK 2 OP_EQUAL OP_IF OP_ROT OP_DROP OP_ROT OP_DROP OP_ROT OP_DROP 0 4 OP_ROLL 4 OP_ROLL 2 OP_2ROT 2 OP_CHECKMULTISIG OP_ELSE 4 OP_ROLL OP_IF OP_DROP OP_NIP OP_ROT OP_SWAP OP_CHECKSIGVERIFY OP_CHECKSEQUENCEVERIFY OP_DROP 1 OP_ELSE OP_NIP OP_ROT OP_DROP OP_ROT OP_SWAP OP_CHECKSIGVERIFY OP_CHECKSEQUENCEVERIFY OP_DROP 1 OP_ENDIF OP_ENDIF",
  "desc": "raw(02881302e8032103628e28a9320566ad93f0d5defb03736117b8992d124f0984bc91bb105d07ec0e2103869f3333ef86528249b14c114190cfe1d86496a28465302c96f7ef5b59828ef354795287637b757b757b7500547a547a527152ae67547a6375777b7cadb2755167777b757b7cadb275516868)#end0zrhe",
  "type": "nonstandard",
  "p2sh": "2NBbApcmarEZ6zVKFUiXeMzRHphm1BNdueq",
  "segwit": {
    "asm": "0 76065549527eb02206585f0e0f1b43a4cc1dbc2d94a9e6dc9e9dc9090a726ba0",
    "desc": "wsh(raw(02881302e8032103628e28a9320566ad93f0d5defb03736117b8992d124f0984bc91bb105d07ec0e2103869f3333ef86528249b14c114190cfe1d86496a28465302c96f7ef5b59828ef354795287637b757b757b7500547a547a527152ae67547a6375777b7cadb2755167777b757b7cadb275516868))#9n9gxsdr",
    "hex": "002076065549527eb02206585f0e0f1b43a4cc1dbc2d94a9e6dc9e9dc9090a726ba0",
    "address": "bcrt1qwcr92j2j06czypjctu8q7x6r5nxpm0pdjj57dhy7nhysjznjdwsqagdarw",
    "type": "witness_v0_scripthash",
    "p2sh-segwit": "2N3vQ476MGDAsXXiJ5jEPEDznd75m4BVhBg"
  }
}
-------------
Unlock Tx (Provisional Tx) - Script to Address
-------------
bcrt1qwcr92j2j06czypjctu8q7x6r5nxpm0pdjj57dhy7nhysjznjdwsqagdarw
-------------
Creating Unsigned Unlock Tx (Provisional Tx)
-------------
020000000146cb8dd4661de6cceedf013cb62dce67762f25d274abfd0a6c83841add1e92a20000000000fdffffff01c0e4022a0100000022002076065549527eb02206585f0e0f1b43a4cc1dbc2d94a9e6dc9e9dc9090a726ba000000000
-------------
Checking Unsigned Unlock Tx Created by User
-------------
{
  "txid": "91cc8adc15e379cd7f978ba7d944f9e4d769ba29727d358ac4a9a8eb337662bc",
  "hash": "91cc8adc15e379cd7f978ba7d944f9e4d769ba29727d358ac4a9a8eb337662bc",
  "version": 2,
  "size": 94,
  "vsize": 94,
  "weight": 376,
  "locktime": 0,
  "vin": [
    {
      "txid": "a2921edd1a84836c0afdab74d2252f7667ce2db63c01dfeecce61d66d48dcb46",
      "vout": 0,
      "scriptSig": {
        "asm": "",
        "hex": ""
      },
      "sequence": 4294967293
    }
  ],
  "vout": [
    {
      "value": 49.99800000,
      "n": 0,
      "scriptPubKey": {
        "asm": "0 76065549527eb02206585f0e0f1b43a4cc1dbc2d94a9e6dc9e9dc9090a726ba0",
        "desc": "addr(bcrt1qwcr92j2j06czypjctu8q7x6r5nxpm0pdjj57dhy7nhysjznjdwsqagdarw)#t72rnqt3",
        "hex": "002076065549527eb02206585f0e0f1b43a4cc1dbc2d94a9e6dc9e9dc9090a726ba0",
        "address": "bcrt1qwcr92j2j06czypjctu8q7x6r5nxpm0pdjj57dhy7nhysjznjdwsqagdarw",
        "type": "witness_v0_scripthash"
      }
    }
  ]
}
-------------
Simulating the transfer of Unsigned Unlock Tx (Provisional Tx) copy
to Sentinel!
-------------
[U] --> Unsigned Unlock Tx (Provisional Tx) --> [S]
-------------
Sentinel signs the Unsigned Unlock Tx (Provisional Tx)
with his Private Key
-------------
Original Tx:
{
    "ins": [
        {
            "tx_hash": "a2921edd1a84836c0afdab74d2252f7667ce2db63c01dfeecce61d66d48dcb46",
            "tx_pos": 0,
            "script": "",
            "sequence": 4294967293,
            "value": 4999900000
        }
    ],
    "outs": [
        {
            "value": 4999800000,
            "script": "002076065549527eb02206585f0e0f1b43a4cc1dbc2d94a9e6dc9e9dc9090a726ba0"
        }
    ],
    "version": 2,
    "locktime": 0
}
Signature:
304402205d71224a4cad6f2e3a5a1cbf16c8757a23a858224d53bf45b66d2708c2186c0502207407737f939fdcf5694d93529f21505c00ece3d0c87d3d25b5b46868b681768801
-------------
Unlock Tx (Provisional Tx) - Sentinel's Signature
-------------
304402205d71224a4cad6f2e3a5a1cbf16c8757a23a858224d53bf45b66d2708c2186c0502207407737f939fdcf5694d93529f21505c00ece3d0c87d3d25b5b46868b681768801
-------------
Simulating the transfer of Partially Signed Unlock Tx (Provisional Tx)
to User!
-------------
[S] --> Partially Signed Unlock Tx (Provisional Tx) --> [U]
-------------
User signs the Unsigned Unlock Tx (Provisional Tx)
with his Private Key
-------------
Original Tx:
{
    "ins": [
        {
            "tx_hash": "a2921edd1a84836c0afdab74d2252f7667ce2db63c01dfeecce61d66d48dcb46",
            "tx_pos": 0,
            "script": "",
            "sequence": 4294967293,
            "value": 4999900000
        }
    ],
    "outs": [
        {
            "value": 4999800000,
            "script": "002076065549527eb02206585f0e0f1b43a4cc1dbc2d94a9e6dc9e9dc9090a726ba0"
        }
    ],
    "version": 2,
    "locktime": 0
}
Signature:
304402200613edb1055023dcc3aa66c97bf852334b2863de900ed6aabf5d6ca7a93bde5702207c9b1076d5a35e6b2d2a062d905b99b2dfd0bd325b50d263f3484db097f4fa4e01
-------------
Unlock Tx (Provisional Tx) - User Signature
-------------
304402200613edb1055023dcc3aa66c97bf852334b2863de900ed6aabf5d6ca7a93bde5702207c9b1076d5a35e6b2d2a062d905b99b2dfd0bd325b50d263f3484db097f4fa4e01
-------------
Simulating the transfer of Partially Signed Unlock Tx (Provisional Tx) copy
to Sentinel!
-------------
[U] --> Partially Signed Provisional Tx --> [S]
-------------
User signs & broadcasts the Deposit Tx
after receiving the Partially signed Unlock Tx (Provisional Tx)
-------------
a2921edd1a84836c0afdab74d2252f7667ce2db63c01dfeecce61d66d48dcb46
Done
-------------
Generating Block to confirm the Deposit Tx
-------------
Deposit Tx Block: 7d831a1679f4711cf5c478bc312330545ac678001fe18f9afdac9261dd33275e
-------------
Confirmed Deposit Tx
-------------
{
  "in_active_chain": true,
  "txid": "a2921edd1a84836c0afdab74d2252f7667ce2db63c01dfeecce61d66d48dcb46",
  "hash": "c7d7af64d4a5da53f3bad2090a2eb1cdba9c50eff152ac2b22cb24fcc79fb1b4",
  "version": 2,
  "size": 203,
  "vsize": 122,
  "weight": 485,
  "locktime": 0,
  "vin": [
    {
      "txid": "47eb41cd9163a4824259a7eb3acd279db33a6c0b5cf5591d26281991452ddf1c",
      "vout": 0,
      "scriptSig": {
        "asm": "",
        "hex": ""
      },
      "txinwitness": [
        "3044022079ae82fcc79739ee5170e54d6b068afb78e1a7e885ef90a0ecf83f78c3a4fed702201cb3d0274908bb823486a6dfc577e030ca3a81f050220cbd67969049bd13f59601",
        "03869f3333ef86528249b14c114190cfe1d86496a28465302c96f7ef5b59828ef3"
      ],
      "sequence": 4294967293
    }
  ],
  "vout": [
    {
      "value": 49.99900000,
      "n": 0,
      "scriptPubKey": {
        "asm": "0 82ba68c2c68a7376f16aa1ad2c0cc98c6214431adc5a54085c943d59fa580c47",
        "desc": "addr(bcrt1qs2ax3skx3fehdut25xkjcrxf333pgsc6m3d9gzzujs74n7jcp3rsz6vfha)#eyhy79sz",
        "hex": "002082ba68c2c68a7376f16aa1ad2c0cc98c6214431adc5a54085c943d59fa580c47",
        "address": "bcrt1qs2ax3skx3fehdut25xkjcrxf333pgsc6m3d9gzzujs74n7jcp3rsz6vfha",
        "type": "witness_v0_scripthash"
      }
    }
  ],
  "hex": "020000000001011cdf2d45911928261d59f55c0b6c3ab39d27cd3aeba7594282a46391cd41eb470000000000fdffffff01606b042a0100000022002082ba68c2c68a7376f16aa1ad2c0cc98c6214431adc5a54085c943d59fa580c4702473044022079ae82fcc79739ee5170e54d6b068afb78e1a7e885ef90a0ecf83f78c3a4fed702201cb3d0274908bb823486a6dfc577e030ca3a81f050220cbd67969049bd13f596012103869f3333ef86528249b14c114190cfe1d86496a28465302c96f7ef5b59828ef300000000",
  "blockhash": "7d831a1679f4711cf5c478bc312330545ac678001fe18f9afdac9261dd33275e",
  "confirmations": 1,
  "time": 1775639292,
  "blocktime": 1775639292
}
[H[2J[3J
-------------
*** Smart Vault Setup Complete! ***
-------------
You are now assured of your
Bitcoin's safety and security
as your Bitcoin is now in Joint Custody and
rest everything is managed using the
Partially Signed Unlock Txs (Provisional Txs) with you
and your Sentinel after the Smart Vault setup is complete!
-------------
Press any key to continue...
-------------
Initiating Vault termination(spend).
Baseline self-custody mechanics!
(Requires only User's private-key)
-------------
Press any key to start unlock and spend...
-------------
User signs the Partially Signed
Unlock Tx (Provisional Tx) received from Sentinel
with his Private Key
-------------
-------------
User's Private Key Generated Signature for Unlock Tx (Provisional Tx):
-------------
304402200613edb1055023dcc3aa66c97bf852334b2863de900ed6aabf5d6ca7a93bde5702207c9b1076d5a35e6b2d2a062d905b99b2dfd0bd325b50d263f3484db097f4fa4e01
-------------
Fully Signed Unlock Tx (Provisional Tx) :
-------------
Unsigned Tx
{
    "ins": [
        {
            "tx_hash": "a2921edd1a84836c0afdab74d2252f7667ce2db63c01dfeecce61d66d48dcb46",
            "tx_pos": 0,
            "script": "",
            "sequence": 4294967293
        }
    ],
    "outs": [
        {
            "value": 4999800000,
            "script": "002076065549527eb02206585f0e0f1b43a4cc1dbc2d94a9e6dc9e9dc9090a726ba0"
        }
    ],
    "version": 2,
    "locktime": 0
}
Signed Tx
{
    "ins": [
        {
            "tx_hash": "a2921edd1a84836c0afdab74d2252f7667ce2db63c01dfeecce61d66d48dcb46",
            "tx_pos": 0,
            "script": "",
            "sequence": 4294967293
        }
    ],
    "outs": [
        {
            "value": 4999800000,
            "script": "002076065549527eb02206585f0e0f1b43a4cc1dbc2d94a9e6dc9e9dc9090a726ba0"
        }
    ],
    "version": 2,
    "locktime": 0,
    "witness": [
        {
            "number": 3,
            "scriptCode": "47304402205d71224a4cad6f2e3a5a1cbf16c8757a23a858224d53bf45b66d2708c2186c0502207407737f939fdcf5694d93529f21505c00ece3d0c87d3d25b5b46868b68176880147304402200613edb1055023dcc3aa66c97bf852334b2863de900ed6aabf5d6ca7a93bde5702207c9b1076d5a35e6b2d2a062d905b99b2dfd0bd325b50d263f3484db097f4fa4e014d2103628e28a9320566ad93f0d5defb03736117b8992d124f0984bc91bb105d07ec0e2103869f3333ef86528249b14c114190cfe1d86496a28465302c96f7ef5b59828ef300547a547a527152ae"
        }
    ],
    "marker": 0,
    "flag": 1
}
0200000000010146cb8dd4661de6cceedf013cb62dce67762f25d274abfd0a6c83841add1e92a20000000000fdffffff01c0e4022a0100000022002076065549527eb02206585f0e0f1b43a4cc1dbc2d94a9e6dc9e9dc9090a726ba00347304402205d71224a4cad6f2e3a5a1cbf16c8757a23a858224d53bf45b66d2708c2186c0502207407737f939fdcf5694d93529f21505c00ece3d0c87d3d25b5b46868b68176880147304402200613edb1055023dcc3aa66c97bf852334b2863de900ed6aabf5d6ca7a93bde5702207c9b1076d5a35e6b2d2a062d905b99b2dfd0bd325b50d263f3484db097f4fa4e014d2103628e28a9320566ad93f0d5defb03736117b8992d124f0984bc91bb105d07ec0e2103869f3333ef86528249b14c114190cfe1d86496a28465302c96f7ef5b59828ef300547a547a527152ae00000000
-------------
Checking Fully Signed Unlock Tx (Provisional Tx) :
-------------
{
  "txid": "91cc8adc15e379cd7f978ba7d944f9e4d769ba29727d358ac4a9a8eb337662bc",
  "hash": "738571217fe246cbfcc364bec709a24bf738118639391944e2305315e63eeeef",
  "version": 2,
  "size": 319,
  "vsize": 151,
  "weight": 601,
  "locktime": 0,
  "vin": [
    {
      "txid": "a2921edd1a84836c0afdab74d2252f7667ce2db63c01dfeecce61d66d48dcb46",
      "vout": 0,
      "scriptSig": {
        "asm": "",
        "hex": ""
      },
      "txinwitness": [
        "304402205d71224a4cad6f2e3a5a1cbf16c8757a23a858224d53bf45b66d2708c2186c0502207407737f939fdcf5694d93529f21505c00ece3d0c87d3d25b5b46868b681768801",
        "304402200613edb1055023dcc3aa66c97bf852334b2863de900ed6aabf5d6ca7a93bde5702207c9b1076d5a35e6b2d2a062d905b99b2dfd0bd325b50d263f3484db097f4fa4e01",
        "2103628e28a9320566ad93f0d5defb03736117b8992d124f0984bc91bb105d07ec0e2103869f3333ef86528249b14c114190cfe1d86496a28465302c96f7ef5b59828ef300547a547a527152ae"
      ],
      "sequence": 4294967293
    }
  ],
  "vout": [
    {
      "value": 49.99800000,
      "n": 0,
      "scriptPubKey": {
        "asm": "0 76065549527eb02206585f0e0f1b43a4cc1dbc2d94a9e6dc9e9dc9090a726ba0",
        "desc": "addr(bcrt1qwcr92j2j06czypjctu8q7x6r5nxpm0pdjj57dhy7nhysjznjdwsqagdarw)#t72rnqt3",
        "hex": "002076065549527eb02206585f0e0f1b43a4cc1dbc2d94a9e6dc9e9dc9090a726ba0",
        "address": "bcrt1qwcr92j2j06czypjctu8q7x6r5nxpm0pdjj57dhy7nhysjznjdwsqagdarw",
        "type": "witness_v0_scripthash"
      }
    }
  ]
}
-------------
Vaildate Fully Signed Unlock Tx (Provisional Tx)
-------------
[
  {
    "txid": "91cc8adc15e379cd7f978ba7d944f9e4d769ba29727d358ac4a9a8eb337662bc",
    "wtxid": "738571217fe246cbfcc364bec709a24bf738118639391944e2305315e63eeeef",
    "allowed": true,
    "vsize": 151,
    "fees": {
      "base": 0.00100000,
      "effective-feerate": 0.00662251,
      "effective-includes": [
        "738571217fe246cbfcc364bec709a24bf738118639391944e2305315e63eeeef"
      ]
    }
  }
]
-------------
Broadcast Fully Signed Unlock Tx (Provisional Tx)
-------------
Done
-------------
Generating Block to confirm Unlock Tx (Provisional Tx)
-------------
Done
-------------
Unlock Tx (Provisional Tx) Block:
-------------
75c3dbff41994b73a56bc26fce53ac09908fef18d8dac60cf5ba18eac5ee15af
-------------
Confirmed Unlock Tx (Provisional Tx)
-------------
{
  "in_active_chain": true,
  "txid": "91cc8adc15e379cd7f978ba7d944f9e4d769ba29727d358ac4a9a8eb337662bc",
  "hash": "738571217fe246cbfcc364bec709a24bf738118639391944e2305315e63eeeef",
  "version": 2,
  "size": 319,
  "vsize": 151,
  "weight": 601,
  "locktime": 0,
  "vin": [
    {
      "txid": "a2921edd1a84836c0afdab74d2252f7667ce2db63c01dfeecce61d66d48dcb46",
      "vout": 0,
      "scriptSig": {
        "asm": "",
        "hex": ""
      },
      "txinwitness": [
        "304402205d71224a4cad6f2e3a5a1cbf16c8757a23a858224d53bf45b66d2708c2186c0502207407737f939fdcf5694d93529f21505c00ece3d0c87d3d25b5b46868b681768801",
        "304402200613edb1055023dcc3aa66c97bf852334b2863de900ed6aabf5d6ca7a93bde5702207c9b1076d5a35e6b2d2a062d905b99b2dfd0bd325b50d263f3484db097f4fa4e01",
        "2103628e28a9320566ad93f0d5defb03736117b8992d124f0984bc91bb105d07ec0e2103869f3333ef86528249b14c114190cfe1d86496a28465302c96f7ef5b59828ef300547a547a527152ae"
      ],
      "sequence": 4294967293
    }
  ],
  "vout": [
    {
      "value": 49.99800000,
      "n": 0,
      "scriptPubKey": {
        "asm": "0 76065549527eb02206585f0e0f1b43a4cc1dbc2d94a9e6dc9e9dc9090a726ba0",
        "desc": "addr(bcrt1qwcr92j2j06czypjctu8q7x6r5nxpm0pdjj57dhy7nhysjznjdwsqagdarw)#t72rnqt3",
        "hex": "002076065549527eb02206585f0e0f1b43a4cc1dbc2d94a9e6dc9e9dc9090a726ba0",
        "address": "bcrt1qwcr92j2j06czypjctu8q7x6r5nxpm0pdjj57dhy7nhysjznjdwsqagdarw",
        "type": "witness_v0_scripthash"
      }
    }
  ],
  "hex": "0200000000010146cb8dd4661de6cceedf013cb62dce67762f25d274abfd0a6c83841add1e92a20000000000fdffffff01c0e4022a0100000022002076065549527eb02206585f0e0f1b43a4cc1dbc2d94a9e6dc9e9dc9090a726ba00347304402205d71224a4cad6f2e3a5a1cbf16c8757a23a858224d53bf45b66d2708c2186c0502207407737f939fdcf5694d93529f21505c00ece3d0c87d3d25b5b46868b68176880147304402200613edb1055023dcc3aa66c97bf852334b2863de900ed6aabf5d6ca7a93bde5702207c9b1076d5a35e6b2d2a062d905b99b2dfd0bd325b50d263f3484db097f4fa4e014d2103628e28a9320566ad93f0d5defb03736117b8992d124f0984bc91bb105d07ec0e2103869f3333ef86528249b14c114190cfe1d86496a28465302c96f7ef5b59828ef300547a547a527152ae00000000",
  "blockhash": "75c3dbff41994b73a56bc26fce53ac09908fef18d8dac60cf5ba18eac5ee15af",
  "confirmations": 1,
  "time": 1775639292,
  "blocktime": 1775639292
}
[H[2J[3J
-------------
Simulating Spend by User using
*** Option 1 *** of Unlock Tx (Provisional Tx)
(Using just User's Private Key)
-------------
Spend Process - Start
-------------
Create the Spend Tx
-------------
Please enter the destination Bitcoin address.
Enter Address or press [Return] to use default [bcrt1qp9rlf636qsqxqav5gl57erengatj57dmld7kps]: Proceeding with address: bcrt1qp9rlf636qsqxqav5gl57erengatj57dmld7kps
Done
-------------
Unsigned Spend Tx
-------------
0200000001bc627633eba8a9c48a357d7229ba69d7e4f944d9a78b977fcd79e315dc8acc910000000000e803000001205e012a010000001600140947f4ea3a040060759447e9ec8f3347572a79bb00000000
-------------
Checking Unsigned Spend Tx
-------------
{
  "txid": "3de7d23929488de9eff161a115cb29da8cf3e0056da8b4363fd093e2471cf8a2",
  "hash": "3de7d23929488de9eff161a115cb29da8cf3e0056da8b4363fd093e2471cf8a2",
  "version": 2,
  "size": 82,
  "vsize": 82,
  "weight": 328,
  "locktime": 0,
  "vin": [
    {
      "txid": "91cc8adc15e379cd7f978ba7d944f9e4d769ba29727d358ac4a9a8eb337662bc",
      "vout": 0,
      "scriptSig": {
        "asm": "",
        "hex": ""
      },
      "sequence": 1000
    }
  ],
  "vout": [
    {
      "value": 49.99700000,
      "n": 0,
      "scriptPubKey": {
        "asm": "0 0947f4ea3a040060759447e9ec8f3347572a79bb",
        "desc": "addr(bcrt1qp9rlf636qsqxqav5gl57erengatj57dmld7kps)#0jx7rrra",
        "hex": "00140947f4ea3a040060759447e9ec8f3347572a79bb",
        "address": "bcrt1qp9rlf636qsqxqav5gl57erengatj57dmld7kps",
        "type": "witness_v0_keyhash"
      }
    }
  ]
}
-------------
User Signs the Spend Tx
-------------
Original Tx:
{
    "ins": [
        {
            "tx_hash": "91cc8adc15e379cd7f978ba7d944f9e4d769ba29727d358ac4a9a8eb337662bc",
            "tx_pos": 0,
            "script": "",
            "sequence": 1000,
            "value": 4999800000
        }
    ],
    "outs": [
        {
            "value": 4999700000,
            "script": "00140947f4ea3a040060759447e9ec8f3347572a79bb"
        }
    ],
    "version": 2,
    "locktime": 0
}
Signature:
3044022036504b16e4c920aac7b081f4c9dc4245986f50632a628217b7b04f50248b4974022039d2dd7f87d82f8f362c54092f7e9179d5794e61ce891886f2851474645a959c01
-------------
Spend Tx - User's Signature
-------------
3044022036504b16e4c920aac7b081f4c9dc4245986f50632a628217b7b04f50248b4974022039d2dd7f87d82f8f362c54092f7e9179d5794e61ce891886f2851474645a959c01
-------------
Fully Signed Spend Tx:
-------------
Unsigned Tx
{
    "ins": [
        {
            "tx_hash": "91cc8adc15e379cd7f978ba7d944f9e4d769ba29727d358ac4a9a8eb337662bc",
            "tx_pos": 0,
            "script": "",
            "sequence": 1000
        }
    ],
    "outs": [
        {
            "value": 4999700000,
            "script": "00140947f4ea3a040060759447e9ec8f3347572a79bb"
        }
    ],
    "version": 2,
    "locktime": 0
}
Signed Tx
{
    "ins": [
        {
            "tx_hash": "91cc8adc15e379cd7f978ba7d944f9e4d769ba29727d358ac4a9a8eb337662bc",
            "tx_pos": 0,
            "script": "",
            "sequence": 1000
        }
    ],
    "outs": [
        {
            "value": 4999700000,
            "script": "00140947f4ea3a040060759447e9ec8f3347572a79bb"
        }
    ],
    "version": 2,
    "locktime": 0,
    "witness": [
        {
            "number": 3,
            "scriptCode": "473044022036504b16e4c920aac7b081f4c9dc4245986f50632a628217b7b04f50248b4974022039d2dd7f87d82f8f362c54092f7e9179d5794e61ce891886f2851474645a959c01007602881302e8032103628e28a9320566ad93f0d5defb03736117b8992d124f0984bc91bb105d07ec0e2103869f3333ef86528249b14c114190cfe1d86496a28465302c96f7ef5b59828ef354795287637b757b757b7500547a547a527152ae67547a6375777b7cadb2755167777b757b7cadb275516868"
        }
    ],
    "marker": 0,
    "flag": 1
}
02000000000101bc627633eba8a9c48a357d7229ba69d7e4f944d9a78b977fcd79e315dc8acc910000000000e803000001205e012a010000001600140947f4ea3a040060759447e9ec8f3347572a79bb03473044022036504b16e4c920aac7b081f4c9dc4245986f50632a628217b7b04f50248b4974022039d2dd7f87d82f8f362c54092f7e9179d5794e61ce891886f2851474645a959c01007602881302e8032103628e28a9320566ad93f0d5defb03736117b8992d124f0984bc91bb105d07ec0e2103869f3333ef86528249b14c114190cfe1d86496a28465302c96f7ef5b59828ef354795287637b757b757b7500547a547a527152ae67547a6375777b7cadb2755167777b757b7cadb27551686800000000
-------------
Checking Fully Signed Spend Tx:
-------------
{
  "txid": "3de7d23929488de9eff161a115cb29da8cf3e0056da8b4363fd093e2471cf8a2",
  "hash": "e1dfff32272455dcb265b88e32cad2a62823634baf25dec847abc4be64f9f68d",
  "version": 2,
  "size": 277,
  "vsize": 131,
  "weight": 523,
  "locktime": 0,
  "vin": [
    {
      "txid": "91cc8adc15e379cd7f978ba7d944f9e4d769ba29727d358ac4a9a8eb337662bc",
      "vout": 0,
      "scriptSig": {
        "asm": "",
        "hex": ""
      },
      "txinwitness": [
        "3044022036504b16e4c920aac7b081f4c9dc4245986f50632a628217b7b04f50248b4974022039d2dd7f87d82f8f362c54092f7e9179d5794e61ce891886f2851474645a959c01",
        "",
        "02881302e8032103628e28a9320566ad93f0d5defb03736117b8992d124f0984bc91bb105d07ec0e2103869f3333ef86528249b14c114190cfe1d86496a28465302c96f7ef5b59828ef354795287637b757b757b7500547a547a527152ae67547a6375777b7cadb2755167777b757b7cadb275516868"
      ],
      "sequence": 1000
    }
  ],
  "vout": [
    {
      "value": 49.99700000,
      "n": 0,
      "scriptPubKey": {
        "asm": "0 0947f4ea3a040060759447e9ec8f3347572a79bb",
        "desc": "addr(bcrt1qp9rlf636qsqxqav5gl57erengatj57dmld7kps)#0jx7rrra",
        "hex": "00140947f4ea3a040060759447e9ec8f3347572a79bb",
        "address": "bcrt1qp9rlf636qsqxqav5gl57erengatj57dmld7kps",
        "type": "witness_v0_keyhash"
      }
    }
  ]
}
-------------
Creating Blocks to satisfy Timelocks
-------------
1000 Blocks Created!
-------------
Vaildating Spend Tx
-------------
[
  {
    "txid": "3de7d23929488de9eff161a115cb29da8cf3e0056da8b4363fd093e2471cf8a2",
    "wtxid": "e1dfff32272455dcb265b88e32cad2a62823634baf25dec847abc4be64f9f68d",
    "allowed": true,
    "vsize": 131,
    "fees": {
      "base": 0.00100000,
      "effective-feerate": 0.00763358,
      "effective-includes": [
        "e1dfff32272455dcb265b88e32cad2a62823634baf25dec847abc4be64f9f68d"
      ]
    }
  }
]
-------------
Broadcasting Spend Tx
-------------
Done
-------------
Generating Block to confirm Spend Tx
-------------
Done
-------------
Spend Tx Block ID:
-------------
414d0260c47078635735b630d774975575b1fe22c4c9374b5d6d12bd54e423d8
-------------
Confirmed Spend Tx
-------------
{
  "in_active_chain": true,
  "txid": "3de7d23929488de9eff161a115cb29da8cf3e0056da8b4363fd093e2471cf8a2",
  "hash": "e1dfff32272455dcb265b88e32cad2a62823634baf25dec847abc4be64f9f68d",
  "version": 2,
  "size": 277,
  "vsize": 131,
  "weight": 523,
  "locktime": 0,
  "vin": [
    {
      "txid": "91cc8adc15e379cd7f978ba7d944f9e4d769ba29727d358ac4a9a8eb337662bc",
      "vout": 0,
      "scriptSig": {
        "asm": "",
        "hex": ""
      },
      "txinwitness": [
        "3044022036504b16e4c920aac7b081f4c9dc4245986f50632a628217b7b04f50248b4974022039d2dd7f87d82f8f362c54092f7e9179d5794e61ce891886f2851474645a959c01",
        "",
        "02881302e8032103628e28a9320566ad93f0d5defb03736117b8992d124f0984bc91bb105d07ec0e2103869f3333ef86528249b14c114190cfe1d86496a28465302c96f7ef5b59828ef354795287637b757b757b7500547a547a527152ae67547a6375777b7cadb2755167777b757b7cadb275516868"
      ],
      "sequence": 1000
    }
  ],
  "vout": [
    {
      "value": 49.99700000,
      "n": 0,
      "scriptPubKey": {
        "asm": "0 0947f4ea3a040060759447e9ec8f3347572a79bb",
        "desc": "addr(bcrt1qp9rlf636qsqxqav5gl57erengatj57dmld7kps)#0jx7rrra",
        "hex": "00140947f4ea3a040060759447e9ec8f3347572a79bb",
        "address": "bcrt1qp9rlf636qsqxqav5gl57erengatj57dmld7kps",
        "type": "witness_v0_keyhash"
      }
    }
  ],
  "hex": "02000000000101bc627633eba8a9c48a357d7229ba69d7e4f944d9a78b977fcd79e315dc8acc910000000000e803000001205e012a010000001600140947f4ea3a040060759447e9ec8f3347572a79bb03473044022036504b16e4c920aac7b081f4c9dc4245986f50632a628217b7b04f50248b4974022039d2dd7f87d82f8f362c54092f7e9179d5794e61ce891886f2851474645a959c01007602881302e8032103628e28a9320566ad93f0d5defb03736117b8992d124f0984bc91bb105d07ec0e2103869f3333ef86528249b14c114190cfe1d86496a28465302c96f7ef5b59828ef354795287637b757b757b7500547a547a527152ae67547a6375777b7cadb2755167777b757b7cadb27551686800000000",
  "blockhash": "414d0260c47078635735b630d774975575b1fe22c4c9374b5d6d12bd54e423d8",
  "confirmations": 1,
  "time": 1775639459,
  "blocktime": 1775639459
}
-------------
*** Spend/Transfer Complete! ***
-------------
Balance in Destination Address (bcrt1qp9rlf636qsqxqav5gl57erengatj57dmld7kps): 49.99700000 BTC
-------------
Stopping Bitcoind
-------------
Bitcoin Core stopping
