-------------
Stopping Bitcoind if it is already running
-------------
Done
-------------
Updating Bitcoind configuration
-------------
Done
-------------
Refreshing & Restarting Bitcoind
-------------
Bitcoin Core starting
Waiting for 5 secs for Bitcoin Demon to Initialize...
-------------
Bootstrapping the Sentinel (co-signer)
-------------
-------------
Generating Sentinel's Priv-Pub-Addr
-------------
Private Key: cTejrJFjuvBh6g4mjyy2Q7i8KzXe4Cjx5ZtjQEpCfiJZYzqMcigV
Public Key: 03cb42e67b2d9a762c36f240eb6d101be6b9e183b5cd1877b287de345cbab03140
Address: bcrt1q08vvycjnej0lkk84mtp8xpkxg2v0s3rht8mva4
-------------
Sentinel is ready!
Lets initialize your credentials...
-------------
Press any key to generate a key pair for you...
-------------
Generating User's Priv-Pub-Addr
-------------
Private Key: cNbSRpsDwjJFTe8VX1hS66iUzqKS777zARXg4xJSfqKZnS5f4mjT
Public Key: 024ce56e578ca72215d9951431fc94cf0518154b0cbcd28ec7884cde88a956da61
Address: bcrt1q8efcfkkgslfj28d4n9jz8gwf3j6dplmdt0jun0
-------------
Press any key to continue...
-------------
Generating blocks to bootstrap Bitcoin RegTest Blockchain
-------------
Done
[H[2J[3J
Balance: 50.00000000 BTC
Press any key to start Hybrid Custody Vault setup...
-------------
Deposit Tx Redeem Script
-------------
2103cb42e67b2d9a762c36f240eb6d101be6b9e183b5cd1877b287de345cbab0314021024ce56e578ca72215d9951431fc94cf0518154b0cbcd28ec7884cde88a956da6100547a547a527152ae
-------------
Checking Deposit Tx Redeem Script
-------------
{
  "asm": "03cb42e67b2d9a762c36f240eb6d101be6b9e183b5cd1877b287de345cbab03140 024ce56e578ca72215d9951431fc94cf0518154b0cbcd28ec7884cde88a956da61 0 4 OP_ROLL 4 OP_ROLL 2 OP_2ROT 2 OP_CHECKMULTISIG",
  "desc": "raw(2103cb42e67b2d9a762c36f240eb6d101be6b9e183b5cd1877b287de345cbab0314021024ce56e578ca72215d9951431fc94cf0518154b0cbcd28ec7884cde88a956da6100547a547a527152ae)#jkp3ual2",
  "type": "nonstandard",
  "p2sh": "2NFN8x9VJTKoJT2dDmrjiHaNnk9qk8aVr9C",
  "segwit": {
    "asm": "0 f17ee04a6eedced71c0ec062215e9369132f2d9ff465cc0dafbf47f15fa41302",
    "desc": "wsh(raw(2103cb42e67b2d9a762c36f240eb6d101be6b9e183b5cd1877b287de345cbab0314021024ce56e578ca72215d9951431fc94cf0518154b0cbcd28ec7884cde88a956da6100547a547a527152ae))#nlfxwx0q",
    "hex": "0020f17ee04a6eedced71c0ec062215e9369132f2d9ff465cc0dafbf47f15fa41302",
    "address": "bcrt1q79lwqjnwah8dw8qwcp3zzh5ndyfj7tvl73jucrd0harlzhayzvpq8l6tuc",
    "type": "witness_v0_scripthash",
    "p2sh-segwit": "2N22LJG8wehR5Zd3GTc2nERfBtG7kD1WxqH"
  }
}
-------------
Deposit Tx - Script to Address
-------------
bcrt1q79lwqjnwah8dw8qwcp3zzh5ndyfj7tvl73jucrd0harlzhayzvpq8l6tuc
-------------
Creating Unsigned Deposit Tx
-------------
Done
-------------
Unsigned Deposit Tx
-------------
02000000011aa278b9cdc52dd3344075833cba22ff862282884e4522713f900f659d362b8f0000000000fdffffff01606b042a01000000220020f17ee04a6eedced71c0ec062215e9369132f2d9ff465cc0dafbf47f15fa4130200000000
-------------
Checking Unsigned Deposit Tx
-------------
{
  "txid": "3a31b449750c5a717ee8a712ab5952cb1291d14b94d6b4d590d2123ef2eafa5a",
  "hash": "3a31b449750c5a717ee8a712ab5952cb1291d14b94d6b4d590d2123ef2eafa5a",
  "version": 2,
  "size": 94,
  "vsize": 94,
  "weight": 376,
  "locktime": 0,
  "vin": [
    {
      "txid": "8f2b369d650f903f7122454e88822286ff22ba3c83754034d32dc5cdb978a21a",
      "vout": 0,
      "scriptSig": {
        "asm": "",
        "hex": ""
      },
      "sequence": 4294967293
    }
  ],
  "vout": [
    {
      "value": 49.99900000,
      "n": 0,
      "scriptPubKey": {
        "asm": "0 f17ee04a6eedced71c0ec062215e9369132f2d9ff465cc0dafbf47f15fa41302",
        "desc": "addr(bcrt1q79lwqjnwah8dw8qwcp3zzh5ndyfj7tvl73jucrd0harlzhayzvpq8l6tuc)#r6m08k52",
        "hex": "0020f17ee04a6eedced71c0ec062215e9369132f2d9ff465cc0dafbf47f15fa41302",
        "address": "bcrt1q79lwqjnwah8dw8qwcp3zzh5ndyfj7tvl73jucrd0harlzhayzvpq8l6tuc",
        "type": "witness_v0_scripthash"
      }
    }
  ]
}
-------------
Signing the Deposit Tx
-------------
Done
-------------
Signed Deposit Tx
-------------
020000000001011aa278b9cdc52dd3344075833cba22ff862282884e4522713f900f659d362b8f0000000000fdffffff01606b042a01000000220020f17ee04a6eedced71c0ec062215e9369132f2d9ff465cc0dafbf47f15fa4130202473044022001b481b7c79c67efc6a135425e74249daedd3128b91b6eef0418dac00c46570a02201acee1a3c9909b5cc74bab4512720cea75c098c48d7921037bc6135fc7e5edba0121024ce56e578ca72215d9951431fc94cf0518154b0cbcd28ec7884cde88a956da6100000000
-------------
Checking Signed Deposit Tx
-------------
{
  "txid": "3a31b449750c5a717ee8a712ab5952cb1291d14b94d6b4d590d2123ef2eafa5a",
  "hash": "d9c67c929a78f544c75645d2d60ad95e2c55f53120e252d69b29f84f3b032a98",
  "version": 2,
  "size": 203,
  "vsize": 122,
  "weight": 485,
  "locktime": 0,
  "vin": [
    {
      "txid": "8f2b369d650f903f7122454e88822286ff22ba3c83754034d32dc5cdb978a21a",
      "vout": 0,
      "scriptSig": {
        "asm": "",
        "hex": ""
      },
      "txinwitness": [
        "3044022001b481b7c79c67efc6a135425e74249daedd3128b91b6eef0418dac00c46570a02201acee1a3c9909b5cc74bab4512720cea75c098c48d7921037bc6135fc7e5edba01",
        "024ce56e578ca72215d9951431fc94cf0518154b0cbcd28ec7884cde88a956da61"
      ],
      "sequence": 4294967293
    }
  ],
  "vout": [
    {
      "value": 49.99900000,
      "n": 0,
      "scriptPubKey": {
        "asm": "0 f17ee04a6eedced71c0ec062215e9369132f2d9ff465cc0dafbf47f15fa41302",
        "desc": "addr(bcrt1q79lwqjnwah8dw8qwcp3zzh5ndyfj7tvl73jucrd0harlzhayzvpq8l6tuc)#r6m08k52",
        "hex": "0020f17ee04a6eedced71c0ec062215e9369132f2d9ff465cc0dafbf47f15fa41302",
        "address": "bcrt1q79lwqjnwah8dw8qwcp3zzh5ndyfj7tvl73jucrd0harlzhayzvpq8l6tuc",
        "type": "witness_v0_scripthash"
      }
    }
  ]
}
[H[2J[3J
-------------
Your Vault has a 2-step Unlock and Spend process to transfer from it
and there is a mandatory yet configureable delay enforced between these
Unlock and Spend Transactions for every private-key/combination allowed
to spend from this Vault.
-------------
Press any key to configure these delays and continue...
[H[2J[3J
-------------
Lets configure the on-chain delay / cooling period
for spending with your private-key from your Vault!

This will give you time to react and initiate recovery
when your private-key or wallet backup (seed phrase) is stolen
and is used to unlock and potentially spend from your Vault.
-------------
Enter delay in blocks or press [Return] to use default [1000]: Setting Option 1 (User Private-Key Only) Delay to 1000
Encoded bytes (hex): e803
[H[2J[3J
-------------
Now, lets configure the on-chain delay / cooling period
for spending with the Sentinel private-key from your Vault!

This is the delay your Sentinel has to wait before he can
transfer/recover from your Vault in case your private-key
is lost or for managing your inheritance.

PS: This is typically much longer than the previously set delay
and will give you time to react and override any spend attempt
by compromised/rogue Sentinels with just your private-key
eliminating counter-party risk in the Hybrid Custody Ecosystem.
-------------
Enter delay in blocks or press [Return] to use default [5000]: Setting Option 2 (Sentinel Private-Key Only) Delay to 5000
Encoded bytes (hex): 8813
[H[2J[3J
-------------
Now, lets configure the Recovery Address for your Vault!

Once your private-keys are lost or stolen, it is not
safe to recover your Vault to an address controlled by you
as we never know how deep the compromise is.

The best approach would be to temporarily transfer the coins in your
Vault to a custodial wallet address (Coinbase, Binance, etc.) and disable
withdrawls from it until you can create a new secure cold-storage wallet and Vault.

Alternatively, you can setup a new unused Hardware Wallet
with a new seed-phrase and store both the hardware wallet and
seed-phrase backup in a bank locker and use this wallet's address as Recovery Address!

PS: Sentinels are bound by on-chain Staking/Slashing mechanics
to only sign Recovery transactions to this Preconfigured Recovery Address
as no user provided input can be trusted post compromise/setup!
-------------
Enter Recovery Address or press [Return] to use default [bcrt1qv6s2z264ujfr8ae08rttdydmlctehwdjnvpwae]: Proceeding with Recovery Address: bcrt1qv6s2z264ujfr8ae08rttdydmlctehwdjnvpwae
-------------
Unlock Tx (Provisional Tx) Redeem Script
-------------
Hex: 02881302e8032103cb42e67b2d9a762c36f240eb6d101be6b9e183b5cd1877b287de345cbab0314021024ce56e578ca72215d9951431fc94cf0518154b0cbcd28ec7884cde88a956da6154795287637b757b757b7500547a547a527152ae67547a6375777b7cadb2755167777b757b7cadb275516868
-------------
Checking Unlock Tx (Provisional Tx) Redeem Script
-------------
{
  "asm": "5000 1000 03cb42e67b2d9a762c36f240eb6d101be6b9e183b5cd1877b287de345cbab03140 024ce56e578ca72215d9951431fc94cf0518154b0cbcd28ec7884cde88a956da61 4 OP_PICK 2 OP_EQUAL OP_IF OP_ROT OP_DROP OP_ROT OP_DROP OP_ROT OP_DROP 0 4 OP_ROLL 4 OP_ROLL 2 OP_2ROT 2 OP_CHECKMULTISIG OP_ELSE 4 OP_ROLL OP_IF OP_DROP OP_NIP OP_ROT OP_SWAP OP_CHECKSIGVERIFY OP_CHECKSEQUENCEVERIFY OP_DROP 1 OP_ELSE OP_NIP OP_ROT OP_DROP OP_ROT OP_SWAP OP_CHECKSIGVERIFY OP_CHECKSEQUENCEVERIFY OP_DROP 1 OP_ENDIF OP_ENDIF",
  "desc": "raw(02881302e8032103cb42e67b2d9a762c36f240eb6d101be6b9e183b5cd1877b287de345cbab0314021024ce56e578ca72215d9951431fc94cf0518154b0cbcd28ec7884cde88a956da6154795287637b757b757b7500547a547a527152ae67547a6375777b7cadb2755167777b757b7cadb275516868)#0f9kgu73",
  "type": "nonstandard",
  "p2sh": "2N5TzRp5y26Vb6FbJzMC2qpHmC7oX6euUps",
  "segwit": {
    "asm": "0 08a854fbf8f1f0e6862d10f7210e2250637bb4c376be80825234710b388cf252",
    "desc": "wsh(raw(02881302e8032103cb42e67b2d9a762c36f240eb6d101be6b9e183b5cd1877b287de345cbab0314021024ce56e578ca72215d9951431fc94cf0518154b0cbcd28ec7884cde88a956da6154795287637b757b757b7500547a547a527152ae67547a6375777b7cadb2755167777b757b7cadb275516868))#8m475npm",
    "hex": "002008a854fbf8f1f0e6862d10f7210e2250637bb4c376be80825234710b388cf252",
    "address": "bcrt1qpz59f7lc78cwdp3dzrmjzr3z2p3hhdxrw6lgpqjjx3cskwyv7ffq8v4hm2",
    "type": "witness_v0_scripthash",
    "p2sh-segwit": "2Mu6dRHpWvdEZQ6Y6YhHvrrEGp44WSkFwmM"
  }
}
-------------
Unlock Tx (Provisional Tx) - Script to Address
-------------
bcrt1qpz59f7lc78cwdp3dzrmjzr3z2p3hhdxrw6lgpqjjx3cskwyv7ffq8v4hm2
-------------
Creating Unsigned Unlock Tx (Provisional Tx)
-------------
02000000015afaeaf23e12d290d5b4d6944bd19112cb5259ab12a7e87e715a0c7549b4313a0000000000fdffffff01c0e4022a0100000022002008a854fbf8f1f0e6862d10f7210e2250637bb4c376be80825234710b388cf25200000000
-------------
Checking Unsigned Unlock Tx Created by User
-------------
{
  "txid": "0f8d75f8a68b0c6d940a9bc7f283a6aba6e72cc6fb4879880843d0f4e074ee2c",
  "hash": "0f8d75f8a68b0c6d940a9bc7f283a6aba6e72cc6fb4879880843d0f4e074ee2c",
  "version": 2,
  "size": 94,
  "vsize": 94,
  "weight": 376,
  "locktime": 0,
  "vin": [
    {
      "txid": "3a31b449750c5a717ee8a712ab5952cb1291d14b94d6b4d590d2123ef2eafa5a",
      "vout": 0,
      "scriptSig": {
        "asm": "",
        "hex": ""
      },
      "sequence": 4294967293
    }
  ],
  "vout": [
    {
      "value": 49.99800000,
      "n": 0,
      "scriptPubKey": {
        "asm": "0 08a854fbf8f1f0e6862d10f7210e2250637bb4c376be80825234710b388cf252",
        "desc": "addr(bcrt1qpz59f7lc78cwdp3dzrmjzr3z2p3hhdxrw6lgpqjjx3cskwyv7ffq8v4hm2)#lgxlh4jv",
        "hex": "002008a854fbf8f1f0e6862d10f7210e2250637bb4c376be80825234710b388cf252",
        "address": "bcrt1qpz59f7lc78cwdp3dzrmjzr3z2p3hhdxrw6lgpqjjx3cskwyv7ffq8v4hm2",
        "type": "witness_v0_scripthash"
      }
    }
  ]
}
-------------
Simulating the transfer of Unsigned Unlock Tx (Provisional Tx) copy
to Sentinel!
-------------
[U] --> Unsigned Unlock Tx (Provisional Tx) --> [S]
-------------
Sentinel signs the Unsigned Unlock Tx (Provisional Tx)
with his Private Key
-------------
Original Tx:
{
    "ins": [
        {
            "tx_hash": "3a31b449750c5a717ee8a712ab5952cb1291d14b94d6b4d590d2123ef2eafa5a",
            "tx_pos": 0,
            "script": "",
            "sequence": 4294967293,
            "value": 4999900000
        }
    ],
    "outs": [
        {
            "value": 4999800000,
            "script": "002008a854fbf8f1f0e6862d10f7210e2250637bb4c376be80825234710b388cf252"
        }
    ],
    "version": 2,
    "locktime": 0
}
Signature:
3045022100ec97743ac5e9f84e1f951ade39c22644969db88b9a1b0d7222fc2e78855d262702206400b39a637ed13bbd8822c614125e7296c71f8ff8a35838615f30935203c83901
-------------
Unlock Tx (Provisional Tx) - Sentinel's Signature
-------------
3045022100ec97743ac5e9f84e1f951ade39c22644969db88b9a1b0d7222fc2e78855d262702206400b39a637ed13bbd8822c614125e7296c71f8ff8a35838615f30935203c83901
-------------
Simulating the transfer of Partially Signed Unlock Tx (Provisional Tx)
to User!
-------------
[S] --> Partially Signed Unlock Tx (Provisional Tx) --> [U]
-------------
User signs the Unsigned Unlock Tx (Provisional Tx)
with his Private Key
-------------
Original Tx:
{
    "ins": [
        {
            "tx_hash": "3a31b449750c5a717ee8a712ab5952cb1291d14b94d6b4d590d2123ef2eafa5a",
            "tx_pos": 0,
            "script": "",
            "sequence": 4294967293,
            "value": 4999900000
        }
    ],
    "outs": [
        {
            "value": 4999800000,
            "script": "002008a854fbf8f1f0e6862d10f7210e2250637bb4c376be80825234710b388cf252"
        }
    ],
    "version": 2,
    "locktime": 0
}
Signature:
3045022100f41bfac5f1fcbbc423d1aaca7a35f912a2c549eb134ca3290cdc45f5d1d58aa702203cabdb44403db660ba79d0796489e37d983772be9a21c026a4a3a1e0496fffa601
-------------
Unlock Tx (Provisional Tx) - User Signature
-------------
3045022100f41bfac5f1fcbbc423d1aaca7a35f912a2c549eb134ca3290cdc45f5d1d58aa702203cabdb44403db660ba79d0796489e37d983772be9a21c026a4a3a1e0496fffa601
-------------
Simulating the transfer of Partially Signed Unlock Tx (Provisional Tx) copy
to Sentinel!
-------------
[U] --> Partially Signed Provisional Tx --> [S]
-------------
User signs & broadcasts the Deposit Tx
after receiving the Partially signed Unlock Tx (Provisional Tx)
-------------
3a31b449750c5a717ee8a712ab5952cb1291d14b94d6b4d590d2123ef2eafa5a
Done
-------------
Generating Block to confirm the Deposit Tx
-------------
Deposit Tx Block: 1b2bd81199aada5adc4fb582bf857679979602250bc3e636b40ace4dbca61896
-------------
Confirmed Deposit Tx
-------------
{
  "in_active_chain": true,
  "txid": "3a31b449750c5a717ee8a712ab5952cb1291d14b94d6b4d590d2123ef2eafa5a",
  "hash": "d9c67c929a78f544c75645d2d60ad95e2c55f53120e252d69b29f84f3b032a98",
  "version": 2,
  "size": 203,
  "vsize": 122,
  "weight": 485,
  "locktime": 0,
  "vin": [
    {
      "txid": "8f2b369d650f903f7122454e88822286ff22ba3c83754034d32dc5cdb978a21a",
      "vout": 0,
      "scriptSig": {
        "asm": "",
        "hex": ""
      },
      "txinwitness": [
        "3044022001b481b7c79c67efc6a135425e74249daedd3128b91b6eef0418dac00c46570a02201acee1a3c9909b5cc74bab4512720cea75c098c48d7921037bc6135fc7e5edba01",
        "024ce56e578ca72215d9951431fc94cf0518154b0cbcd28ec7884cde88a956da61"
      ],
      "sequence": 4294967293
    }
  ],
  "vout": [
    {
      "value": 49.99900000,
      "n": 0,
      "scriptPubKey": {
        "asm": "0 f17ee04a6eedced71c0ec062215e9369132f2d9ff465cc0dafbf47f15fa41302",
        "desc": "addr(bcrt1q79lwqjnwah8dw8qwcp3zzh5ndyfj7tvl73jucrd0harlzhayzvpq8l6tuc)#r6m08k52",
        "hex": "0020f17ee04a6eedced71c0ec062215e9369132f2d9ff465cc0dafbf47f15fa41302",
        "address": "bcrt1q79lwqjnwah8dw8qwcp3zzh5ndyfj7tvl73jucrd0harlzhayzvpq8l6tuc",
        "type": "witness_v0_scripthash"
      }
    }
  ],
  "hex": "020000000001011aa278b9cdc52dd3344075833cba22ff862282884e4522713f900f659d362b8f0000000000fdffffff01606b042a01000000220020f17ee04a6eedced71c0ec062215e9369132f2d9ff465cc0dafbf47f15fa4130202473044022001b481b7c79c67efc6a135425e74249daedd3128b91b6eef0418dac00c46570a02201acee1a3c9909b5cc74bab4512720cea75c098c48d7921037bc6135fc7e5edba0121024ce56e578ca72215d9951431fc94cf0518154b0cbcd28ec7884cde88a956da6100000000",
  "blockhash": "1b2bd81199aada5adc4fb582bf857679979602250bc3e636b40ace4dbca61896",
  "confirmations": 1,
  "time": 1775561331,
  "blocktime": 1775561331
}
[H[2J[3J
-------------
*** Smart Vault Setup Complete! ***
-------------
You are now assured of your
Bitcoin's safety and security
as your Bitcoin is now in Joint Custody and
rest everything is managed using the
Partially Signed Unlock Txs (Provisional Txs) with you
and your Sentinel after the Smart Vault setup is complete!
-------------
Press any key to continue...
-------------
Simulating the recovery process by User in collaboration
with his Sentinel when his or his Sentinel's private-key is
presumed stolen or they see some adversarial activity on chain.

Ex. Unlock Tx (Provisional Tx) broadcasted by unknown entities
-------------
Balance in Recovery Addresss (bcrt1qv6s2z264ujfr8ae08rttdydmlctehwdjnvpwae): 0 BTC
Press any key to start recovery...
-------------
User signs the Partially Signed
Unlock Tx (Provisional Tx) received from Sentinel
with his Private Key
-------------
Done
-------------
User's Private Key Generated Signature for Unlock Tx (Provisional Tx):
-------------
3045022100f41bfac5f1fcbbc423d1aaca7a35f912a2c549eb134ca3290cdc45f5d1d58aa702203cabdb44403db660ba79d0796489e37d983772be9a21c026a4a3a1e0496fffa601
-------------
Fully Signed Unlock Tx (Provisional Tx):
-------------
Unsigned Tx
{
    "ins": [
        {
            "tx_hash": "3a31b449750c5a717ee8a712ab5952cb1291d14b94d6b4d590d2123ef2eafa5a",
            "tx_pos": 0,
            "script": "",
            "sequence": 4294967293
        }
    ],
    "outs": [
        {
            "value": 4999800000,
            "script": "002008a854fbf8f1f0e6862d10f7210e2250637bb4c376be80825234710b388cf252"
        }
    ],
    "version": 2,
    "locktime": 0
}
Signed Tx
{
    "ins": [
        {
            "tx_hash": "3a31b449750c5a717ee8a712ab5952cb1291d14b94d6b4d590d2123ef2eafa5a",
            "tx_pos": 0,
            "script": "",
            "sequence": 4294967293
        }
    ],
    "outs": [
        {
            "value": 4999800000,
            "script": "002008a854fbf8f1f0e6862d10f7210e2250637bb4c376be80825234710b388cf252"
        }
    ],
    "version": 2,
    "locktime": 0,
    "witness": [
        {
            "number": 3,
            "scriptCode": "483045022100ec97743ac5e9f84e1f951ade39c22644969db88b9a1b0d7222fc2e78855d262702206400b39a637ed13bbd8822c614125e7296c71f8ff8a35838615f30935203c83901483045022100f41bfac5f1fcbbc423d1aaca7a35f912a2c549eb134ca3290cdc45f5d1d58aa702203cabdb44403db660ba79d0796489e37d983772be9a21c026a4a3a1e0496fffa6014d2103cb42e67b2d9a762c36f240eb6d101be6b9e183b5cd1877b287de345cbab0314021024ce56e578ca72215d9951431fc94cf0518154b0cbcd28ec7884cde88a956da6100547a547a527152ae"
        }
    ],
    "marker": 0,
    "flag": 1
}
020000000001015afaeaf23e12d290d5b4d6944bd19112cb5259ab12a7e87e715a0c7549b4313a0000000000fdffffff01c0e4022a0100000022002008a854fbf8f1f0e6862d10f7210e2250637bb4c376be80825234710b388cf25203483045022100ec97743ac5e9f84e1f951ade39c22644969db88b9a1b0d7222fc2e78855d262702206400b39a637ed13bbd8822c614125e7296c71f8ff8a35838615f30935203c83901483045022100f41bfac5f1fcbbc423d1aaca7a35f912a2c549eb134ca3290cdc45f5d1d58aa702203cabdb44403db660ba79d0796489e37d983772be9a21c026a4a3a1e0496fffa6014d2103cb42e67b2d9a762c36f240eb6d101be6b9e183b5cd1877b287de345cbab0314021024ce56e578ca72215d9951431fc94cf0518154b0cbcd28ec7884cde88a956da6100547a547a527152ae00000000
-------------
Checking Fully Signed Unlock Tx (Provisional Tx):
-------------
{
  "txid": "0f8d75f8a68b0c6d940a9bc7f283a6aba6e72cc6fb4879880843d0f4e074ee2c",
  "hash": "8275ab8d898bf2c2bd80422b89954524bf5696693ac043d99345d97975afe717",
  "version": 2,
  "size": 321,
  "vsize": 151,
  "weight": 603,
  "locktime": 0,
  "vin": [
    {
      "txid": "3a31b449750c5a717ee8a712ab5952cb1291d14b94d6b4d590d2123ef2eafa5a",
      "vout": 0,
      "scriptSig": {
        "asm": "",
        "hex": ""
      },
      "txinwitness": [
        "3045022100ec97743ac5e9f84e1f951ade39c22644969db88b9a1b0d7222fc2e78855d262702206400b39a637ed13bbd8822c614125e7296c71f8ff8a35838615f30935203c83901",
        "3045022100f41bfac5f1fcbbc423d1aaca7a35f912a2c549eb134ca3290cdc45f5d1d58aa702203cabdb44403db660ba79d0796489e37d983772be9a21c026a4a3a1e0496fffa601",
        "2103cb42e67b2d9a762c36f240eb6d101be6b9e183b5cd1877b287de345cbab0314021024ce56e578ca72215d9951431fc94cf0518154b0cbcd28ec7884cde88a956da6100547a547a527152ae"
      ],
      "sequence": 4294967293
    }
  ],
  "vout": [
    {
      "value": 49.99800000,
      "n": 0,
      "scriptPubKey": {
        "asm": "0 08a854fbf8f1f0e6862d10f7210e2250637bb4c376be80825234710b388cf252",
        "desc": "addr(bcrt1qpz59f7lc78cwdp3dzrmjzr3z2p3hhdxrw6lgpqjjx3cskwyv7ffq8v4hm2)#lgxlh4jv",
        "hex": "002008a854fbf8f1f0e6862d10f7210e2250637bb4c376be80825234710b388cf252",
        "address": "bcrt1qpz59f7lc78cwdp3dzrmjzr3z2p3hhdxrw6lgpqjjx3cskwyv7ffq8v4hm2",
        "type": "witness_v0_scripthash"
      }
    }
  ]
}
-------------
Vaildate Fully Signed Unlock Tx (Provisional Tx)
-------------
[
  {
    "txid": "0f8d75f8a68b0c6d940a9bc7f283a6aba6e72cc6fb4879880843d0f4e074ee2c",
    "wtxid": "8275ab8d898bf2c2bd80422b89954524bf5696693ac043d99345d97975afe717",
    "allowed": true,
    "vsize": 151,
    "fees": {
      "base": 0.00100000,
      "effective-feerate": 0.00662251,
      "effective-includes": [
        "8275ab8d898bf2c2bd80422b89954524bf5696693ac043d99345d97975afe717"
      ]
    }
  }
]
-------------
Broadcast Fully Signed Unlock Tx (Provisional Tx)
-------------
Done
-------------
Generating Block to confirm Unlock Tx (Provisional Tx)
-------------
Done
-------------
Unlock Tx (Provisional Tx) Block:
-------------
4707edb0fee3b0f210d47ed2ae4b5278eb6e3e93308b0719f22f64dcb723c21d
-------------
Confirmed Unlock Tx (Provisional Tx)
-------------
{
  "in_active_chain": true,
  "txid": "0f8d75f8a68b0c6d940a9bc7f283a6aba6e72cc6fb4879880843d0f4e074ee2c",
  "hash": "8275ab8d898bf2c2bd80422b89954524bf5696693ac043d99345d97975afe717",
  "version": 2,
  "size": 321,
  "vsize": 151,
  "weight": 603,
  "locktime": 0,
  "vin": [
    {
      "txid": "3a31b449750c5a717ee8a712ab5952cb1291d14b94d6b4d590d2123ef2eafa5a",
      "vout": 0,
      "scriptSig": {
        "asm": "",
        "hex": ""
      },
      "txinwitness": [
        "3045022100ec97743ac5e9f84e1f951ade39c22644969db88b9a1b0d7222fc2e78855d262702206400b39a637ed13bbd8822c614125e7296c71f8ff8a35838615f30935203c83901",
        "3045022100f41bfac5f1fcbbc423d1aaca7a35f912a2c549eb134ca3290cdc45f5d1d58aa702203cabdb44403db660ba79d0796489e37d983772be9a21c026a4a3a1e0496fffa601",
        "2103cb42e67b2d9a762c36f240eb6d101be6b9e183b5cd1877b287de345cbab0314021024ce56e578ca72215d9951431fc94cf0518154b0cbcd28ec7884cde88a956da6100547a547a527152ae"
      ],
      "sequence": 4294967293
    }
  ],
  "vout": [
    {
      "value": 49.99800000,
      "n": 0,
      "scriptPubKey": {
        "asm": "0 08a854fbf8f1f0e6862d10f7210e2250637bb4c376be80825234710b388cf252",
        "desc": "addr(bcrt1qpz59f7lc78cwdp3dzrmjzr3z2p3hhdxrw6lgpqjjx3cskwyv7ffq8v4hm2)#lgxlh4jv",
        "hex": "002008a854fbf8f1f0e6862d10f7210e2250637bb4c376be80825234710b388cf252",
        "address": "bcrt1qpz59f7lc78cwdp3dzrmjzr3z2p3hhdxrw6lgpqjjx3cskwyv7ffq8v4hm2",
        "type": "witness_v0_scripthash"
      }
    }
  ],
  "hex": "020000000001015afaeaf23e12d290d5b4d6944bd19112cb5259ab12a7e87e715a0c7549b4313a0000000000fdffffff01c0e4022a0100000022002008a854fbf8f1f0e6862d10f7210e2250637bb4c376be80825234710b388cf25203483045022100ec97743ac5e9f84e1f951ade39c22644969db88b9a1b0d7222fc2e78855d262702206400b39a637ed13bbd8822c614125e7296c71f8ff8a35838615f30935203c83901483045022100f41bfac5f1fcbbc423d1aaca7a35f912a2c549eb134ca3290cdc45f5d1d58aa702203cabdb44403db660ba79d0796489e37d983772be9a21c026a4a3a1e0496fffa6014d2103cb42e67b2d9a762c36f240eb6d101be6b9e183b5cd1877b287de345cbab0314021024ce56e578ca72215d9951431fc94cf0518154b0cbcd28ec7884cde88a956da6100547a547a527152ae00000000",
  "blockhash": "4707edb0fee3b0f210d47ed2ae4b5278eb6e3e93308b0719f22f64dcb723c21d",
  "confirmations": 1,
  "time": 1775561334,
  "blocktime": 1775561334
}
-------------
Simulating Recovery by User using
*** Option 3 *** of Unlock Tx (Provisonal Tx)
(Both User and Sentinel have to sign the recovery Tx)
-------------
Recovery Process - Start
-------------
User creates the Recovery Tx
-------------
Done
-------------
Unsigned Recovery Tx
-------------
02000000012cee74e0f4d04308887948fbc62ce7a6aba683f2c79b0a946d0c8ba6f8758d0f0000000000fdffffff01205e012a0100000016001466a0a12b55e49233f72f38d6b691bbfe179bb9b200000000
-------------
Checking Unsigned Recovery Tx
-------------
{
  "txid": "f4d1dd3be6ed094dad0388812b0191ac05790aef92d776db9e2f50522efe786e",
  "hash": "f4d1dd3be6ed094dad0388812b0191ac05790aef92d776db9e2f50522efe786e",
  "version": 2,
  "size": 82,
  "vsize": 82,
  "weight": 328,
  "locktime": 0,
  "vin": [
    {
      "txid": "0f8d75f8a68b0c6d940a9bc7f283a6aba6e72cc6fb4879880843d0f4e074ee2c",
      "vout": 0,
      "scriptSig": {
        "asm": "",
        "hex": ""
      },
      "sequence": 4294967293
    }
  ],
  "vout": [
    {
      "value": 49.99700000,
      "n": 0,
      "scriptPubKey": {
        "asm": "0 66a0a12b55e49233f72f38d6b691bbfe179bb9b2",
        "desc": "addr(bcrt1qv6s2z264ujfr8ae08rttdydmlctehwdjnvpwae)#5mlq06cp",
        "hex": "001466a0a12b55e49233f72f38d6b691bbfe179bb9b2",
        "address": "bcrt1qv6s2z264ujfr8ae08rttdydmlctehwdjnvpwae",
        "type": "witness_v0_keyhash"
      }
    }
  ]
}
-------------
Simulating the transfer of Unsigned Recovery Tx
from User to Sentinel!
-------------
[U] --> Unsigned Provisional Tx --> [S]
-------------
Sentinel Signs the Recovery Tx
-------------
Original Tx:
{
    "ins": [
        {
            "tx_hash": "0f8d75f8a68b0c6d940a9bc7f283a6aba6e72cc6fb4879880843d0f4e074ee2c",
            "tx_pos": 0,
            "script": "",
            "sequence": 4294967293,
            "value": 4999800000
        }
    ],
    "outs": [
        {
            "value": 4999700000,
            "script": "001466a0a12b55e49233f72f38d6b691bbfe179bb9b2"
        }
    ],
    "version": 2,
    "locktime": 0
}
Signature:
304402201fbcdadbd51cab5468049afc8ed45853f19c76e5bdce121d21f61335b1f071d90220497b03342cc9ccafbc7f82b55200eaf4685eb6ae23f3e08a89401ac5cf3d295a01
-------------
Recovery Tx - Sentinel's Signature
-------------
304402201fbcdadbd51cab5468049afc8ed45853f19c76e5bdce121d21f61335b1f071d90220497b03342cc9ccafbc7f82b55200eaf4685eb6ae23f3e08a89401ac5cf3d295a01
-------------
Simulating the transfer of Partially Signed Recovery Tx
from Sentinel to User!
-------------
[S] --> Partially Signed Provisional Tx --> [U]
-------------
User Signs the Recovery Tx
-------------
Original Tx:
{
    "ins": [
        {
            "tx_hash": "0f8d75f8a68b0c6d940a9bc7f283a6aba6e72cc6fb4879880843d0f4e074ee2c",
            "tx_pos": 0,
            "script": "",
            "sequence": 4294967293,
            "value": 4999800000
        }
    ],
    "outs": [
        {
            "value": 4999700000,
            "script": "001466a0a12b55e49233f72f38d6b691bbfe179bb9b2"
        }
    ],
    "version": 2,
    "locktime": 0
}
Signature:
3045022100e11ea21f0ba54aeada3492885920f9afc2a8f42f7508fc4a8da292596c84c4b7022039a6d66748156efe7d2b810187fc00455edb1d634d79c36226d72b1f8845ddbb01
-------------
Recovery Tx - User's Signature
-------------
3045022100e11ea21f0ba54aeada3492885920f9afc2a8f42f7508fc4a8da292596c84c4b7022039a6d66748156efe7d2b810187fc00455edb1d634d79c36226d72b1f8845ddbb01
-------------
Fully Signed Recovery Tx:
-------------
Unsigned Tx
{
    "ins": [
        {
            "tx_hash": "0f8d75f8a68b0c6d940a9bc7f283a6aba6e72cc6fb4879880843d0f4e074ee2c",
            "tx_pos": 0,
            "script": "",
            "sequence": 4294967293
        }
    ],
    "outs": [
        {
            "value": 4999700000,
            "script": "001466a0a12b55e49233f72f38d6b691bbfe179bb9b2"
        }
    ],
    "version": 2,
    "locktime": 0
}
Signed Tx
{
    "ins": [
        {
            "tx_hash": "0f8d75f8a68b0c6d940a9bc7f283a6aba6e72cc6fb4879880843d0f4e074ee2c",
            "tx_pos": 0,
            "script": "",
            "sequence": 4294967293
        }
    ],
    "outs": [
        {
            "value": 4999700000,
            "script": "001466a0a12b55e49233f72f38d6b691bbfe179bb9b2"
        }
    ],
    "version": 2,
    "locktime": 0,
    "witness": [
        {
            "number": 4,
            "scriptCode": "47304402201fbcdadbd51cab5468049afc8ed45853f19c76e5bdce121d21f61335b1f071d90220497b03342cc9ccafbc7f82b55200eaf4685eb6ae23f3e08a89401ac5cf3d295a01483045022100e11ea21f0ba54aeada3492885920f9afc2a8f42f7508fc4a8da292596c84c4b7022039a6d66748156efe7d2b810187fc00455edb1d634d79c36226d72b1f8845ddbb0101027602881302e8032103cb42e67b2d9a762c36f240eb6d101be6b9e183b5cd1877b287de345cbab0314021024ce56e578ca72215d9951431fc94cf0518154b0cbcd28ec7884cde88a956da6154795287637b757b757b7500547a547a527152ae67547a6375777b7cadb2755167777b757b7cadb275516868"
        }
    ],
    "marker": 0,
    "flag": 1
}
020000000001012cee74e0f4d04308887948fbc62ce7a6aba683f2c79b0a946d0c8ba6f8758d0f0000000000fdffffff01205e012a0100000016001466a0a12b55e49233f72f38d6b691bbfe179bb9b20447304402201fbcdadbd51cab5468049afc8ed45853f19c76e5bdce121d21f61335b1f071d90220497b03342cc9ccafbc7f82b55200eaf4685eb6ae23f3e08a89401ac5cf3d295a01483045022100e11ea21f0ba54aeada3492885920f9afc2a8f42f7508fc4a8da292596c84c4b7022039a6d66748156efe7d2b810187fc00455edb1d634d79c36226d72b1f8845ddbb0101027602881302e8032103cb42e67b2d9a762c36f240eb6d101be6b9e183b5cd1877b287de345cbab0314021024ce56e578ca72215d9951431fc94cf0518154b0cbcd28ec7884cde88a956da6154795287637b757b757b7500547a547a527152ae67547a6375777b7cadb2755167777b757b7cadb27551686800000000
-------------
Checking Fully Signed Recovery Tx:
-------------
{
  "txid": "f4d1dd3be6ed094dad0388812b0191ac05790aef92d776db9e2f50522efe786e",
  "hash": "b64b53f1815807009b783107dc02521a2f8398207c7f5059aa2078ff97cb2b16",
  "version": 2,
  "size": 351,
  "vsize": 150,
  "weight": 597,
  "locktime": 0,
  "vin": [
    {
      "txid": "0f8d75f8a68b0c6d940a9bc7f283a6aba6e72cc6fb4879880843d0f4e074ee2c",
      "vout": 0,
      "scriptSig": {
        "asm": "",
        "hex": ""
      },
      "txinwitness": [
        "304402201fbcdadbd51cab5468049afc8ed45853f19c76e5bdce121d21f61335b1f071d90220497b03342cc9ccafbc7f82b55200eaf4685eb6ae23f3e08a89401ac5cf3d295a01",
        "3045022100e11ea21f0ba54aeada3492885920f9afc2a8f42f7508fc4a8da292596c84c4b7022039a6d66748156efe7d2b810187fc00455edb1d634d79c36226d72b1f8845ddbb01",
        "02",
        "02881302e8032103cb42e67b2d9a762c36f240eb6d101be6b9e183b5cd1877b287de345cbab0314021024ce56e578ca72215d9951431fc94cf0518154b0cbcd28ec7884cde88a956da6154795287637b757b757b7500547a547a527152ae67547a6375777b7cadb2755167777b757b7cadb275516868"
      ],
      "sequence": 4294967293
    }
  ],
  "vout": [
    {
      "value": 49.99700000,
      "n": 0,
      "scriptPubKey": {
        "asm": "0 66a0a12b55e49233f72f38d6b691bbfe179bb9b2",
        "desc": "addr(bcrt1qv6s2z264ujfr8ae08rttdydmlctehwdjnvpwae)#5mlq06cp",
        "hex": "001466a0a12b55e49233f72f38d6b691bbfe179bb9b2",
        "address": "bcrt1qv6s2z264ujfr8ae08rttdydmlctehwdjnvpwae",
        "type": "witness_v0_keyhash"
      }
    }
  ]
}
-------------
Vaildating Recovery Tx
-------------
[
  {
    "txid": "f4d1dd3be6ed094dad0388812b0191ac05790aef92d776db9e2f50522efe786e",
    "wtxid": "b64b53f1815807009b783107dc02521a2f8398207c7f5059aa2078ff97cb2b16",
    "allowed": true,
    "vsize": 150,
    "fees": {
      "base": 0.00100000,
      "effective-feerate": 0.00666666,
      "effective-includes": [
        "b64b53f1815807009b783107dc02521a2f8398207c7f5059aa2078ff97cb2b16"
      ]
    }
  }
]
-------------
Broadcasting Recovery Tx
-------------
Done
-------------
Generating Block to confirm Recovery Tx
-------------
Done
-------------
Recovery Tx Block ID:
-------------
5d04b702aa2322181a78b5c874e29f900090ad43d73d95d47bf3de6751be8637
-------------
Confirmed Recovery Tx
-------------
{
  "in_active_chain": true,
  "txid": "f4d1dd3be6ed094dad0388812b0191ac05790aef92d776db9e2f50522efe786e",
  "hash": "b64b53f1815807009b783107dc02521a2f8398207c7f5059aa2078ff97cb2b16",
  "version": 2,
  "size": 351,
  "vsize": 150,
  "weight": 597,
  "locktime": 0,
  "vin": [
    {
      "txid": "0f8d75f8a68b0c6d940a9bc7f283a6aba6e72cc6fb4879880843d0f4e074ee2c",
      "vout": 0,
      "scriptSig": {
        "asm": "",
        "hex": ""
      },
      "txinwitness": [
        "304402201fbcdadbd51cab5468049afc8ed45853f19c76e5bdce121d21f61335b1f071d90220497b03342cc9ccafbc7f82b55200eaf4685eb6ae23f3e08a89401ac5cf3d295a01",
        "3045022100e11ea21f0ba54aeada3492885920f9afc2a8f42f7508fc4a8da292596c84c4b7022039a6d66748156efe7d2b810187fc00455edb1d634d79c36226d72b1f8845ddbb01",
        "02",
        "02881302e8032103cb42e67b2d9a762c36f240eb6d101be6b9e183b5cd1877b287de345cbab0314021024ce56e578ca72215d9951431fc94cf0518154b0cbcd28ec7884cde88a956da6154795287637b757b757b7500547a547a527152ae67547a6375777b7cadb2755167777b757b7cadb275516868"
      ],
      "sequence": 4294967293
    }
  ],
  "vout": [
    {
      "value": 49.99700000,
      "n": 0,
      "scriptPubKey": {
        "asm": "0 66a0a12b55e49233f72f38d6b691bbfe179bb9b2",
        "desc": "addr(bcrt1qv6s2z264ujfr8ae08rttdydmlctehwdjnvpwae)#5mlq06cp",
        "hex": "001466a0a12b55e49233f72f38d6b691bbfe179bb9b2",
        "address": "bcrt1qv6s2z264ujfr8ae08rttdydmlctehwdjnvpwae",
        "type": "witness_v0_keyhash"
      }
    }
  ],
  "hex": "020000000001012cee74e0f4d04308887948fbc62ce7a6aba683f2c79b0a946d0c8ba6f8758d0f0000000000fdffffff01205e012a0100000016001466a0a12b55e49233f72f38d6b691bbfe179bb9b20447304402201fbcdadbd51cab5468049afc8ed45853f19c76e5bdce121d21f61335b1f071d90220497b03342cc9ccafbc7f82b55200eaf4685eb6ae23f3e08a89401ac5cf3d295a01483045022100e11ea21f0ba54aeada3492885920f9afc2a8f42f7508fc4a8da292596c84c4b7022039a6d66748156efe7d2b810187fc00455edb1d634d79c36226d72b1f8845ddbb0101027602881302e8032103cb42e67b2d9a762c36f240eb6d101be6b9e183b5cd1877b287de345cbab0314021024ce56e578ca72215d9951431fc94cf0518154b0cbcd28ec7884cde88a956da6154795287637b757b757b7500547a547a527152ae67547a6375777b7cadb2755167777b757b7cadb27551686800000000",
  "blockhash": "5d04b702aa2322181a78b5c874e29f900090ad43d73d95d47bf3de6751be8637",
  "confirmations": 1,
  "time": 1775561335,
  "blocktime": 1775561335
}
-------------
***Recovery Complete!***
-------------
Balance in Recovery Addresss (bcrt1qv6s2z264ujfr8ae08rttdydmlctehwdjnvpwae): 49.99700000 BTC
-------------
Stopping Bitcoind
-------------
Bitcoin Core stopping
