-------------
Stopping Bitcoind if it is already running
-------------
Done
-------------
Updating Bitcoind configuration
-------------
Done
-------------
Refreshing & Restarting Bitcoind
-------------
Bitcoin Core starting
Waiting for 5 secs for Bitcoin Demon to Initialize...
-------------
Bootstrapping the Sentinel (co-signer)
-------------
-------------
Generating Sentinel's Priv-Pub-Addr
-------------
Private Key: cPfEFcMYBPbgY23bNKYxcVE6RUzC4e1cCnhgjJ7GfWoPZk8KBEgC
Public Key: 03ca72e94e964b3f82c52622f4b4d415ea4f380fccf58fad3db5bbded724dae805
Address: bcrt1qj3qv37plgxek2vwqcw3fewpgm2utg7e5rhzh0t
-------------
Sentinel is ready!
Lets initialize your credentials...
-------------
Press any key to generate a key pair for you...
-------------
Generating User's Priv-Pub-Addr
-------------
Private Key: cTUrZmDpwbUXmSgmaVVXdVRhtvVKVf1ocfjUSRwKYSAvVL1eePu1
Public Key: 03b633a2920526295afc18289106fbcf57b4ba08c0ab19051d888bc4c52969a729
Address: bcrt1q0fldqt0ztpnhl3zpxg37ev9638t7jk2mlgketp
-------------
Press any key to continue...
-------------
Generating blocks to bootstrap Bitcoin RegTest Blockchain
-------------
Done
[H[2J[3J
Balance: 50.00000000 BTC
Press any key to start Hybrid Custody Vault setup...
-------------
Deposit Tx Redeem Script
-------------
2103ca72e94e964b3f82c52622f4b4d415ea4f380fccf58fad3db5bbded724dae8052103b633a2920526295afc18289106fbcf57b4ba08c0ab19051d888bc4c52969a72900547a547a527152ae
-------------
Checking Deposit Tx Redeem Script
-------------
{
  "asm": "03ca72e94e964b3f82c52622f4b4d415ea4f380fccf58fad3db5bbded724dae805 03b633a2920526295afc18289106fbcf57b4ba08c0ab19051d888bc4c52969a729 0 4 OP_ROLL 4 OP_ROLL 2 OP_2ROT 2 OP_CHECKMULTISIG",
  "desc": "raw(2103ca72e94e964b3f82c52622f4b4d415ea4f380fccf58fad3db5bbded724dae8052103b633a2920526295afc18289106fbcf57b4ba08c0ab19051d888bc4c52969a72900547a547a527152ae)#3dphqe68",
  "type": "nonstandard",
  "p2sh": "2N776HfSWfrAZ4n5732CrFfTPhW7n5HszTT",
  "segwit": {
    "asm": "0 058893febb89e54fbfa98d91382c77485abbee647ba046ff8c53af21099770d1",
    "desc": "wsh(raw(2103ca72e94e964b3f82c52622f4b4d415ea4f380fccf58fad3db5bbded724dae8052103b633a2920526295afc18289106fbcf57b4ba08c0ab19051d888bc4c52969a72900547a547a527152ae))#e2vncg2u",
    "hex": "0020058893febb89e54fbfa98d91382c77485abbee647ba046ff8c53af21099770d1",
    "address": "bcrt1qqkyf8l4m38j5l0af3kgnstrhfpdthmny0wsydluv2whjzzvhwrgske8aj7",
    "type": "witness_v0_scripthash",
    "p2sh-segwit": "2NDU3FPxKRP88KmV6eZBDjChCCRE7JZKUKX"
  }
}
-------------
Deposit Tx - Script to Address
-------------
bcrt1qqkyf8l4m38j5l0af3kgnstrhfpdthmny0wsydluv2whjzzvhwrgske8aj7
-------------
Creating Unsigned Deposit Tx
-------------
Done
-------------
Unsigned Deposit Tx
-------------
0200000001d595ea61a7559aa3ac5abc75e5cd708f3049bc71c22317d0a4eb01c93b5872250000000000fdffffff01606b042a01000000220020058893febb89e54fbfa98d91382c77485abbee647ba046ff8c53af21099770d100000000
-------------
Checking Unsigned Deposit Tx
-------------
{
  "txid": "4dc076afd8d328ba7a334e6aed3c509b9967e64c7c3ac02e378db472bb51f814",
  "hash": "4dc076afd8d328ba7a334e6aed3c509b9967e64c7c3ac02e378db472bb51f814",
  "version": 2,
  "size": 94,
  "vsize": 94,
  "weight": 376,
  "locktime": 0,
  "vin": [
    {
      "txid": "2572583bc901eba4d01723c271bc49308f70cde575bc5aaca39a55a761ea95d5",
      "vout": 0,
      "scriptSig": {
        "asm": "",
        "hex": ""
      },
      "sequence": 4294967293
    }
  ],
  "vout": [
    {
      "value": 49.99900000,
      "n": 0,
      "scriptPubKey": {
        "asm": "0 058893febb89e54fbfa98d91382c77485abbee647ba046ff8c53af21099770d1",
        "desc": "addr(bcrt1qqkyf8l4m38j5l0af3kgnstrhfpdthmny0wsydluv2whjzzvhwrgske8aj7)#vsq80qws",
        "hex": "0020058893febb89e54fbfa98d91382c77485abbee647ba046ff8c53af21099770d1",
        "address": "bcrt1qqkyf8l4m38j5l0af3kgnstrhfpdthmny0wsydluv2whjzzvhwrgske8aj7",
        "type": "witness_v0_scripthash"
      }
    }
  ]
}
-------------
Signing the Deposit Tx
-------------
Done
-------------
Signed Deposit Tx
-------------
02000000000101d595ea61a7559aa3ac5abc75e5cd708f3049bc71c22317d0a4eb01c93b5872250000000000fdffffff01606b042a01000000220020058893febb89e54fbfa98d91382c77485abbee647ba046ff8c53af21099770d102473044022064921615ec362bad56df88df79a7d85c5de46b01106d3fcadd118071356347cc02203327e68b7bb0df63b64185838afaee85a9ae93dc8db4fe8dec9661688152c3b9012103b633a2920526295afc18289106fbcf57b4ba08c0ab19051d888bc4c52969a72900000000
-------------
Checking Signed Deposit Tx
-------------
{
  "txid": "4dc076afd8d328ba7a334e6aed3c509b9967e64c7c3ac02e378db472bb51f814",
  "hash": "7ee20de4255b86aa857df4d018406badf018bc9533558c1c5a81e28ab8eeec40",
  "version": 2,
  "size": 203,
  "vsize": 122,
  "weight": 485,
  "locktime": 0,
  "vin": [
    {
      "txid": "2572583bc901eba4d01723c271bc49308f70cde575bc5aaca39a55a761ea95d5",
      "vout": 0,
      "scriptSig": {
        "asm": "",
        "hex": ""
      },
      "txinwitness": [
        "3044022064921615ec362bad56df88df79a7d85c5de46b01106d3fcadd118071356347cc02203327e68b7bb0df63b64185838afaee85a9ae93dc8db4fe8dec9661688152c3b901",
        "03b633a2920526295afc18289106fbcf57b4ba08c0ab19051d888bc4c52969a729"
      ],
      "sequence": 4294967293
    }
  ],
  "vout": [
    {
      "value": 49.99900000,
      "n": 0,
      "scriptPubKey": {
        "asm": "0 058893febb89e54fbfa98d91382c77485abbee647ba046ff8c53af21099770d1",
        "desc": "addr(bcrt1qqkyf8l4m38j5l0af3kgnstrhfpdthmny0wsydluv2whjzzvhwrgske8aj7)#vsq80qws",
        "hex": "0020058893febb89e54fbfa98d91382c77485abbee647ba046ff8c53af21099770d1",
        "address": "bcrt1qqkyf8l4m38j5l0af3kgnstrhfpdthmny0wsydluv2whjzzvhwrgske8aj7",
        "type": "witness_v0_scripthash"
      }
    }
  ]
}
[H[2J[3J
-------------
Your Vault has a 2-step Unlock and Spend process to transfer from it
and there is a mandatory yet configureable delay enforced between these
Unlock and Spend Transactions for every private-key/combination allowed
to spend from this Vault.
-------------
Press any key to configure these delays and continue...
[H[2J[3J
-------------
Lets configure the on-chain delay / cooling period
for spending with your private-key from your Vault!

This will give you time to react and initiate recovery
when your private-key or wallet backup (seed phrase) is stolen
and is used to unlock and potentially spend from your Vault.
-------------
Enter delay in blocks or press [Return] to use default [1000]: Setting Option 1 (User Private-Key Only) Delay to 1000
Encoded bytes (hex): e803
[H[2J[3J
-------------
Now, lets configure the on-chain delay / cooling period
for spending with the Sentinel private-key from your Vault!

This is the delay your Sentinel has to wait before he can
transfer/recover from your Vault in case your private-key
is lost or for managing your inheritance.

PS: This is typically much longer than the previously set delay
and will give you time to react and override any spend attempt
by compromised/rogue Sentinels with just your private-key
eliminating counter-party risk in the Hybrid Custody Ecosystem.
-------------
Enter delay in blocks or press [Return] to use default [5000]: Setting Option 2 (Sentinel Private-Key Only) Delay to 5000
Encoded bytes (hex): 8813
[H[2J[3J
-------------
Now, lets configure the Recovery Address for your Vault!

Once your private-keys are lost or stolen, it is not
safe to recover your Vault to an address controlled by you
as we never know how deep the compromise is.

The best approach would be to temporarily transfer the coins in your
Vault to a custodial wallet address (Coinbase, Binance, etc.) and disable
withdrawls from it until you can create a new secure cold-storage wallet and Vault.

Alternatively, you can setup a new unused Hardware Wallet
with a new seed-phrase and store both the hardware wallet and
seed-phrase backup in a bank locker and use this wallet's address as Recovery Address!

PS: Sentinels are bound by on-chain Staking/Slashing mechanics
to only sign Recovery transactions to this Preconfigured Recovery Address
as no user provided input can be trusted post compromise/setup!
-------------
Enter Recovery Address or press [Return] to use default [bcrt1qys39x9aekgprus94t46v88vmglm2t0m5auaxs4]: Proceeding with Recovery Address: bcrt1qys39x9aekgprus94t46v88vmglm2t0m5auaxs4
-------------
Unlock Tx (Provisional Tx) Redeem Script
-------------
Hex: 02881302e8032103ca72e94e964b3f82c52622f4b4d415ea4f380fccf58fad3db5bbded724dae8052103b633a2920526295afc18289106fbcf57b4ba08c0ab19051d888bc4c52969a72954795287637b757b757b7500547a547a527152ae67547a6375777b7cadb2755167777b757b7cadb275516868
-------------
Checking Unlock Tx (Provisional Tx) Redeem Script
-------------
{
  "asm": "5000 1000 03ca72e94e964b3f82c52622f4b4d415ea4f380fccf58fad3db5bbded724dae805 03b633a2920526295afc18289106fbcf57b4ba08c0ab19051d888bc4c52969a729 4 OP_PICK 2 OP_EQUAL OP_IF OP_ROT OP_DROP OP_ROT OP_DROP OP_ROT OP_DROP 0 4 OP_ROLL 4 OP_ROLL 2 OP_2ROT 2 OP_CHECKMULTISIG OP_ELSE 4 OP_ROLL OP_IF OP_DROP OP_NIP OP_ROT OP_SWAP OP_CHECKSIGVERIFY OP_CHECKSEQUENCEVERIFY OP_DROP 1 OP_ELSE OP_NIP OP_ROT OP_DROP OP_ROT OP_SWAP OP_CHECKSIGVERIFY OP_CHECKSEQUENCEVERIFY OP_DROP 1 OP_ENDIF OP_ENDIF",
  "desc": "raw(02881302e8032103ca72e94e964b3f82c52622f4b4d415ea4f380fccf58fad3db5bbded724dae8052103b633a2920526295afc18289106fbcf57b4ba08c0ab19051d888bc4c52969a72954795287637b757b757b7500547a547a527152ae67547a6375777b7cadb2755167777b757b7cadb275516868)#vks04q49",
  "type": "nonstandard",
  "p2sh": "2N5WtmzQxPV2F7vDvtG8o629mJdni8m2bh4",
  "segwit": {
    "asm": "0 af1c481328c2a57c952ed446f9616af5b4819f42b123b0a37122ad21c5234b21",
    "desc": "wsh(raw(02881302e8032103ca72e94e964b3f82c52622f4b4d415ea4f380fccf58fad3db5bbded724dae8052103b633a2920526295afc18289106fbcf57b4ba08c0ab19051d888bc4c52969a72954795287637b757b757b7500547a547a527152ae67547a6375777b7cadb2755167777b757b7cadb275516868))#kzg3hn5e",
    "hex": "0020af1c481328c2a57c952ed446f9616af5b4819f42b123b0a37122ad21c5234b21",
    "address": "bcrt1q4uwysyegc2jhe9fw63r0jct27k6gr86zky3mpgm3y2kjr3frfvssykrwyc",
    "type": "witness_v0_scripthash",
    "p2sh-segwit": "2MyAVSsvcg6MGufuufNZkwZMpe6UZN8Z9dE"
  }
}
-------------
Unlock Tx (Provisional Tx) - Script to Address
-------------
bcrt1q4uwysyegc2jhe9fw63r0jct27k6gr86zky3mpgm3y2kjr3frfvssykrwyc
-------------
Creating Unsigned Unlock Tx (Provisional Tx)
-------------
020000000114f851bb72b48d372ec03a7c4ce667999b503ced6a4e337aba28d3d8af76c04d0000000000fdffffff01c0e4022a01000000220020af1c481328c2a57c952ed446f9616af5b4819f42b123b0a37122ad21c5234b2100000000
-------------
Checking Unsigned Unlock Tx Created by User
-------------
{
  "txid": "f5bed92a321e07f98392ec983eb39584dc6b5eeb17ec99b298a610f0e47b04d3",
  "hash": "f5bed92a321e07f98392ec983eb39584dc6b5eeb17ec99b298a610f0e47b04d3",
  "version": 2,
  "size": 94,
  "vsize": 94,
  "weight": 376,
  "locktime": 0,
  "vin": [
    {
      "txid": "4dc076afd8d328ba7a334e6aed3c509b9967e64c7c3ac02e378db472bb51f814",
      "vout": 0,
      "scriptSig": {
        "asm": "",
        "hex": ""
      },
      "sequence": 4294967293
    }
  ],
  "vout": [
    {
      "value": 49.99800000,
      "n": 0,
      "scriptPubKey": {
        "asm": "0 af1c481328c2a57c952ed446f9616af5b4819f42b123b0a37122ad21c5234b21",
        "desc": "addr(bcrt1q4uwysyegc2jhe9fw63r0jct27k6gr86zky3mpgm3y2kjr3frfvssykrwyc)#2a65fhdk",
        "hex": "0020af1c481328c2a57c952ed446f9616af5b4819f42b123b0a37122ad21c5234b21",
        "address": "bcrt1q4uwysyegc2jhe9fw63r0jct27k6gr86zky3mpgm3y2kjr3frfvssykrwyc",
        "type": "witness_v0_scripthash"
      }
    }
  ]
}
-------------
Simulating the transfer of Unsigned Unlock Tx (Provisional Tx) copy
to Sentinel!
-------------
[U] --> Unsigned Unlock Tx (Provisional Tx) --> [S]
-------------
Sentinel signs the Unsigned Unlock Tx (Provisional Tx)
with his Private Key
-------------
Original Tx:
{
    "ins": [
        {
            "tx_hash": "4dc076afd8d328ba7a334e6aed3c509b9967e64c7c3ac02e378db472bb51f814",
            "tx_pos": 0,
            "script": "",
            "sequence": 4294967293,
            "value": 4999900000
        }
    ],
    "outs": [
        {
            "value": 4999800000,
            "script": "0020af1c481328c2a57c952ed446f9616af5b4819f42b123b0a37122ad21c5234b21"
        }
    ],
    "version": 2,
    "locktime": 0
}
Signature:
30450221009a6539c9bf0b91f20e5cccd2b428ef2a9474a1c89e6c45903b1c770d2ee315b50220790b5abd54c79bc47028a50ab90c9570b88ca2b36bd3d0140955d9f76e64944d01
-------------
Unlock Tx (Provisional Tx) - Sentinel's Signature
-------------
30450221009a6539c9bf0b91f20e5cccd2b428ef2a9474a1c89e6c45903b1c770d2ee315b50220790b5abd54c79bc47028a50ab90c9570b88ca2b36bd3d0140955d9f76e64944d01
-------------
Simulating the transfer of Partially Signed Unlock Tx (Provisional Tx)
to User!
-------------
[S] --> Partially Signed Unlock Tx (Provisional Tx) --> [U]
-------------
User signs the Unsigned Unlock Tx (Provisional Tx)
with his Private Key
-------------
Original Tx:
{
    "ins": [
        {
            "tx_hash": "4dc076afd8d328ba7a334e6aed3c509b9967e64c7c3ac02e378db472bb51f814",
            "tx_pos": 0,
            "script": "",
            "sequence": 4294967293,
            "value": 4999900000
        }
    ],
    "outs": [
        {
            "value": 4999800000,
            "script": "0020af1c481328c2a57c952ed446f9616af5b4819f42b123b0a37122ad21c5234b21"
        }
    ],
    "version": 2,
    "locktime": 0
}
Signature:
3045022100a0d673a916b26c1a9831f4a03919e166bea74198fbfe6441c8252a49be383ca0022047023d72b0727c402de3cc178d12d790403a1285f4e5a9701717d50bc3505c2c01
-------------
Unlock Tx (Provisional Tx) - User Signature
-------------
3045022100a0d673a916b26c1a9831f4a03919e166bea74198fbfe6441c8252a49be383ca0022047023d72b0727c402de3cc178d12d790403a1285f4e5a9701717d50bc3505c2c01
-------------
Simulating the transfer of Partially Signed Unlock Tx (Provisional Tx) copy
to Sentinel!
-------------
[U] --> Partially Signed Provisional Tx --> [S]
-------------
User signs & broadcasts the Deposit Tx
after receiving the Partially signed Unlock Tx (Provisional Tx)
-------------
4dc076afd8d328ba7a334e6aed3c509b9967e64c7c3ac02e378db472bb51f814
Done
-------------
Generating Block to confirm the Deposit Tx
-------------
Deposit Tx Block: 710a6f1d8a0c87f1ff864cdda4bd39139bd7fa7bd3ae455641fb99630fd9fce6
-------------
Confirmed Deposit Tx
-------------
{
  "in_active_chain": true,
  "txid": "4dc076afd8d328ba7a334e6aed3c509b9967e64c7c3ac02e378db472bb51f814",
  "hash": "7ee20de4255b86aa857df4d018406badf018bc9533558c1c5a81e28ab8eeec40",
  "version": 2,
  "size": 203,
  "vsize": 122,
  "weight": 485,
  "locktime": 0,
  "vin": [
    {
      "txid": "2572583bc901eba4d01723c271bc49308f70cde575bc5aaca39a55a761ea95d5",
      "vout": 0,
      "scriptSig": {
        "asm": "",
        "hex": ""
      },
      "txinwitness": [
        "3044022064921615ec362bad56df88df79a7d85c5de46b01106d3fcadd118071356347cc02203327e68b7bb0df63b64185838afaee85a9ae93dc8db4fe8dec9661688152c3b901",
        "03b633a2920526295afc18289106fbcf57b4ba08c0ab19051d888bc4c52969a729"
      ],
      "sequence": 4294967293
    }
  ],
  "vout": [
    {
      "value": 49.99900000,
      "n": 0,
      "scriptPubKey": {
        "asm": "0 058893febb89e54fbfa98d91382c77485abbee647ba046ff8c53af21099770d1",
        "desc": "addr(bcrt1qqkyf8l4m38j5l0af3kgnstrhfpdthmny0wsydluv2whjzzvhwrgske8aj7)#vsq80qws",
        "hex": "0020058893febb89e54fbfa98d91382c77485abbee647ba046ff8c53af21099770d1",
        "address": "bcrt1qqkyf8l4m38j5l0af3kgnstrhfpdthmny0wsydluv2whjzzvhwrgske8aj7",
        "type": "witness_v0_scripthash"
      }
    }
  ],
  "hex": "02000000000101d595ea61a7559aa3ac5abc75e5cd708f3049bc71c22317d0a4eb01c93b5872250000000000fdffffff01606b042a01000000220020058893febb89e54fbfa98d91382c77485abbee647ba046ff8c53af21099770d102473044022064921615ec362bad56df88df79a7d85c5de46b01106d3fcadd118071356347cc02203327e68b7bb0df63b64185838afaee85a9ae93dc8db4fe8dec9661688152c3b9012103b633a2920526295afc18289106fbcf57b4ba08c0ab19051d888bc4c52969a72900000000",
  "blockhash": "710a6f1d8a0c87f1ff864cdda4bd39139bd7fa7bd3ae455641fb99630fd9fce6",
  "confirmations": 1,
  "time": 1775561280,
  "blocktime": 1775561280
}
[H[2J[3J
-------------
*** Smart Vault Setup Complete! ***
-------------
You are now assured of your
Bitcoin's safety and security
as your Bitcoin is now in Joint Custody and
rest everything is managed using the
Partially Signed Unlock Txs (Provisional Txs) with you
and your Sentinel after the Smart Vault setup is complete!
-------------
Press any key to continue...
-------------
Simulating the recovery process by Sentinel
as your private-key is lost!
(Requires only Sentinel's private-key)
-------------
Balance in Recovery Addresss (bcrt1qys39x9aekgprus94t46v88vmglm2t0m5auaxs4): 0 BTC
Press any key to start recovery...
-------------
Sentinel signs the Partially Signed
Unlock Tx (Provisional Tx) received from User
with its Private Key
-------------
Done
-------------
Sentinel's Private Key Generated Signature for Unlock Tx (Provisional Tx):
-------------
30450221009a6539c9bf0b91f20e5cccd2b428ef2a9474a1c89e6c45903b1c770d2ee315b50220790b5abd54c79bc47028a50ab90c9570b88ca2b36bd3d0140955d9f76e64944d01
-------------
Fully Signed Unlock Tx (Provisional Tx):
-------------
Unsigned Tx
{
    "ins": [
        {
            "tx_hash": "4dc076afd8d328ba7a334e6aed3c509b9967e64c7c3ac02e378db472bb51f814",
            "tx_pos": 0,
            "script": "",
            "sequence": 4294967293
        }
    ],
    "outs": [
        {
            "value": 4999800000,
            "script": "0020af1c481328c2a57c952ed446f9616af5b4819f42b123b0a37122ad21c5234b21"
        }
    ],
    "version": 2,
    "locktime": 0
}
Signed Tx
{
    "ins": [
        {
            "tx_hash": "4dc076afd8d328ba7a334e6aed3c509b9967e64c7c3ac02e378db472bb51f814",
            "tx_pos": 0,
            "script": "",
            "sequence": 4294967293
        }
    ],
    "outs": [
        {
            "value": 4999800000,
            "script": "0020af1c481328c2a57c952ed446f9616af5b4819f42b123b0a37122ad21c5234b21"
        }
    ],
    "version": 2,
    "locktime": 0,
    "witness": [
        {
            "number": 3,
            "scriptCode": "4830450221009a6539c9bf0b91f20e5cccd2b428ef2a9474a1c89e6c45903b1c770d2ee315b50220790b5abd54c79bc47028a50ab90c9570b88ca2b36bd3d0140955d9f76e64944d01483045022100a0d673a916b26c1a9831f4a03919e166bea74198fbfe6441c8252a49be383ca0022047023d72b0727c402de3cc178d12d790403a1285f4e5a9701717d50bc3505c2c014d2103ca72e94e964b3f82c52622f4b4d415ea4f380fccf58fad3db5bbded724dae8052103b633a2920526295afc18289106fbcf57b4ba08c0ab19051d888bc4c52969a72900547a547a527152ae"
        }
    ],
    "marker": 0,
    "flag": 1
}
0200000000010114f851bb72b48d372ec03a7c4ce667999b503ced6a4e337aba28d3d8af76c04d0000000000fdffffff01c0e4022a01000000220020af1c481328c2a57c952ed446f9616af5b4819f42b123b0a37122ad21c5234b21034830450221009a6539c9bf0b91f20e5cccd2b428ef2a9474a1c89e6c45903b1c770d2ee315b50220790b5abd54c79bc47028a50ab90c9570b88ca2b36bd3d0140955d9f76e64944d01483045022100a0d673a916b26c1a9831f4a03919e166bea74198fbfe6441c8252a49be383ca0022047023d72b0727c402de3cc178d12d790403a1285f4e5a9701717d50bc3505c2c014d2103ca72e94e964b3f82c52622f4b4d415ea4f380fccf58fad3db5bbded724dae8052103b633a2920526295afc18289106fbcf57b4ba08c0ab19051d888bc4c52969a72900547a547a527152ae00000000
-------------
Checking Fully Signed Unlock Tx (Provisional Tx) :
-------------
{
  "txid": "f5bed92a321e07f98392ec983eb39584dc6b5eeb17ec99b298a610f0e47b04d3",
  "hash": "f9929ae740b94a783ea4fdba9bdba23927af078b39fea0c35d4ce22ae1d11ea2",
  "version": 2,
  "size": 321,
  "vsize": 151,
  "weight": 603,
  "locktime": 0,
  "vin": [
    {
      "txid": "4dc076afd8d328ba7a334e6aed3c509b9967e64c7c3ac02e378db472bb51f814",
      "vout": 0,
      "scriptSig": {
        "asm": "",
        "hex": ""
      },
      "txinwitness": [
        "30450221009a6539c9bf0b91f20e5cccd2b428ef2a9474a1c89e6c45903b1c770d2ee315b50220790b5abd54c79bc47028a50ab90c9570b88ca2b36bd3d0140955d9f76e64944d01",
        "3045022100a0d673a916b26c1a9831f4a03919e166bea74198fbfe6441c8252a49be383ca0022047023d72b0727c402de3cc178d12d790403a1285f4e5a9701717d50bc3505c2c01",
        "2103ca72e94e964b3f82c52622f4b4d415ea4f380fccf58fad3db5bbded724dae8052103b633a2920526295afc18289106fbcf57b4ba08c0ab19051d888bc4c52969a72900547a547a527152ae"
      ],
      "sequence": 4294967293
    }
  ],
  "vout": [
    {
      "value": 49.99800000,
      "n": 0,
      "scriptPubKey": {
        "asm": "0 af1c481328c2a57c952ed446f9616af5b4819f42b123b0a37122ad21c5234b21",
        "desc": "addr(bcrt1q4uwysyegc2jhe9fw63r0jct27k6gr86zky3mpgm3y2kjr3frfvssykrwyc)#2a65fhdk",
        "hex": "0020af1c481328c2a57c952ed446f9616af5b4819f42b123b0a37122ad21c5234b21",
        "address": "bcrt1q4uwysyegc2jhe9fw63r0jct27k6gr86zky3mpgm3y2kjr3frfvssykrwyc",
        "type": "witness_v0_scripthash"
      }
    }
  ]
}
-------------
Vaildate Fully Signed Unlock Tx (Provisional Tx)
-------------
[
  {
    "txid": "f5bed92a321e07f98392ec983eb39584dc6b5eeb17ec99b298a610f0e47b04d3",
    "wtxid": "f9929ae740b94a783ea4fdba9bdba23927af078b39fea0c35d4ce22ae1d11ea2",
    "allowed": true,
    "vsize": 151,
    "fees": {
      "base": 0.00100000,
      "effective-feerate": 0.00662251,
      "effective-includes": [
        "f9929ae740b94a783ea4fdba9bdba23927af078b39fea0c35d4ce22ae1d11ea2"
      ]
    }
  }
]
-------------
Broadcast Fully Signed Unlock Tx (Provisional Tx)
-------------
Done
-------------
Generating Block to confirm Unlock Tx (Provisional Tx)
-------------
Done
-------------
Unlock Tx (Provisional Tx) Block:
-------------
3a2a2af7fd4104cc7a68f462e00acbd37f15b94e5595ac722ccac6c3a7c79511
-------------
Confirmed Unlock Tx (Provisional Tx)
-------------
{
  "in_active_chain": true,
  "txid": "f5bed92a321e07f98392ec983eb39584dc6b5eeb17ec99b298a610f0e47b04d3",
  "hash": "f9929ae740b94a783ea4fdba9bdba23927af078b39fea0c35d4ce22ae1d11ea2",
  "version": 2,
  "size": 321,
  "vsize": 151,
  "weight": 603,
  "locktime": 0,
  "vin": [
    {
      "txid": "4dc076afd8d328ba7a334e6aed3c509b9967e64c7c3ac02e378db472bb51f814",
      "vout": 0,
      "scriptSig": {
        "asm": "",
        "hex": ""
      },
      "txinwitness": [
        "30450221009a6539c9bf0b91f20e5cccd2b428ef2a9474a1c89e6c45903b1c770d2ee315b50220790b5abd54c79bc47028a50ab90c9570b88ca2b36bd3d0140955d9f76e64944d01",
        "3045022100a0d673a916b26c1a9831f4a03919e166bea74198fbfe6441c8252a49be383ca0022047023d72b0727c402de3cc178d12d790403a1285f4e5a9701717d50bc3505c2c01",
        "2103ca72e94e964b3f82c52622f4b4d415ea4f380fccf58fad3db5bbded724dae8052103b633a2920526295afc18289106fbcf57b4ba08c0ab19051d888bc4c52969a72900547a547a527152ae"
      ],
      "sequence": 4294967293
    }
  ],
  "vout": [
    {
      "value": 49.99800000,
      "n": 0,
      "scriptPubKey": {
        "asm": "0 af1c481328c2a57c952ed446f9616af5b4819f42b123b0a37122ad21c5234b21",
        "desc": "addr(bcrt1q4uwysyegc2jhe9fw63r0jct27k6gr86zky3mpgm3y2kjr3frfvssykrwyc)#2a65fhdk",
        "hex": "0020af1c481328c2a57c952ed446f9616af5b4819f42b123b0a37122ad21c5234b21",
        "address": "bcrt1q4uwysyegc2jhe9fw63r0jct27k6gr86zky3mpgm3y2kjr3frfvssykrwyc",
        "type": "witness_v0_scripthash"
      }
    }
  ],
  "hex": "0200000000010114f851bb72b48d372ec03a7c4ce667999b503ced6a4e337aba28d3d8af76c04d0000000000fdffffff01c0e4022a01000000220020af1c481328c2a57c952ed446f9616af5b4819f42b123b0a37122ad21c5234b21034830450221009a6539c9bf0b91f20e5cccd2b428ef2a9474a1c89e6c45903b1c770d2ee315b50220790b5abd54c79bc47028a50ab90c9570b88ca2b36bd3d0140955d9f76e64944d01483045022100a0d673a916b26c1a9831f4a03919e166bea74198fbfe6441c8252a49be383ca0022047023d72b0727c402de3cc178d12d790403a1285f4e5a9701717d50bc3505c2c014d2103ca72e94e964b3f82c52622f4b4d415ea4f380fccf58fad3db5bbded724dae8052103b633a2920526295afc18289106fbcf57b4ba08c0ab19051d888bc4c52969a72900547a547a527152ae00000000",
  "blockhash": "3a2a2af7fd4104cc7a68f462e00acbd37f15b94e5595ac722ccac6c3a7c79511",
  "confirmations": 1,
  "time": 1775561280,
  "blocktime": 1775561280
}
-------------
Everyone including you can monitor the Vault and see the Unlock Tx on-chain
and you can initiate recovery using Option 1 (spend with your private-key)
if this Recovery was not requested by you and you suspect foul pay.
-------------
Press any key to continue with recovery...
-------------
Simulating Recovery by Sentinel using
*** Option 2 *** of Unlock Tx (Provisional Tx)
(Using just Sentinel's Private Key)
-------------
Recovery Process - Start
-------------
Sentinel creates the Recovery Tx
-------------
Done
-------------
Unsigned Recovery Tx
-------------
0200000001d3047be4f010a698b299ec17eb5e6bdc8495b33e98ec9283f9071e322ad9bef500000000008813000001205e012a0100000016001424225317b9b2023e40b55d74c39d9b47f6a5bf7400000000
-------------
Checking Unsigned Recovery Tx
-------------
{
  "txid": "38eca638f373c0e20bb74828075fb1d941bcd7d25ba5dc8b5ee214231805df59",
  "hash": "38eca638f373c0e20bb74828075fb1d941bcd7d25ba5dc8b5ee214231805df59",
  "version": 2,
  "size": 82,
  "vsize": 82,
  "weight": 328,
  "locktime": 0,
  "vin": [
    {
      "txid": "f5bed92a321e07f98392ec983eb39584dc6b5eeb17ec99b298a610f0e47b04d3",
      "vout": 0,
      "scriptSig": {
        "asm": "",
        "hex": ""
      },
      "sequence": 5000
    }
  ],
  "vout": [
    {
      "value": 49.99700000,
      "n": 0,
      "scriptPubKey": {
        "asm": "0 24225317b9b2023e40b55d74c39d9b47f6a5bf74",
        "desc": "addr(bcrt1qys39x9aekgprus94t46v88vmglm2t0m5auaxs4)#vldnq62n",
        "hex": "001424225317b9b2023e40b55d74c39d9b47f6a5bf74",
        "address": "bcrt1qys39x9aekgprus94t46v88vmglm2t0m5auaxs4",
        "type": "witness_v0_keyhash"
      }
    }
  ]
}
-------------
Sentinel Signs the Recovery Tx
-------------
Original Tx:
{
    "ins": [
        {
            "tx_hash": "f5bed92a321e07f98392ec983eb39584dc6b5eeb17ec99b298a610f0e47b04d3",
            "tx_pos": 0,
            "script": "",
            "sequence": 5000,
            "value": 4999800000
        }
    ],
    "outs": [
        {
            "value": 4999700000,
            "script": "001424225317b9b2023e40b55d74c39d9b47f6a5bf74"
        }
    ],
    "version": 2,
    "locktime": 0
}
Signature:
3045022100f0632c547e29d827962a3a767c24c74dfb450a1f5db7dee527ece43218c4d89702201e710c264c3019c3e8cc7b937bd2454331870cf6ce99b1585692d38a90d037af01
-------------
Recovery Tx - Sentinel's Signature
-------------
3045022100f0632c547e29d827962a3a767c24c74dfb450a1f5db7dee527ece43218c4d89702201e710c264c3019c3e8cc7b937bd2454331870cf6ce99b1585692d38a90d037af01
-------------
Fully Signed Recovery Tx:
-------------
Unsigned Tx
{
    "ins": [
        {
            "tx_hash": "f5bed92a321e07f98392ec983eb39584dc6b5eeb17ec99b298a610f0e47b04d3",
            "tx_pos": 0,
            "script": "",
            "sequence": 5000
        }
    ],
    "outs": [
        {
            "value": 4999700000,
            "script": "001424225317b9b2023e40b55d74c39d9b47f6a5bf74"
        }
    ],
    "version": 2,
    "locktime": 0
}
Signed Tx
{
    "ins": [
        {
            "tx_hash": "f5bed92a321e07f98392ec983eb39584dc6b5eeb17ec99b298a610f0e47b04d3",
            "tx_pos": 0,
            "script": "",
            "sequence": 5000
        }
    ],
    "outs": [
        {
            "value": 4999700000,
            "script": "001424225317b9b2023e40b55d74c39d9b47f6a5bf74"
        }
    ],
    "version": 2,
    "locktime": 0,
    "witness": [
        {
            "number": 3,
            "scriptCode": "483045022100f0632c547e29d827962a3a767c24c74dfb450a1f5db7dee527ece43218c4d89702201e710c264c3019c3e8cc7b937bd2454331870cf6ce99b1585692d38a90d037af0101017602881302e8032103ca72e94e964b3f82c52622f4b4d415ea4f380fccf58fad3db5bbded724dae8052103b633a2920526295afc18289106fbcf57b4ba08c0ab19051d888bc4c52969a72954795287637b757b757b7500547a547a527152ae67547a6375777b7cadb2755167777b757b7cadb275516868"
        }
    ],
    "marker": 0,
    "flag": 1
}
02000000000101d3047be4f010a698b299ec17eb5e6bdc8495b33e98ec9283f9071e322ad9bef500000000008813000001205e012a0100000016001424225317b9b2023e40b55d74c39d9b47f6a5bf7403483045022100f0632c547e29d827962a3a767c24c74dfb450a1f5db7dee527ece43218c4d89702201e710c264c3019c3e8cc7b937bd2454331870cf6ce99b1585692d38a90d037af0101017602881302e8032103ca72e94e964b3f82c52622f4b4d415ea4f380fccf58fad3db5bbded724dae8052103b633a2920526295afc18289106fbcf57b4ba08c0ab19051d888bc4c52969a72954795287637b757b757b7500547a547a527152ae67547a6375777b7cadb2755167777b757b7cadb27551686800000000
-------------
Checking Fully Signed Recovery Tx:
-------------
{
  "txid": "38eca638f373c0e20bb74828075fb1d941bcd7d25ba5dc8b5ee214231805df59",
  "hash": "ad2d304e9c682bcccee8252c9393ff8899884512036222e93f0a46322f6ada24",
  "version": 2,
  "size": 279,
  "vsize": 132,
  "weight": 525,
  "locktime": 0,
  "vin": [
    {
      "txid": "f5bed92a321e07f98392ec983eb39584dc6b5eeb17ec99b298a610f0e47b04d3",
      "vout": 0,
      "scriptSig": {
        "asm": "",
        "hex": ""
      },
      "txinwitness": [
        "3045022100f0632c547e29d827962a3a767c24c74dfb450a1f5db7dee527ece43218c4d89702201e710c264c3019c3e8cc7b937bd2454331870cf6ce99b1585692d38a90d037af01",
        "01",
        "02881302e8032103ca72e94e964b3f82c52622f4b4d415ea4f380fccf58fad3db5bbded724dae8052103b633a2920526295afc18289106fbcf57b4ba08c0ab19051d888bc4c52969a72954795287637b757b757b7500547a547a527152ae67547a6375777b7cadb2755167777b757b7cadb275516868"
      ],
      "sequence": 5000
    }
  ],
  "vout": [
    {
      "value": 49.99700000,
      "n": 0,
      "scriptPubKey": {
        "asm": "0 24225317b9b2023e40b55d74c39d9b47f6a5bf74",
        "desc": "addr(bcrt1qys39x9aekgprus94t46v88vmglm2t0m5auaxs4)#vldnq62n",
        "hex": "001424225317b9b2023e40b55d74c39d9b47f6a5bf74",
        "address": "bcrt1qys39x9aekgprus94t46v88vmglm2t0m5auaxs4",
        "type": "witness_v0_keyhash"
      }
    }
  ]
}
-------------
Creating Blocks to satisfy Timelocks
-------------
5000 Blocks Created!
-------------
Vaildating Recovery Tx
-------------
[
  {
    "txid": "38eca638f373c0e20bb74828075fb1d941bcd7d25ba5dc8b5ee214231805df59",
    "wtxid": "ad2d304e9c682bcccee8252c9393ff8899884512036222e93f0a46322f6ada24",
    "allowed": true,
    "vsize": 132,
    "fees": {
      "base": 0.00100000,
      "effective-feerate": 0.00757575,
      "effective-includes": [
        "ad2d304e9c682bcccee8252c9393ff8899884512036222e93f0a46322f6ada24"
      ]
    }
  }
]
-------------
Broadcasting Recovery Tx
-------------
Done
-------------
Generating Block to confirm Recovery Tx
-------------
Done
-------------
Recovery Tx Block ID:
-------------
2fa45109007d84249d13cc6461f8a708379f03affd774c327c6940f26e46aea3
-------------
Confirmed Recovery Tx
-------------
{
  "in_active_chain": true,
  "txid": "38eca638f373c0e20bb74828075fb1d941bcd7d25ba5dc8b5ee214231805df59",
  "hash": "ad2d304e9c682bcccee8252c9393ff8899884512036222e93f0a46322f6ada24",
  "version": 2,
  "size": 279,
  "vsize": 132,
  "weight": 525,
  "locktime": 0,
  "vin": [
    {
      "txid": "f5bed92a321e07f98392ec983eb39584dc6b5eeb17ec99b298a610f0e47b04d3",
      "vout": 0,
      "scriptSig": {
        "asm": "",
        "hex": ""
      },
      "txinwitness": [
        "3045022100f0632c547e29d827962a3a767c24c74dfb450a1f5db7dee527ece43218c4d89702201e710c264c3019c3e8cc7b937bd2454331870cf6ce99b1585692d38a90d037af01",
        "01",
        "02881302e8032103ca72e94e964b3f82c52622f4b4d415ea4f380fccf58fad3db5bbded724dae8052103b633a2920526295afc18289106fbcf57b4ba08c0ab19051d888bc4c52969a72954795287637b757b757b7500547a547a527152ae67547a6375777b7cadb2755167777b757b7cadb275516868"
      ],
      "sequence": 5000
    }
  ],
  "vout": [
    {
      "value": 49.99700000,
      "n": 0,
      "scriptPubKey": {
        "asm": "0 24225317b9b2023e40b55d74c39d9b47f6a5bf74",
        "desc": "addr(bcrt1qys39x9aekgprus94t46v88vmglm2t0m5auaxs4)#vldnq62n",
        "hex": "001424225317b9b2023e40b55d74c39d9b47f6a5bf74",
        "address": "bcrt1qys39x9aekgprus94t46v88vmglm2t0m5auaxs4",
        "type": "witness_v0_keyhash"
      }
    }
  ],
  "hex": "02000000000101d3047be4f010a698b299ec17eb5e6bdc8495b33e98ec9283f9071e322ad9bef500000000008813000001205e012a0100000016001424225317b9b2023e40b55d74c39d9b47f6a5bf7403483045022100f0632c547e29d827962a3a767c24c74dfb450a1f5db7dee527ece43218c4d89702201e710c264c3019c3e8cc7b937bd2454331870cf6ce99b1585692d38a90d037af0101017602881302e8032103ca72e94e964b3f82c52622f4b4d415ea4f380fccf58fad3db5bbded724dae8052103b633a2920526295afc18289106fbcf57b4ba08c0ab19051d888bc4c52969a72954795287637b757b757b7500547a547a527152ae67547a6375777b7cadb2755167777b757b7cadb27551686800000000",
  "blockhash": "2fa45109007d84249d13cc6461f8a708379f03affd774c327c6940f26e46aea3",
  "confirmations": 1,
  "time": 1775562114,
  "blocktime": 1775562114
}
-------------
***Recovery Complete!***
-------------
Balance in Recovery Addresss (bcrt1qys39x9aekgprus94t46v88vmglm2t0m5auaxs4): 49.99700000 BTC
-------------
Stopping Bitcoind
-------------
Bitcoin Core stopping
