-------------
Stopping Bitcoind if it is already running
-------------
Done
-------------
Updating Bitcoind configuration
-------------
Done
-------------
Refreshing & Restarting Bitcoind
-------------
Bitcoin Core starting
Waiting for 5 secs for Bitcoin Demon to Initialize...
[H[2J[3J
-------------
Bootstrapping Sentinels (co-signers)
-------------
-------------
Generating Sentinel 1: TrustMax's Credentials
-------------
TrustMax's Public Key: 03a76da8dd8c8b118b4e377349eea6858dc0fcd40a1582e78c33e2e79bbc816d45
TrustMax's Address: bcrt1qt8wxcz6y5kzc0jgys0v4vztt8gha2jlzsfp3qr
-------------
Generating Sentinel 2: BlueOrion's Credentials
-------------
BlueOrion's Public Key: 037154b906045c2f8b178ce63dd4364de1817963038279ae19229ed3beaabd80e0
BlueOrion's Address: bcrt1qrs29vja79ytmwr9rd4eumthrpept53vsmkxgmc
-------------
Generating Sentinel 3: EuroCrypt's Credentials
-------------
EuroCrypt's Public Key: 0343eda3fc26c0fc6538ebb392ed9f4f40b3e6457ca9ef89ef0a303ea7ec869737
EuroCrypt's Address: bcrt1quw8n6ucmjd7td8a5n5nmveypp5w4wajcnj7pzd
-------------
Sentinels are ready!
Lets initialize your credentials...
-------------
Press any key to generate a key pair for you...
[H[2J[3J
-------------
Generating User's Priv-Pub-Addr
-------------
Private Key: cN2NMM1gJ7hfHW4CnxN4gf8epAYPJjZviuKRHdb7XHj1kmMtBJRT
Public Key: 027a33f1ae48501395e69c81f2126e70a9edb416c72383fb3cd6d2f7142154ed4f
Address: bcrt1qq4h6wetc9lk2npsuc8sh58skpaf8q7muhkcncr
-------------
Press any key to continue...
-------------
Generating blocks to bootstrap Bitcoin RegTest Blockchain
-------------
Done
[H[2J[3J
Balance: 50.00000000 BTC
Press any key to start Hybrid Custody Vault setup...
-------------
Choose your Sentinel:
-------------
1) TrustMax • Rating: 4.0 ★ • Avg. Response Time: 42 mins
2) BlueOrion • Rating: 5.0 ★ • Avg. Response Time: 23 mins
3) EuroCrypt • Rating: 4.5 ★ • Avg. Response Time: 34 mins
-------------
Select [1-3] (Default: 1): [H[2J[3J
-------------
Selected Sentinel: TrustMax • Rating: 4.0 ★ • Avg. Response Time: 42 mins
-------------
Press any key to continue...
-------------
Deposit Tx Redeem Script
-------------
2103a76da8dd8c8b118b4e377349eea6858dc0fcd40a1582e78c33e2e79bbc816d4521027a33f1ae48501395e69c81f2126e70a9edb416c72383fb3cd6d2f7142154ed4f00547a547a527152ae
-------------
Checking Deposit Tx Redeem Script
-------------
{
  "asm": "03a76da8dd8c8b118b4e377349eea6858dc0fcd40a1582e78c33e2e79bbc816d45 027a33f1ae48501395e69c81f2126e70a9edb416c72383fb3cd6d2f7142154ed4f 0 4 OP_ROLL 4 OP_ROLL 2 OP_2ROT 2 OP_CHECKMULTISIG",
  "desc": "raw(2103a76da8dd8c8b118b4e377349eea6858dc0fcd40a1582e78c33e2e79bbc816d4521027a33f1ae48501395e69c81f2126e70a9edb416c72383fb3cd6d2f7142154ed4f00547a547a527152ae)#5zq6hh43",
  "type": "nonstandard",
  "p2sh": "2MzfGNvKjncuf5GPGTKtXbxGc9vmdMcAwKd",
  "segwit": {
    "asm": "0 f8a25d9368409286032b40073f78570acafc5fd8c1640b85e23eff1570bef69b",
    "desc": "wsh(raw(2103a76da8dd8c8b118b4e377349eea6858dc0fcd40a1582e78c33e2e79bbc816d4521027a33f1ae48501395e69c81f2126e70a9edb416c72383fb3cd6d2f7142154ed4f00547a547a527152ae))#pr2ne5q6",
    "hex": "0020f8a25d9368409286032b40073f78570acafc5fd8c1640b85e23eff1570bef69b",
    "address": "bcrt1qlz39mymggzfgvqetgqrn77zhpt90ch7cc9jqhp0z8ml32u9776ds9mv2d6",
    "type": "witness_v0_scripthash",
    "p2sh-segwit": "2Mu9A8HmLZv8HUGEEtbjQ9gATNpvtTxxChm"
  }
}
-------------
Deposit Tx - Script to Address
-------------
bcrt1qlz39mymggzfgvqetgqrn77zhpt90ch7cc9jqhp0z8ml32u9776ds9mv2d6
-------------
Creating Unsigned Deposit Tx
-------------
Done
-------------
Unsigned Deposit Tx
-------------
0200000001f16f60324c6a895353578319266cf5ef234bdc3d41465ef7b98d0f17b743de810000000000fdffffff01606b042a01000000220020f8a25d9368409286032b40073f78570acafc5fd8c1640b85e23eff1570bef69b00000000
-------------
Checking Unsigned Deposit Tx
-------------
{
  "txid": "e9bba1b87006907874ea823d86198c0c57d7904cb764706143235baa6fbaf9a7",
  "hash": "e9bba1b87006907874ea823d86198c0c57d7904cb764706143235baa6fbaf9a7",
  "version": 2,
  "size": 94,
  "vsize": 94,
  "weight": 376,
  "locktime": 0,
  "vin": [
    {
      "txid": "81de43b7170f8db9f75e46413ddc4b23eff56c261983575353896a4c32606ff1",
      "vout": 0,
      "scriptSig": {
        "asm": "",
        "hex": ""
      },
      "sequence": 4294967293
    }
  ],
  "vout": [
    {
      "value": 49.99900000,
      "n": 0,
      "scriptPubKey": {
        "asm": "0 f8a25d9368409286032b40073f78570acafc5fd8c1640b85e23eff1570bef69b",
        "desc": "addr(bcrt1qlz39mymggzfgvqetgqrn77zhpt90ch7cc9jqhp0z8ml32u9776ds9mv2d6)#z7sf33xj",
        "hex": "0020f8a25d9368409286032b40073f78570acafc5fd8c1640b85e23eff1570bef69b",
        "address": "bcrt1qlz39mymggzfgvqetgqrn77zhpt90ch7cc9jqhp0z8ml32u9776ds9mv2d6",
        "type": "witness_v0_scripthash"
      }
    }
  ]
}
-------------
Signing the Deposit Tx
-------------
Done
-------------
Signed Deposit Tx
-------------
02000000000101f16f60324c6a895353578319266cf5ef234bdc3d41465ef7b98d0f17b743de810000000000fdffffff01606b042a01000000220020f8a25d9368409286032b40073f78570acafc5fd8c1640b85e23eff1570bef69b02473044022003647b8102d71f6a31270e4222095c630dfe94446fba991b83be3699213d430502204f2a177e289cb4564d9132c2a7e0083ac7f853b3ca720aeb0d1c867dd5508e860121027a33f1ae48501395e69c81f2126e70a9edb416c72383fb3cd6d2f7142154ed4f00000000
-------------
Checking Signed Deposit Tx
-------------
{
  "txid": "e9bba1b87006907874ea823d86198c0c57d7904cb764706143235baa6fbaf9a7",
  "hash": "2fb2cf61f27744130747322074f0e3a585452fba78c96deea41a534fec3d29ca",
  "version": 2,
  "size": 203,
  "vsize": 122,
  "weight": 485,
  "locktime": 0,
  "vin": [
    {
      "txid": "81de43b7170f8db9f75e46413ddc4b23eff56c261983575353896a4c32606ff1",
      "vout": 0,
      "scriptSig": {
        "asm": "",
        "hex": ""
      },
      "txinwitness": [
        "3044022003647b8102d71f6a31270e4222095c630dfe94446fba991b83be3699213d430502204f2a177e289cb4564d9132c2a7e0083ac7f853b3ca720aeb0d1c867dd5508e8601",
        "027a33f1ae48501395e69c81f2126e70a9edb416c72383fb3cd6d2f7142154ed4f"
      ],
      "sequence": 4294967293
    }
  ],
  "vout": [
    {
      "value": 49.99900000,
      "n": 0,
      "scriptPubKey": {
        "asm": "0 f8a25d9368409286032b40073f78570acafc5fd8c1640b85e23eff1570bef69b",
        "desc": "addr(bcrt1qlz39mymggzfgvqetgqrn77zhpt90ch7cc9jqhp0z8ml32u9776ds9mv2d6)#z7sf33xj",
        "hex": "0020f8a25d9368409286032b40073f78570acafc5fd8c1640b85e23eff1570bef69b",
        "address": "bcrt1qlz39mymggzfgvqetgqrn77zhpt90ch7cc9jqhp0z8ml32u9776ds9mv2d6",
        "type": "witness_v0_scripthash"
      }
    }
  ]
}
[H[2J[3J
-------------
Your Vault has a 2-step Unlock and Spend process to transfer from it
and there is a mandatory yet configureable delay enforced between these
Unlock and Spend Transactions for every private-key/combination allowed
to spend from this Vault.
-------------
Press any key to configure these delays and continue...
[H[2J[3J
-------------
Lets configure the on-chain delay / cooling period
for spending with your private-key from your Vault!

This will give you time to react and initiate recovery
when your private-key or wallet backup (seed phrase) is stolen
and is used to unlock and potentially spend from your Vault.
-------------
Enter delay in blocks or press [Return] to use default [1000]: Setting Option 1 (User Private-Key Only) Delay to 1000
Encoded bytes (hex): e803
[H[2J[3J
-------------
Now, lets configure the on-chain delay / cooling period
for spending with the Sentinel private-key from your Vault!

This is the delay your Sentinel has to wait before he can
transfer/recover from your Vault in case your private-key
is lost or for managing your inheritance.

PS: This is typically much longer than the previously set delay
and will give you time to react and override any spend attempt
by compromised/rogue Sentinels with just your private-key
eliminating counter-party risk in the Hybrid Custody Ecosystem.
-------------
Enter delay in blocks or press [Return] to use default [5000]: Setting Option 2 (Sentinel Private-Key Only) Delay to 5000
Encoded bytes (hex): 8813
[H[2J[3J
-------------
Now, lets configure the Recovery Address for your Vault!

Once your private-keys are lost or stolen, it is not
safe to recover your Vault to an address controlled by you
as we never know how deep the compromise is.

The best approach would be to temporarily transfer the coins in your
Vault to a custodial wallet address (Coinbase, Binance, etc.) and disable
withdrawls from it until you can create a new secure cold-storage wallet and Vault.

Alternatively, you can setup a new unused Hardware Wallet
with a new seed-phrase and store both the hardware wallet and
seed-phrase backup in a bank locker and use this wallet's address as Recovery Address!

PS: Sentinels are bound by on-chain Staking/Slashing mechanics
to only sign Recovery transactions to this Preconfigured Recovery Address
as no user provided input can be trusted post compromise/setup!
-------------
Enter Recovery Address or press [Return] to use default [bcrt1qdpzc9gasw8k2krsyu52ndxm7cy62ajr9q8u2sp]: Proceeding with Recovery Address: bcrt1qdpzc9gasw8k2krsyu52ndxm7cy62ajr9q8u2sp
-------------
Unlock Tx (Provisional Tx) Redeem Script
-------------
Hex: 02881302e8032103a76da8dd8c8b118b4e377349eea6858dc0fcd40a1582e78c33e2e79bbc816d4521027a33f1ae48501395e69c81f2126e70a9edb416c72383fb3cd6d2f7142154ed4f54795287637b757b757b7500547a547a527152ae67547a6375777b7cadb2755167777b757b7cadb275516868
-------------
Checking Unlock Tx (Provisional Tx) Redeem Script
-------------
{
  "asm": "5000 1000 03a76da8dd8c8b118b4e377349eea6858dc0fcd40a1582e78c33e2e79bbc816d45 027a33f1ae48501395e69c81f2126e70a9edb416c72383fb3cd6d2f7142154ed4f 4 OP_PICK 2 OP_EQUAL OP_IF OP_ROT OP_DROP OP_ROT OP_DROP OP_ROT OP_DROP 0 4 OP_ROLL 4 OP_ROLL 2 OP_2ROT 2 OP_CHECKMULTISIG OP_ELSE 4 OP_ROLL OP_IF OP_DROP OP_NIP OP_ROT OP_SWAP OP_CHECKSIGVERIFY OP_CHECKSEQUENCEVERIFY OP_DROP 1 OP_ELSE OP_NIP OP_ROT OP_DROP OP_ROT OP_SWAP OP_CHECKSIGVERIFY OP_CHECKSEQUENCEVERIFY OP_DROP 1 OP_ENDIF OP_ENDIF",
  "desc": "raw(02881302e8032103a76da8dd8c8b118b4e377349eea6858dc0fcd40a1582e78c33e2e79bbc816d4521027a33f1ae48501395e69c81f2126e70a9edb416c72383fb3cd6d2f7142154ed4f54795287637b757b757b7500547a547a527152ae67547a6375777b7cadb2755167777b757b7cadb275516868)#c7l8zfmg",
  "type": "nonstandard",
  "p2sh": "2N6YEXSkvWrgvT7thitte4VchN9uMhdiqLf",
  "segwit": {
    "asm": "0 80fa7dab41a505e0ee96f6f158cfb396ab3fb75034da843982a52d8f9e8093da",
    "desc": "wsh(raw(02881302e8032103a76da8dd8c8b118b4e377349eea6858dc0fcd40a1582e78c33e2e79bbc816d4521027a33f1ae48501395e69c81f2126e70a9edb416c72383fb3cd6d2f7142154ed4f54795287637b757b757b7500547a547a527152ae67547a6375777b7cadb2755167777b757b7cadb275516868))#256d8sn0",
    "hex": "002080fa7dab41a505e0ee96f6f158cfb396ab3fb75034da843982a52d8f9e8093da",
    "address": "bcrt1qsra8m26p55z7pm5k7mc43nanj64nld6sxndggwvz55kcl85qj0dq3qukqg",
    "type": "witness_v0_scripthash",
    "p2sh-segwit": "2NA95qwD3JELSENBQi6ThMrpnm28d6N2FC8"
  }
}
-------------
Unlock Tx (Provisional Tx) - Script to Address
-------------
bcrt1qsra8m26p55z7pm5k7mc43nanj64nld6sxndggwvz55kcl85qj0dq3qukqg
-------------
Creating Unsigned Unlock Tx (Provisional Tx)
-------------
0200000001a7f9ba6faa5b2343617064b74c90d7570c8c19863d82ea7478900670b8a1bbe90000000000fdffffff01c0e4022a0100000022002080fa7dab41a505e0ee96f6f158cfb396ab3fb75034da843982a52d8f9e8093da00000000
-------------
Checking Unsigned Unlock Tx Created by User
-------------
{
  "txid": "b86b4eec80060d7b477a506cc7b6276961c393073cf29009d421c0c00e853caf",
  "hash": "b86b4eec80060d7b477a506cc7b6276961c393073cf29009d421c0c00e853caf",
  "version": 2,
  "size": 94,
  "vsize": 94,
  "weight": 376,
  "locktime": 0,
  "vin": [
    {
      "txid": "e9bba1b87006907874ea823d86198c0c57d7904cb764706143235baa6fbaf9a7",
      "vout": 0,
      "scriptSig": {
        "asm": "",
        "hex": ""
      },
      "sequence": 4294967293
    }
  ],
  "vout": [
    {
      "value": 49.99800000,
      "n": 0,
      "scriptPubKey": {
        "asm": "0 80fa7dab41a505e0ee96f6f158cfb396ab3fb75034da843982a52d8f9e8093da",
        "desc": "addr(bcrt1qsra8m26p55z7pm5k7mc43nanj64nld6sxndggwvz55kcl85qj0dq3qukqg)#ruywnhy8",
        "hex": "002080fa7dab41a505e0ee96f6f158cfb396ab3fb75034da843982a52d8f9e8093da",
        "address": "bcrt1qsra8m26p55z7pm5k7mc43nanj64nld6sxndggwvz55kcl85qj0dq3qukqg",
        "type": "witness_v0_scripthash"
      }
    }
  ]
}
-------------
Simulating the transfer of Unsigned Unlock Tx (Provisional Tx) copy
to Sentinel!
-------------
[U] --> Unsigned Unlock Tx (Provisional Tx) --> [S]
-------------
Sentinel signs the Unsigned Unlock Tx (Provisional Tx)
with his Private Key
-------------
Original Tx:
{
    "ins": [
        {
            "tx_hash": "e9bba1b87006907874ea823d86198c0c57d7904cb764706143235baa6fbaf9a7",
            "tx_pos": 0,
            "script": "",
            "sequence": 4294967293,
            "value": 4999900000
        }
    ],
    "outs": [
        {
            "value": 4999800000,
            "script": "002080fa7dab41a505e0ee96f6f158cfb396ab3fb75034da843982a52d8f9e8093da"
        }
    ],
    "version": 2,
    "locktime": 0
}
Signature:
3045022100ed09cc24cb92960fa17b02ec7e383dbcfabe8c7df3e98784d8bca448e63b6cbe02206ef008c6fdf2665522355069e2505388283c569175da19cd4c8f00ed962a43f601
-------------
Unlock Tx (Provisional Tx) - Sentinel's Signature
-------------
3045022100ed09cc24cb92960fa17b02ec7e383dbcfabe8c7df3e98784d8bca448e63b6cbe02206ef008c6fdf2665522355069e2505388283c569175da19cd4c8f00ed962a43f601
-------------
Simulating the transfer of Partially Signed Unlock Tx (Provisional Tx)
to User!
-------------
[S] --> Partially Signed Unlock Tx (Provisional Tx) --> [U]
-------------
User signs the Unsigned Unlock Tx (Provisional Tx)
with his Private Key
-------------
Original Tx:
{
    "ins": [
        {
            "tx_hash": "e9bba1b87006907874ea823d86198c0c57d7904cb764706143235baa6fbaf9a7",
            "tx_pos": 0,
            "script": "",
            "sequence": 4294967293,
            "value": 4999900000
        }
    ],
    "outs": [
        {
            "value": 4999800000,
            "script": "002080fa7dab41a505e0ee96f6f158cfb396ab3fb75034da843982a52d8f9e8093da"
        }
    ],
    "version": 2,
    "locktime": 0
}
Signature:
304402204260defc9dda4f600f34912fda15298312d43b170693f9ff1993576d49fe2604022018a8ca1c0ff55bb3a98a8ca870f9f1ef02dae04e913cc549403223df9f156e7201
-------------
Unlock Tx (Provisional Tx) - User Signature
-------------
304402204260defc9dda4f600f34912fda15298312d43b170693f9ff1993576d49fe2604022018a8ca1c0ff55bb3a98a8ca870f9f1ef02dae04e913cc549403223df9f156e7201
-------------
Simulating the transfer of Partially Signed Unlock Tx (Provisional Tx) copy
to Sentinel!
-------------
[U] --> Partially Signed Provisional Tx --> [S]
-------------
User signs & broadcasts the Deposit Tx
after receiving the Partially signed Unlock Tx (Provisional Tx)
-------------
e9bba1b87006907874ea823d86198c0c57d7904cb764706143235baa6fbaf9a7
Done
-------------
Generating Block to confirm the Deposit Tx
-------------
Deposit Tx Block: 4e8e24f4f900bc1cead6ff9e852db8f2701c1c30e73686de8a677f52c1ccf0cb
-------------
Confirmed Deposit Tx
-------------
{
  "in_active_chain": true,
  "txid": "e9bba1b87006907874ea823d86198c0c57d7904cb764706143235baa6fbaf9a7",
  "hash": "2fb2cf61f27744130747322074f0e3a585452fba78c96deea41a534fec3d29ca",
  "version": 2,
  "size": 203,
  "vsize": 122,
  "weight": 485,
  "locktime": 0,
  "vin": [
    {
      "txid": "81de43b7170f8db9f75e46413ddc4b23eff56c261983575353896a4c32606ff1",
      "vout": 0,
      "scriptSig": {
        "asm": "",
        "hex": ""
      },
      "txinwitness": [
        "3044022003647b8102d71f6a31270e4222095c630dfe94446fba991b83be3699213d430502204f2a177e289cb4564d9132c2a7e0083ac7f853b3ca720aeb0d1c867dd5508e8601",
        "027a33f1ae48501395e69c81f2126e70a9edb416c72383fb3cd6d2f7142154ed4f"
      ],
      "sequence": 4294967293
    }
  ],
  "vout": [
    {
      "value": 49.99900000,
      "n": 0,
      "scriptPubKey": {
        "asm": "0 f8a25d9368409286032b40073f78570acafc5fd8c1640b85e23eff1570bef69b",
        "desc": "addr(bcrt1qlz39mymggzfgvqetgqrn77zhpt90ch7cc9jqhp0z8ml32u9776ds9mv2d6)#z7sf33xj",
        "hex": "0020f8a25d9368409286032b40073f78570acafc5fd8c1640b85e23eff1570bef69b",
        "address": "bcrt1qlz39mymggzfgvqetgqrn77zhpt90ch7cc9jqhp0z8ml32u9776ds9mv2d6",
        "type": "witness_v0_scripthash"
      }
    }
  ],
  "hex": "02000000000101f16f60324c6a895353578319266cf5ef234bdc3d41465ef7b98d0f17b743de810000000000fdffffff01606b042a01000000220020f8a25d9368409286032b40073f78570acafc5fd8c1640b85e23eff1570bef69b02473044022003647b8102d71f6a31270e4222095c630dfe94446fba991b83be3699213d430502204f2a177e289cb4564d9132c2a7e0083ac7f853b3ca720aeb0d1c867dd5508e860121027a33f1ae48501395e69c81f2126e70a9edb416c72383fb3cd6d2f7142154ed4f00000000",
  "blockhash": "4e8e24f4f900bc1cead6ff9e852db8f2701c1c30e73686de8a677f52c1ccf0cb",
  "confirmations": 1,
  "time": 1775639330,
  "blocktime": 1775639330
}
[H[2J[3J
-------------
*** Smart Vault Setup Complete! ***
-------------
You are now assured of your
Bitcoin's safety and security
as your Bitcoin is now in Joint Custody and
rest everything is managed using the
Partially Signed Unlock Txs (Provisional Txs) with you
and your Sentinel after the Smart Vault setup is complete!
-------------
Press any key to continue...
-------------
Simulating the recovery process by Sentinel
as your private-key is lost!
(Requires only Sentinel's private-key)
-------------
Balance in Recovery Addresss (bcrt1qdpzc9gasw8k2krsyu52ndxm7cy62ajr9q8u2sp): 0 BTC
Press any key to start recovery...
-------------
Sentinel signs the Partially Signed
Unlock Tx (Provisional Tx) received from User
with its Private Key
-------------
Done
-------------
Sentinel's Private Key Generated Signature for Unlock Tx (Provisional Tx):
-------------
3045022100ed09cc24cb92960fa17b02ec7e383dbcfabe8c7df3e98784d8bca448e63b6cbe02206ef008c6fdf2665522355069e2505388283c569175da19cd4c8f00ed962a43f601
-------------
Fully Signed Unlock Tx (Provisional Tx):
-------------
Unsigned Tx
{
    "ins": [
        {
            "tx_hash": "e9bba1b87006907874ea823d86198c0c57d7904cb764706143235baa6fbaf9a7",
            "tx_pos": 0,
            "script": "",
            "sequence": 4294967293
        }
    ],
    "outs": [
        {
            "value": 4999800000,
            "script": "002080fa7dab41a505e0ee96f6f158cfb396ab3fb75034da843982a52d8f9e8093da"
        }
    ],
    "version": 2,
    "locktime": 0
}
Signed Tx
{
    "ins": [
        {
            "tx_hash": "e9bba1b87006907874ea823d86198c0c57d7904cb764706143235baa6fbaf9a7",
            "tx_pos": 0,
            "script": "",
            "sequence": 4294967293
        }
    ],
    "outs": [
        {
            "value": 4999800000,
            "script": "002080fa7dab41a505e0ee96f6f158cfb396ab3fb75034da843982a52d8f9e8093da"
        }
    ],
    "version": 2,
    "locktime": 0,
    "witness": [
        {
            "number": 3,
            "scriptCode": "483045022100ed09cc24cb92960fa17b02ec7e383dbcfabe8c7df3e98784d8bca448e63b6cbe02206ef008c6fdf2665522355069e2505388283c569175da19cd4c8f00ed962a43f60147304402204260defc9dda4f600f34912fda15298312d43b170693f9ff1993576d49fe2604022018a8ca1c0ff55bb3a98a8ca870f9f1ef02dae04e913cc549403223df9f156e72014d2103a76da8dd8c8b118b4e377349eea6858dc0fcd40a1582e78c33e2e79bbc816d4521027a33f1ae48501395e69c81f2126e70a9edb416c72383fb3cd6d2f7142154ed4f00547a547a527152ae"
        }
    ],
    "marker": 0,
    "flag": 1
}
02000000000101a7f9ba6faa5b2343617064b74c90d7570c8c19863d82ea7478900670b8a1bbe90000000000fdffffff01c0e4022a0100000022002080fa7dab41a505e0ee96f6f158cfb396ab3fb75034da843982a52d8f9e8093da03483045022100ed09cc24cb92960fa17b02ec7e383dbcfabe8c7df3e98784d8bca448e63b6cbe02206ef008c6fdf2665522355069e2505388283c569175da19cd4c8f00ed962a43f60147304402204260defc9dda4f600f34912fda15298312d43b170693f9ff1993576d49fe2604022018a8ca1c0ff55bb3a98a8ca870f9f1ef02dae04e913cc549403223df9f156e72014d2103a76da8dd8c8b118b4e377349eea6858dc0fcd40a1582e78c33e2e79bbc816d4521027a33f1ae48501395e69c81f2126e70a9edb416c72383fb3cd6d2f7142154ed4f00547a547a527152ae00000000
-------------
Checking Fully Signed Unlock Tx (Provisional Tx) :
-------------
{
  "txid": "b86b4eec80060d7b477a506cc7b6276961c393073cf29009d421c0c00e853caf",
  "hash": "2c68fe0d77ed85b9e5a1bb94c7c7f7aa6f0439947016714ccc75d0e04ad3ef00",
  "version": 2,
  "size": 320,
  "vsize": 151,
  "weight": 602,
  "locktime": 0,
  "vin": [
    {
      "txid": "e9bba1b87006907874ea823d86198c0c57d7904cb764706143235baa6fbaf9a7",
      "vout": 0,
      "scriptSig": {
        "asm": "",
        "hex": ""
      },
      "txinwitness": [
        "3045022100ed09cc24cb92960fa17b02ec7e383dbcfabe8c7df3e98784d8bca448e63b6cbe02206ef008c6fdf2665522355069e2505388283c569175da19cd4c8f00ed962a43f601",
        "304402204260defc9dda4f600f34912fda15298312d43b170693f9ff1993576d49fe2604022018a8ca1c0ff55bb3a98a8ca870f9f1ef02dae04e913cc549403223df9f156e7201",
        "2103a76da8dd8c8b118b4e377349eea6858dc0fcd40a1582e78c33e2e79bbc816d4521027a33f1ae48501395e69c81f2126e70a9edb416c72383fb3cd6d2f7142154ed4f00547a547a527152ae"
      ],
      "sequence": 4294967293
    }
  ],
  "vout": [
    {
      "value": 49.99800000,
      "n": 0,
      "scriptPubKey": {
        "asm": "0 80fa7dab41a505e0ee96f6f158cfb396ab3fb75034da843982a52d8f9e8093da",
        "desc": "addr(bcrt1qsra8m26p55z7pm5k7mc43nanj64nld6sxndggwvz55kcl85qj0dq3qukqg)#ruywnhy8",
        "hex": "002080fa7dab41a505e0ee96f6f158cfb396ab3fb75034da843982a52d8f9e8093da",
        "address": "bcrt1qsra8m26p55z7pm5k7mc43nanj64nld6sxndggwvz55kcl85qj0dq3qukqg",
        "type": "witness_v0_scripthash"
      }
    }
  ]
}
-------------
Vaildate Fully Signed Unlock Tx (Provisional Tx)
-------------
[
  {
    "txid": "b86b4eec80060d7b477a506cc7b6276961c393073cf29009d421c0c00e853caf",
    "wtxid": "2c68fe0d77ed85b9e5a1bb94c7c7f7aa6f0439947016714ccc75d0e04ad3ef00",
    "allowed": true,
    "vsize": 151,
    "fees": {
      "base": 0.00100000,
      "effective-feerate": 0.00662251,
      "effective-includes": [
        "2c68fe0d77ed85b9e5a1bb94c7c7f7aa6f0439947016714ccc75d0e04ad3ef00"
      ]
    }
  }
]
-------------
Broadcast Fully Signed Unlock Tx (Provisional Tx)
-------------
Done
-------------
Generating Block to confirm Unlock Tx (Provisional Tx)
-------------
Done
-------------
Unlock Tx (Provisional Tx) Block:
-------------
7922d15dac353569c16cf0156ba3b96a4913db3ef4a9232c0262f589a2d578cb
-------------
Confirmed Unlock Tx (Provisional Tx)
-------------
{
  "in_active_chain": true,
  "txid": "b86b4eec80060d7b477a506cc7b6276961c393073cf29009d421c0c00e853caf",
  "hash": "2c68fe0d77ed85b9e5a1bb94c7c7f7aa6f0439947016714ccc75d0e04ad3ef00",
  "version": 2,
  "size": 320,
  "vsize": 151,
  "weight": 602,
  "locktime": 0,
  "vin": [
    {
      "txid": "e9bba1b87006907874ea823d86198c0c57d7904cb764706143235baa6fbaf9a7",
      "vout": 0,
      "scriptSig": {
        "asm": "",
        "hex": ""
      },
      "txinwitness": [
        "3045022100ed09cc24cb92960fa17b02ec7e383dbcfabe8c7df3e98784d8bca448e63b6cbe02206ef008c6fdf2665522355069e2505388283c569175da19cd4c8f00ed962a43f601",
        "304402204260defc9dda4f600f34912fda15298312d43b170693f9ff1993576d49fe2604022018a8ca1c0ff55bb3a98a8ca870f9f1ef02dae04e913cc549403223df9f156e7201",
        "2103a76da8dd8c8b118b4e377349eea6858dc0fcd40a1582e78c33e2e79bbc816d4521027a33f1ae48501395e69c81f2126e70a9edb416c72383fb3cd6d2f7142154ed4f00547a547a527152ae"
      ],
      "sequence": 4294967293
    }
  ],
  "vout": [
    {
      "value": 49.99800000,
      "n": 0,
      "scriptPubKey": {
        "asm": "0 80fa7dab41a505e0ee96f6f158cfb396ab3fb75034da843982a52d8f9e8093da",
        "desc": "addr(bcrt1qsra8m26p55z7pm5k7mc43nanj64nld6sxndggwvz55kcl85qj0dq3qukqg)#ruywnhy8",
        "hex": "002080fa7dab41a505e0ee96f6f158cfb396ab3fb75034da843982a52d8f9e8093da",
        "address": "bcrt1qsra8m26p55z7pm5k7mc43nanj64nld6sxndggwvz55kcl85qj0dq3qukqg",
        "type": "witness_v0_scripthash"
      }
    }
  ],
  "hex": "02000000000101a7f9ba6faa5b2343617064b74c90d7570c8c19863d82ea7478900670b8a1bbe90000000000fdffffff01c0e4022a0100000022002080fa7dab41a505e0ee96f6f158cfb396ab3fb75034da843982a52d8f9e8093da03483045022100ed09cc24cb92960fa17b02ec7e383dbcfabe8c7df3e98784d8bca448e63b6cbe02206ef008c6fdf2665522355069e2505388283c569175da19cd4c8f00ed962a43f60147304402204260defc9dda4f600f34912fda15298312d43b170693f9ff1993576d49fe2604022018a8ca1c0ff55bb3a98a8ca870f9f1ef02dae04e913cc549403223df9f156e72014d2103a76da8dd8c8b118b4e377349eea6858dc0fcd40a1582e78c33e2e79bbc816d4521027a33f1ae48501395e69c81f2126e70a9edb416c72383fb3cd6d2f7142154ed4f00547a547a527152ae00000000",
  "blockhash": "7922d15dac353569c16cf0156ba3b96a4913db3ef4a9232c0262f589a2d578cb",
  "confirmations": 1,
  "time": 1775639330,
  "blocktime": 1775639330
}
-------------
Everyone including you can monitor the Vault and see the Unlock Tx on-chain
and you can initiate recovery using Option 1 (spend with your private-key)
if this Recovery was not requested by you and you suspect foul pay.
-------------
Press any key to continue with recovery...
-------------
Simulating Recovery by Sentinel using
*** Option 2 *** of Unlock Tx (Provisional Tx)
(Using just Sentinel's Private Key)
-------------
Recovery Process - Start
-------------
Sentinel creates the Recovery Tx
-------------
Done
-------------
Unsigned Recovery Tx
-------------
0200000001af3c850ec0c021d40990f23c0793c3616927b6c76c507a477b0d0680ec4e6bb800000000008813000001205e012a01000000160014684582a3b071ecab0e04e515369b7ec134aec86500000000
-------------
Checking Unsigned Recovery Tx
-------------
{
  "txid": "8f1386d26485d18cbb2e0724b5921291388310063ae25cc51927c2b456a29edf",
  "hash": "8f1386d26485d18cbb2e0724b5921291388310063ae25cc51927c2b456a29edf",
  "version": 2,
  "size": 82,
  "vsize": 82,
  "weight": 328,
  "locktime": 0,
  "vin": [
    {
      "txid": "b86b4eec80060d7b477a506cc7b6276961c393073cf29009d421c0c00e853caf",
      "vout": 0,
      "scriptSig": {
        "asm": "",
        "hex": ""
      },
      "sequence": 5000
    }
  ],
  "vout": [
    {
      "value": 49.99700000,
      "n": 0,
      "scriptPubKey": {
        "asm": "0 684582a3b071ecab0e04e515369b7ec134aec865",
        "desc": "addr(bcrt1qdpzc9gasw8k2krsyu52ndxm7cy62ajr9q8u2sp)#6vft3zut",
        "hex": "0014684582a3b071ecab0e04e515369b7ec134aec865",
        "address": "bcrt1qdpzc9gasw8k2krsyu52ndxm7cy62ajr9q8u2sp",
        "type": "witness_v0_keyhash"
      }
    }
  ]
}
-------------
Sentinel Signs the Recovery Tx
-------------
Original Tx:
{
    "ins": [
        {
            "tx_hash": "b86b4eec80060d7b477a506cc7b6276961c393073cf29009d421c0c00e853caf",
            "tx_pos": 0,
            "script": "",
            "sequence": 5000,
            "value": 4999800000
        }
    ],
    "outs": [
        {
            "value": 4999700000,
            "script": "0014684582a3b071ecab0e04e515369b7ec134aec865"
        }
    ],
    "version": 2,
    "locktime": 0
}
Signature:
3044022002b4b30518ba6af540060c53457ea1c312e1ff2d541934334c01d47101b7cf43022026b544b210f3fa3e4495d34e4d79297911ce4a6e0d15072c8e8116724a5a62fe01
-------------
Recovery Tx - Sentinel's Signature
-------------
3044022002b4b30518ba6af540060c53457ea1c312e1ff2d541934334c01d47101b7cf43022026b544b210f3fa3e4495d34e4d79297911ce4a6e0d15072c8e8116724a5a62fe01
-------------
Fully Signed Recovery Tx:
-------------
Unsigned Tx
{
    "ins": [
        {
            "tx_hash": "b86b4eec80060d7b477a506cc7b6276961c393073cf29009d421c0c00e853caf",
            "tx_pos": 0,
            "script": "",
            "sequence": 5000
        }
    ],
    "outs": [
        {
            "value": 4999700000,
            "script": "0014684582a3b071ecab0e04e515369b7ec134aec865"
        }
    ],
    "version": 2,
    "locktime": 0
}
Signed Tx
{
    "ins": [
        {
            "tx_hash": "b86b4eec80060d7b477a506cc7b6276961c393073cf29009d421c0c00e853caf",
            "tx_pos": 0,
            "script": "",
            "sequence": 5000
        }
    ],
    "outs": [
        {
            "value": 4999700000,
            "script": "0014684582a3b071ecab0e04e515369b7ec134aec865"
        }
    ],
    "version": 2,
    "locktime": 0,
    "witness": [
        {
            "number": 3,
            "scriptCode": "473044022002b4b30518ba6af540060c53457ea1c312e1ff2d541934334c01d47101b7cf43022026b544b210f3fa3e4495d34e4d79297911ce4a6e0d15072c8e8116724a5a62fe0101017602881302e8032103a76da8dd8c8b118b4e377349eea6858dc0fcd40a1582e78c33e2e79bbc816d4521027a33f1ae48501395e69c81f2126e70a9edb416c72383fb3cd6d2f7142154ed4f54795287637b757b757b7500547a547a527152ae67547a6375777b7cadb2755167777b757b7cadb275516868"
        }
    ],
    "marker": 0,
    "flag": 1
}
02000000000101af3c850ec0c021d40990f23c0793c3616927b6c76c507a477b0d0680ec4e6bb800000000008813000001205e012a01000000160014684582a3b071ecab0e04e515369b7ec134aec86503473044022002b4b30518ba6af540060c53457ea1c312e1ff2d541934334c01d47101b7cf43022026b544b210f3fa3e4495d34e4d79297911ce4a6e0d15072c8e8116724a5a62fe0101017602881302e8032103a76da8dd8c8b118b4e377349eea6858dc0fcd40a1582e78c33e2e79bbc816d4521027a33f1ae48501395e69c81f2126e70a9edb416c72383fb3cd6d2f7142154ed4f54795287637b757b757b7500547a547a527152ae67547a6375777b7cadb2755167777b757b7cadb27551686800000000
-------------
Checking Fully Signed Recovery Tx:
-------------
{
  "txid": "8f1386d26485d18cbb2e0724b5921291388310063ae25cc51927c2b456a29edf",
  "hash": "d4ac23bf0af3cec3c7679fa09cc621bcb7c53bc0693393ebe30822bc366c5d90",
  "version": 2,
  "size": 278,
  "vsize": 131,
  "weight": 524,
  "locktime": 0,
  "vin": [
    {
      "txid": "b86b4eec80060d7b477a506cc7b6276961c393073cf29009d421c0c00e853caf",
      "vout": 0,
      "scriptSig": {
        "asm": "",
        "hex": ""
      },
      "txinwitness": [
        "3044022002b4b30518ba6af540060c53457ea1c312e1ff2d541934334c01d47101b7cf43022026b544b210f3fa3e4495d34e4d79297911ce4a6e0d15072c8e8116724a5a62fe01",
        "01",
        "02881302e8032103a76da8dd8c8b118b4e377349eea6858dc0fcd40a1582e78c33e2e79bbc816d4521027a33f1ae48501395e69c81f2126e70a9edb416c72383fb3cd6d2f7142154ed4f54795287637b757b757b7500547a547a527152ae67547a6375777b7cadb2755167777b757b7cadb275516868"
      ],
      "sequence": 5000
    }
  ],
  "vout": [
    {
      "value": 49.99700000,
      "n": 0,
      "scriptPubKey": {
        "asm": "0 684582a3b071ecab0e04e515369b7ec134aec865",
        "desc": "addr(bcrt1qdpzc9gasw8k2krsyu52ndxm7cy62ajr9q8u2sp)#6vft3zut",
        "hex": "0014684582a3b071ecab0e04e515369b7ec134aec865",
        "address": "bcrt1qdpzc9gasw8k2krsyu52ndxm7cy62ajr9q8u2sp",
        "type": "witness_v0_keyhash"
      }
    }
  ]
}
-------------
Creating Blocks to satisfy Timelocks
-------------
5000 Blocks Created!
-------------
Vaildating Recovery Tx
-------------
[
  {
    "txid": "8f1386d26485d18cbb2e0724b5921291388310063ae25cc51927c2b456a29edf",
    "wtxid": "d4ac23bf0af3cec3c7679fa09cc621bcb7c53bc0693393ebe30822bc366c5d90",
    "allowed": true,
    "vsize": 131,
    "fees": {
      "base": 0.00100000,
      "effective-feerate": 0.00763358,
      "effective-includes": [
        "d4ac23bf0af3cec3c7679fa09cc621bcb7c53bc0693393ebe30822bc366c5d90"
      ]
    }
  }
]
-------------
Broadcasting Recovery Tx
-------------
Done
-------------
Generating Block to confirm Recovery Tx
-------------
Done
-------------
Recovery Tx Block ID:
-------------
58b9ecfbde079a2a20593dcfec30e62cab6bef091d6f3f30a843c02434373fce
-------------
Confirmed Recovery Tx
-------------
{
  "in_active_chain": true,
  "txid": "8f1386d26485d18cbb2e0724b5921291388310063ae25cc51927c2b456a29edf",
  "hash": "d4ac23bf0af3cec3c7679fa09cc621bcb7c53bc0693393ebe30822bc366c5d90",
  "version": 2,
  "size": 278,
  "vsize": 131,
  "weight": 524,
  "locktime": 0,
  "vin": [
    {
      "txid": "b86b4eec80060d7b477a506cc7b6276961c393073cf29009d421c0c00e853caf",
      "vout": 0,
      "scriptSig": {
        "asm": "",
        "hex": ""
      },
      "txinwitness": [
        "3044022002b4b30518ba6af540060c53457ea1c312e1ff2d541934334c01d47101b7cf43022026b544b210f3fa3e4495d34e4d79297911ce4a6e0d15072c8e8116724a5a62fe01",
        "01",
        "02881302e8032103a76da8dd8c8b118b4e377349eea6858dc0fcd40a1582e78c33e2e79bbc816d4521027a33f1ae48501395e69c81f2126e70a9edb416c72383fb3cd6d2f7142154ed4f54795287637b757b757b7500547a547a527152ae67547a6375777b7cadb2755167777b757b7cadb275516868"
      ],
      "sequence": 5000
    }
  ],
  "vout": [
    {
      "value": 49.99700000,
      "n": 0,
      "scriptPubKey": {
        "asm": "0 684582a3b071ecab0e04e515369b7ec134aec865",
        "desc": "addr(bcrt1qdpzc9gasw8k2krsyu52ndxm7cy62ajr9q8u2sp)#6vft3zut",
        "hex": "0014684582a3b071ecab0e04e515369b7ec134aec865",
        "address": "bcrt1qdpzc9gasw8k2krsyu52ndxm7cy62ajr9q8u2sp",
        "type": "witness_v0_keyhash"
      }
    }
  ],
  "hex": "02000000000101af3c850ec0c021d40990f23c0793c3616927b6c76c507a477b0d0680ec4e6bb800000000008813000001205e012a01000000160014684582a3b071ecab0e04e515369b7ec134aec86503473044022002b4b30518ba6af540060c53457ea1c312e1ff2d541934334c01d47101b7cf43022026b544b210f3fa3e4495d34e4d79297911ce4a6e0d15072c8e8116724a5a62fe0101017602881302e8032103a76da8dd8c8b118b4e377349eea6858dc0fcd40a1582e78c33e2e79bbc816d4521027a33f1ae48501395e69c81f2126e70a9edb416c72383fb3cd6d2f7142154ed4f54795287637b757b757b7500547a547a527152ae67547a6375777b7cadb2755167777b757b7cadb27551686800000000",
  "blockhash": "58b9ecfbde079a2a20593dcfec30e62cab6bef091d6f3f30a843c02434373fce",
  "confirmations": 1,
  "time": 1775640164,
  "blocktime": 1775640164
}
-------------
***Recovery Complete!***
-------------
Balance in Recovery Addresss (bcrt1qdpzc9gasw8k2krsyu52ndxm7cy62ajr9q8u2sp): 49.99700000 BTC
-------------
Stopping Bitcoind
-------------
Bitcoin Core stopping
