[H[2J[3J
-------------
This demo uses proprietary technologies covered
by patents (pending and granted) as detailed on this
webpage - https://www.coinvault.tech/patents/ 
and strictly for demonstration purposes only!
-------------

Press any key to continue...
-------------
Stopping Bitcoind if it is already running
-------------
Done
-------------
Updating Bitcoind configuration
-------------
Done
-------------
Refreshing & Restarting Bitcoind
-------------
Bitcoin Core starting
Waiting for 5 secs for Bitcoin Demon to Initialize...
[H[2J[3J
-------------
Bootstrapping the Sentinel (co-signer)
-------------
-------------
Generating Sentinel's Priv-Pub-Addr
-------------
Private Key: cT4hq3VCUfbrZyvE1PgeS8UDxzYVa8LwrSoCSUwzRgFewaRdZ3hZ
Public Key: 03723da9a33a00f132e61345810f466cb1d77ec3206759fccf8c889855939fe1bd
Address: bcrt1qlp5r85uulu9l38qmtyvye02lt9vff87zvdnjl8
-------------
Sentinel is ready!
Lets initialize your credentials...
-------------
Press any key to generate a key pair for you...
-------------
Generating User's Priv-Pub-Addr
-------------
Private Key: cQHjeoutW2TReKfJceKpQzpCC5ENoJgv4D8QXWyrkLVtu3sKetXm
Public Key: 027c3a7dacf7f2521e7fca940905bef6a3062c2dfa043091fa691276661a8c1e15
Address: bcrt1qhyt5ec45fe3lr8r9y3rthyzenuxzlrdyd3ssxm
-------------
Press any key to continue...
-------------
Generating blocks to bootstrap Bitcoin RegTest Blockchain
-------------
Done
[H[2J[3J
Balance: 50.00000000 BTC
Press any key to start Hybrid Custody Vault setup...
-------------
Deposit Tx Redeem Script
-------------
2103723da9a33a00f132e61345810f466cb1d77ec3206759fccf8c889855939fe1bd21027c3a7dacf7f2521e7fca940905bef6a3062c2dfa043091fa691276661a8c1e1500547a547a527152ae
-------------
Checking Deposit Tx Redeem Script
-------------
{
  "asm": "03723da9a33a00f132e61345810f466cb1d77ec3206759fccf8c889855939fe1bd 027c3a7dacf7f2521e7fca940905bef6a3062c2dfa043091fa691276661a8c1e15 0 4 OP_ROLL 4 OP_ROLL 2 OP_2ROT 2 OP_CHECKMULTISIG",
  "desc": "raw(2103723da9a33a00f132e61345810f466cb1d77ec3206759fccf8c889855939fe1bd21027c3a7dacf7f2521e7fca940905bef6a3062c2dfa043091fa691276661a8c1e1500547a547a527152ae)#gl9ut2c0",
  "type": "nonstandard",
  "p2sh": "2MsqnUvmV3EVxa2L1J3nsD4fGM3YtC3g1cP",
  "segwit": {
    "asm": "0 b3e9a325e6556700f47db487c3a8e4e2af68801c02f8a995b7fa10e66c2340a0",
    "desc": "wsh(raw(2103723da9a33a00f132e61345810f466cb1d77ec3206759fccf8c889855939fe1bd21027c3a7dacf7f2521e7fca940905bef6a3062c2dfa043091fa691276661a8c1e1500547a547a527152ae))#snnmrpag",
    "hex": "0020b3e9a325e6556700f47db487c3a8e4e2af68801c02f8a995b7fa10e66c2340a0",
    "address": "bcrt1qk056xf0x24nsparakjru828yu2hk3qquqtu2n9dhlggwvmprgzsqu3lr4t",
    "type": "witness_v0_scripthash",
    "p2sh-segwit": "2N9GvKcSDyoURknq56eJEmrTjinWb7b5kWy"
  }
}
-------------
Deposit Tx - Script to Address
-------------
bcrt1qk056xf0x24nsparakjru828yu2hk3qquqtu2n9dhlggwvmprgzsqu3lr4t
-------------
Creating Unsigned Deposit Tx
-------------
Done
-------------
Unsigned Deposit Tx
-------------
0200000001b242bb96b0a429b72004353dc2ef73f369ea0c31033e5d82ffbb234f8819141b0000000000fdffffff01606b042a01000000220020b3e9a325e6556700f47db487c3a8e4e2af68801c02f8a995b7fa10e66c2340a000000000
-------------
Checking Unsigned Deposit Tx
-------------
{
  "txid": "51ce37753f4bdf9a619357395680db00d980bf4077fb41b9d8d22f90322a1e4b",
  "hash": "51ce37753f4bdf9a619357395680db00d980bf4077fb41b9d8d22f90322a1e4b",
  "version": 2,
  "size": 94,
  "vsize": 94,
  "weight": 376,
  "locktime": 0,
  "vin": [
    {
      "txid": "1b1419884f23bbff825d3e03310cea69f373efc23d350420b729a4b096bb42b2",
      "vout": 0,
      "scriptSig": {
        "asm": "",
        "hex": ""
      },
      "sequence": 4294967293
    }
  ],
  "vout": [
    {
      "value": 49.99900000,
      "n": 0,
      "scriptPubKey": {
        "asm": "0 b3e9a325e6556700f47db487c3a8e4e2af68801c02f8a995b7fa10e66c2340a0",
        "desc": "addr(bcrt1qk056xf0x24nsparakjru828yu2hk3qquqtu2n9dhlggwvmprgzsqu3lr4t)#t5dhf24u",
        "hex": "0020b3e9a325e6556700f47db487c3a8e4e2af68801c02f8a995b7fa10e66c2340a0",
        "address": "bcrt1qk056xf0x24nsparakjru828yu2hk3qquqtu2n9dhlggwvmprgzsqu3lr4t",
        "type": "witness_v0_scripthash"
      }
    }
  ]
}
-------------
Signing the Deposit Tx
-------------
Done
-------------
Signed Deposit Tx
-------------
02000000000101b242bb96b0a429b72004353dc2ef73f369ea0c31033e5d82ffbb234f8819141b0000000000fdffffff01606b042a01000000220020b3e9a325e6556700f47db487c3a8e4e2af68801c02f8a995b7fa10e66c2340a00247304402203e5993889511beecb5f80d47a72a37409568aa24274619043759fb513157301702202688cc27dbeefb7ca50b51abb1817ab571445cd4638ef84108ba9679971798e70121027c3a7dacf7f2521e7fca940905bef6a3062c2dfa043091fa691276661a8c1e1500000000
-------------
Checking Signed Deposit Tx
-------------
{
  "txid": "51ce37753f4bdf9a619357395680db00d980bf4077fb41b9d8d22f90322a1e4b",
  "hash": "0bb7c6298e3a98781a82f93968b4171b58cb0447352e3f34d6df9887fc3caee7",
  "version": 2,
  "size": 203,
  "vsize": 122,
  "weight": 485,
  "locktime": 0,
  "vin": [
    {
      "txid": "1b1419884f23bbff825d3e03310cea69f373efc23d350420b729a4b096bb42b2",
      "vout": 0,
      "scriptSig": {
        "asm": "",
        "hex": ""
      },
      "txinwitness": [
        "304402203e5993889511beecb5f80d47a72a37409568aa24274619043759fb513157301702202688cc27dbeefb7ca50b51abb1817ab571445cd4638ef84108ba9679971798e701",
        "027c3a7dacf7f2521e7fca940905bef6a3062c2dfa043091fa691276661a8c1e15"
      ],
      "sequence": 4294967293
    }
  ],
  "vout": [
    {
      "value": 49.99900000,
      "n": 0,
      "scriptPubKey": {
        "asm": "0 b3e9a325e6556700f47db487c3a8e4e2af68801c02f8a995b7fa10e66c2340a0",
        "desc": "addr(bcrt1qk056xf0x24nsparakjru828yu2hk3qquqtu2n9dhlggwvmprgzsqu3lr4t)#t5dhf24u",
        "hex": "0020b3e9a325e6556700f47db487c3a8e4e2af68801c02f8a995b7fa10e66c2340a0",
        "address": "bcrt1qk056xf0x24nsparakjru828yu2hk3qquqtu2n9dhlggwvmprgzsqu3lr4t",
        "type": "witness_v0_scripthash"
      }
    }
  ]
}
[H[2J[3J
-------------
Your Vault has a 2-step Unlock and Spend process to transfer from it
and there is a mandatory yet configureable delay enforced between these
Unlock and Spend Transactions for every private-key/combination allowed
to spend from this Vault.
-------------
Press any key to configure these delays and continue...
[H[2J[3J
-------------
Lets configure the on-chain delay / cooling period
for spending with your private-key from your Vault!

This will give you time to react and initiate recovery
when your private-key or wallet backup (seed phrase) is stolen
and is used to unlock and potentially spend from your Vault.
-------------
Enter delay in blocks or press [Return] to use default [1000]: Setting Option 1 (User Private-Key Only) Delay to 1000
Encoded bytes (hex): e803
[H[2J[3J
-------------
Now, lets configure the on-chain delay / cooling period
for spending with the Sentinel private-key from your Vault!

This is the delay your Sentinel has to wait before he can
transfer/recover from your Vault in case your private-key
is lost or for managing your inheritance.

PS: This is typically much longer than the previously set delay
and will give you time to react and override any spend attempt
by compromised/rogue Sentinels with just your private-key
eliminating counter-party risk in the Hybrid Custody Ecosystem.
-------------
Enter delay in blocks or press [Return] to use default [5000]: Setting Option 2 (Sentinel Private-Key Only) Delay to 5000
Encoded bytes (hex): 8813
[H[2J[3J
-------------
Now, lets configure the Recovery Address for your Vault!

Once your private-keys are lost or stolen, it is not
safe to recover your Vault to an address controlled by you
as we never know how deep the compromise is.

The best approach would be to temporarily transfer the coins in your
Vault to a custodial wallet address (Coinbase, Binance, etc.) and disable
withdrawls from it until you can create a new secure cold-storage wallet and Vault.

Alternatively, you can setup a new unused Hardware Wallet
with a new seed-phrase and store both the hardware wallet and
seed-phrase backup in a bank locker and use this wallet's address as Recovery Address!

PS: Sentinels are bound by on-chain Staking/Slashing mechanics
to only sign Recovery transactions to this Preconfigured Recovery Address
as no user provided input can be trusted post compromise/setup!
-------------
Enter Recovery Address or press [Return] to use default [bcrt1qqnclvtjrhkd960c7m586qv7u3v4ukxyj0jahpu]: Proceeding with Recovery Address: bcrt1qqnclvtjrhkd960c7m586qv7u3v4ukxyj0jahpu
-------------
Unlock Tx (Provisional Tx) Redeem Script
-------------
Hex: 02881302e8032103723da9a33a00f132e61345810f466cb1d77ec3206759fccf8c889855939fe1bd21027c3a7dacf7f2521e7fca940905bef6a3062c2dfa043091fa691276661a8c1e1554795287637b757b757b7500547a547a527152ae67547a6375777b7cadb2755167777b757b7cadb275516868
-------------
Checking Unlock Tx (Provisional Tx) Redeem Script
-------------
{
  "asm": "5000 1000 03723da9a33a00f132e61345810f466cb1d77ec3206759fccf8c889855939fe1bd 027c3a7dacf7f2521e7fca940905bef6a3062c2dfa043091fa691276661a8c1e15 4 OP_PICK 2 OP_EQUAL OP_IF OP_ROT OP_DROP OP_ROT OP_DROP OP_ROT OP_DROP 0 4 OP_ROLL 4 OP_ROLL 2 OP_2ROT 2 OP_CHECKMULTISIG OP_ELSE 4 OP_ROLL OP_IF OP_DROP OP_NIP OP_ROT OP_SWAP OP_CHECKSIGVERIFY OP_CHECKSEQUENCEVERIFY OP_DROP 1 OP_ELSE OP_NIP OP_ROT OP_DROP OP_ROT OP_SWAP OP_CHECKSIGVERIFY OP_CHECKSEQUENCEVERIFY OP_DROP 1 OP_ENDIF OP_ENDIF",
  "desc": "raw(02881302e8032103723da9a33a00f132e61345810f466cb1d77ec3206759fccf8c889855939fe1bd21027c3a7dacf7f2521e7fca940905bef6a3062c2dfa043091fa691276661a8c1e1554795287637b757b757b7500547a547a527152ae67547a6375777b7cadb2755167777b757b7cadb275516868)#3ku0y3r5",
  "type": "nonstandard",
  "p2sh": "2Msbi2gd8nqREZqe9hL7osyhXZ5JDBT96hL",
  "segwit": {
    "asm": "0 790fae16998c0ef09d37fa3fb562ba7314bc1b468325d2e5f0cccb3b41bf52fe",
    "desc": "wsh(raw(02881302e8032103723da9a33a00f132e61345810f466cb1d77ec3206759fccf8c889855939fe1bd21027c3a7dacf7f2521e7fca940905bef6a3062c2dfa043091fa691276661a8c1e1554795287637b757b757b7500547a547a527152ae67547a6375777b7cadb2755167777b757b7cadb275516868))#srdp9xy2",
    "hex": "0020790fae16998c0ef09d37fa3fb562ba7314bc1b468325d2e5f0cccb3b41bf52fe",
    "address": "bcrt1q0y86u95e3s80p8fhlglm2c46wv2tcx6xsvja9e0sen9nksdl2tlq7gy20h",
    "type": "witness_v0_scripthash",
    "p2sh-segwit": "2MzNkxXNiUc2xJWoRjtBfxaxHRw3nBaXyuY"
  }
}
-------------
Unlock Tx (Provisional Tx) - Script to Address
-------------
bcrt1q0y86u95e3s80p8fhlglm2c46wv2tcx6xsvja9e0sen9nksdl2tlq7gy20h
-------------
Creating Unsigned Unlock Tx (Provisional Tx)
-------------
02000000014b1e2a32902fd2d8b941fb7740bf80d900db8056395793619adf4b3f7537ce510000000000fdffffff01c0e4022a01000000220020790fae16998c0ef09d37fa3fb562ba7314bc1b468325d2e5f0cccb3b41bf52fe00000000
-------------
Checking Unsigned Unlock Tx Created by User
-------------
{
  "txid": "3bd0fceb5e7dc0ee1c8f3ae19e774a0971aef091359625aa0155d02dc218d543",
  "hash": "3bd0fceb5e7dc0ee1c8f3ae19e774a0971aef091359625aa0155d02dc218d543",
  "version": 2,
  "size": 94,
  "vsize": 94,
  "weight": 376,
  "locktime": 0,
  "vin": [
    {
      "txid": "51ce37753f4bdf9a619357395680db00d980bf4077fb41b9d8d22f90322a1e4b",
      "vout": 0,
      "scriptSig": {
        "asm": "",
        "hex": ""
      },
      "sequence": 4294967293
    }
  ],
  "vout": [
    {
      "value": 49.99800000,
      "n": 0,
      "scriptPubKey": {
        "asm": "0 790fae16998c0ef09d37fa3fb562ba7314bc1b468325d2e5f0cccb3b41bf52fe",
        "desc": "addr(bcrt1q0y86u95e3s80p8fhlglm2c46wv2tcx6xsvja9e0sen9nksdl2tlq7gy20h)#4628uwen",
        "hex": "0020790fae16998c0ef09d37fa3fb562ba7314bc1b468325d2e5f0cccb3b41bf52fe",
        "address": "bcrt1q0y86u95e3s80p8fhlglm2c46wv2tcx6xsvja9e0sen9nksdl2tlq7gy20h",
        "type": "witness_v0_scripthash"
      }
    }
  ]
}
-------------
Simulating the transfer of Unsigned Unlock Tx (Provisional Tx) copy
to Sentinel!
-------------
[U] --> Unsigned Unlock Tx (Provisional Tx) --> [S]
-------------
Sentinel signs the Unsigned Unlock Tx (Provisional Tx)
with his Private Key
-------------
Original Tx:
{
    "ins": [
        {
            "tx_hash": "51ce37753f4bdf9a619357395680db00d980bf4077fb41b9d8d22f90322a1e4b",
            "tx_pos": 0,
            "script": "",
            "sequence": 4294967293,
            "value": 4999900000
        }
    ],
    "outs": [
        {
            "value": 4999800000,
            "script": "0020790fae16998c0ef09d37fa3fb562ba7314bc1b468325d2e5f0cccb3b41bf52fe"
        }
    ],
    "version": 2,
    "locktime": 0
}
Signature:
3045022100e6bec8b2d28974337254b2e315d63bad4a00696904e1773faa82e32643b8d37f022009b4923c289a75665e27e4676fe1ff7c7790dc7eb0742e0da5b75179cf81e72901
-------------
Unlock Tx (Provisional Tx) - Sentinel's Signature
-------------
3045022100e6bec8b2d28974337254b2e315d63bad4a00696904e1773faa82e32643b8d37f022009b4923c289a75665e27e4676fe1ff7c7790dc7eb0742e0da5b75179cf81e72901
-------------
Simulating the transfer of Partially Signed Unlock Tx (Provisional Tx)
to User!
-------------
[S] --> Partially Signed Unlock Tx (Provisional Tx) --> [U]
-------------
User signs the Unsigned Unlock Tx (Provisional Tx)
with his Private Key
-------------
Original Tx:
{
    "ins": [
        {
            "tx_hash": "51ce37753f4bdf9a619357395680db00d980bf4077fb41b9d8d22f90322a1e4b",
            "tx_pos": 0,
            "script": "",
            "sequence": 4294967293,
            "value": 4999900000
        }
    ],
    "outs": [
        {
            "value": 4999800000,
            "script": "0020790fae16998c0ef09d37fa3fb562ba7314bc1b468325d2e5f0cccb3b41bf52fe"
        }
    ],
    "version": 2,
    "locktime": 0
}
Signature:
304402205c3e515fc8e97b3ea9d4bca6da81ace5c06c4004e2fd27958dce389319a3cdc5022023462937884970f9297134e22f76a10384e62523562aae0b4e2215f41792942b01
-------------
Unlock Tx (Provisional Tx) - User Signature
-------------
304402205c3e515fc8e97b3ea9d4bca6da81ace5c06c4004e2fd27958dce389319a3cdc5022023462937884970f9297134e22f76a10384e62523562aae0b4e2215f41792942b01
-------------
Simulating the transfer of Partially Signed Unlock Tx (Provisional Tx) copy
to Sentinel!
-------------
[U] --> Partially Signed Provisional Tx --> [S]
-------------
User signs & broadcasts the Deposit Tx
after receiving the Partially signed Unlock Tx (Provisional Tx)
-------------
51ce37753f4bdf9a619357395680db00d980bf4077fb41b9d8d22f90322a1e4b
Done
-------------
Generating Block to confirm the Deposit Tx
-------------
Deposit Tx Block: 113e490f141fee17d1027cde92436637f8bd85e43ab86e40b686e473f623db68
-------------
Confirmed Deposit Tx
-------------
{
  "in_active_chain": true,
  "txid": "51ce37753f4bdf9a619357395680db00d980bf4077fb41b9d8d22f90322a1e4b",
  "hash": "0bb7c6298e3a98781a82f93968b4171b58cb0447352e3f34d6df9887fc3caee7",
  "version": 2,
  "size": 203,
  "vsize": 122,
  "weight": 485,
  "locktime": 0,
  "vin": [
    {
      "txid": "1b1419884f23bbff825d3e03310cea69f373efc23d350420b729a4b096bb42b2",
      "vout": 0,
      "scriptSig": {
        "asm": "",
        "hex": ""
      },
      "txinwitness": [
        "304402203e5993889511beecb5f80d47a72a37409568aa24274619043759fb513157301702202688cc27dbeefb7ca50b51abb1817ab571445cd4638ef84108ba9679971798e701",
        "027c3a7dacf7f2521e7fca940905bef6a3062c2dfa043091fa691276661a8c1e15"
      ],
      "sequence": 4294967293
    }
  ],
  "vout": [
    {
      "value": 49.99900000,
      "n": 0,
      "scriptPubKey": {
        "asm": "0 b3e9a325e6556700f47db487c3a8e4e2af68801c02f8a995b7fa10e66c2340a0",
        "desc": "addr(bcrt1qk056xf0x24nsparakjru828yu2hk3qquqtu2n9dhlggwvmprgzsqu3lr4t)#t5dhf24u",
        "hex": "0020b3e9a325e6556700f47db487c3a8e4e2af68801c02f8a995b7fa10e66c2340a0",
        "address": "bcrt1qk056xf0x24nsparakjru828yu2hk3qquqtu2n9dhlggwvmprgzsqu3lr4t",
        "type": "witness_v0_scripthash"
      }
    }
  ],
  "hex": "02000000000101b242bb96b0a429b72004353dc2ef73f369ea0c31033e5d82ffbb234f8819141b0000000000fdffffff01606b042a01000000220020b3e9a325e6556700f47db487c3a8e4e2af68801c02f8a995b7fa10e66c2340a00247304402203e5993889511beecb5f80d47a72a37409568aa24274619043759fb513157301702202688cc27dbeefb7ca50b51abb1817ab571445cd4638ef84108ba9679971798e70121027c3a7dacf7f2521e7fca940905bef6a3062c2dfa043091fa691276661a8c1e1500000000",
  "blockhash": "113e490f141fee17d1027cde92436637f8bd85e43ab86e40b686e473f623db68",
  "confirmations": 1,
  "time": 1775560811,
  "blocktime": 1775560811
}
[H[2J[3J
-------------
*** Smart Vault Setup Complete! ***
-------------
You are now assured of your
Bitcoin's safety and security
as your Bitcoin is now in Joint Custody and
rest everything is managed using the
Partially Signed Unlock Txs (Provisional Txs) with you
and your Sentinel after the Smart Vault setup is complete!
-------------
Vault Balance: 49.99900000 BTC
-------------
What do you want to do next?
1) Spend with your private-key from the Vault
2) Initiate Recovery as you lost your private-key / Initiate Inheritance Flow
3) Initiate Override and Recovery as you suspect your private-keys are stolen
-----------------
Select an option [1-3] (Default: 1): -------------
Simulating the recovery process by User in collaboration
with his Sentinel when his or his Sentinel's private-key is
presumed stolen or they see some adversarial activity on chain.

Ex. Unlock Tx (Provisional Tx) broadcasted by unknown entities
-------------
Balance in Recovery Addresss (bcrt1qqnclvtjrhkd960c7m586qv7u3v4ukxyj0jahpu): 0 BTC
Press any key to start recovery...
-------------
User signs the Partially Signed
Unlock Tx (Provisional Tx) received from Sentinel
with his Private Key
-------------
Done
-------------
User's Private Key Generated Signature for Unlock Tx (Provisional Tx):
-------------
304402205c3e515fc8e97b3ea9d4bca6da81ace5c06c4004e2fd27958dce389319a3cdc5022023462937884970f9297134e22f76a10384e62523562aae0b4e2215f41792942b01
-------------
Fully Signed Unlock Tx (Provisional Tx):
-------------
Unsigned Tx
{
    "ins": [
        {
            "tx_hash": "51ce37753f4bdf9a619357395680db00d980bf4077fb41b9d8d22f90322a1e4b",
            "tx_pos": 0,
            "script": "",
            "sequence": 4294967293
        }
    ],
    "outs": [
        {
            "value": 4999800000,
            "script": "0020790fae16998c0ef09d37fa3fb562ba7314bc1b468325d2e5f0cccb3b41bf52fe"
        }
    ],
    "version": 2,
    "locktime": 0
}
Signed Tx
{
    "ins": [
        {
            "tx_hash": "51ce37753f4bdf9a619357395680db00d980bf4077fb41b9d8d22f90322a1e4b",
            "tx_pos": 0,
            "script": "",
            "sequence": 4294967293
        }
    ],
    "outs": [
        {
            "value": 4999800000,
            "script": "0020790fae16998c0ef09d37fa3fb562ba7314bc1b468325d2e5f0cccb3b41bf52fe"
        }
    ],
    "version": 2,
    "locktime": 0,
    "witness": [
        {
            "number": 3,
            "scriptCode": "483045022100e6bec8b2d28974337254b2e315d63bad4a00696904e1773faa82e32643b8d37f022009b4923c289a75665e27e4676fe1ff7c7790dc7eb0742e0da5b75179cf81e7290147304402205c3e515fc8e97b3ea9d4bca6da81ace5c06c4004e2fd27958dce389319a3cdc5022023462937884970f9297134e22f76a10384e62523562aae0b4e2215f41792942b014d2103723da9a33a00f132e61345810f466cb1d77ec3206759fccf8c889855939fe1bd21027c3a7dacf7f2521e7fca940905bef6a3062c2dfa043091fa691276661a8c1e1500547a547a527152ae"
        }
    ],
    "marker": 0,
    "flag": 1
}
020000000001014b1e2a32902fd2d8b941fb7740bf80d900db8056395793619adf4b3f7537ce510000000000fdffffff01c0e4022a01000000220020790fae16998c0ef09d37fa3fb562ba7314bc1b468325d2e5f0cccb3b41bf52fe03483045022100e6bec8b2d28974337254b2e315d63bad4a00696904e1773faa82e32643b8d37f022009b4923c289a75665e27e4676fe1ff7c7790dc7eb0742e0da5b75179cf81e7290147304402205c3e515fc8e97b3ea9d4bca6da81ace5c06c4004e2fd27958dce389319a3cdc5022023462937884970f9297134e22f76a10384e62523562aae0b4e2215f41792942b014d2103723da9a33a00f132e61345810f466cb1d77ec3206759fccf8c889855939fe1bd21027c3a7dacf7f2521e7fca940905bef6a3062c2dfa043091fa691276661a8c1e1500547a547a527152ae00000000
-------------
Checking Fully Signed Unlock Tx (Provisional Tx):
-------------
{
  "txid": "3bd0fceb5e7dc0ee1c8f3ae19e774a0971aef091359625aa0155d02dc218d543",
  "hash": "0499e6cc2da71e7743e049853e3d02321e2f133aed07e96ed43b4904a9630667",
  "version": 2,
  "size": 320,
  "vsize": 151,
  "weight": 602,
  "locktime": 0,
  "vin": [
    {
      "txid": "51ce37753f4bdf9a619357395680db00d980bf4077fb41b9d8d22f90322a1e4b",
      "vout": 0,
      "scriptSig": {
        "asm": "",
        "hex": ""
      },
      "txinwitness": [
        "3045022100e6bec8b2d28974337254b2e315d63bad4a00696904e1773faa82e32643b8d37f022009b4923c289a75665e27e4676fe1ff7c7790dc7eb0742e0da5b75179cf81e72901",
        "304402205c3e515fc8e97b3ea9d4bca6da81ace5c06c4004e2fd27958dce389319a3cdc5022023462937884970f9297134e22f76a10384e62523562aae0b4e2215f41792942b01",
        "2103723da9a33a00f132e61345810f466cb1d77ec3206759fccf8c889855939fe1bd21027c3a7dacf7f2521e7fca940905bef6a3062c2dfa043091fa691276661a8c1e1500547a547a527152ae"
      ],
      "sequence": 4294967293
    }
  ],
  "vout": [
    {
      "value": 49.99800000,
      "n": 0,
      "scriptPubKey": {
        "asm": "0 790fae16998c0ef09d37fa3fb562ba7314bc1b468325d2e5f0cccb3b41bf52fe",
        "desc": "addr(bcrt1q0y86u95e3s80p8fhlglm2c46wv2tcx6xsvja9e0sen9nksdl2tlq7gy20h)#4628uwen",
        "hex": "0020790fae16998c0ef09d37fa3fb562ba7314bc1b468325d2e5f0cccb3b41bf52fe",
        "address": "bcrt1q0y86u95e3s80p8fhlglm2c46wv2tcx6xsvja9e0sen9nksdl2tlq7gy20h",
        "type": "witness_v0_scripthash"
      }
    }
  ]
}
-------------
Vaildate Fully Signed Unlock Tx (Provisional Tx)
-------------
[
  {
    "txid": "3bd0fceb5e7dc0ee1c8f3ae19e774a0971aef091359625aa0155d02dc218d543",
    "wtxid": "0499e6cc2da71e7743e049853e3d02321e2f133aed07e96ed43b4904a9630667",
    "allowed": true,
    "vsize": 151,
    "fees": {
      "base": 0.00100000,
      "effective-feerate": 0.00662251,
      "effective-includes": [
        "0499e6cc2da71e7743e049853e3d02321e2f133aed07e96ed43b4904a9630667"
      ]
    }
  }
]
-------------
Broadcast Fully Signed Unlock Tx (Provisional Tx)
-------------
Done
-------------
Generating Block to confirm Unlock Tx (Provisional Tx)
-------------
Done
-------------
Unlock Tx (Provisional Tx) Block:
-------------
1dbe30534c6aade78dcf49a4de211bcc96e3c7f8c167e03b535ec1aee8d9c235
-------------
Confirmed Unlock Tx (Provisional Tx)
-------------
{
  "in_active_chain": true,
  "txid": "3bd0fceb5e7dc0ee1c8f3ae19e774a0971aef091359625aa0155d02dc218d543",
  "hash": "0499e6cc2da71e7743e049853e3d02321e2f133aed07e96ed43b4904a9630667",
  "version": 2,
  "size": 320,
  "vsize": 151,
  "weight": 602,
  "locktime": 0,
  "vin": [
    {
      "txid": "51ce37753f4bdf9a619357395680db00d980bf4077fb41b9d8d22f90322a1e4b",
      "vout": 0,
      "scriptSig": {
        "asm": "",
        "hex": ""
      },
      "txinwitness": [
        "3045022100e6bec8b2d28974337254b2e315d63bad4a00696904e1773faa82e32643b8d37f022009b4923c289a75665e27e4676fe1ff7c7790dc7eb0742e0da5b75179cf81e72901",
        "304402205c3e515fc8e97b3ea9d4bca6da81ace5c06c4004e2fd27958dce389319a3cdc5022023462937884970f9297134e22f76a10384e62523562aae0b4e2215f41792942b01",
        "2103723da9a33a00f132e61345810f466cb1d77ec3206759fccf8c889855939fe1bd21027c3a7dacf7f2521e7fca940905bef6a3062c2dfa043091fa691276661a8c1e1500547a547a527152ae"
      ],
      "sequence": 4294967293
    }
  ],
  "vout": [
    {
      "value": 49.99800000,
      "n": 0,
      "scriptPubKey": {
        "asm": "0 790fae16998c0ef09d37fa3fb562ba7314bc1b468325d2e5f0cccb3b41bf52fe",
        "desc": "addr(bcrt1q0y86u95e3s80p8fhlglm2c46wv2tcx6xsvja9e0sen9nksdl2tlq7gy20h)#4628uwen",
        "hex": "0020790fae16998c0ef09d37fa3fb562ba7314bc1b468325d2e5f0cccb3b41bf52fe",
        "address": "bcrt1q0y86u95e3s80p8fhlglm2c46wv2tcx6xsvja9e0sen9nksdl2tlq7gy20h",
        "type": "witness_v0_scripthash"
      }
    }
  ],
  "hex": "020000000001014b1e2a32902fd2d8b941fb7740bf80d900db8056395793619adf4b3f7537ce510000000000fdffffff01c0e4022a01000000220020790fae16998c0ef09d37fa3fb562ba7314bc1b468325d2e5f0cccb3b41bf52fe03483045022100e6bec8b2d28974337254b2e315d63bad4a00696904e1773faa82e32643b8d37f022009b4923c289a75665e27e4676fe1ff7c7790dc7eb0742e0da5b75179cf81e7290147304402205c3e515fc8e97b3ea9d4bca6da81ace5c06c4004e2fd27958dce389319a3cdc5022023462937884970f9297134e22f76a10384e62523562aae0b4e2215f41792942b014d2103723da9a33a00f132e61345810f466cb1d77ec3206759fccf8c889855939fe1bd21027c3a7dacf7f2521e7fca940905bef6a3062c2dfa043091fa691276661a8c1e1500547a547a527152ae00000000",
  "blockhash": "1dbe30534c6aade78dcf49a4de211bcc96e3c7f8c167e03b535ec1aee8d9c235",
  "confirmations": 1,
  "time": 1775560816,
  "blocktime": 1775560816
}
-------------
Simulating Recovery by User using
*** Option 3 *** of Unlock Tx (Provisonal Tx)
(Both User and Sentinel have to sign the recovery Tx)
-------------
Recovery Process - Start
-------------
User creates the Recovery Tx
-------------
Done
-------------
Unsigned Recovery Tx
-------------
020000000143d518c22dd05501aa25963591f0ae71094a779ee13a8f1ceec07d5eebfcd03b0000000000fdffffff01205e012a0100000016001404f1f62e43bd9a5d3f1edd0fa033dc8b2bcb189200000000
-------------
Checking Unsigned Recovery Tx
-------------
{
  "txid": "52d7f2c25c2cbffac00198efbd90a222a9e7dc3ac2c144c89b137b5bd7f98299",
  "hash": "52d7f2c25c2cbffac00198efbd90a222a9e7dc3ac2c144c89b137b5bd7f98299",
  "version": 2,
  "size": 82,
  "vsize": 82,
  "weight": 328,
  "locktime": 0,
  "vin": [
    {
      "txid": "3bd0fceb5e7dc0ee1c8f3ae19e774a0971aef091359625aa0155d02dc218d543",
      "vout": 0,
      "scriptSig": {
        "asm": "",
        "hex": ""
      },
      "sequence": 4294967293
    }
  ],
  "vout": [
    {
      "value": 49.99700000,
      "n": 0,
      "scriptPubKey": {
        "asm": "0 04f1f62e43bd9a5d3f1edd0fa033dc8b2bcb1892",
        "desc": "addr(bcrt1qqnclvtjrhkd960c7m586qv7u3v4ukxyj0jahpu)#mymmnhcr",
        "hex": "001404f1f62e43bd9a5d3f1edd0fa033dc8b2bcb1892",
        "address": "bcrt1qqnclvtjrhkd960c7m586qv7u3v4ukxyj0jahpu",
        "type": "witness_v0_keyhash"
      }
    }
  ]
}
-------------
Simulating the transfer of Unsigned Recovery Tx
from User to Sentinel!
-------------
[U] --> Unsigned Provisional Tx --> [S]
-------------
Sentinel Signs the Recovery Tx
-------------
Original Tx:
{
    "ins": [
        {
            "tx_hash": "3bd0fceb5e7dc0ee1c8f3ae19e774a0971aef091359625aa0155d02dc218d543",
            "tx_pos": 0,
            "script": "",
            "sequence": 4294967293,
            "value": 4999800000
        }
    ],
    "outs": [
        {
            "value": 4999700000,
            "script": "001404f1f62e43bd9a5d3f1edd0fa033dc8b2bcb1892"
        }
    ],
    "version": 2,
    "locktime": 0
}
Signature:
3045022100af595e1e3e41be349ee069285984e7c864a2ac06937fa5f1bb5d42a791649867022032705a019157510b97fdf49cecae28d2f6c3e259f5a6ac2558a64386251104a801
-------------
Recovery Tx - Sentinel's Signature
-------------
3045022100af595e1e3e41be349ee069285984e7c864a2ac06937fa5f1bb5d42a791649867022032705a019157510b97fdf49cecae28d2f6c3e259f5a6ac2558a64386251104a801
-------------
Simulating the transfer of Partially Signed Recovery Tx
from Sentinel to User!
-------------
[S] --> Partially Signed Provisional Tx --> [U]
-------------
User Signs the Recovery Tx
-------------
Original Tx:
{
    "ins": [
        {
            "tx_hash": "3bd0fceb5e7dc0ee1c8f3ae19e774a0971aef091359625aa0155d02dc218d543",
            "tx_pos": 0,
            "script": "",
            "sequence": 4294967293,
            "value": 4999800000
        }
    ],
    "outs": [
        {
            "value": 4999700000,
            "script": "001404f1f62e43bd9a5d3f1edd0fa033dc8b2bcb1892"
        }
    ],
    "version": 2,
    "locktime": 0
}
Signature:
3044022043a818a0db2b8dda1daee166eb01a7549f59f29cf2050d86fd98ea53d22a124b022021c83370ffff0e00c100fbdec444d70106f8dbd4f148e89e0e8836c9687833eb01
-------------
Recovery Tx - User's Signature
-------------
3044022043a818a0db2b8dda1daee166eb01a7549f59f29cf2050d86fd98ea53d22a124b022021c83370ffff0e00c100fbdec444d70106f8dbd4f148e89e0e8836c9687833eb01
-------------
Fully Signed Recovery Tx:
-------------
Unsigned Tx
{
    "ins": [
        {
            "tx_hash": "3bd0fceb5e7dc0ee1c8f3ae19e774a0971aef091359625aa0155d02dc218d543",
            "tx_pos": 0,
            "script": "",
            "sequence": 4294967293
        }
    ],
    "outs": [
        {
            "value": 4999700000,
            "script": "001404f1f62e43bd9a5d3f1edd0fa033dc8b2bcb1892"
        }
    ],
    "version": 2,
    "locktime": 0
}
Signed Tx
{
    "ins": [
        {
            "tx_hash": "3bd0fceb5e7dc0ee1c8f3ae19e774a0971aef091359625aa0155d02dc218d543",
            "tx_pos": 0,
            "script": "",
            "sequence": 4294967293
        }
    ],
    "outs": [
        {
            "value": 4999700000,
            "script": "001404f1f62e43bd9a5d3f1edd0fa033dc8b2bcb1892"
        }
    ],
    "version": 2,
    "locktime": 0,
    "witness": [
        {
            "number": 4,
            "scriptCode": "483045022100af595e1e3e41be349ee069285984e7c864a2ac06937fa5f1bb5d42a791649867022032705a019157510b97fdf49cecae28d2f6c3e259f5a6ac2558a64386251104a801473044022043a818a0db2b8dda1daee166eb01a7549f59f29cf2050d86fd98ea53d22a124b022021c83370ffff0e00c100fbdec444d70106f8dbd4f148e89e0e8836c9687833eb0101027602881302e8032103723da9a33a00f132e61345810f466cb1d77ec3206759fccf8c889855939fe1bd21027c3a7dacf7f2521e7fca940905bef6a3062c2dfa043091fa691276661a8c1e1554795287637b757b757b7500547a547a527152ae67547a6375777b7cadb2755167777b757b7cadb275516868"
        }
    ],
    "marker": 0,
    "flag": 1
}
0200000000010143d518c22dd05501aa25963591f0ae71094a779ee13a8f1ceec07d5eebfcd03b0000000000fdffffff01205e012a0100000016001404f1f62e43bd9a5d3f1edd0fa033dc8b2bcb189204483045022100af595e1e3e41be349ee069285984e7c864a2ac06937fa5f1bb5d42a791649867022032705a019157510b97fdf49cecae28d2f6c3e259f5a6ac2558a64386251104a801473044022043a818a0db2b8dda1daee166eb01a7549f59f29cf2050d86fd98ea53d22a124b022021c83370ffff0e00c100fbdec444d70106f8dbd4f148e89e0e8836c9687833eb0101027602881302e8032103723da9a33a00f132e61345810f466cb1d77ec3206759fccf8c889855939fe1bd21027c3a7dacf7f2521e7fca940905bef6a3062c2dfa043091fa691276661a8c1e1554795287637b757b757b7500547a547a527152ae67547a6375777b7cadb2755167777b757b7cadb27551686800000000
-------------
Checking Fully Signed Recovery Tx:
-------------
{
  "txid": "52d7f2c25c2cbffac00198efbd90a222a9e7dc3ac2c144c89b137b5bd7f98299",
  "hash": "91f7c9995c38507e10b0eed09d115756c3f1072c5c4211f2d36a705145eed4db",
  "version": 2,
  "size": 351,
  "vsize": 150,
  "weight": 597,
  "locktime": 0,
  "vin": [
    {
      "txid": "3bd0fceb5e7dc0ee1c8f3ae19e774a0971aef091359625aa0155d02dc218d543",
      "vout": 0,
      "scriptSig": {
        "asm": "",
        "hex": ""
      },
      "txinwitness": [
        "3045022100af595e1e3e41be349ee069285984e7c864a2ac06937fa5f1bb5d42a791649867022032705a019157510b97fdf49cecae28d2f6c3e259f5a6ac2558a64386251104a801",
        "3044022043a818a0db2b8dda1daee166eb01a7549f59f29cf2050d86fd98ea53d22a124b022021c83370ffff0e00c100fbdec444d70106f8dbd4f148e89e0e8836c9687833eb01",
        "02",
        "02881302e8032103723da9a33a00f132e61345810f466cb1d77ec3206759fccf8c889855939fe1bd21027c3a7dacf7f2521e7fca940905bef6a3062c2dfa043091fa691276661a8c1e1554795287637b757b757b7500547a547a527152ae67547a6375777b7cadb2755167777b757b7cadb275516868"
      ],
      "sequence": 4294967293
    }
  ],
  "vout": [
    {
      "value": 49.99700000,
      "n": 0,
      "scriptPubKey": {
        "asm": "0 04f1f62e43bd9a5d3f1edd0fa033dc8b2bcb1892",
        "desc": "addr(bcrt1qqnclvtjrhkd960c7m586qv7u3v4ukxyj0jahpu)#mymmnhcr",
        "hex": "001404f1f62e43bd9a5d3f1edd0fa033dc8b2bcb1892",
        "address": "bcrt1qqnclvtjrhkd960c7m586qv7u3v4ukxyj0jahpu",
        "type": "witness_v0_keyhash"
      }
    }
  ]
}
-------------
Vaildating Recovery Tx
-------------
[
  {
    "txid": "52d7f2c25c2cbffac00198efbd90a222a9e7dc3ac2c144c89b137b5bd7f98299",
    "wtxid": "91f7c9995c38507e10b0eed09d115756c3f1072c5c4211f2d36a705145eed4db",
    "allowed": true,
    "vsize": 150,
    "fees": {
      "base": 0.00100000,
      "effective-feerate": 0.00666666,
      "effective-includes": [
        "91f7c9995c38507e10b0eed09d115756c3f1072c5c4211f2d36a705145eed4db"
      ]
    }
  }
]
-------------
Broadcasting Recovery Tx
-------------
Done
-------------
Generating Block to confirm Recovery Tx
-------------
Done
-------------
Recovery Tx Block ID:
-------------
3cc64ee862f922552a4923adae1c73546a1389cd75fa7f58e6bfcecff0fed39e
-------------
Confirmed Recovery Tx
-------------
{
  "in_active_chain": true,
  "txid": "52d7f2c25c2cbffac00198efbd90a222a9e7dc3ac2c144c89b137b5bd7f98299",
  "hash": "91f7c9995c38507e10b0eed09d115756c3f1072c5c4211f2d36a705145eed4db",
  "version": 2,
  "size": 351,
  "vsize": 150,
  "weight": 597,
  "locktime": 0,
  "vin": [
    {
      "txid": "3bd0fceb5e7dc0ee1c8f3ae19e774a0971aef091359625aa0155d02dc218d543",
      "vout": 0,
      "scriptSig": {
        "asm": "",
        "hex": ""
      },
      "txinwitness": [
        "3045022100af595e1e3e41be349ee069285984e7c864a2ac06937fa5f1bb5d42a791649867022032705a019157510b97fdf49cecae28d2f6c3e259f5a6ac2558a64386251104a801",
        "3044022043a818a0db2b8dda1daee166eb01a7549f59f29cf2050d86fd98ea53d22a124b022021c83370ffff0e00c100fbdec444d70106f8dbd4f148e89e0e8836c9687833eb01",
        "02",
        "02881302e8032103723da9a33a00f132e61345810f466cb1d77ec3206759fccf8c889855939fe1bd21027c3a7dacf7f2521e7fca940905bef6a3062c2dfa043091fa691276661a8c1e1554795287637b757b757b7500547a547a527152ae67547a6375777b7cadb2755167777b757b7cadb275516868"
      ],
      "sequence": 4294967293
    }
  ],
  "vout": [
    {
      "value": 49.99700000,
      "n": 0,
      "scriptPubKey": {
        "asm": "0 04f1f62e43bd9a5d3f1edd0fa033dc8b2bcb1892",
        "desc": "addr(bcrt1qqnclvtjrhkd960c7m586qv7u3v4ukxyj0jahpu)#mymmnhcr",
        "hex": "001404f1f62e43bd9a5d3f1edd0fa033dc8b2bcb1892",
        "address": "bcrt1qqnclvtjrhkd960c7m586qv7u3v4ukxyj0jahpu",
        "type": "witness_v0_keyhash"
      }
    }
  ],
  "hex": "0200000000010143d518c22dd05501aa25963591f0ae71094a779ee13a8f1ceec07d5eebfcd03b0000000000fdffffff01205e012a0100000016001404f1f62e43bd9a5d3f1edd0fa033dc8b2bcb189204483045022100af595e1e3e41be349ee069285984e7c864a2ac06937fa5f1bb5d42a791649867022032705a019157510b97fdf49cecae28d2f6c3e259f5a6ac2558a64386251104a801473044022043a818a0db2b8dda1daee166eb01a7549f59f29cf2050d86fd98ea53d22a124b022021c83370ffff0e00c100fbdec444d70106f8dbd4f148e89e0e8836c9687833eb0101027602881302e8032103723da9a33a00f132e61345810f466cb1d77ec3206759fccf8c889855939fe1bd21027c3a7dacf7f2521e7fca940905bef6a3062c2dfa043091fa691276661a8c1e1554795287637b757b757b7500547a547a527152ae67547a6375777b7cadb2755167777b757b7cadb27551686800000000",
  "blockhash": "3cc64ee862f922552a4923adae1c73546a1389cd75fa7f58e6bfcecff0fed39e",
  "confirmations": 1,
  "time": 1775560816,
  "blocktime": 1775560816
}
-------------
***Recovery Complete!***
-------------
Balance in Recovery Addresss (bcrt1qqnclvtjrhkd960c7m586qv7u3v4ukxyj0jahpu): 49.99700000 BTC
-------------
Stopping Bitcoind
-------------
Bitcoin Core stopping
-----------------
Check the source code and log here logs/SmartVault.Demo.sh.log for step wise details!
-----------------
