-------------
Stopping Bitcoind if it is already running
-------------
Done
-------------
Updating Bitcoind configuration
-------------
Done
-------------
Refreshing & Restarting Bitcoind
-------------
Bitcoin Core starting
Waiting for 5 secs for Bitcoin Demon to Initialize...
-------------
Bootstrapping the Sentinel (co-signer)
-------------
-------------
Generating Sentinel's Priv-Pub-Addr
-------------
Private Key: cR79UQjEiFEc1tGHpDS5EBbM5o7KTizNBGTJPEGfuSRbhEUDSQ3w
Public Key: 03faf3aa85844f0065c70c58b5ccf18e93bcd57c519d28db30413483888e20e07f
Address: bcrt1qsrnnskkstshtjesvcp030s4hpl0dkms0s9sm2p
-------------
Sentinel is ready!
Lets initialize your credentials...
-------------
Press any key to generate a key pair for you...
-------------
Generating User's Priv-Pub-Addr
-------------
Private Key: cVnMpJ874L9bNpn279vs53x5touGJTrvRz7hnghpkQVr5wQX5GWJ
Public Key: 03a481d0c97e3d59b0ac75d516d0edad31f0f1d77ff6cc98638c03ec89155857a0
Address: bcrt1qdz9d3hhncesmpnatq5zf3mreakhhftvvnkntqm
-------------
Generating blocks to bootstrap Bitcoin RegTest Blockchain
-------------
Done
Balance: 50.00000000
Press any key to start Hybrid Custody Vault setup...
-------------
Deposit Tx Redeem Script
-------------
2103faf3aa85844f0065c70c58b5ccf18e93bcd57c519d28db30413483888e20e07f2103a481d0c97e3d59b0ac75d516d0edad31f0f1d77ff6cc98638c03ec89155857a000547a547a527152ae
-------------
Checking Deposit Tx Redeem Script
-------------
{
  "asm": "03faf3aa85844f0065c70c58b5ccf18e93bcd57c519d28db30413483888e20e07f 03a481d0c97e3d59b0ac75d516d0edad31f0f1d77ff6cc98638c03ec89155857a0 0 4 OP_ROLL 4 OP_ROLL 2 OP_2ROT 2 OP_CHECKMULTISIG",
  "desc": "raw(2103faf3aa85844f0065c70c58b5ccf18e93bcd57c519d28db30413483888e20e07f2103a481d0c97e3d59b0ac75d516d0edad31f0f1d77ff6cc98638c03ec89155857a000547a547a527152ae)#m7fgng24",
  "type": "nonstandard",
  "p2sh": "2N9Jmp9KjFtmMisTT4yyhaGBPPJ72Q9yf4C",
  "segwit": {
    "asm": "0 af5e716eb0c0de658f330519ce954194604da7ec0320c59e910fb325b3ce66ea",
    "desc": "wsh(raw(2103faf3aa85844f0065c70c58b5ccf18e93bcd57c519d28db30413483888e20e07f2103a481d0c97e3d59b0ac75d516d0edad31f0f1d77ff6cc98638c03ec89155857a000547a547a527152ae))#z8h3utp3",
    "hex": "0020af5e716eb0c0de658f330519ce954194604da7ec0320c59e910fb325b3ce66ea",
    "address": "bcrt1q4a08zm4scr0xtrenq5vua92pj3symflvqvsvt853p7ejtv7wvm4qrdw0td",
    "type": "witness_v0_scripthash",
    "p2sh-segwit": "2N19sr555iFD3XxFQF7W4mPDmJanwTp3kgE"
  }
}
-------------
Deposit Tx - Script to Address
-------------
bcrt1q4a08zm4scr0xtrenq5vua92pj3symflvqvsvt853p7ejtv7wvm4qrdw0td
-------------
Creating Unsigned Deposit Tx
-------------
Done
-------------
Unsigned Deposit Tx
-------------
02000000016369c97a033117efe0337c0b07d48b51e151495f8419b30ba43a74d46b1df78d0000000000fdffffff01606b042a01000000220020af5e716eb0c0de658f330519ce954194604da7ec0320c59e910fb325b3ce66ea00000000
-------------
Checking Unsigned Deposit Tx
-------------
{
  "txid": "5d2bda4ecf0d766eb025d83bcc2dc21be0a53a9a293dab13537568bcd8bbcd8b",
  "hash": "5d2bda4ecf0d766eb025d83bcc2dc21be0a53a9a293dab13537568bcd8bbcd8b",
  "version": 2,
  "size": 94,
  "vsize": 94,
  "weight": 376,
  "locktime": 0,
  "vin": [
    {
      "txid": "8df71d6bd4743aa40bb319845f4951e1518bd4070b7c33e0ef1731037ac96963",
      "vout": 0,
      "scriptSig": {
        "asm": "",
        "hex": ""
      },
      "sequence": 4294967293
    }
  ],
  "vout": [
    {
      "value": 49.99900000,
      "n": 0,
      "scriptPubKey": {
        "asm": "0 af5e716eb0c0de658f330519ce954194604da7ec0320c59e910fb325b3ce66ea",
        "desc": "addr(bcrt1q4a08zm4scr0xtrenq5vua92pj3symflvqvsvt853p7ejtv7wvm4qrdw0td)#eqa4cw56",
        "hex": "0020af5e716eb0c0de658f330519ce954194604da7ec0320c59e910fb325b3ce66ea",
        "address": "bcrt1q4a08zm4scr0xtrenq5vua92pj3symflvqvsvt853p7ejtv7wvm4qrdw0td",
        "type": "witness_v0_scripthash"
      }
    }
  ]
}
-------------
Signing the Deposit Tx
-------------
Done
-------------
Signed Deposit Tx
-------------
020000000001016369c97a033117efe0337c0b07d48b51e151495f8419b30ba43a74d46b1df78d0000000000fdffffff01606b042a01000000220020af5e716eb0c0de658f330519ce954194604da7ec0320c59e910fb325b3ce66ea024730440220024bc27f2e373125afcd87c154e8956ab7e671d829b794d6bc982314ff5a6e64022005d5a063cfe7c13c28b3d89fd3a48ddd414b43fae07f6fec454d4b4565c02b30012103a481d0c97e3d59b0ac75d516d0edad31f0f1d77ff6cc98638c03ec89155857a000000000
-------------
Checking Signed Deposit Tx
-------------
{
  "txid": "5d2bda4ecf0d766eb025d83bcc2dc21be0a53a9a293dab13537568bcd8bbcd8b",
  "hash": "0dab118eb2617e5909eadbe48df37d9d655c8791400dca4299e836f0b11e5b61",
  "version": 2,
  "size": 203,
  "vsize": 122,
  "weight": 485,
  "locktime": 0,
  "vin": [
    {
      "txid": "8df71d6bd4743aa40bb319845f4951e1518bd4070b7c33e0ef1731037ac96963",
      "vout": 0,
      "scriptSig": {
        "asm": "",
        "hex": ""
      },
      "txinwitness": [
        "30440220024bc27f2e373125afcd87c154e8956ab7e671d829b794d6bc982314ff5a6e64022005d5a063cfe7c13c28b3d89fd3a48ddd414b43fae07f6fec454d4b4565c02b3001",
        "03a481d0c97e3d59b0ac75d516d0edad31f0f1d77ff6cc98638c03ec89155857a0"
      ],
      "sequence": 4294967293
    }
  ],
  "vout": [
    {
      "value": 49.99900000,
      "n": 0,
      "scriptPubKey": {
        "asm": "0 af5e716eb0c0de658f330519ce954194604da7ec0320c59e910fb325b3ce66ea",
        "desc": "addr(bcrt1q4a08zm4scr0xtrenq5vua92pj3symflvqvsvt853p7ejtv7wvm4qrdw0td)#eqa4cw56",
        "hex": "0020af5e716eb0c0de658f330519ce954194604da7ec0320c59e910fb325b3ce66ea",
        "address": "bcrt1q4a08zm4scr0xtrenq5vua92pj3symflvqvsvt853p7ejtv7wvm4qrdw0td",
        "type": "witness_v0_scripthash"
      }
    }
  ]
}
[H[2J[3J
-------------
Your Vault has a 2-step Unlock and Spend process to transfer from it
and there is a mandatory yet configureable delay enforced between these
Unlock and Spend Transactions for every private-key/combination allowed
to spend from this Vault.
-------------
Press any key to configure these delays and continue...
[H[2J[3J
-------------
Lets configure the on-chain delay / cooling period
for spending with your private-key from your Vault!

This will give you time to react and initiate recovery
when your private-key or wallet backup (seed phrase) is stolen
and is used to unlock your Vault.
-------------
Enter delay in blocks [Default: 1000]: Setting Option 1 (User Private-Key Only) Delay to 1000
Encoded bytes (hex): e803
[H[2J[3J
-------------
Now, lets configure the on-chain delay / cooling period
for spending with the Sentinel private-key from your Vault!

This is the delay your Sentinel has to wait before he can
transfer/recover from your Vault in case your private-key
is lost or for managing your inheritance.

PS: This is typically much longer than the previously set delay
and will give you time to react and override any spend attempt
by rogue Sentinels with just your private-key eliminating
counter-party risk from the Hybrid Custody System.
-------------
Enter delay in blocks [Default: 5000]: Setting Option 2 (Sentinel Private-Key Only) Delay to 5000
Encoded bytes (hex): 8813
-------------
Unlock Tx (Provisional Tx) Redeem Script
-------------
Hex: 02881302e8032103faf3aa85844f0065c70c58b5ccf18e93bcd57c519d28db30413483888e20e07f2103a481d0c97e3d59b0ac75d516d0edad31f0f1d77ff6cc98638c03ec89155857a054795287637b757b757b7500547a547a527152ae67547a6375777b7cadb2755167777b757b7cadb275516868
-------------
Checking Unlock Tx (Provisional Tx) Redeem Script
-------------
{
  "asm": "5000 1000 03faf3aa85844f0065c70c58b5ccf18e93bcd57c519d28db30413483888e20e07f 03a481d0c97e3d59b0ac75d516d0edad31f0f1d77ff6cc98638c03ec89155857a0 4 OP_PICK 2 OP_EQUAL OP_IF OP_ROT OP_DROP OP_ROT OP_DROP OP_ROT OP_DROP 0 4 OP_ROLL 4 OP_ROLL 2 OP_2ROT 2 OP_CHECKMULTISIG OP_ELSE 4 OP_ROLL OP_IF OP_DROP OP_NIP OP_ROT OP_SWAP OP_CHECKSIGVERIFY OP_CHECKSEQUENCEVERIFY OP_DROP 1 OP_ELSE OP_NIP OP_ROT OP_DROP OP_ROT OP_SWAP OP_CHECKSIGVERIFY OP_CHECKSEQUENCEVERIFY OP_DROP 1 OP_ENDIF OP_ENDIF",
  "desc": "raw(02881302e8032103faf3aa85844f0065c70c58b5ccf18e93bcd57c519d28db30413483888e20e07f2103a481d0c97e3d59b0ac75d516d0edad31f0f1d77ff6cc98638c03ec89155857a054795287637b757b757b7500547a547a527152ae67547a6375777b7cadb2755167777b757b7cadb275516868)#cu3uuh5c",
  "type": "nonstandard",
  "p2sh": "2Mycvfn4gW7K82UxWjxj5u6dWtL2sUaijaw",
  "segwit": {
    "asm": "0 626b404e9f2eee6ffb162b1cddcf2a83f9dd0fb1b5c232ae943363bf956337fe",
    "desc": "wsh(raw(02881302e8032103faf3aa85844f0065c70c58b5ccf18e93bcd57c519d28db30413483888e20e07f2103a481d0c97e3d59b0ac75d516d0edad31f0f1d77ff6cc98638c03ec89155857a054795287637b757b757b7500547a547a527152ae67547a6375777b7cadb2755167777b757b7cadb275516868))#u8uvzfzg",
    "hex": "0020626b404e9f2eee6ffb162b1cddcf2a83f9dd0fb1b5c232ae943363bf956337fe",
    "address": "bcrt1qvf45qn5l9mhxl7ck9vwdmne2s0ua6ra3khpr9t55xd3ml9trxllq6cxjlf",
    "type": "witness_v0_scripthash",
    "p2sh-segwit": "2MzwL6jKtAmBfjrC5vc4Lok6TfWkwzjatH2"
  }
}
-------------
Unlock Tx (Provisional Tx) - Script to Address
-------------
bcrt1qvf45qn5l9mhxl7ck9vwdmne2s0ua6ra3khpr9t55xd3ml9trxllq6cxjlf
-------------
Creating Unsigned Unlock Tx (Provisional Tx)
-------------
02000000018bcdbbd8bc68755313ab3d299a3aa5e01bc22dcc3bd825b06e760dcf4eda2b5d0000000000fdffffff01c0e4022a01000000220020626b404e9f2eee6ffb162b1cddcf2a83f9dd0fb1b5c232ae943363bf956337fe00000000
-------------
Checking Unsigned Unlock Tx Created by User
-------------
{
  "txid": "ce55266eb1fc52ddc62fdd420524c11ec15866b37d8ce51a0bf33c38134d5d3d",
  "hash": "ce55266eb1fc52ddc62fdd420524c11ec15866b37d8ce51a0bf33c38134d5d3d",
  "version": 2,
  "size": 94,
  "vsize": 94,
  "weight": 376,
  "locktime": 0,
  "vin": [
    {
      "txid": "5d2bda4ecf0d766eb025d83bcc2dc21be0a53a9a293dab13537568bcd8bbcd8b",
      "vout": 0,
      "scriptSig": {
        "asm": "",
        "hex": ""
      },
      "sequence": 4294967293
    }
  ],
  "vout": [
    {
      "value": 49.99800000,
      "n": 0,
      "scriptPubKey": {
        "asm": "0 626b404e9f2eee6ffb162b1cddcf2a83f9dd0fb1b5c232ae943363bf956337fe",
        "desc": "addr(bcrt1qvf45qn5l9mhxl7ck9vwdmne2s0ua6ra3khpr9t55xd3ml9trxllq6cxjlf)#y90k9x4x",
        "hex": "0020626b404e9f2eee6ffb162b1cddcf2a83f9dd0fb1b5c232ae943363bf956337fe",
        "address": "bcrt1qvf45qn5l9mhxl7ck9vwdmne2s0ua6ra3khpr9t55xd3ml9trxllq6cxjlf",
        "type": "witness_v0_scripthash"
      }
    }
  ]
}
-------------
Simulating the transfer of Unsigned Unlock Tx (Provisional Tx) copy
to Sentinel!
-------------
[U] --> Unsigned Unlock Tx (Provisional Tx) --> [S]
-------------
Sentinel signs the Unsigned Unlock Tx (Provisional Tx)
with his Private Key
-------------
Original Tx:
{
    "ins": [
        {
            "tx_hash": "5d2bda4ecf0d766eb025d83bcc2dc21be0a53a9a293dab13537568bcd8bbcd8b",
            "tx_pos": 0,
            "script": "",
            "sequence": 4294967293,
            "value": 4999900000
        }
    ],
    "outs": [
        {
            "value": 4999800000,
            "script": "0020626b404e9f2eee6ffb162b1cddcf2a83f9dd0fb1b5c232ae943363bf956337fe"
        }
    ],
    "version": 2,
    "locktime": 0
}
Signature:
3045022100ee304674195597cb925f7dfe7daa3e6aacb41b2f90138815d8a3f70b6c4287e5022072045581d68f31dd3a9a7573e49bb650064c247f0e7125fe5fc0528afc454ada01
-------------
Unlock Tx (Provisional Tx) - Sentinel's Signature
-------------
3045022100ee304674195597cb925f7dfe7daa3e6aacb41b2f90138815d8a3f70b6c4287e5022072045581d68f31dd3a9a7573e49bb650064c247f0e7125fe5fc0528afc454ada01
-------------
Simulating the transfer of Partially Signed Unlock Tx (Provisional Tx)
to User!
-------------
[S] --> Partially Signed Unlock Tx (Provisional Tx) --> [U]
-------------
User signs the Unsigned Unlock Tx (Provisional Tx)
with his Private Key
-------------
Original Tx:
{
    "ins": [
        {
            "tx_hash": "5d2bda4ecf0d766eb025d83bcc2dc21be0a53a9a293dab13537568bcd8bbcd8b",
            "tx_pos": 0,
            "script": "",
            "sequence": 4294967293,
            "value": 4999900000
        }
    ],
    "outs": [
        {
            "value": 4999800000,
            "script": "0020626b404e9f2eee6ffb162b1cddcf2a83f9dd0fb1b5c232ae943363bf956337fe"
        }
    ],
    "version": 2,
    "locktime": 0
}
Signature:
3045022100f270054275fed8efec2a13dd1fb923fb15f5189b96e8377e4ba527ba501cfd5f02206ad2f68553db573f8c3f964264f7660f17ef8184caab5d8871b7a2abc98d8d1801
-------------
Unlock Tx (Provisional Tx) - User Signature
-------------
3045022100f270054275fed8efec2a13dd1fb923fb15f5189b96e8377e4ba527ba501cfd5f02206ad2f68553db573f8c3f964264f7660f17ef8184caab5d8871b7a2abc98d8d1801
-------------
Simulating the transfer of Partially Signed Unlock Tx (Provisional Tx) copy
to Sentinel!
-------------
[U] --> Partially Signed Provisional Tx --> [S]
-------------
User signs & broadcasts the Deposit Tx
after receiving the Partially signed Unlock Tx (Provisional Tx)
-------------
5d2bda4ecf0d766eb025d83bcc2dc21be0a53a9a293dab13537568bcd8bbcd8b
Done
-------------
Generating Block to confirm the Deposit Tx
-------------
Deposit Tx Block: 61f5aa5f62a24c41466d9e13d20b41793d20f950f39b4fa726e03b2553af87e5
-------------
Confirmed Deposit Tx
-------------
{
  "in_active_chain": true,
  "txid": "5d2bda4ecf0d766eb025d83bcc2dc21be0a53a9a293dab13537568bcd8bbcd8b",
  "hash": "0dab118eb2617e5909eadbe48df37d9d655c8791400dca4299e836f0b11e5b61",
  "version": 2,
  "size": 203,
  "vsize": 122,
  "weight": 485,
  "locktime": 0,
  "vin": [
    {
      "txid": "8df71d6bd4743aa40bb319845f4951e1518bd4070b7c33e0ef1731037ac96963",
      "vout": 0,
      "scriptSig": {
        "asm": "",
        "hex": ""
      },
      "txinwitness": [
        "30440220024bc27f2e373125afcd87c154e8956ab7e671d829b794d6bc982314ff5a6e64022005d5a063cfe7c13c28b3d89fd3a48ddd414b43fae07f6fec454d4b4565c02b3001",
        "03a481d0c97e3d59b0ac75d516d0edad31f0f1d77ff6cc98638c03ec89155857a0"
      ],
      "sequence": 4294967293
    }
  ],
  "vout": [
    {
      "value": 49.99900000,
      "n": 0,
      "scriptPubKey": {
        "asm": "0 af5e716eb0c0de658f330519ce954194604da7ec0320c59e910fb325b3ce66ea",
        "desc": "addr(bcrt1q4a08zm4scr0xtrenq5vua92pj3symflvqvsvt853p7ejtv7wvm4qrdw0td)#eqa4cw56",
        "hex": "0020af5e716eb0c0de658f330519ce954194604da7ec0320c59e910fb325b3ce66ea",
        "address": "bcrt1q4a08zm4scr0xtrenq5vua92pj3symflvqvsvt853p7ejtv7wvm4qrdw0td",
        "type": "witness_v0_scripthash"
      }
    }
  ],
  "hex": "020000000001016369c97a033117efe0337c0b07d48b51e151495f8419b30ba43a74d46b1df78d0000000000fdffffff01606b042a01000000220020af5e716eb0c0de658f330519ce954194604da7ec0320c59e910fb325b3ce66ea024730440220024bc27f2e373125afcd87c154e8956ab7e671d829b794d6bc982314ff5a6e64022005d5a063cfe7c13c28b3d89fd3a48ddd414b43fae07f6fec454d4b4565c02b30012103a481d0c97e3d59b0ac75d516d0edad31f0f1d77ff6cc98638c03ec89155857a000000000",
  "blockhash": "61f5aa5f62a24c41466d9e13d20b41793d20f950f39b4fa726e03b2553af87e5",
  "confirmations": 1,
  "time": 1775489359,
  "blocktime": 1775489359
}
[H[2J[3J
-------------
***Smart Vault Setup Complete!***
-------------
You are now assured of your
Bitcoin's safety and security
as your Bitcoin is now in Joint Custody and
rest everything is managed using the
Partially Signed Unlock Txs (Provisional Txs)
with you and Sentinel after the Smart Vault setup!
-------------
Press any key to continue...
-------------
Initiating Vault termination(spend).
Baseline self-custody mechanics!
(Requires only User's private-key)
-------------
Press any key to start unlock and spend...
-------------
User signs the Partially Signed
Unlock Tx (Provisional Tx) received from Sentinel
with his Private Key
-------------
-------------
User's Private Key Generated Signature for Unlock Tx (Provisional Tx):
-------------
3045022100f270054275fed8efec2a13dd1fb923fb15f5189b96e8377e4ba527ba501cfd5f02206ad2f68553db573f8c3f964264f7660f17ef8184caab5d8871b7a2abc98d8d1801
-------------
Fully Signed Unlock Tx (Provisional Tx) :
-------------
Unsigned Tx
{
    "ins": [
        {
            "tx_hash": "5d2bda4ecf0d766eb025d83bcc2dc21be0a53a9a293dab13537568bcd8bbcd8b",
            "tx_pos": 0,
            "script": "",
            "sequence": 4294967293
        }
    ],
    "outs": [
        {
            "value": 4999800000,
            "script": "0020626b404e9f2eee6ffb162b1cddcf2a83f9dd0fb1b5c232ae943363bf956337fe"
        }
    ],
    "version": 2,
    "locktime": 0
}
Signed Tx
{
    "ins": [
        {
            "tx_hash": "5d2bda4ecf0d766eb025d83bcc2dc21be0a53a9a293dab13537568bcd8bbcd8b",
            "tx_pos": 0,
            "script": "",
            "sequence": 4294967293
        }
    ],
    "outs": [
        {
            "value": 4999800000,
            "script": "0020626b404e9f2eee6ffb162b1cddcf2a83f9dd0fb1b5c232ae943363bf956337fe"
        }
    ],
    "version": 2,
    "locktime": 0,
    "witness": [
        {
            "number": 3,
            "scriptCode": "483045022100ee304674195597cb925f7dfe7daa3e6aacb41b2f90138815d8a3f70b6c4287e5022072045581d68f31dd3a9a7573e49bb650064c247f0e7125fe5fc0528afc454ada01483045022100f270054275fed8efec2a13dd1fb923fb15f5189b96e8377e4ba527ba501cfd5f02206ad2f68553db573f8c3f964264f7660f17ef8184caab5d8871b7a2abc98d8d18014d2103faf3aa85844f0065c70c58b5ccf18e93bcd57c519d28db30413483888e20e07f2103a481d0c97e3d59b0ac75d516d0edad31f0f1d77ff6cc98638c03ec89155857a000547a547a527152ae"
        }
    ],
    "marker": 0,
    "flag": 1
}
020000000001018bcdbbd8bc68755313ab3d299a3aa5e01bc22dcc3bd825b06e760dcf4eda2b5d0000000000fdffffff01c0e4022a01000000220020626b404e9f2eee6ffb162b1cddcf2a83f9dd0fb1b5c232ae943363bf956337fe03483045022100ee304674195597cb925f7dfe7daa3e6aacb41b2f90138815d8a3f70b6c4287e5022072045581d68f31dd3a9a7573e49bb650064c247f0e7125fe5fc0528afc454ada01483045022100f270054275fed8efec2a13dd1fb923fb15f5189b96e8377e4ba527ba501cfd5f02206ad2f68553db573f8c3f964264f7660f17ef8184caab5d8871b7a2abc98d8d18014d2103faf3aa85844f0065c70c58b5ccf18e93bcd57c519d28db30413483888e20e07f2103a481d0c97e3d59b0ac75d516d0edad31f0f1d77ff6cc98638c03ec89155857a000547a547a527152ae00000000
-------------
Checking Fully Signed Unlock Tx (Provisional Tx) :
-------------
{
  "txid": "ce55266eb1fc52ddc62fdd420524c11ec15866b37d8ce51a0bf33c38134d5d3d",
  "hash": "31b2590b70e20d4f07988cd180c989fe99a8fe4470f16116eae138313614e1df",
  "version": 2,
  "size": 321,
  "vsize": 151,
  "weight": 603,
  "locktime": 0,
  "vin": [
    {
      "txid": "5d2bda4ecf0d766eb025d83bcc2dc21be0a53a9a293dab13537568bcd8bbcd8b",
      "vout": 0,
      "scriptSig": {
        "asm": "",
        "hex": ""
      },
      "txinwitness": [
        "3045022100ee304674195597cb925f7dfe7daa3e6aacb41b2f90138815d8a3f70b6c4287e5022072045581d68f31dd3a9a7573e49bb650064c247f0e7125fe5fc0528afc454ada01",
        "3045022100f270054275fed8efec2a13dd1fb923fb15f5189b96e8377e4ba527ba501cfd5f02206ad2f68553db573f8c3f964264f7660f17ef8184caab5d8871b7a2abc98d8d1801",
        "2103faf3aa85844f0065c70c58b5ccf18e93bcd57c519d28db30413483888e20e07f2103a481d0c97e3d59b0ac75d516d0edad31f0f1d77ff6cc98638c03ec89155857a000547a547a527152ae"
      ],
      "sequence": 4294967293
    }
  ],
  "vout": [
    {
      "value": 49.99800000,
      "n": 0,
      "scriptPubKey": {
        "asm": "0 626b404e9f2eee6ffb162b1cddcf2a83f9dd0fb1b5c232ae943363bf956337fe",
        "desc": "addr(bcrt1qvf45qn5l9mhxl7ck9vwdmne2s0ua6ra3khpr9t55xd3ml9trxllq6cxjlf)#y90k9x4x",
        "hex": "0020626b404e9f2eee6ffb162b1cddcf2a83f9dd0fb1b5c232ae943363bf956337fe",
        "address": "bcrt1qvf45qn5l9mhxl7ck9vwdmne2s0ua6ra3khpr9t55xd3ml9trxllq6cxjlf",
        "type": "witness_v0_scripthash"
      }
    }
  ]
}
-------------
Vaildate Fully Signed Unlock Tx (Provisional Tx)
-------------
[
  {
    "txid": "ce55266eb1fc52ddc62fdd420524c11ec15866b37d8ce51a0bf33c38134d5d3d",
    "wtxid": "31b2590b70e20d4f07988cd180c989fe99a8fe4470f16116eae138313614e1df",
    "allowed": true,
    "vsize": 151,
    "fees": {
      "base": 0.00100000,
      "effective-feerate": 0.00662251,
      "effective-includes": [
        "31b2590b70e20d4f07988cd180c989fe99a8fe4470f16116eae138313614e1df"
      ]
    }
  }
]
-------------
Broadcast Fully Signed Unlock Tx (Provisional Tx)
-------------
Done
-------------
Generating Block to confirm Unlock Tx (Provisional Tx)
-------------
Done
-------------
Unlock Tx (Provisional Tx) Block:
-------------
75b88d4b78c7f05ba8e4deb03b5c0ec9b85d4849922f22bebf1305210077278b
-------------
Confirmed Unlock Tx (Provisional Tx)
-------------
{
  "in_active_chain": true,
  "txid": "ce55266eb1fc52ddc62fdd420524c11ec15866b37d8ce51a0bf33c38134d5d3d",
  "hash": "31b2590b70e20d4f07988cd180c989fe99a8fe4470f16116eae138313614e1df",
  "version": 2,
  "size": 321,
  "vsize": 151,
  "weight": 603,
  "locktime": 0,
  "vin": [
    {
      "txid": "5d2bda4ecf0d766eb025d83bcc2dc21be0a53a9a293dab13537568bcd8bbcd8b",
      "vout": 0,
      "scriptSig": {
        "asm": "",
        "hex": ""
      },
      "txinwitness": [
        "3045022100ee304674195597cb925f7dfe7daa3e6aacb41b2f90138815d8a3f70b6c4287e5022072045581d68f31dd3a9a7573e49bb650064c247f0e7125fe5fc0528afc454ada01",
        "3045022100f270054275fed8efec2a13dd1fb923fb15f5189b96e8377e4ba527ba501cfd5f02206ad2f68553db573f8c3f964264f7660f17ef8184caab5d8871b7a2abc98d8d1801",
        "2103faf3aa85844f0065c70c58b5ccf18e93bcd57c519d28db30413483888e20e07f2103a481d0c97e3d59b0ac75d516d0edad31f0f1d77ff6cc98638c03ec89155857a000547a547a527152ae"
      ],
      "sequence": 4294967293
    }
  ],
  "vout": [
    {
      "value": 49.99800000,
      "n": 0,
      "scriptPubKey": {
        "asm": "0 626b404e9f2eee6ffb162b1cddcf2a83f9dd0fb1b5c232ae943363bf956337fe",
        "desc": "addr(bcrt1qvf45qn5l9mhxl7ck9vwdmne2s0ua6ra3khpr9t55xd3ml9trxllq6cxjlf)#y90k9x4x",
        "hex": "0020626b404e9f2eee6ffb162b1cddcf2a83f9dd0fb1b5c232ae943363bf956337fe",
        "address": "bcrt1qvf45qn5l9mhxl7ck9vwdmne2s0ua6ra3khpr9t55xd3ml9trxllq6cxjlf",
        "type": "witness_v0_scripthash"
      }
    }
  ],
  "hex": "020000000001018bcdbbd8bc68755313ab3d299a3aa5e01bc22dcc3bd825b06e760dcf4eda2b5d0000000000fdffffff01c0e4022a01000000220020626b404e9f2eee6ffb162b1cddcf2a83f9dd0fb1b5c232ae943363bf956337fe03483045022100ee304674195597cb925f7dfe7daa3e6aacb41b2f90138815d8a3f70b6c4287e5022072045581d68f31dd3a9a7573e49bb650064c247f0e7125fe5fc0528afc454ada01483045022100f270054275fed8efec2a13dd1fb923fb15f5189b96e8377e4ba527ba501cfd5f02206ad2f68553db573f8c3f964264f7660f17ef8184caab5d8871b7a2abc98d8d18014d2103faf3aa85844f0065c70c58b5ccf18e93bcd57c519d28db30413483888e20e07f2103a481d0c97e3d59b0ac75d516d0edad31f0f1d77ff6cc98638c03ec89155857a000547a547a527152ae00000000",
  "blockhash": "75b88d4b78c7f05ba8e4deb03b5c0ec9b85d4849922f22bebf1305210077278b",
  "confirmations": 1,
  "time": 1775489371,
  "blocktime": 1775489371
}
-------------
Simulating Spend by User using
*** Option 1 *** of Unlock Tx (Provisional Tx)
(Using just User Private Key)
-------------
Spend Process - Start
-------------
Create the Spend Tx
-------------
Please enter the Bitcoin destination address.
Address [Default: bcrt1qzzawujhll5uakw474cuj0vrdzw5aueqxpul3sn]: Proceeding with address: bcrt1qzzawujhll5uakw474cuj0vrdzw5aueqxpul3sn
Done
-------------
Unsigned Spend Tx
-------------
02000000013d5d4d13383cf30b1ae58c7db36658c11ec1240542dd2fc6dd52fcb16e2655ce0000000000e803000001205e012a0100000016001410baee4afffd39db3abeae3927b06d13a9de640600000000
-------------
Checking Unsigned Spend Tx
-------------
{
  "txid": "1254fd6992e91e3987e2f3d73e82d6762e78264e053ba5372fe3e8bc6f4787fa",
  "hash": "1254fd6992e91e3987e2f3d73e82d6762e78264e053ba5372fe3e8bc6f4787fa",
  "version": 2,
  "size": 82,
  "vsize": 82,
  "weight": 328,
  "locktime": 0,
  "vin": [
    {
      "txid": "ce55266eb1fc52ddc62fdd420524c11ec15866b37d8ce51a0bf33c38134d5d3d",
      "vout": 0,
      "scriptSig": {
        "asm": "",
        "hex": ""
      },
      "sequence": 1000
    }
  ],
  "vout": [
    {
      "value": 49.99700000,
      "n": 0,
      "scriptPubKey": {
        "asm": "0 10baee4afffd39db3abeae3927b06d13a9de6406",
        "desc": "addr(bcrt1qzzawujhll5uakw474cuj0vrdzw5aueqxpul3sn)#r7tnuznn",
        "hex": "001410baee4afffd39db3abeae3927b06d13a9de6406",
        "address": "bcrt1qzzawujhll5uakw474cuj0vrdzw5aueqxpul3sn",
        "type": "witness_v0_keyhash"
      }
    }
  ]
}
-------------
User Signs the Spend Tx
-------------
Original Tx:
{
    "ins": [
        {
            "tx_hash": "ce55266eb1fc52ddc62fdd420524c11ec15866b37d8ce51a0bf33c38134d5d3d",
            "tx_pos": 0,
            "script": "",
            "sequence": 1000,
            "value": 4999800000
        }
    ],
    "outs": [
        {
            "value": 4999700000,
            "script": "001410baee4afffd39db3abeae3927b06d13a9de6406"
        }
    ],
    "version": 2,
    "locktime": 0
}
Signature:
304502210097ef9ca31dad47f2fc9eb6f37859a8a2d97def91df8eecb18d95e5f8bdef662e02204fdb61b4630f1fb87b1239729e7636c1aad5d450fe97990d19b094ce494b155801
-------------
Spend Tx - User's Signature
-------------
304502210097ef9ca31dad47f2fc9eb6f37859a8a2d97def91df8eecb18d95e5f8bdef662e02204fdb61b4630f1fb87b1239729e7636c1aad5d450fe97990d19b094ce494b155801
-------------
Fully Signed Spend Tx:
-------------
Unsigned Tx
{
    "ins": [
        {
            "tx_hash": "ce55266eb1fc52ddc62fdd420524c11ec15866b37d8ce51a0bf33c38134d5d3d",
            "tx_pos": 0,
            "script": "",
            "sequence": 1000
        }
    ],
    "outs": [
        {
            "value": 4999700000,
            "script": "001410baee4afffd39db3abeae3927b06d13a9de6406"
        }
    ],
    "version": 2,
    "locktime": 0
}
Signed Tx
{
    "ins": [
        {
            "tx_hash": "ce55266eb1fc52ddc62fdd420524c11ec15866b37d8ce51a0bf33c38134d5d3d",
            "tx_pos": 0,
            "script": "",
            "sequence": 1000
        }
    ],
    "outs": [
        {
            "value": 4999700000,
            "script": "001410baee4afffd39db3abeae3927b06d13a9de6406"
        }
    ],
    "version": 2,
    "locktime": 0,
    "witness": [
        {
            "number": 3,
            "scriptCode": "48304502210097ef9ca31dad47f2fc9eb6f37859a8a2d97def91df8eecb18d95e5f8bdef662e02204fdb61b4630f1fb87b1239729e7636c1aad5d450fe97990d19b094ce494b155801007602881302e8032103faf3aa85844f0065c70c58b5ccf18e93bcd57c519d28db30413483888e20e07f2103a481d0c97e3d59b0ac75d516d0edad31f0f1d77ff6cc98638c03ec89155857a054795287637b757b757b7500547a547a527152ae67547a6375777b7cadb2755167777b757b7cadb275516868"
        }
    ],
    "marker": 0,
    "flag": 1
}
020000000001013d5d4d13383cf30b1ae58c7db36658c11ec1240542dd2fc6dd52fcb16e2655ce0000000000e803000001205e012a0100000016001410baee4afffd39db3abeae3927b06d13a9de64060348304502210097ef9ca31dad47f2fc9eb6f37859a8a2d97def91df8eecb18d95e5f8bdef662e02204fdb61b4630f1fb87b1239729e7636c1aad5d450fe97990d19b094ce494b155801007602881302e8032103faf3aa85844f0065c70c58b5ccf18e93bcd57c519d28db30413483888e20e07f2103a481d0c97e3d59b0ac75d516d0edad31f0f1d77ff6cc98638c03ec89155857a054795287637b757b757b7500547a547a527152ae67547a6375777b7cadb2755167777b757b7cadb27551686800000000
-------------
Checking Fully Signed Spend Tx:
-------------
{
  "txid": "1254fd6992e91e3987e2f3d73e82d6762e78264e053ba5372fe3e8bc6f4787fa",
  "hash": "b951fe7453f1fb7ec2cc05698858458b79908264d6a0ac87e76674319605d516",
  "version": 2,
  "size": 278,
  "vsize": 131,
  "weight": 524,
  "locktime": 0,
  "vin": [
    {
      "txid": "ce55266eb1fc52ddc62fdd420524c11ec15866b37d8ce51a0bf33c38134d5d3d",
      "vout": 0,
      "scriptSig": {
        "asm": "",
        "hex": ""
      },
      "txinwitness": [
        "304502210097ef9ca31dad47f2fc9eb6f37859a8a2d97def91df8eecb18d95e5f8bdef662e02204fdb61b4630f1fb87b1239729e7636c1aad5d450fe97990d19b094ce494b155801",
        "",
        "02881302e8032103faf3aa85844f0065c70c58b5ccf18e93bcd57c519d28db30413483888e20e07f2103a481d0c97e3d59b0ac75d516d0edad31f0f1d77ff6cc98638c03ec89155857a054795287637b757b757b7500547a547a527152ae67547a6375777b7cadb2755167777b757b7cadb275516868"
      ],
      "sequence": 1000
    }
  ],
  "vout": [
    {
      "value": 49.99700000,
      "n": 0,
      "scriptPubKey": {
        "asm": "0 10baee4afffd39db3abeae3927b06d13a9de6406",
        "desc": "addr(bcrt1qzzawujhll5uakw474cuj0vrdzw5aueqxpul3sn)#r7tnuznn",
        "hex": "001410baee4afffd39db3abeae3927b06d13a9de6406",
        "address": "bcrt1qzzawujhll5uakw474cuj0vrdzw5aueqxpul3sn",
        "type": "witness_v0_keyhash"
      }
    }
  ]
}
-------------
Creating Blocks to satisfy Timelocks
-------------
Done
-------------
Vaildating Spend Tx
-------------
[
  {
    "txid": "1254fd6992e91e3987e2f3d73e82d6762e78264e053ba5372fe3e8bc6f4787fa",
    "wtxid": "b951fe7453f1fb7ec2cc05698858458b79908264d6a0ac87e76674319605d516",
    "allowed": true,
    "vsize": 131,
    "fees": {
      "base": 0.00100000,
      "effective-feerate": 0.00763358,
      "effective-includes": [
        "b951fe7453f1fb7ec2cc05698858458b79908264d6a0ac87e76674319605d516"
      ]
    }
  }
]
-------------
Broadcasting Spend Tx
-------------
Done
-------------
Generating Block to confirm Spend Tx
-------------
Done
-------------
Spend Tx Block ID:
-------------
1017d51369cf279e595fedd299f779f4c513a7e99dd969730208955f62bcbadb
-------------
Confirmed Spend Tx
-------------
{
  "in_active_chain": true,
  "txid": "1254fd6992e91e3987e2f3d73e82d6762e78264e053ba5372fe3e8bc6f4787fa",
  "hash": "b951fe7453f1fb7ec2cc05698858458b79908264d6a0ac87e76674319605d516",
  "version": 2,
  "size": 278,
  "vsize": 131,
  "weight": 524,
  "locktime": 0,
  "vin": [
    {
      "txid": "ce55266eb1fc52ddc62fdd420524c11ec15866b37d8ce51a0bf33c38134d5d3d",
      "vout": 0,
      "scriptSig": {
        "asm": "",
        "hex": ""
      },
      "txinwitness": [
        "304502210097ef9ca31dad47f2fc9eb6f37859a8a2d97def91df8eecb18d95e5f8bdef662e02204fdb61b4630f1fb87b1239729e7636c1aad5d450fe97990d19b094ce494b155801",
        "",
        "02881302e8032103faf3aa85844f0065c70c58b5ccf18e93bcd57c519d28db30413483888e20e07f2103a481d0c97e3d59b0ac75d516d0edad31f0f1d77ff6cc98638c03ec89155857a054795287637b757b757b7500547a547a527152ae67547a6375777b7cadb2755167777b757b7cadb275516868"
      ],
      "sequence": 1000
    }
  ],
  "vout": [
    {
      "value": 49.99700000,
      "n": 0,
      "scriptPubKey": {
        "asm": "0 10baee4afffd39db3abeae3927b06d13a9de6406",
        "desc": "addr(bcrt1qzzawujhll5uakw474cuj0vrdzw5aueqxpul3sn)#r7tnuznn",
        "hex": "001410baee4afffd39db3abeae3927b06d13a9de6406",
        "address": "bcrt1qzzawujhll5uakw474cuj0vrdzw5aueqxpul3sn",
        "type": "witness_v0_keyhash"
      }
    }
  ],
  "hex": "020000000001013d5d4d13383cf30b1ae58c7db36658c11ec1240542dd2fc6dd52fcb16e2655ce0000000000e803000001205e012a0100000016001410baee4afffd39db3abeae3927b06d13a9de64060348304502210097ef9ca31dad47f2fc9eb6f37859a8a2d97def91df8eecb18d95e5f8bdef662e02204fdb61b4630f1fb87b1239729e7636c1aad5d450fe97990d19b094ce494b155801007602881302e8032103faf3aa85844f0065c70c58b5ccf18e93bcd57c519d28db30413483888e20e07f2103a481d0c97e3d59b0ac75d516d0edad31f0f1d77ff6cc98638c03ec89155857a054795287637b757b757b7500547a547a527152ae67547a6375777b7cadb2755167777b757b7cadb27551686800000000",
  "blockhash": "1017d51369cf279e595fedd299f779f4c513a7e99dd969730208955f62bcbadb",
  "confirmations": 1,
  "time": 1775489539,
  "blocktime": 1775489539
}
-------------
*** Spend/Transfer Complete! ***
-------------
Balance in bcrt1qzzawujhll5uakw474cuj0vrdzw5aueqxpul3sn: 49.99700000
-------------
Stopping Bitcoind
-------------
Bitcoin Core stopping
