-------------
Stopping Bitcoind if it is already running
-------------
Done
-------------
Updating Bitcoind configuration
-------------
Done
-------------
Refreshing & Restarting Bitcoind
-------------
Bitcoin Core starting
Waiting for 5 secs for Bitcoin Demon to Initialize...
[H[2J[3J
-------------
Bootstrapping Sentinels (co-signers)
-------------
-------------
Generating Sentinel 1: TrustMax's Credentials
-------------
TrustMax's Public Key: 037a7b8ec8845ebb79f5d34f59f9a506331585c625cb071cbcc94295b3e7a38397
TrustMax's Address: bcrt1qvqu0aysszusnkgpf90jn2rt4dpu9ehxzf6wfww
-------------
Generating Sentinel 2: BlueOrion's Credentials
-------------
BlueOrion's Public Key: 03916e50994a0941f680223f5acb1e77883fffe9a3d67db30bb9e6b539a94c5143
BlueOrion's Address: bcrt1q62nml384wz6cxz3nylwf7qc30j4t9key034sgv
-------------
Generating Sentinel 3: EuroCrypt's Credentials
-------------
EuroCrypt's Public Key: 036673bf12b46caa1124fd29827d2faca1bfb1ef97f6bf86a3ff2c28583651b08d
EuroCrypt's Address: bcrt1qdyuac2sx4d52n708y9zzptpjtgudxfg5xjfnkg
-------------
Sentinels are ready!
Lets initialize your credentials...
-------------
Press any key to generate a key pair for you...
[H[2J[3J
-------------
Generating User's Priv-Pub-Addr
-------------
Private Key: cQYmP9m7TDPXaq9MMSH6XeYrjuosccw8G5DVFR6a223XvPy3bqB9
Public Key: 03c7217bdc61c7e813e131a2f1c681876d441abec8349ab1675c3864bceb37a812
Address: bcrt1q6ptclsv6rrtxup2c3zmaqwve2a9lmkfzq8zkrr
-------------
Press any key to continue...
-------------
Generating blocks to bootstrap Bitcoin RegTest Blockchain
-------------
Done
[H[2J[3J
Balance: 50.00000000 BTC
Press any key to start Hybrid Custody Vault setup...
-------------
Choose your Sentinel:
-------------
1) TrustMax • Rating: 4.0 ★ • Avg. Response Time: 42 mins
2) BlueOrion • Rating: 5.0 ★ • Avg. Response Time: 23 mins
3) EuroCrypt • Rating: 4.5 ★ • Avg. Response Time: 34 mins
-------------
Select [1-3] (Default: 1): [H[2J[3J
-------------
Selected Sentinel: TrustMax • Rating: 4.0 ★ • Avg. Response Time: 42 mins
-------------
Press any key to continue...
-------------
Deposit Tx Redeem Script
-------------
21037a7b8ec8845ebb79f5d34f59f9a506331585c625cb071cbcc94295b3e7a383972103c7217bdc61c7e813e131a2f1c681876d441abec8349ab1675c3864bceb37a81200547a547a527152ae
-------------
Checking Deposit Tx Redeem Script
-------------
{
  "asm": "037a7b8ec8845ebb79f5d34f59f9a506331585c625cb071cbcc94295b3e7a38397 03c7217bdc61c7e813e131a2f1c681876d441abec8349ab1675c3864bceb37a812 0 4 OP_ROLL 4 OP_ROLL 2 OP_2ROT 2 OP_CHECKMULTISIG",
  "desc": "raw(21037a7b8ec8845ebb79f5d34f59f9a506331585c625cb071cbcc94295b3e7a383972103c7217bdc61c7e813e131a2f1c681876d441abec8349ab1675c3864bceb37a81200547a547a527152ae)#83ykk0eh",
  "type": "nonstandard",
  "p2sh": "2NFwoxaWjmoFwfQMzParyfGXiyRghXRr8q8",
  "segwit": {
    "asm": "0 4e4b385fa8c8a5cf679324a5cb24d4923d6a89204d817fee2f035e5cb8c97bf7",
    "desc": "wsh(raw(21037a7b8ec8845ebb79f5d34f59f9a506331585c625cb071cbcc94295b3e7a383972103c7217bdc61c7e813e131a2f1c681876d441abec8349ab1675c3864bceb37a81200547a547a527152ae))#p5lptmvq",
    "hex": "00204e4b385fa8c8a5cf679324a5cb24d4923d6a89204d817fee2f035e5cb8c97bf7",
    "address": "bcrt1qfe9nshagezju7eunyjjukfx5jg7k4zfqfkqhlm30qd09ewxf00msrsfay7",
    "type": "witness_v0_scripthash",
    "p2sh-segwit": "2N6nScNesmgnVHY4SPX1DmSBxvuxQhmQpLK"
  }
}
-------------
Deposit Tx - Script to Address
-------------
bcrt1qfe9nshagezju7eunyjjukfx5jg7k4zfqfkqhlm30qd09ewxf00msrsfay7
-------------
Creating Unsigned Deposit Tx
-------------
Done
-------------
Unsigned Deposit Tx
-------------
0200000001dfe69b34c3dfebe4fee0b2a04f9c6fbe0bbc0ba0636935de070902c7723b7cdc0000000000fdffffff01606b042a010000002200204e4b385fa8c8a5cf679324a5cb24d4923d6a89204d817fee2f035e5cb8c97bf700000000
-------------
Checking Unsigned Deposit Tx
-------------
{
  "txid": "db4c31455cbaafb38ef04141b99a01a24e058b9f9ea61c83d96534eddb19c959",
  "hash": "db4c31455cbaafb38ef04141b99a01a24e058b9f9ea61c83d96534eddb19c959",
  "version": 2,
  "size": 94,
  "vsize": 94,
  "weight": 376,
  "locktime": 0,
  "vin": [
    {
      "txid": "dc7c3b72c7020907de356963a00bbc0bbe6f9c4fa0b2e0fee4ebdfc3349be6df",
      "vout": 0,
      "scriptSig": {
        "asm": "",
        "hex": ""
      },
      "sequence": 4294967293
    }
  ],
  "vout": [
    {
      "value": 49.99900000,
      "n": 0,
      "scriptPubKey": {
        "asm": "0 4e4b385fa8c8a5cf679324a5cb24d4923d6a89204d817fee2f035e5cb8c97bf7",
        "desc": "addr(bcrt1qfe9nshagezju7eunyjjukfx5jg7k4zfqfkqhlm30qd09ewxf00msrsfay7)#kek6khf0",
        "hex": "00204e4b385fa8c8a5cf679324a5cb24d4923d6a89204d817fee2f035e5cb8c97bf7",
        "address": "bcrt1qfe9nshagezju7eunyjjukfx5jg7k4zfqfkqhlm30qd09ewxf00msrsfay7",
        "type": "witness_v0_scripthash"
      }
    }
  ]
}
-------------
Signing the Deposit Tx
-------------
Done
-------------
Signed Deposit Tx
-------------
02000000000101dfe69b34c3dfebe4fee0b2a04f9c6fbe0bbc0ba0636935de070902c7723b7cdc0000000000fdffffff01606b042a010000002200204e4b385fa8c8a5cf679324a5cb24d4923d6a89204d817fee2f035e5cb8c97bf7024730440220107141fbe81128160d16e6718aab57a7a8915cf8502d9a3a6ed7a969b69d857002200bb0a21f6a7d72c2f375932d947eea89622ae88f5906e55fc0f84dadf9132830012103c7217bdc61c7e813e131a2f1c681876d441abec8349ab1675c3864bceb37a81200000000
-------------
Checking Signed Deposit Tx
-------------
{
  "txid": "db4c31455cbaafb38ef04141b99a01a24e058b9f9ea61c83d96534eddb19c959",
  "hash": "a58607904ec928a266704fefe6e541029456899254cfdbf4a75d8056ead26a0f",
  "version": 2,
  "size": 203,
  "vsize": 122,
  "weight": 485,
  "locktime": 0,
  "vin": [
    {
      "txid": "dc7c3b72c7020907de356963a00bbc0bbe6f9c4fa0b2e0fee4ebdfc3349be6df",
      "vout": 0,
      "scriptSig": {
        "asm": "",
        "hex": ""
      },
      "txinwitness": [
        "30440220107141fbe81128160d16e6718aab57a7a8915cf8502d9a3a6ed7a969b69d857002200bb0a21f6a7d72c2f375932d947eea89622ae88f5906e55fc0f84dadf913283001",
        "03c7217bdc61c7e813e131a2f1c681876d441abec8349ab1675c3864bceb37a812"
      ],
      "sequence": 4294967293
    }
  ],
  "vout": [
    {
      "value": 49.99900000,
      "n": 0,
      "scriptPubKey": {
        "asm": "0 4e4b385fa8c8a5cf679324a5cb24d4923d6a89204d817fee2f035e5cb8c97bf7",
        "desc": "addr(bcrt1qfe9nshagezju7eunyjjukfx5jg7k4zfqfkqhlm30qd09ewxf00msrsfay7)#kek6khf0",
        "hex": "00204e4b385fa8c8a5cf679324a5cb24d4923d6a89204d817fee2f035e5cb8c97bf7",
        "address": "bcrt1qfe9nshagezju7eunyjjukfx5jg7k4zfqfkqhlm30qd09ewxf00msrsfay7",
        "type": "witness_v0_scripthash"
      }
    }
  ]
}
[H[2J[3J
-------------
Your Vault has a 2-step Unlock and Spend process to transfer from it
and there is a mandatory yet configureable delay enforced between these
Unlock and Spend Transactions for every private-key/combination allowed
to spend from this Vault.
-------------
Press any key to configure these delays and continue...
[H[2J[3J
-------------
Lets configure the on-chain delay / cooling period
for spending with your private-key from your Vault!

This will give you time to react and initiate recovery
when your private-key or wallet backup (seed phrase) is stolen
and is used to unlock and potentially spend from your Vault.
-------------
Enter delay in blocks or press [Return] to use default [1000]: Setting Option 1 (User Private-Key Only) Delay to 1000
Encoded bytes (hex): e803
[H[2J[3J
-------------
Now, lets configure the on-chain delay / cooling period
for spending with the Sentinel private-key from your Vault!

This is the delay your Sentinel has to wait before he can
transfer/recover from your Vault in case your private-key
is lost or for managing your inheritance.

PS: This is typically much longer than the previously set delay
and will give you time to react and override any spend attempt
by compromised/rogue Sentinels with just your private-key
eliminating counter-party risk in the Hybrid Custody Ecosystem.
-------------
Enter delay in blocks or press [Return] to use default [5000]: Setting Option 2 (Sentinel Private-Key Only) Delay to 5000
Encoded bytes (hex): 8813
[H[2J[3J
-------------
Now, lets configure the Recovery Address for your Vault!

Once your private-keys are lost or stolen, it is not
safe to recover your Vault to an address controlled by you
as we never know how deep the compromise is.

The best approach would be to temporarily transfer the coins in your
Vault to a custodial wallet address (Coinbase, Binance, etc.) and disable
withdrawls from it until you can create a new secure cold-storage wallet and Vault.

Alternatively, you can setup a new unused Hardware Wallet
with a new seed-phrase and store both the hardware wallet and
seed-phrase backup in a bank locker and use this wallet's address as Recovery Address!

PS: Sentinels are bound by on-chain Staking/Slashing mechanics
to only sign Recovery transactions to this Preconfigured Recovery Address
as no user provided input can be trusted post compromise/setup!
-------------
Enter Recovery Address or press [Return] to use default [bcrt1qm05h9s3tqn6tgdgnw9dn6lqmpyx0tgt28ysw0f]: Proceeding with Recovery Address: bcrt1qm05h9s3tqn6tgdgnw9dn6lqmpyx0tgt28ysw0f
-------------
Unlock Tx (Provisional Tx) Redeem Script
-------------
Hex: 02881302e80321037a7b8ec8845ebb79f5d34f59f9a506331585c625cb071cbcc94295b3e7a383972103c7217bdc61c7e813e131a2f1c681876d441abec8349ab1675c3864bceb37a81254795287637b757b757b7500547a547a527152ae67547a6375777b7cadb2755167777b757b7cadb275516868
-------------
Checking Unlock Tx (Provisional Tx) Redeem Script
-------------
{
  "asm": "5000 1000 037a7b8ec8845ebb79f5d34f59f9a506331585c625cb071cbcc94295b3e7a38397 03c7217bdc61c7e813e131a2f1c681876d441abec8349ab1675c3864bceb37a812 4 OP_PICK 2 OP_EQUAL OP_IF OP_ROT OP_DROP OP_ROT OP_DROP OP_ROT OP_DROP 0 4 OP_ROLL 4 OP_ROLL 2 OP_2ROT 2 OP_CHECKMULTISIG OP_ELSE 4 OP_ROLL OP_IF OP_DROP OP_NIP OP_ROT OP_SWAP OP_CHECKSIGVERIFY OP_CHECKSEQUENCEVERIFY OP_DROP 1 OP_ELSE OP_NIP OP_ROT OP_DROP OP_ROT OP_SWAP OP_CHECKSIGVERIFY OP_CHECKSEQUENCEVERIFY OP_DROP 1 OP_ENDIF OP_ENDIF",
  "desc": "raw(02881302e80321037a7b8ec8845ebb79f5d34f59f9a506331585c625cb071cbcc94295b3e7a383972103c7217bdc61c7e813e131a2f1c681876d441abec8349ab1675c3864bceb37a81254795287637b757b757b7500547a547a527152ae67547a6375777b7cadb2755167777b757b7cadb275516868)#j7l2e49d",
  "type": "nonstandard",
  "p2sh": "2NFiLL9Zb8f7HV2MJJeF3PgsWn9Daz8FwaL",
  "segwit": {
    "asm": "0 8a7e69c71178b4ea6071e1862cc554faba58ff8cfae4f048601a432f64675dfd",
    "desc": "wsh(raw(02881302e80321037a7b8ec8845ebb79f5d34f59f9a506331585c625cb071cbcc94295b3e7a383972103c7217bdc61c7e813e131a2f1c681876d441abec8349ab1675c3864bceb37a81254795287637b757b757b7500547a547a527152ae67547a6375777b7cadb2755167777b757b7cadb275516868))#795dl0w9",
    "hex": "00208a7e69c71178b4ea6071e1862cc554faba58ff8cfae4f048601a432f64675dfd",
    "address": "bcrt1q3flxn3c30z6w5cr3uxrze325l2a93luvltj0qjrqrfpj7er8th7st2xg4w",
    "type": "witness_v0_scripthash",
    "p2sh-segwit": "2N7H1C3KEMTCdehGDeC71C8tvQFdyqA3AW5"
  }
}
-------------
Unlock Tx (Provisional Tx) - Script to Address
-------------
bcrt1q3flxn3c30z6w5cr3uxrze325l2a93luvltj0qjrqrfpj7er8th7st2xg4w
-------------
Creating Unsigned Unlock Tx (Provisional Tx)
-------------
020000000159c919dbed3465d9831ca69e9f8b054ea2019ab94141f08eb3afba5c45314cdb0000000000fdffffff01c0e4022a010000002200208a7e69c71178b4ea6071e1862cc554faba58ff8cfae4f048601a432f64675dfd00000000
-------------
Checking Unsigned Unlock Tx Created by User
-------------
{
  "txid": "bd32bac2880b3f186864734213ab208addb173aadb8ec2acf23b24a7761b7b26",
  "hash": "bd32bac2880b3f186864734213ab208addb173aadb8ec2acf23b24a7761b7b26",
  "version": 2,
  "size": 94,
  "vsize": 94,
  "weight": 376,
  "locktime": 0,
  "vin": [
    {
      "txid": "db4c31455cbaafb38ef04141b99a01a24e058b9f9ea61c83d96534eddb19c959",
      "vout": 0,
      "scriptSig": {
        "asm": "",
        "hex": ""
      },
      "sequence": 4294967293
    }
  ],
  "vout": [
    {
      "value": 49.99800000,
      "n": 0,
      "scriptPubKey": {
        "asm": "0 8a7e69c71178b4ea6071e1862cc554faba58ff8cfae4f048601a432f64675dfd",
        "desc": "addr(bcrt1q3flxn3c30z6w5cr3uxrze325l2a93luvltj0qjrqrfpj7er8th7st2xg4w)#e37uqkeu",
        "hex": "00208a7e69c71178b4ea6071e1862cc554faba58ff8cfae4f048601a432f64675dfd",
        "address": "bcrt1q3flxn3c30z6w5cr3uxrze325l2a93luvltj0qjrqrfpj7er8th7st2xg4w",
        "type": "witness_v0_scripthash"
      }
    }
  ]
}
-------------
Simulating the transfer of Unsigned Unlock Tx (Provisional Tx) copy
to Sentinel!
-------------
[U] --> Unsigned Unlock Tx (Provisional Tx) --> [S]
-------------
Sentinel signs the Unsigned Unlock Tx (Provisional Tx)
with his Private Key
-------------
Original Tx:
{
    "ins": [
        {
            "tx_hash": "db4c31455cbaafb38ef04141b99a01a24e058b9f9ea61c83d96534eddb19c959",
            "tx_pos": 0,
            "script": "",
            "sequence": 4294967293,
            "value": 4999900000
        }
    ],
    "outs": [
        {
            "value": 4999800000,
            "script": "00208a7e69c71178b4ea6071e1862cc554faba58ff8cfae4f048601a432f64675dfd"
        }
    ],
    "version": 2,
    "locktime": 0
}
Signature:
304402202fbb6a742993bf53c7c65509e1c1413fe70e62450cc27bfc684fa738612374ac022068f661c6d9f2ab20f8a779387b831d0bc5b8ca19f8353c8226b5ca4bc40a226001
-------------
Unlock Tx (Provisional Tx) - Sentinel's Signature
-------------
304402202fbb6a742993bf53c7c65509e1c1413fe70e62450cc27bfc684fa738612374ac022068f661c6d9f2ab20f8a779387b831d0bc5b8ca19f8353c8226b5ca4bc40a226001
-------------
Simulating the transfer of Partially Signed Unlock Tx (Provisional Tx)
to User!
-------------
[S] --> Partially Signed Unlock Tx (Provisional Tx) --> [U]
-------------
User signs the Unsigned Unlock Tx (Provisional Tx)
with his Private Key
-------------
Original Tx:
{
    "ins": [
        {
            "tx_hash": "db4c31455cbaafb38ef04141b99a01a24e058b9f9ea61c83d96534eddb19c959",
            "tx_pos": 0,
            "script": "",
            "sequence": 4294967293,
            "value": 4999900000
        }
    ],
    "outs": [
        {
            "value": 4999800000,
            "script": "00208a7e69c71178b4ea6071e1862cc554faba58ff8cfae4f048601a432f64675dfd"
        }
    ],
    "version": 2,
    "locktime": 0
}
Signature:
3045022100e53d42c4b95fbfd08f816ab178b308a428c9cb047264aa73fd041303720df46b02200c5cc80d069181fc3ceca3e20396a52c93ed3ae29fc97dff1aef85ebd8be51d001
-------------
Unlock Tx (Provisional Tx) - User Signature
-------------
3045022100e53d42c4b95fbfd08f816ab178b308a428c9cb047264aa73fd041303720df46b02200c5cc80d069181fc3ceca3e20396a52c93ed3ae29fc97dff1aef85ebd8be51d001
-------------
Simulating the transfer of Partially Signed Unlock Tx (Provisional Tx) copy
to Sentinel!
-------------
[U] --> Partially Signed Provisional Tx --> [S]
-------------
User signs & broadcasts the Deposit Tx
after receiving the Partially signed Unlock Tx (Provisional Tx)
-------------
db4c31455cbaafb38ef04141b99a01a24e058b9f9ea61c83d96534eddb19c959
Done
-------------
Generating Block to confirm the Deposit Tx
-------------
Deposit Tx Block: 378f464e65c9ed035ce74bfc421ae39b56c9b87271ddda22370d42120c5fa580
-------------
Confirmed Deposit Tx
-------------
{
  "in_active_chain": true,
  "txid": "db4c31455cbaafb38ef04141b99a01a24e058b9f9ea61c83d96534eddb19c959",
  "hash": "a58607904ec928a266704fefe6e541029456899254cfdbf4a75d8056ead26a0f",
  "version": 2,
  "size": 203,
  "vsize": 122,
  "weight": 485,
  "locktime": 0,
  "vin": [
    {
      "txid": "dc7c3b72c7020907de356963a00bbc0bbe6f9c4fa0b2e0fee4ebdfc3349be6df",
      "vout": 0,
      "scriptSig": {
        "asm": "",
        "hex": ""
      },
      "txinwitness": [
        "30440220107141fbe81128160d16e6718aab57a7a8915cf8502d9a3a6ed7a969b69d857002200bb0a21f6a7d72c2f375932d947eea89622ae88f5906e55fc0f84dadf913283001",
        "03c7217bdc61c7e813e131a2f1c681876d441abec8349ab1675c3864bceb37a812"
      ],
      "sequence": 4294967293
    }
  ],
  "vout": [
    {
      "value": 49.99900000,
      "n": 0,
      "scriptPubKey": {
        "asm": "0 4e4b385fa8c8a5cf679324a5cb24d4923d6a89204d817fee2f035e5cb8c97bf7",
        "desc": "addr(bcrt1qfe9nshagezju7eunyjjukfx5jg7k4zfqfkqhlm30qd09ewxf00msrsfay7)#kek6khf0",
        "hex": "00204e4b385fa8c8a5cf679324a5cb24d4923d6a89204d817fee2f035e5cb8c97bf7",
        "address": "bcrt1qfe9nshagezju7eunyjjukfx5jg7k4zfqfkqhlm30qd09ewxf00msrsfay7",
        "type": "witness_v0_scripthash"
      }
    }
  ],
  "hex": "02000000000101dfe69b34c3dfebe4fee0b2a04f9c6fbe0bbc0ba0636935de070902c7723b7cdc0000000000fdffffff01606b042a010000002200204e4b385fa8c8a5cf679324a5cb24d4923d6a89204d817fee2f035e5cb8c97bf7024730440220107141fbe81128160d16e6718aab57a7a8915cf8502d9a3a6ed7a969b69d857002200bb0a21f6a7d72c2f375932d947eea89622ae88f5906e55fc0f84dadf9132830012103c7217bdc61c7e813e131a2f1c681876d441abec8349ab1675c3864bceb37a81200000000",
  "blockhash": "378f464e65c9ed035ce74bfc421ae39b56c9b87271ddda22370d42120c5fa580",
  "confirmations": 1,
  "time": 1775639365,
  "blocktime": 1775639365
}
[H[2J[3J
-------------
*** Smart Vault Setup Complete! ***
-------------
You are now assured of your
Bitcoin's safety and security
as your Bitcoin is now in Joint Custody and
rest everything is managed using the
Partially Signed Unlock Txs (Provisional Txs) with you
and your Sentinel after the Smart Vault setup is complete!
-------------
Press any key to continue...
-------------
Simulating the recovery process by User in collaboration
with his Sentinel when his or his Sentinel's private-key is
presumed stolen or they see some adversarial activity on chain.

Ex. Unlock Tx (Provisional Tx) broadcasted by unknown entities
-------------
Balance in Recovery Addresss (bcrt1qm05h9s3tqn6tgdgnw9dn6lqmpyx0tgt28ysw0f): 0 BTC
Press any key to start recovery...
-------------
User signs the Partially Signed
Unlock Tx (Provisional Tx) received from Sentinel
with his Private Key
-------------
Done
-------------
User's Private Key Generated Signature for Unlock Tx (Provisional Tx):
-------------
3045022100e53d42c4b95fbfd08f816ab178b308a428c9cb047264aa73fd041303720df46b02200c5cc80d069181fc3ceca3e20396a52c93ed3ae29fc97dff1aef85ebd8be51d001
-------------
Fully Signed Unlock Tx (Provisional Tx):
-------------
Unsigned Tx
{
    "ins": [
        {
            "tx_hash": "db4c31455cbaafb38ef04141b99a01a24e058b9f9ea61c83d96534eddb19c959",
            "tx_pos": 0,
            "script": "",
            "sequence": 4294967293
        }
    ],
    "outs": [
        {
            "value": 4999800000,
            "script": "00208a7e69c71178b4ea6071e1862cc554faba58ff8cfae4f048601a432f64675dfd"
        }
    ],
    "version": 2,
    "locktime": 0
}
Signed Tx
{
    "ins": [
        {
            "tx_hash": "db4c31455cbaafb38ef04141b99a01a24e058b9f9ea61c83d96534eddb19c959",
            "tx_pos": 0,
            "script": "",
            "sequence": 4294967293
        }
    ],
    "outs": [
        {
            "value": 4999800000,
            "script": "00208a7e69c71178b4ea6071e1862cc554faba58ff8cfae4f048601a432f64675dfd"
        }
    ],
    "version": 2,
    "locktime": 0,
    "witness": [
        {
            "number": 3,
            "scriptCode": "47304402202fbb6a742993bf53c7c65509e1c1413fe70e62450cc27bfc684fa738612374ac022068f661c6d9f2ab20f8a779387b831d0bc5b8ca19f8353c8226b5ca4bc40a226001483045022100e53d42c4b95fbfd08f816ab178b308a428c9cb047264aa73fd041303720df46b02200c5cc80d069181fc3ceca3e20396a52c93ed3ae29fc97dff1aef85ebd8be51d0014d21037a7b8ec8845ebb79f5d34f59f9a506331585c625cb071cbcc94295b3e7a383972103c7217bdc61c7e813e131a2f1c681876d441abec8349ab1675c3864bceb37a81200547a547a527152ae"
        }
    ],
    "marker": 0,
    "flag": 1
}
0200000000010159c919dbed3465d9831ca69e9f8b054ea2019ab94141f08eb3afba5c45314cdb0000000000fdffffff01c0e4022a010000002200208a7e69c71178b4ea6071e1862cc554faba58ff8cfae4f048601a432f64675dfd0347304402202fbb6a742993bf53c7c65509e1c1413fe70e62450cc27bfc684fa738612374ac022068f661c6d9f2ab20f8a779387b831d0bc5b8ca19f8353c8226b5ca4bc40a226001483045022100e53d42c4b95fbfd08f816ab178b308a428c9cb047264aa73fd041303720df46b02200c5cc80d069181fc3ceca3e20396a52c93ed3ae29fc97dff1aef85ebd8be51d0014d21037a7b8ec8845ebb79f5d34f59f9a506331585c625cb071cbcc94295b3e7a383972103c7217bdc61c7e813e131a2f1c681876d441abec8349ab1675c3864bceb37a81200547a547a527152ae00000000
-------------
Checking Fully Signed Unlock Tx (Provisional Tx):
-------------
{
  "txid": "bd32bac2880b3f186864734213ab208addb173aadb8ec2acf23b24a7761b7b26",
  "hash": "2579e8b0716a74d4d60be95b003f288ae86b6dfd077c242e46176dc2c0204bb0",
  "version": 2,
  "size": 320,
  "vsize": 151,
  "weight": 602,
  "locktime": 0,
  "vin": [
    {
      "txid": "db4c31455cbaafb38ef04141b99a01a24e058b9f9ea61c83d96534eddb19c959",
      "vout": 0,
      "scriptSig": {
        "asm": "",
        "hex": ""
      },
      "txinwitness": [
        "304402202fbb6a742993bf53c7c65509e1c1413fe70e62450cc27bfc684fa738612374ac022068f661c6d9f2ab20f8a779387b831d0bc5b8ca19f8353c8226b5ca4bc40a226001",
        "3045022100e53d42c4b95fbfd08f816ab178b308a428c9cb047264aa73fd041303720df46b02200c5cc80d069181fc3ceca3e20396a52c93ed3ae29fc97dff1aef85ebd8be51d001",
        "21037a7b8ec8845ebb79f5d34f59f9a506331585c625cb071cbcc94295b3e7a383972103c7217bdc61c7e813e131a2f1c681876d441abec8349ab1675c3864bceb37a81200547a547a527152ae"
      ],
      "sequence": 4294967293
    }
  ],
  "vout": [
    {
      "value": 49.99800000,
      "n": 0,
      "scriptPubKey": {
        "asm": "0 8a7e69c71178b4ea6071e1862cc554faba58ff8cfae4f048601a432f64675dfd",
        "desc": "addr(bcrt1q3flxn3c30z6w5cr3uxrze325l2a93luvltj0qjrqrfpj7er8th7st2xg4w)#e37uqkeu",
        "hex": "00208a7e69c71178b4ea6071e1862cc554faba58ff8cfae4f048601a432f64675dfd",
        "address": "bcrt1q3flxn3c30z6w5cr3uxrze325l2a93luvltj0qjrqrfpj7er8th7st2xg4w",
        "type": "witness_v0_scripthash"
      }
    }
  ]
}
-------------
Vaildate Fully Signed Unlock Tx (Provisional Tx)
-------------
[
  {
    "txid": "bd32bac2880b3f186864734213ab208addb173aadb8ec2acf23b24a7761b7b26",
    "wtxid": "2579e8b0716a74d4d60be95b003f288ae86b6dfd077c242e46176dc2c0204bb0",
    "allowed": true,
    "vsize": 151,
    "fees": {
      "base": 0.00100000,
      "effective-feerate": 0.00662251,
      "effective-includes": [
        "2579e8b0716a74d4d60be95b003f288ae86b6dfd077c242e46176dc2c0204bb0"
      ]
    }
  }
]
-------------
Broadcast Fully Signed Unlock Tx (Provisional Tx)
-------------
Done
-------------
Generating Block to confirm Unlock Tx (Provisional Tx)
-------------
Done
-------------
Unlock Tx (Provisional Tx) Block:
-------------
37e152b3dcb361f106b72423beca13ec7af6353c59f19547e01d67ba477c051c
-------------
Confirmed Unlock Tx (Provisional Tx)
-------------
{
  "in_active_chain": true,
  "txid": "bd32bac2880b3f186864734213ab208addb173aadb8ec2acf23b24a7761b7b26",
  "hash": "2579e8b0716a74d4d60be95b003f288ae86b6dfd077c242e46176dc2c0204bb0",
  "version": 2,
  "size": 320,
  "vsize": 151,
  "weight": 602,
  "locktime": 0,
  "vin": [
    {
      "txid": "db4c31455cbaafb38ef04141b99a01a24e058b9f9ea61c83d96534eddb19c959",
      "vout": 0,
      "scriptSig": {
        "asm": "",
        "hex": ""
      },
      "txinwitness": [
        "304402202fbb6a742993bf53c7c65509e1c1413fe70e62450cc27bfc684fa738612374ac022068f661c6d9f2ab20f8a779387b831d0bc5b8ca19f8353c8226b5ca4bc40a226001",
        "3045022100e53d42c4b95fbfd08f816ab178b308a428c9cb047264aa73fd041303720df46b02200c5cc80d069181fc3ceca3e20396a52c93ed3ae29fc97dff1aef85ebd8be51d001",
        "21037a7b8ec8845ebb79f5d34f59f9a506331585c625cb071cbcc94295b3e7a383972103c7217bdc61c7e813e131a2f1c681876d441abec8349ab1675c3864bceb37a81200547a547a527152ae"
      ],
      "sequence": 4294967293
    }
  ],
  "vout": [
    {
      "value": 49.99800000,
      "n": 0,
      "scriptPubKey": {
        "asm": "0 8a7e69c71178b4ea6071e1862cc554faba58ff8cfae4f048601a432f64675dfd",
        "desc": "addr(bcrt1q3flxn3c30z6w5cr3uxrze325l2a93luvltj0qjrqrfpj7er8th7st2xg4w)#e37uqkeu",
        "hex": "00208a7e69c71178b4ea6071e1862cc554faba58ff8cfae4f048601a432f64675dfd",
        "address": "bcrt1q3flxn3c30z6w5cr3uxrze325l2a93luvltj0qjrqrfpj7er8th7st2xg4w",
        "type": "witness_v0_scripthash"
      }
    }
  ],
  "hex": "0200000000010159c919dbed3465d9831ca69e9f8b054ea2019ab94141f08eb3afba5c45314cdb0000000000fdffffff01c0e4022a010000002200208a7e69c71178b4ea6071e1862cc554faba58ff8cfae4f048601a432f64675dfd0347304402202fbb6a742993bf53c7c65509e1c1413fe70e62450cc27bfc684fa738612374ac022068f661c6d9f2ab20f8a779387b831d0bc5b8ca19f8353c8226b5ca4bc40a226001483045022100e53d42c4b95fbfd08f816ab178b308a428c9cb047264aa73fd041303720df46b02200c5cc80d069181fc3ceca3e20396a52c93ed3ae29fc97dff1aef85ebd8be51d0014d21037a7b8ec8845ebb79f5d34f59f9a506331585c625cb071cbcc94295b3e7a383972103c7217bdc61c7e813e131a2f1c681876d441abec8349ab1675c3864bceb37a81200547a547a527152ae00000000",
  "blockhash": "37e152b3dcb361f106b72423beca13ec7af6353c59f19547e01d67ba477c051c",
  "confirmations": 1,
  "time": 1775639365,
  "blocktime": 1775639365
}
-------------
Simulating Recovery by User using
*** Option 3 *** of Unlock Tx (Provisonal Tx)
(Both User and Sentinel have to sign the recovery Tx)
-------------
Recovery Process - Start
-------------
User creates the Recovery Tx
-------------
Done
-------------
Unsigned Recovery Tx
-------------
0200000001267b1b76a7243bf2acc28edbaa73b1dd8a20ab1342736468183f0b88c2ba32bd0000000000fdffffff01205e012a01000000160014dbe972c22b04f4b43513715b3d7c1b090cf5a16a00000000
-------------
Checking Unsigned Recovery Tx
-------------
{
  "txid": "70510599ad75325ae2fb0346c6c136bdb62faf06cbfa8e25ccf32575f8f226ae",
  "hash": "70510599ad75325ae2fb0346c6c136bdb62faf06cbfa8e25ccf32575f8f226ae",
  "version": 2,
  "size": 82,
  "vsize": 82,
  "weight": 328,
  "locktime": 0,
  "vin": [
    {
      "txid": "bd32bac2880b3f186864734213ab208addb173aadb8ec2acf23b24a7761b7b26",
      "vout": 0,
      "scriptSig": {
        "asm": "",
        "hex": ""
      },
      "sequence": 4294967293
    }
  ],
  "vout": [
    {
      "value": 49.99700000,
      "n": 0,
      "scriptPubKey": {
        "asm": "0 dbe972c22b04f4b43513715b3d7c1b090cf5a16a",
        "desc": "addr(bcrt1qm05h9s3tqn6tgdgnw9dn6lqmpyx0tgt28ysw0f)#vacajn4z",
        "hex": "0014dbe972c22b04f4b43513715b3d7c1b090cf5a16a",
        "address": "bcrt1qm05h9s3tqn6tgdgnw9dn6lqmpyx0tgt28ysw0f",
        "type": "witness_v0_keyhash"
      }
    }
  ]
}
-------------
Simulating the transfer of Unsigned Recovery Tx
from User to Sentinel!
-------------
[U] --> Unsigned Provisional Tx --> [S]
-------------
Sentinel Signs the Recovery Tx
-------------
Original Tx:
{
    "ins": [
        {
            "tx_hash": "bd32bac2880b3f186864734213ab208addb173aadb8ec2acf23b24a7761b7b26",
            "tx_pos": 0,
            "script": "",
            "sequence": 4294967293,
            "value": 4999800000
        }
    ],
    "outs": [
        {
            "value": 4999700000,
            "script": "0014dbe972c22b04f4b43513715b3d7c1b090cf5a16a"
        }
    ],
    "version": 2,
    "locktime": 0
}
Signature:
3044022001531a2468a9fc104415d0d3542c701798cdf90c2a2f5ae6490bc5b67a5f0d94022063b80591ded27dfaafe968faadb8f322559f3403f89db2beccb3daec1433636f01
-------------
Recovery Tx - Sentinel's Signature
-------------
3044022001531a2468a9fc104415d0d3542c701798cdf90c2a2f5ae6490bc5b67a5f0d94022063b80591ded27dfaafe968faadb8f322559f3403f89db2beccb3daec1433636f01
-------------
Simulating the transfer of Partially Signed Recovery Tx
from Sentinel to User!
-------------
[S] --> Partially Signed Provisional Tx --> [U]
-------------
User Signs the Recovery Tx
-------------
Original Tx:
{
    "ins": [
        {
            "tx_hash": "bd32bac2880b3f186864734213ab208addb173aadb8ec2acf23b24a7761b7b26",
            "tx_pos": 0,
            "script": "",
            "sequence": 4294967293,
            "value": 4999800000
        }
    ],
    "outs": [
        {
            "value": 4999700000,
            "script": "0014dbe972c22b04f4b43513715b3d7c1b090cf5a16a"
        }
    ],
    "version": 2,
    "locktime": 0
}
Signature:
304502210089c6d8384ac2cdd41bab5a4c32388623b76a97c5d8cbc9137217359f583f07ef022053260bdc87c3c437ad66fa85b87389470447daf5a1f461c5a70b49d994d0af0401
-------------
Recovery Tx - User's Signature
-------------
304502210089c6d8384ac2cdd41bab5a4c32388623b76a97c5d8cbc9137217359f583f07ef022053260bdc87c3c437ad66fa85b87389470447daf5a1f461c5a70b49d994d0af0401
-------------
Fully Signed Recovery Tx:
-------------
Unsigned Tx
{
    "ins": [
        {
            "tx_hash": "bd32bac2880b3f186864734213ab208addb173aadb8ec2acf23b24a7761b7b26",
            "tx_pos": 0,
            "script": "",
            "sequence": 4294967293
        }
    ],
    "outs": [
        {
            "value": 4999700000,
            "script": "0014dbe972c22b04f4b43513715b3d7c1b090cf5a16a"
        }
    ],
    "version": 2,
    "locktime": 0
}
Signed Tx
{
    "ins": [
        {
            "tx_hash": "bd32bac2880b3f186864734213ab208addb173aadb8ec2acf23b24a7761b7b26",
            "tx_pos": 0,
            "script": "",
            "sequence": 4294967293
        }
    ],
    "outs": [
        {
            "value": 4999700000,
            "script": "0014dbe972c22b04f4b43513715b3d7c1b090cf5a16a"
        }
    ],
    "version": 2,
    "locktime": 0,
    "witness": [
        {
            "number": 4,
            "scriptCode": "473044022001531a2468a9fc104415d0d3542c701798cdf90c2a2f5ae6490bc5b67a5f0d94022063b80591ded27dfaafe968faadb8f322559f3403f89db2beccb3daec1433636f0148304502210089c6d8384ac2cdd41bab5a4c32388623b76a97c5d8cbc9137217359f583f07ef022053260bdc87c3c437ad66fa85b87389470447daf5a1f461c5a70b49d994d0af040101027602881302e80321037a7b8ec8845ebb79f5d34f59f9a506331585c625cb071cbcc94295b3e7a383972103c7217bdc61c7e813e131a2f1c681876d441abec8349ab1675c3864bceb37a81254795287637b757b757b7500547a547a527152ae67547a6375777b7cadb2755167777b757b7cadb275516868"
        }
    ],
    "marker": 0,
    "flag": 1
}
02000000000101267b1b76a7243bf2acc28edbaa73b1dd8a20ab1342736468183f0b88c2ba32bd0000000000fdffffff01205e012a01000000160014dbe972c22b04f4b43513715b3d7c1b090cf5a16a04473044022001531a2468a9fc104415d0d3542c701798cdf90c2a2f5ae6490bc5b67a5f0d94022063b80591ded27dfaafe968faadb8f322559f3403f89db2beccb3daec1433636f0148304502210089c6d8384ac2cdd41bab5a4c32388623b76a97c5d8cbc9137217359f583f07ef022053260bdc87c3c437ad66fa85b87389470447daf5a1f461c5a70b49d994d0af040101027602881302e80321037a7b8ec8845ebb79f5d34f59f9a506331585c625cb071cbcc94295b3e7a383972103c7217bdc61c7e813e131a2f1c681876d441abec8349ab1675c3864bceb37a81254795287637b757b757b7500547a547a527152ae67547a6375777b7cadb2755167777b757b7cadb27551686800000000
-------------
Checking Fully Signed Recovery Tx:
-------------
{
  "txid": "70510599ad75325ae2fb0346c6c136bdb62faf06cbfa8e25ccf32575f8f226ae",
  "hash": "2eb3e4ab01d7b11a67ba5577b6e6e3501fe8a3f9e320afb3dbce98225d313ae5",
  "version": 2,
  "size": 351,
  "vsize": 150,
  "weight": 597,
  "locktime": 0,
  "vin": [
    {
      "txid": "bd32bac2880b3f186864734213ab208addb173aadb8ec2acf23b24a7761b7b26",
      "vout": 0,
      "scriptSig": {
        "asm": "",
        "hex": ""
      },
      "txinwitness": [
        "3044022001531a2468a9fc104415d0d3542c701798cdf90c2a2f5ae6490bc5b67a5f0d94022063b80591ded27dfaafe968faadb8f322559f3403f89db2beccb3daec1433636f01",
        "304502210089c6d8384ac2cdd41bab5a4c32388623b76a97c5d8cbc9137217359f583f07ef022053260bdc87c3c437ad66fa85b87389470447daf5a1f461c5a70b49d994d0af0401",
        "02",
        "02881302e80321037a7b8ec8845ebb79f5d34f59f9a506331585c625cb071cbcc94295b3e7a383972103c7217bdc61c7e813e131a2f1c681876d441abec8349ab1675c3864bceb37a81254795287637b757b757b7500547a547a527152ae67547a6375777b7cadb2755167777b757b7cadb275516868"
      ],
      "sequence": 4294967293
    }
  ],
  "vout": [
    {
      "value": 49.99700000,
      "n": 0,
      "scriptPubKey": {
        "asm": "0 dbe972c22b04f4b43513715b3d7c1b090cf5a16a",
        "desc": "addr(bcrt1qm05h9s3tqn6tgdgnw9dn6lqmpyx0tgt28ysw0f)#vacajn4z",
        "hex": "0014dbe972c22b04f4b43513715b3d7c1b090cf5a16a",
        "address": "bcrt1qm05h9s3tqn6tgdgnw9dn6lqmpyx0tgt28ysw0f",
        "type": "witness_v0_keyhash"
      }
    }
  ]
}
-------------
Vaildating Recovery Tx
-------------
[
  {
    "txid": "70510599ad75325ae2fb0346c6c136bdb62faf06cbfa8e25ccf32575f8f226ae",
    "wtxid": "2eb3e4ab01d7b11a67ba5577b6e6e3501fe8a3f9e320afb3dbce98225d313ae5",
    "allowed": true,
    "vsize": 150,
    "fees": {
      "base": 0.00100000,
      "effective-feerate": 0.00666666,
      "effective-includes": [
        "2eb3e4ab01d7b11a67ba5577b6e6e3501fe8a3f9e320afb3dbce98225d313ae5"
      ]
    }
  }
]
-------------
Broadcasting Recovery Tx
-------------
Done
-------------
Generating Block to confirm Recovery Tx
-------------
Done
-------------
Recovery Tx Block ID:
-------------
430c17df6c6f89f45541cddfa3b95bb64f60b9a20160feec25cbb8f161f602f2
-------------
Confirmed Recovery Tx
-------------
{
  "in_active_chain": true,
  "txid": "70510599ad75325ae2fb0346c6c136bdb62faf06cbfa8e25ccf32575f8f226ae",
  "hash": "2eb3e4ab01d7b11a67ba5577b6e6e3501fe8a3f9e320afb3dbce98225d313ae5",
  "version": 2,
  "size": 351,
  "vsize": 150,
  "weight": 597,
  "locktime": 0,
  "vin": [
    {
      "txid": "bd32bac2880b3f186864734213ab208addb173aadb8ec2acf23b24a7761b7b26",
      "vout": 0,
      "scriptSig": {
        "asm": "",
        "hex": ""
      },
      "txinwitness": [
        "3044022001531a2468a9fc104415d0d3542c701798cdf90c2a2f5ae6490bc5b67a5f0d94022063b80591ded27dfaafe968faadb8f322559f3403f89db2beccb3daec1433636f01",
        "304502210089c6d8384ac2cdd41bab5a4c32388623b76a97c5d8cbc9137217359f583f07ef022053260bdc87c3c437ad66fa85b87389470447daf5a1f461c5a70b49d994d0af0401",
        "02",
        "02881302e80321037a7b8ec8845ebb79f5d34f59f9a506331585c625cb071cbcc94295b3e7a383972103c7217bdc61c7e813e131a2f1c681876d441abec8349ab1675c3864bceb37a81254795287637b757b757b7500547a547a527152ae67547a6375777b7cadb2755167777b757b7cadb275516868"
      ],
      "sequence": 4294967293
    }
  ],
  "vout": [
    {
      "value": 49.99700000,
      "n": 0,
      "scriptPubKey": {
        "asm": "0 dbe972c22b04f4b43513715b3d7c1b090cf5a16a",
        "desc": "addr(bcrt1qm05h9s3tqn6tgdgnw9dn6lqmpyx0tgt28ysw0f)#vacajn4z",
        "hex": "0014dbe972c22b04f4b43513715b3d7c1b090cf5a16a",
        "address": "bcrt1qm05h9s3tqn6tgdgnw9dn6lqmpyx0tgt28ysw0f",
        "type": "witness_v0_keyhash"
      }
    }
  ],
  "hex": "02000000000101267b1b76a7243bf2acc28edbaa73b1dd8a20ab1342736468183f0b88c2ba32bd0000000000fdffffff01205e012a01000000160014dbe972c22b04f4b43513715b3d7c1b090cf5a16a04473044022001531a2468a9fc104415d0d3542c701798cdf90c2a2f5ae6490bc5b67a5f0d94022063b80591ded27dfaafe968faadb8f322559f3403f89db2beccb3daec1433636f0148304502210089c6d8384ac2cdd41bab5a4c32388623b76a97c5d8cbc9137217359f583f07ef022053260bdc87c3c437ad66fa85b87389470447daf5a1f461c5a70b49d994d0af040101027602881302e80321037a7b8ec8845ebb79f5d34f59f9a506331585c625cb071cbcc94295b3e7a383972103c7217bdc61c7e813e131a2f1c681876d441abec8349ab1675c3864bceb37a81254795287637b757b757b7500547a547a527152ae67547a6375777b7cadb2755167777b757b7cadb27551686800000000",
  "blockhash": "430c17df6c6f89f45541cddfa3b95bb64f60b9a20160feec25cbb8f161f602f2",
  "confirmations": 1,
  "time": 1775639366,
  "blocktime": 1775639366
}
-------------
***Recovery Complete!***
-------------
Balance in Recovery Addresss (bcrt1qm05h9s3tqn6tgdgnw9dn6lqmpyx0tgt28ysw0f): 49.99700000 BTC
-------------
Stopping Bitcoind
-------------
Bitcoin Core stopping
