[H[2J[3J
-------------
This demo uses proprietary technologies covered
by patents (pending and granted) as detailed on this
webpage - https://www.coinvault.tech/patents/ 
and strictly for demonstration purposes only!
-------------

Press any key to continue...
-------------
Stopping Bitcoind if it is already running
-------------
Done
-------------
Updating Bitcoind configuration
-------------
Done
-------------
Refreshing & Restarting Bitcoind
-------------
Bitcoin Core starting
Waiting for 5 secs for Bitcoin Demon to Initialize...
[H[2J[3J
-------------
Bootstrapping the Sentinels (co-signers)
-------------
-------------
Generating Sentinel 1: TrustMax's Credentials
-------------
TrustMax's Public Key: 0311288c64ede17a799e115db17bf2865341995b067680fd32a6115e202eaf277c
TrustMax's Address: bcrt1qassh8jmsjhn9c9sqfvu4s4p0a0k7kn7gs6r2zk
-------------
Generating Sentinel 2: BlueOrion's Credentials
-------------
BlueOrion's Public Key: 03199f03479b85dbee029d1e2eca988d1d002cbfda2316131ed0f6a29d4b4e8bc0
BlueOrion's Address: bcrt1qap88p3hdqhhzk9jrpv3v5d2n53ln7fj5rgsu0h
-------------
Generating Sentinel 3: EuroCrypt's Credentials
-------------
EuroCrypt's Public Key: 024ad0bc30b54b5e24787384cbae22eb39fdae7c014435c9d0316e2a2f0154e89d
EuroCrypt's Address: bcrt1q9zdttus72h38knv3t3kysgvatlkdwfphlquc80
-------------
Sentinels are ready!
Lets initialize your credentials...
-------------
Press any key to generate a key pair for you...
-------------
Generating User's Priv-Pub-Addr
-------------
Private Key: cQq9K7iKThHZPkdBfTkBaWFHBCuB5id7QjVjybL9YpH1EGuRo16z
Public Key: 02d121d55a10e25c7b28bc9a00cd8292c3f1dd7faa3cdff1322142f9b538a655c5
Address: bcrt1qqwd5nrxrngvrm720launsuzrrd5q8kuqzfq6kw
-------------
Press any key to continue...
-------------
Generating blocks to bootstrap Bitcoin RegTest Blockchain
-------------
Done
[H[2J[3J
Balance: 50.00000000 BTC
Press any key to start Hybrid Custody Vault setup...
-------------
Choose your Sentinel:
-------------
1) TrustMax • Rating: 4.0 ★ • Avg. Response Time: 42 mins
2) BlueOrion • Rating: 5.0 ★ • Avg. Response Time: 23 mins
3) EuroCrypt • Rating: 4.5 ★ • Avg. Response Time: 34 mins
-------------
Select [1-3] (Default: 1): Selected Sentinel: TrustMax • Rating: 4.0 ★ • Avg. Response Time: 42 mins
-------------
-------------
Deposit Tx Redeem Script
-------------
210311288c64ede17a799e115db17bf2865341995b067680fd32a6115e202eaf277c2102d121d55a10e25c7b28bc9a00cd8292c3f1dd7faa3cdff1322142f9b538a655c500547a547a527152ae
-------------
Checking Deposit Tx Redeem Script
-------------
{
  "asm": "0311288c64ede17a799e115db17bf2865341995b067680fd32a6115e202eaf277c 02d121d55a10e25c7b28bc9a00cd8292c3f1dd7faa3cdff1322142f9b538a655c5 0 4 OP_ROLL 4 OP_ROLL 2 OP_2ROT 2 OP_CHECKMULTISIG",
  "desc": "raw(210311288c64ede17a799e115db17bf2865341995b067680fd32a6115e202eaf277c2102d121d55a10e25c7b28bc9a00cd8292c3f1dd7faa3cdff1322142f9b538a655c500547a547a527152ae)#96drhmd8",
  "type": "nonstandard",
  "p2sh": "2NDBfTVSV8D7L6mH8hWe1WCfxhxCJiSiKq9",
  "segwit": {
    "asm": "0 13f8f848489e20f0ec745b601d708a425cf143a0442fe94398cb0be25695b919",
    "desc": "wsh(raw(210311288c64ede17a799e115db17bf2865341995b067680fd32a6115e202eaf277c2102d121d55a10e25c7b28bc9a00cd8292c3f1dd7faa3cdff1322142f9b538a655c500547a547a527152ae))#wtdfx0ze",
    "hex": "002013f8f848489e20f0ec745b601d708a425cf143a0442fe94398cb0be25695b919",
    "address": "bcrt1qz0u0sjzgncs0pmr5tdsp6uy2gfw0zsaqgsh7jsucev97y454hyvsj6q3gk",
    "type": "witness_v0_scripthash",
    "p2sh-segwit": "2N2tvoSZUz1Fk1EbFiw5CzTCZ76qfSUKpWu"
  }
}
-------------
Deposit Tx - Script to Address
-------------
bcrt1qz0u0sjzgncs0pmr5tdsp6uy2gfw0zsaqgsh7jsucev97y454hyvsj6q3gk
-------------
Creating Unsigned Deposit Tx
-------------
Done
-------------
Unsigned Deposit Tx
-------------
020000000114a9c2786d31f2cd186444bfc209a4ff3e9e6d72dfebf8b01c71bd56c26d0ceb0000000000fdffffff01606b042a0100000022002013f8f848489e20f0ec745b601d708a425cf143a0442fe94398cb0be25695b91900000000
-------------
Checking Unsigned Deposit Tx
-------------
{
  "txid": "fe0de7d49fcfa7a996baf866393b6d5e33f9af2131c8676bf540f5d4b61eef00",
  "hash": "fe0de7d49fcfa7a996baf866393b6d5e33f9af2131c8676bf540f5d4b61eef00",
  "version": 2,
  "size": 94,
  "vsize": 94,
  "weight": 376,
  "locktime": 0,
  "vin": [
    {
      "txid": "eb0c6dc256bd711cb0f8ebdf726d9e3effa409c2bf446418cdf2316d78c2a914",
      "vout": 0,
      "scriptSig": {
        "asm": "",
        "hex": ""
      },
      "sequence": 4294967293
    }
  ],
  "vout": [
    {
      "value": 49.99900000,
      "n": 0,
      "scriptPubKey": {
        "asm": "0 13f8f848489e20f0ec745b601d708a425cf143a0442fe94398cb0be25695b919",
        "desc": "addr(bcrt1qz0u0sjzgncs0pmr5tdsp6uy2gfw0zsaqgsh7jsucev97y454hyvsj6q3gk)#jrv6nshg",
        "hex": "002013f8f848489e20f0ec745b601d708a425cf143a0442fe94398cb0be25695b919",
        "address": "bcrt1qz0u0sjzgncs0pmr5tdsp6uy2gfw0zsaqgsh7jsucev97y454hyvsj6q3gk",
        "type": "witness_v0_scripthash"
      }
    }
  ]
}
-------------
Signing the Deposit Tx
-------------
Done
-------------
Signed Deposit Tx
-------------
0200000000010114a9c2786d31f2cd186444bfc209a4ff3e9e6d72dfebf8b01c71bd56c26d0ceb0000000000fdffffff01606b042a0100000022002013f8f848489e20f0ec745b601d708a425cf143a0442fe94398cb0be25695b91902473044022033f32a762dae013c9513bbb2f32f8a429ce80afda5141fdbf140c27772c13c19022071aa1ba2790b414e4ef03f87d2e23cbfe31f35565db4239db41def063c99183f012102d121d55a10e25c7b28bc9a00cd8292c3f1dd7faa3cdff1322142f9b538a655c500000000
-------------
Checking Signed Deposit Tx
-------------
{
  "txid": "fe0de7d49fcfa7a996baf866393b6d5e33f9af2131c8676bf540f5d4b61eef00",
  "hash": "f143c82da816f67c3b5b6a05876412d8eddf9888e50addfc6dabef7a972de9ef",
  "version": 2,
  "size": 203,
  "vsize": 122,
  "weight": 485,
  "locktime": 0,
  "vin": [
    {
      "txid": "eb0c6dc256bd711cb0f8ebdf726d9e3effa409c2bf446418cdf2316d78c2a914",
      "vout": 0,
      "scriptSig": {
        "asm": "",
        "hex": ""
      },
      "txinwitness": [
        "3044022033f32a762dae013c9513bbb2f32f8a429ce80afda5141fdbf140c27772c13c19022071aa1ba2790b414e4ef03f87d2e23cbfe31f35565db4239db41def063c99183f01",
        "02d121d55a10e25c7b28bc9a00cd8292c3f1dd7faa3cdff1322142f9b538a655c5"
      ],
      "sequence": 4294967293
    }
  ],
  "vout": [
    {
      "value": 49.99900000,
      "n": 0,
      "scriptPubKey": {
        "asm": "0 13f8f848489e20f0ec745b601d708a425cf143a0442fe94398cb0be25695b919",
        "desc": "addr(bcrt1qz0u0sjzgncs0pmr5tdsp6uy2gfw0zsaqgsh7jsucev97y454hyvsj6q3gk)#jrv6nshg",
        "hex": "002013f8f848489e20f0ec745b601d708a425cf143a0442fe94398cb0be25695b919",
        "address": "bcrt1qz0u0sjzgncs0pmr5tdsp6uy2gfw0zsaqgsh7jsucev97y454hyvsj6q3gk",
        "type": "witness_v0_scripthash"
      }
    }
  ]
}
[H[2J[3J
-------------
Your Vault has a 2-step Unlock and Spend process to transfer from it
and there is a mandatory yet configureable delay enforced between these
Unlock and Spend Transactions for every private-key/combination allowed
to spend from this Vault.
-------------
Press any key to configure these delays and continue...
[H[2J[3J
-------------
Lets configure the on-chain delay / cooling period
for spending with your private-key from your Vault!

This will give you time to react and initiate recovery
when your private-key or wallet backup (seed phrase) is stolen
and is used to unlock and potentially spend from your Vault.
-------------
Enter delay in blocks or press [Return] to use default [1000]: Setting Option 1 (User Private-Key Only) Delay to 1000
Encoded bytes (hex): e803
[H[2J[3J
-------------
Now, lets configure the on-chain delay / cooling period
for spending with the Sentinel private-key from your Vault!

This is the delay your Sentinel has to wait before he can
transfer/recover from your Vault in case your private-key
is lost or for managing your inheritance.

PS: This is typically much longer than the previously set delay
and will give you time to react and override any spend attempt
by compromised/rogue Sentinels with just your private-key
eliminating counter-party risk in the Hybrid Custody Ecosystem.
-------------
Enter delay in blocks or press [Return] to use default [5000]: Setting Option 2 (Sentinel Private-Key Only) Delay to 5000
Encoded bytes (hex): 8813
[H[2J[3J
-------------
Now, lets configure the Recovery Address for your Vault!

Once your private-keys are lost or stolen, it is not
safe to recover your Vault to an address controlled by you
as we never know how deep the compromise is.

The best approach would be to temporarily transfer the coins in your
Vault to a custodial wallet address (Coinbase, Binance, etc.) and disable
withdrawls from it until you can create a new secure cold-storage wallet and Vault.

Alternatively, you can setup a new unused Hardware Wallet
with a new seed-phrase and store both the hardware wallet and
seed-phrase backup in a bank locker and use this wallet's address as Recovery Address!

PS: Sentinels are bound by on-chain Staking/Slashing mechanics
to only sign Recovery transactions to this Preconfigured Recovery Address
as no user provided input can be trusted post compromise/setup!
-------------
Enter Recovery Address or press [Return] to use default [bcrt1qhchhqnhgwmynqheaf0fvyg7er287tqvk92t3xz]: Proceeding with Recovery Address: bcrt1qhchhqnhgwmynqheaf0fvyg7er287tqvk92t3xz
-------------
Unlock Tx (Provisional Tx) Redeem Script
-------------
Hex: 02881302e803210311288c64ede17a799e115db17bf2865341995b067680fd32a6115e202eaf277c2102d121d55a10e25c7b28bc9a00cd8292c3f1dd7faa3cdff1322142f9b538a655c554795287637b757b757b7500547a547a527152ae67547a6375777b7cadb2755167777b757b7cadb275516868
-------------
Checking Unlock Tx (Provisional Tx) Redeem Script
-------------
{
  "asm": "5000 1000 0311288c64ede17a799e115db17bf2865341995b067680fd32a6115e202eaf277c 02d121d55a10e25c7b28bc9a00cd8292c3f1dd7faa3cdff1322142f9b538a655c5 4 OP_PICK 2 OP_EQUAL OP_IF OP_ROT OP_DROP OP_ROT OP_DROP OP_ROT OP_DROP 0 4 OP_ROLL 4 OP_ROLL 2 OP_2ROT 2 OP_CHECKMULTISIG OP_ELSE 4 OP_ROLL OP_IF OP_DROP OP_NIP OP_ROT OP_SWAP OP_CHECKSIGVERIFY OP_CHECKSEQUENCEVERIFY OP_DROP 1 OP_ELSE OP_NIP OP_ROT OP_DROP OP_ROT OP_SWAP OP_CHECKSIGVERIFY OP_CHECKSEQUENCEVERIFY OP_DROP 1 OP_ENDIF OP_ENDIF",
  "desc": "raw(02881302e803210311288c64ede17a799e115db17bf2865341995b067680fd32a6115e202eaf277c2102d121d55a10e25c7b28bc9a00cd8292c3f1dd7faa3cdff1322142f9b538a655c554795287637b757b757b7500547a547a527152ae67547a6375777b7cadb2755167777b757b7cadb275516868)#z35qcu04",
  "type": "nonstandard",
  "p2sh": "2N1p7dFiUF9mGuEE6ptnbVTZQXFeZ89A6Wq",
  "segwit": {
    "asm": "0 57aeea1c3d4f24fa039425a77502f3b6cba69abbc888077f3a33fd6c0481b16e",
    "desc": "wsh(raw(02881302e803210311288c64ede17a799e115db17bf2865341995b067680fd32a6115e202eaf277c2102d121d55a10e25c7b28bc9a00cd8292c3f1dd7faa3cdff1322142f9b538a655c554795287637b757b757b7500547a547a527152ae67547a6375777b7cadb2755167777b757b7cadb275516868))#wgl8dmwm",
    "hex": "002057aeea1c3d4f24fa039425a77502f3b6cba69abbc888077f3a33fd6c0481b16e",
    "address": "bcrt1q27hw58pafuj05qu5yknh2qhnkm96dx4mezyqwle6x07kcpypk9hq6jmdqu",
    "type": "witness_v0_scripthash",
    "p2sh-segwit": "2NCWgXQYDS4FTzEBeGL31KEYmcDjZLkZBgP"
  }
}
-------------
Unlock Tx (Provisional Tx) - Script to Address
-------------
bcrt1q27hw58pafuj05qu5yknh2qhnkm96dx4mezyqwle6x07kcpypk9hq6jmdqu
-------------
Creating Unsigned Unlock Tx (Provisional Tx)
-------------
020000000100ef1eb6d4f540f56b67c83121aff9335e6d3b3966f8ba96a9a7cf9fd4e70dfe0000000000fdffffff01c0e4022a0100000022002057aeea1c3d4f24fa039425a77502f3b6cba69abbc888077f3a33fd6c0481b16e00000000
-------------
Checking Unsigned Unlock Tx Created by User
-------------
{
  "txid": "347a89e09185e4b3bc727487cf8abe8886e99634706658adbefa1984cbe21f70",
  "hash": "347a89e09185e4b3bc727487cf8abe8886e99634706658adbefa1984cbe21f70",
  "version": 2,
  "size": 94,
  "vsize": 94,
  "weight": 376,
  "locktime": 0,
  "vin": [
    {
      "txid": "fe0de7d49fcfa7a996baf866393b6d5e33f9af2131c8676bf540f5d4b61eef00",
      "vout": 0,
      "scriptSig": {
        "asm": "",
        "hex": ""
      },
      "sequence": 4294967293
    }
  ],
  "vout": [
    {
      "value": 49.99800000,
      "n": 0,
      "scriptPubKey": {
        "asm": "0 57aeea1c3d4f24fa039425a77502f3b6cba69abbc888077f3a33fd6c0481b16e",
        "desc": "addr(bcrt1q27hw58pafuj05qu5yknh2qhnkm96dx4mezyqwle6x07kcpypk9hq6jmdqu)#42z2d8u7",
        "hex": "002057aeea1c3d4f24fa039425a77502f3b6cba69abbc888077f3a33fd6c0481b16e",
        "address": "bcrt1q27hw58pafuj05qu5yknh2qhnkm96dx4mezyqwle6x07kcpypk9hq6jmdqu",
        "type": "witness_v0_scripthash"
      }
    }
  ]
}
-------------
Simulating the transfer of Unsigned Unlock Tx (Provisional Tx) copy
to Sentinel!
-------------
[U] --> Unsigned Unlock Tx (Provisional Tx) --> [S]
-------------
Sentinel signs the Unsigned Unlock Tx (Provisional Tx)
with his Private Key
-------------
Original Tx:
{
    "ins": [
        {
            "tx_hash": "fe0de7d49fcfa7a996baf866393b6d5e33f9af2131c8676bf540f5d4b61eef00",
            "tx_pos": 0,
            "script": "",
            "sequence": 4294967293,
            "value": 4999900000
        }
    ],
    "outs": [
        {
            "value": 4999800000,
            "script": "002057aeea1c3d4f24fa039425a77502f3b6cba69abbc888077f3a33fd6c0481b16e"
        }
    ],
    "version": 2,
    "locktime": 0
}
Signature:
304402201da6319bfe1d49270cd1de405a26e5780300bfdaf8bd2b6a660c6837641b255e0220396440498c7c41e2f1f6e05ba304560a628de3ee22fe0f380a26f6f98279c6b201
-------------
Unlock Tx (Provisional Tx) - Sentinel's Signature
-------------
304402201da6319bfe1d49270cd1de405a26e5780300bfdaf8bd2b6a660c6837641b255e0220396440498c7c41e2f1f6e05ba304560a628de3ee22fe0f380a26f6f98279c6b201
-------------
Simulating the transfer of Partially Signed Unlock Tx (Provisional Tx)
to User!
-------------
[S] --> Partially Signed Unlock Tx (Provisional Tx) --> [U]
-------------
User signs the Unsigned Unlock Tx (Provisional Tx)
with his Private Key
-------------
Original Tx:
{
    "ins": [
        {
            "tx_hash": "fe0de7d49fcfa7a996baf866393b6d5e33f9af2131c8676bf540f5d4b61eef00",
            "tx_pos": 0,
            "script": "",
            "sequence": 4294967293,
            "value": 4999900000
        }
    ],
    "outs": [
        {
            "value": 4999800000,
            "script": "002057aeea1c3d4f24fa039425a77502f3b6cba69abbc888077f3a33fd6c0481b16e"
        }
    ],
    "version": 2,
    "locktime": 0
}
Signature:
30440220585ef14740e23098cb402027b3a63d7f2c68a0517807ccbc39a8753e75af877a02207176220db0aff31ecd016ee7ad2c3810597ed8fb0b4af72e30c0cee05e67b14c01
-------------
Unlock Tx (Provisional Tx) - User Signature
-------------
30440220585ef14740e23098cb402027b3a63d7f2c68a0517807ccbc39a8753e75af877a02207176220db0aff31ecd016ee7ad2c3810597ed8fb0b4af72e30c0cee05e67b14c01
-------------
Simulating the transfer of Partially Signed Unlock Tx (Provisional Tx) copy
to Sentinel!
-------------
[U] --> Partially Signed Provisional Tx --> [S]
-------------
User signs & broadcasts the Deposit Tx
after receiving the Partially signed Unlock Tx (Provisional Tx)
-------------
fe0de7d49fcfa7a996baf866393b6d5e33f9af2131c8676bf540f5d4b61eef00
Done
-------------
Generating Block to confirm the Deposit Tx
-------------
Deposit Tx Block: 5b2f3131df794f8b91a21c6e2d153b14c8fe42e644d96f1414f1ba8d1268a50c
-------------
Confirmed Deposit Tx
-------------
{
  "in_active_chain": true,
  "txid": "fe0de7d49fcfa7a996baf866393b6d5e33f9af2131c8676bf540f5d4b61eef00",
  "hash": "f143c82da816f67c3b5b6a05876412d8eddf9888e50addfc6dabef7a972de9ef",
  "version": 2,
  "size": 203,
  "vsize": 122,
  "weight": 485,
  "locktime": 0,
  "vin": [
    {
      "txid": "eb0c6dc256bd711cb0f8ebdf726d9e3effa409c2bf446418cdf2316d78c2a914",
      "vout": 0,
      "scriptSig": {
        "asm": "",
        "hex": ""
      },
      "txinwitness": [
        "3044022033f32a762dae013c9513bbb2f32f8a429ce80afda5141fdbf140c27772c13c19022071aa1ba2790b414e4ef03f87d2e23cbfe31f35565db4239db41def063c99183f01",
        "02d121d55a10e25c7b28bc9a00cd8292c3f1dd7faa3cdff1322142f9b538a655c5"
      ],
      "sequence": 4294967293
    }
  ],
  "vout": [
    {
      "value": 49.99900000,
      "n": 0,
      "scriptPubKey": {
        "asm": "0 13f8f848489e20f0ec745b601d708a425cf143a0442fe94398cb0be25695b919",
        "desc": "addr(bcrt1qz0u0sjzgncs0pmr5tdsp6uy2gfw0zsaqgsh7jsucev97y454hyvsj6q3gk)#jrv6nshg",
        "hex": "002013f8f848489e20f0ec745b601d708a425cf143a0442fe94398cb0be25695b919",
        "address": "bcrt1qz0u0sjzgncs0pmr5tdsp6uy2gfw0zsaqgsh7jsucev97y454hyvsj6q3gk",
        "type": "witness_v0_scripthash"
      }
    }
  ],
  "hex": "0200000000010114a9c2786d31f2cd186444bfc209a4ff3e9e6d72dfebf8b01c71bd56c26d0ceb0000000000fdffffff01606b042a0100000022002013f8f848489e20f0ec745b601d708a425cf143a0442fe94398cb0be25695b91902473044022033f32a762dae013c9513bbb2f32f8a429ce80afda5141fdbf140c27772c13c19022071aa1ba2790b414e4ef03f87d2e23cbfe31f35565db4239db41def063c99183f012102d121d55a10e25c7b28bc9a00cd8292c3f1dd7faa3cdff1322142f9b538a655c500000000",
  "blockhash": "5b2f3131df794f8b91a21c6e2d153b14c8fe42e644d96f1414f1ba8d1268a50c",
  "confirmations": 1,
  "time": 1775569759,
  "blocktime": 1775569759
}
[H[2J[3J
-------------
*** Smart Vault Setup Complete! ***
-------------
You are now assured of your
Bitcoin's safety and security
as your Bitcoin is now in Joint Custody and
rest everything is managed using the
Partially Signed Unlock Txs (Provisional Txs) with you
and your Sentinel after the Smart Vault setup is complete!
-------------
Vault Balance: 49.99900000 BTC
-------------
What do you want to do next?
1) Spend with your private-key from the Vault
2) Initiate Recovery as you lost your private-key / Initiate Inheritance Flow
3) Initiate Override and Recovery as you suspect your private-keys are stolen
-----------------
Select an option [1-3] (Default: 1): -------------
Simulating the recovery process by Sentinel
as your private-key is lost!
(Requires only Sentinel's private-key)
-------------
Balance in Recovery Addresss (bcrt1qhchhqnhgwmynqheaf0fvyg7er287tqvk92t3xz): 0 BTC
Press any key to start recovery...
-------------
Sentinel signs the Partially Signed
Unlock Tx (Provisional Tx) received from User
with its Private Key
-------------
Done
-------------
Sentinel's Private Key Generated Signature for Unlock Tx (Provisional Tx):
-------------
304402201da6319bfe1d49270cd1de405a26e5780300bfdaf8bd2b6a660c6837641b255e0220396440498c7c41e2f1f6e05ba304560a628de3ee22fe0f380a26f6f98279c6b201
-------------
Fully Signed Unlock Tx (Provisional Tx):
-------------
Unsigned Tx
{
    "ins": [
        {
            "tx_hash": "fe0de7d49fcfa7a996baf866393b6d5e33f9af2131c8676bf540f5d4b61eef00",
            "tx_pos": 0,
            "script": "",
            "sequence": 4294967293
        }
    ],
    "outs": [
        {
            "value": 4999800000,
            "script": "002057aeea1c3d4f24fa039425a77502f3b6cba69abbc888077f3a33fd6c0481b16e"
        }
    ],
    "version": 2,
    "locktime": 0
}
Signed Tx
{
    "ins": [
        {
            "tx_hash": "fe0de7d49fcfa7a996baf866393b6d5e33f9af2131c8676bf540f5d4b61eef00",
            "tx_pos": 0,
            "script": "",
            "sequence": 4294967293
        }
    ],
    "outs": [
        {
            "value": 4999800000,
            "script": "002057aeea1c3d4f24fa039425a77502f3b6cba69abbc888077f3a33fd6c0481b16e"
        }
    ],
    "version": 2,
    "locktime": 0,
    "witness": [
        {
            "number": 3,
            "scriptCode": "47304402201da6319bfe1d49270cd1de405a26e5780300bfdaf8bd2b6a660c6837641b255e0220396440498c7c41e2f1f6e05ba304560a628de3ee22fe0f380a26f6f98279c6b2014730440220585ef14740e23098cb402027b3a63d7f2c68a0517807ccbc39a8753e75af877a02207176220db0aff31ecd016ee7ad2c3810597ed8fb0b4af72e30c0cee05e67b14c014d210311288c64ede17a799e115db17bf2865341995b067680fd32a6115e202eaf277c2102d121d55a10e25c7b28bc9a00cd8292c3f1dd7faa3cdff1322142f9b538a655c500547a547a527152ae"
        }
    ],
    "marker": 0,
    "flag": 1
}
0200000000010100ef1eb6d4f540f56b67c83121aff9335e6d3b3966f8ba96a9a7cf9fd4e70dfe0000000000fdffffff01c0e4022a0100000022002057aeea1c3d4f24fa039425a77502f3b6cba69abbc888077f3a33fd6c0481b16e0347304402201da6319bfe1d49270cd1de405a26e5780300bfdaf8bd2b6a660c6837641b255e0220396440498c7c41e2f1f6e05ba304560a628de3ee22fe0f380a26f6f98279c6b2014730440220585ef14740e23098cb402027b3a63d7f2c68a0517807ccbc39a8753e75af877a02207176220db0aff31ecd016ee7ad2c3810597ed8fb0b4af72e30c0cee05e67b14c014d210311288c64ede17a799e115db17bf2865341995b067680fd32a6115e202eaf277c2102d121d55a10e25c7b28bc9a00cd8292c3f1dd7faa3cdff1322142f9b538a655c500547a547a527152ae00000000
-------------
Checking Fully Signed Unlock Tx (Provisional Tx) :
-------------
{
  "txid": "347a89e09185e4b3bc727487cf8abe8886e99634706658adbefa1984cbe21f70",
  "hash": "9d020a8407e0857317c27b4d01c479d3cb469d3caea7ef21a864c835983c813a",
  "version": 2,
  "size": 319,
  "vsize": 151,
  "weight": 601,
  "locktime": 0,
  "vin": [
    {
      "txid": "fe0de7d49fcfa7a996baf866393b6d5e33f9af2131c8676bf540f5d4b61eef00",
      "vout": 0,
      "scriptSig": {
        "asm": "",
        "hex": ""
      },
      "txinwitness": [
        "304402201da6319bfe1d49270cd1de405a26e5780300bfdaf8bd2b6a660c6837641b255e0220396440498c7c41e2f1f6e05ba304560a628de3ee22fe0f380a26f6f98279c6b201",
        "30440220585ef14740e23098cb402027b3a63d7f2c68a0517807ccbc39a8753e75af877a02207176220db0aff31ecd016ee7ad2c3810597ed8fb0b4af72e30c0cee05e67b14c01",
        "210311288c64ede17a799e115db17bf2865341995b067680fd32a6115e202eaf277c2102d121d55a10e25c7b28bc9a00cd8292c3f1dd7faa3cdff1322142f9b538a655c500547a547a527152ae"
      ],
      "sequence": 4294967293
    }
  ],
  "vout": [
    {
      "value": 49.99800000,
      "n": 0,
      "scriptPubKey": {
        "asm": "0 57aeea1c3d4f24fa039425a77502f3b6cba69abbc888077f3a33fd6c0481b16e",
        "desc": "addr(bcrt1q27hw58pafuj05qu5yknh2qhnkm96dx4mezyqwle6x07kcpypk9hq6jmdqu)#42z2d8u7",
        "hex": "002057aeea1c3d4f24fa039425a77502f3b6cba69abbc888077f3a33fd6c0481b16e",
        "address": "bcrt1q27hw58pafuj05qu5yknh2qhnkm96dx4mezyqwle6x07kcpypk9hq6jmdqu",
        "type": "witness_v0_scripthash"
      }
    }
  ]
}
-------------
Vaildate Fully Signed Unlock Tx (Provisional Tx)
-------------
[
  {
    "txid": "347a89e09185e4b3bc727487cf8abe8886e99634706658adbefa1984cbe21f70",
    "wtxid": "9d020a8407e0857317c27b4d01c479d3cb469d3caea7ef21a864c835983c813a",
    "allowed": true,
    "vsize": 151,
    "fees": {
      "base": 0.00100000,
      "effective-feerate": 0.00662251,
      "effective-includes": [
        "9d020a8407e0857317c27b4d01c479d3cb469d3caea7ef21a864c835983c813a"
      ]
    }
  }
]
-------------
Broadcast Fully Signed Unlock Tx (Provisional Tx)
-------------
Done
-------------
Generating Block to confirm Unlock Tx (Provisional Tx)
-------------
Done
-------------
Unlock Tx (Provisional Tx) Block:
-------------
7073163f8c99ee594d80bbd4a10ff21ac21ad8f7bcc2c93c25632c314584d654
-------------
Confirmed Unlock Tx (Provisional Tx)
-------------
{
  "in_active_chain": true,
  "txid": "347a89e09185e4b3bc727487cf8abe8886e99634706658adbefa1984cbe21f70",
  "hash": "9d020a8407e0857317c27b4d01c479d3cb469d3caea7ef21a864c835983c813a",
  "version": 2,
  "size": 319,
  "vsize": 151,
  "weight": 601,
  "locktime": 0,
  "vin": [
    {
      "txid": "fe0de7d49fcfa7a996baf866393b6d5e33f9af2131c8676bf540f5d4b61eef00",
      "vout": 0,
      "scriptSig": {
        "asm": "",
        "hex": ""
      },
      "txinwitness": [
        "304402201da6319bfe1d49270cd1de405a26e5780300bfdaf8bd2b6a660c6837641b255e0220396440498c7c41e2f1f6e05ba304560a628de3ee22fe0f380a26f6f98279c6b201",
        "30440220585ef14740e23098cb402027b3a63d7f2c68a0517807ccbc39a8753e75af877a02207176220db0aff31ecd016ee7ad2c3810597ed8fb0b4af72e30c0cee05e67b14c01",
        "210311288c64ede17a799e115db17bf2865341995b067680fd32a6115e202eaf277c2102d121d55a10e25c7b28bc9a00cd8292c3f1dd7faa3cdff1322142f9b538a655c500547a547a527152ae"
      ],
      "sequence": 4294967293
    }
  ],
  "vout": [
    {
      "value": 49.99800000,
      "n": 0,
      "scriptPubKey": {
        "asm": "0 57aeea1c3d4f24fa039425a77502f3b6cba69abbc888077f3a33fd6c0481b16e",
        "desc": "addr(bcrt1q27hw58pafuj05qu5yknh2qhnkm96dx4mezyqwle6x07kcpypk9hq6jmdqu)#42z2d8u7",
        "hex": "002057aeea1c3d4f24fa039425a77502f3b6cba69abbc888077f3a33fd6c0481b16e",
        "address": "bcrt1q27hw58pafuj05qu5yknh2qhnkm96dx4mezyqwle6x07kcpypk9hq6jmdqu",
        "type": "witness_v0_scripthash"
      }
    }
  ],
  "hex": "0200000000010100ef1eb6d4f540f56b67c83121aff9335e6d3b3966f8ba96a9a7cf9fd4e70dfe0000000000fdffffff01c0e4022a0100000022002057aeea1c3d4f24fa039425a77502f3b6cba69abbc888077f3a33fd6c0481b16e0347304402201da6319bfe1d49270cd1de405a26e5780300bfdaf8bd2b6a660c6837641b255e0220396440498c7c41e2f1f6e05ba304560a628de3ee22fe0f380a26f6f98279c6b2014730440220585ef14740e23098cb402027b3a63d7f2c68a0517807ccbc39a8753e75af877a02207176220db0aff31ecd016ee7ad2c3810597ed8fb0b4af72e30c0cee05e67b14c014d210311288c64ede17a799e115db17bf2865341995b067680fd32a6115e202eaf277c2102d121d55a10e25c7b28bc9a00cd8292c3f1dd7faa3cdff1322142f9b538a655c500547a547a527152ae00000000",
  "blockhash": "7073163f8c99ee594d80bbd4a10ff21ac21ad8f7bcc2c93c25632c314584d654",
  "confirmations": 1,
  "time": 1775569759,
  "blocktime": 1775569759
}
-------------
Everyone including you can monitor the Vault and see the Unlock Tx on-chain
and you can initiate recovery using Option 1 (spend with your private-key)
if this Recovery was not requested by you and you suspect foul pay.
-------------
Press any key to continue with recovery...
-------------
Simulating Recovery by Sentinel using
*** Option 2 *** of Unlock Tx (Provisional Tx)
(Using just Sentinel's Private Key)
-------------
Recovery Process - Start
-------------
Sentinel creates the Recovery Tx
-------------
Done
-------------
Unsigned Recovery Tx
-------------
0200000001701fe2cb8419fabead5866703496e98688be8acf877472bcb3e48591e0897a3400000000008813000001205e012a01000000160014be2f704ee876c9305f3d4bd2c223d91a8fe5819600000000
-------------
Checking Unsigned Recovery Tx
-------------
{
  "txid": "81d1793df4a3c3b09c6990be494b817b434e1e58ff39df69d6318ef5c2d83682",
  "hash": "81d1793df4a3c3b09c6990be494b817b434e1e58ff39df69d6318ef5c2d83682",
  "version": 2,
  "size": 82,
  "vsize": 82,
  "weight": 328,
  "locktime": 0,
  "vin": [
    {
      "txid": "347a89e09185e4b3bc727487cf8abe8886e99634706658adbefa1984cbe21f70",
      "vout": 0,
      "scriptSig": {
        "asm": "",
        "hex": ""
      },
      "sequence": 5000
    }
  ],
  "vout": [
    {
      "value": 49.99700000,
      "n": 0,
      "scriptPubKey": {
        "asm": "0 be2f704ee876c9305f3d4bd2c223d91a8fe58196",
        "desc": "addr(bcrt1qhchhqnhgwmynqheaf0fvyg7er287tqvk92t3xz)#5lx2786w",
        "hex": "0014be2f704ee876c9305f3d4bd2c223d91a8fe58196",
        "address": "bcrt1qhchhqnhgwmynqheaf0fvyg7er287tqvk92t3xz",
        "type": "witness_v0_keyhash"
      }
    }
  ]
}
-------------
Sentinel Signs the Recovery Tx
-------------
Original Tx:
{
    "ins": [
        {
            "tx_hash": "347a89e09185e4b3bc727487cf8abe8886e99634706658adbefa1984cbe21f70",
            "tx_pos": 0,
            "script": "",
            "sequence": 5000,
            "value": 4999800000
        }
    ],
    "outs": [
        {
            "value": 4999700000,
            "script": "0014be2f704ee876c9305f3d4bd2c223d91a8fe58196"
        }
    ],
    "version": 2,
    "locktime": 0
}
Signature:
304402207e530f11fb171e9936ae2197e34056e065cfe03c94afc33f3aea7ff20b7720d702207192f733ad98f3e34833f8179cf8d554c6b93ed23c488179515368c6f410222701
-------------
Recovery Tx - Sentinel's Signature
-------------
304402207e530f11fb171e9936ae2197e34056e065cfe03c94afc33f3aea7ff20b7720d702207192f733ad98f3e34833f8179cf8d554c6b93ed23c488179515368c6f410222701
-------------
Fully Signed Recovery Tx:
-------------
Unsigned Tx
{
    "ins": [
        {
            "tx_hash": "347a89e09185e4b3bc727487cf8abe8886e99634706658adbefa1984cbe21f70",
            "tx_pos": 0,
            "script": "",
            "sequence": 5000
        }
    ],
    "outs": [
        {
            "value": 4999700000,
            "script": "0014be2f704ee876c9305f3d4bd2c223d91a8fe58196"
        }
    ],
    "version": 2,
    "locktime": 0
}
Signed Tx
{
    "ins": [
        {
            "tx_hash": "347a89e09185e4b3bc727487cf8abe8886e99634706658adbefa1984cbe21f70",
            "tx_pos": 0,
            "script": "",
            "sequence": 5000
        }
    ],
    "outs": [
        {
            "value": 4999700000,
            "script": "0014be2f704ee876c9305f3d4bd2c223d91a8fe58196"
        }
    ],
    "version": 2,
    "locktime": 0,
    "witness": [
        {
            "number": 3,
            "scriptCode": "47304402207e530f11fb171e9936ae2197e34056e065cfe03c94afc33f3aea7ff20b7720d702207192f733ad98f3e34833f8179cf8d554c6b93ed23c488179515368c6f41022270101017602881302e803210311288c64ede17a799e115db17bf2865341995b067680fd32a6115e202eaf277c2102d121d55a10e25c7b28bc9a00cd8292c3f1dd7faa3cdff1322142f9b538a655c554795287637b757b757b7500547a547a527152ae67547a6375777b7cadb2755167777b757b7cadb275516868"
        }
    ],
    "marker": 0,
    "flag": 1
}
02000000000101701fe2cb8419fabead5866703496e98688be8acf877472bcb3e48591e0897a3400000000008813000001205e012a01000000160014be2f704ee876c9305f3d4bd2c223d91a8fe581960347304402207e530f11fb171e9936ae2197e34056e065cfe03c94afc33f3aea7ff20b7720d702207192f733ad98f3e34833f8179cf8d554c6b93ed23c488179515368c6f41022270101017602881302e803210311288c64ede17a799e115db17bf2865341995b067680fd32a6115e202eaf277c2102d121d55a10e25c7b28bc9a00cd8292c3f1dd7faa3cdff1322142f9b538a655c554795287637b757b757b7500547a547a527152ae67547a6375777b7cadb2755167777b757b7cadb27551686800000000
-------------
Checking Fully Signed Recovery Tx:
-------------
{
  "txid": "81d1793df4a3c3b09c6990be494b817b434e1e58ff39df69d6318ef5c2d83682",
  "hash": "442d626282a57ac82b8bb432f07d2b77f3107e178fe7db22693f486f10b04dc3",
  "version": 2,
  "size": 278,
  "vsize": 131,
  "weight": 524,
  "locktime": 0,
  "vin": [
    {
      "txid": "347a89e09185e4b3bc727487cf8abe8886e99634706658adbefa1984cbe21f70",
      "vout": 0,
      "scriptSig": {
        "asm": "",
        "hex": ""
      },
      "txinwitness": [
        "304402207e530f11fb171e9936ae2197e34056e065cfe03c94afc33f3aea7ff20b7720d702207192f733ad98f3e34833f8179cf8d554c6b93ed23c488179515368c6f410222701",
        "01",
        "02881302e803210311288c64ede17a799e115db17bf2865341995b067680fd32a6115e202eaf277c2102d121d55a10e25c7b28bc9a00cd8292c3f1dd7faa3cdff1322142f9b538a655c554795287637b757b757b7500547a547a527152ae67547a6375777b7cadb2755167777b757b7cadb275516868"
      ],
      "sequence": 5000
    }
  ],
  "vout": [
    {
      "value": 49.99700000,
      "n": 0,
      "scriptPubKey": {
        "asm": "0 be2f704ee876c9305f3d4bd2c223d91a8fe58196",
        "desc": "addr(bcrt1qhchhqnhgwmynqheaf0fvyg7er287tqvk92t3xz)#5lx2786w",
        "hex": "0014be2f704ee876c9305f3d4bd2c223d91a8fe58196",
        "address": "bcrt1qhchhqnhgwmynqheaf0fvyg7er287tqvk92t3xz",
        "type": "witness_v0_keyhash"
      }
    }
  ]
}
-------------
Creating Blocks to satisfy Timelocks
-------------
5000 Blocks Created!
-------------
Vaildating Recovery Tx
-------------
[
  {
    "txid": "81d1793df4a3c3b09c6990be494b817b434e1e58ff39df69d6318ef5c2d83682",
    "wtxid": "442d626282a57ac82b8bb432f07d2b77f3107e178fe7db22693f486f10b04dc3",
    "allowed": true,
    "vsize": 131,
    "fees": {
      "base": 0.00100000,
      "effective-feerate": 0.00763358,
      "effective-includes": [
        "442d626282a57ac82b8bb432f07d2b77f3107e178fe7db22693f486f10b04dc3"
      ]
    }
  }
]
-------------
Broadcasting Recovery Tx
-------------
Done
-------------
Generating Block to confirm Recovery Tx
-------------
Done
-------------
Recovery Tx Block ID:
-------------
2421abd0dd5bb6c58b518ec1a615842ebdda12f452ca828a02a327c43dde8fc2
-------------
Confirmed Recovery Tx
-------------
{
  "in_active_chain": true,
  "txid": "81d1793df4a3c3b09c6990be494b817b434e1e58ff39df69d6318ef5c2d83682",
  "hash": "442d626282a57ac82b8bb432f07d2b77f3107e178fe7db22693f486f10b04dc3",
  "version": 2,
  "size": 278,
  "vsize": 131,
  "weight": 524,
  "locktime": 0,
  "vin": [
    {
      "txid": "347a89e09185e4b3bc727487cf8abe8886e99634706658adbefa1984cbe21f70",
      "vout": 0,
      "scriptSig": {
        "asm": "",
        "hex": ""
      },
      "txinwitness": [
        "304402207e530f11fb171e9936ae2197e34056e065cfe03c94afc33f3aea7ff20b7720d702207192f733ad98f3e34833f8179cf8d554c6b93ed23c488179515368c6f410222701",
        "01",
        "02881302e803210311288c64ede17a799e115db17bf2865341995b067680fd32a6115e202eaf277c2102d121d55a10e25c7b28bc9a00cd8292c3f1dd7faa3cdff1322142f9b538a655c554795287637b757b757b7500547a547a527152ae67547a6375777b7cadb2755167777b757b7cadb275516868"
      ],
      "sequence": 5000
    }
  ],
  "vout": [
    {
      "value": 49.99700000,
      "n": 0,
      "scriptPubKey": {
        "asm": "0 be2f704ee876c9305f3d4bd2c223d91a8fe58196",
        "desc": "addr(bcrt1qhchhqnhgwmynqheaf0fvyg7er287tqvk92t3xz)#5lx2786w",
        "hex": "0014be2f704ee876c9305f3d4bd2c223d91a8fe58196",
        "address": "bcrt1qhchhqnhgwmynqheaf0fvyg7er287tqvk92t3xz",
        "type": "witness_v0_keyhash"
      }
    }
  ],
  "hex": "02000000000101701fe2cb8419fabead5866703496e98688be8acf877472bcb3e48591e0897a3400000000008813000001205e012a01000000160014be2f704ee876c9305f3d4bd2c223d91a8fe581960347304402207e530f11fb171e9936ae2197e34056e065cfe03c94afc33f3aea7ff20b7720d702207192f733ad98f3e34833f8179cf8d554c6b93ed23c488179515368c6f41022270101017602881302e803210311288c64ede17a799e115db17bf2865341995b067680fd32a6115e202eaf277c2102d121d55a10e25c7b28bc9a00cd8292c3f1dd7faa3cdff1322142f9b538a655c554795287637b757b757b7500547a547a527152ae67547a6375777b7cadb2755167777b757b7cadb27551686800000000",
  "blockhash": "2421abd0dd5bb6c58b518ec1a615842ebdda12f452ca828a02a327c43dde8fc2",
  "confirmations": 1,
  "time": 1775570593,
  "blocktime": 1775570593
}
-------------
***Recovery Complete!***
-------------
Balance in Recovery Addresss (bcrt1qhchhqnhgwmynqheaf0fvyg7er287tqvk92t3xz): 49.99700000 BTC
-------------
Stopping Bitcoind
-------------
Bitcoin Core stopping
-----------------
Check the source code and log here logs/SmartVault.Demo.sh.log for step wise details!
-----------------
